{
  "_format": "hh-sol-artifact-1",
  "contractName": "KIP17Enumerable",
  "sourceName": "contracts/libraries/KIP17Enumerable.sol",
  "abi": [
    {
      "anonymous": false,
      "inputs": [
        {
          "indexed": true,
          "internalType": "address",
          "name": "owner",
          "type": "address"
        },
        {
          "indexed": true,
          "internalType": "address",
          "name": "approved",
          "type": "address"
        },
        {
          "indexed": true,
          "internalType": "uint256",
          "name": "tokenId",
          "type": "uint256"
        }
      ],
      "name": "Approval",
      "type": "event"
    },
    {
      "anonymous": false,
      "inputs": [
        {
          "indexed": true,
          "internalType": "address",
          "name": "owner",
          "type": "address"
        },
        {
          "indexed": true,
          "internalType": "address",
          "name": "operator",
          "type": "address"
        },
        {
          "indexed": false,
          "internalType": "bool",
          "name": "approved",
          "type": "bool"
        }
      ],
      "name": "ApprovalForAll",
      "type": "event"
    },
    {
      "anonymous": false,
      "inputs": [
        {
          "indexed": true,
          "internalType": "address",
          "name": "from",
          "type": "address"
        },
        {
          "indexed": true,
          "internalType": "address",
          "name": "to",
          "type": "address"
        },
        {
          "indexed": true,
          "internalType": "uint256",
          "name": "tokenId",
          "type": "uint256"
        }
      ],
      "name": "Transfer",
      "type": "event"
    },
    {
      "constant": false,
      "inputs": [
        {
          "internalType": "address",
          "name": "to",
          "type": "address"
        },
        {
          "internalType": "uint256",
          "name": "tokenId",
          "type": "uint256"
        }
      ],
      "name": "approve",
      "outputs": [],
      "payable": false,
      "stateMutability": "nonpayable",
      "type": "function"
    },
    {
      "constant": true,
      "inputs": [
        {
          "internalType": "address",
          "name": "owner",
          "type": "address"
        }
      ],
      "name": "balanceOf",
      "outputs": [
        {
          "internalType": "uint256",
          "name": "",
          "type": "uint256"
        }
      ],
      "payable": false,
      "stateMutability": "view",
      "type": "function"
    },
    {
      "constant": true,
      "inputs": [
        {
          "internalType": "uint256",
          "name": "tokenId",
          "type": "uint256"
        }
      ],
      "name": "getApproved",
      "outputs": [
        {
          "internalType": "address",
          "name": "",
          "type": "address"
        }
      ],
      "payable": false,
      "stateMutability": "view",
      "type": "function"
    },
    {
      "constant": true,
      "inputs": [
        {
          "internalType": "address",
          "name": "owner",
          "type": "address"
        },
        {
          "internalType": "address",
          "name": "operator",
          "type": "address"
        }
      ],
      "name": "isApprovedForAll",
      "outputs": [
        {
          "internalType": "bool",
          "name": "",
          "type": "bool"
        }
      ],
      "payable": false,
      "stateMutability": "view",
      "type": "function"
    },
    {
      "constant": true,
      "inputs": [
        {
          "internalType": "uint256",
          "name": "tokenId",
          "type": "uint256"
        }
      ],
      "name": "ownerOf",
      "outputs": [
        {
          "internalType": "address",
          "name": "",
          "type": "address"
        }
      ],
      "payable": false,
      "stateMutability": "view",
      "type": "function"
    },
    {
      "constant": false,
      "inputs": [
        {
          "internalType": "address",
          "name": "from",
          "type": "address"
        },
        {
          "internalType": "address",
          "name": "to",
          "type": "address"
        },
        {
          "internalType": "uint256",
          "name": "tokenId",
          "type": "uint256"
        }
      ],
      "name": "safeTransferFrom",
      "outputs": [],
      "payable": false,
      "stateMutability": "nonpayable",
      "type": "function"
    },
    {
      "constant": false,
      "inputs": [
        {
          "internalType": "address",
          "name": "from",
          "type": "address"
        },
        {
          "internalType": "address",
          "name": "to",
          "type": "address"
        },
        {
          "internalType": "uint256",
          "name": "tokenId",
          "type": "uint256"
        },
        {
          "internalType": "bytes",
          "name": "_data",
          "type": "bytes"
        }
      ],
      "name": "safeTransferFrom",
      "outputs": [],
      "payable": false,
      "stateMutability": "nonpayable",
      "type": "function"
    },
    {
      "constant": false,
      "inputs": [
        {
          "internalType": "address",
          "name": "to",
          "type": "address"
        },
        {
          "internalType": "bool",
          "name": "approved",
          "type": "bool"
        }
      ],
      "name": "setApprovalForAll",
      "outputs": [],
      "payable": false,
      "stateMutability": "nonpayable",
      "type": "function"
    },
    {
      "constant": true,
      "inputs": [
        {
          "internalType": "bytes4",
          "name": "interfaceId",
          "type": "bytes4"
        }
      ],
      "name": "supportsInterface",
      "outputs": [
        {
          "internalType": "bool",
          "name": "",
          "type": "bool"
        }
      ],
      "payable": false,
      "stateMutability": "view",
      "type": "function"
    },
    {
      "constant": true,
      "inputs": [
        {
          "internalType": "address",
          "name": "owner",
          "type": "address"
        },
        {
          "internalType": "uint256",
          "name": "index",
          "type": "uint256"
        }
      ],
      "name": "tokenOfOwnerByIndex",
      "outputs": [
        {
          "internalType": "uint256",
          "name": "",
          "type": "uint256"
        }
      ],
      "payable": false,
      "stateMutability": "view",
      "type": "function"
    },
    {
      "constant": true,
      "inputs": [],
      "name": "totalSupply",
      "outputs": [
        {
          "internalType": "uint256",
          "name": "",
          "type": "uint256"
        }
      ],
      "payable": false,
      "stateMutability": "view",
      "type": "function"
    },
    {
      "constant": false,
      "inputs": [
        {
          "internalType": "address",
          "name": "from",
          "type": "address"
        },
        {
          "internalType": "address",
          "name": "to",
          "type": "address"
        },
        {
          "internalType": "uint256",
          "name": "tokenId",
          "type": "uint256"
        }
      ],
      "name": "transferFrom",
      "outputs": [],
      "payable": false,
      "stateMutability": "nonpayable",
      "type": "function"
    }
  ],
  "bytecode": "0x608060405261001d6301ffc9a760e01b6001600160e01b0361003b16565b6100366380ac58cd60e01b6001600160e01b0361003b16565b6100bf565b6001600160e01b0319808216141561009a576040805162461bcd60e51b815260206004820152601b60248201527f4b495031333a20696e76616c696420696e746572666163652069640000000000604482015290519081900360640190fd5b6001600160e01b0319166000908152602081905260409020805460ff19166001179055565b6112c4806100ce6000396000f3fe608060405234801561001057600080fd5b50600436106100b45760003560e01c806342842e0e1161007157806342842e0e146101d75780636352211e1461020d57806370a082311461022a578063a22cb46514610250578063b88d4fde1461027e578063e985e9c514610344576100b4565b806301ffc9a7146100b9578063081812fc146100f4578063095ea7b31461012d57806318160ddd1461015b57806323b872dd146101755780632f745c59146101ab575b600080fd5b6100e0600480360360208110156100cf57600080fd5b50356001600160e01b031916610372565b604080519115158252519081900360200190f35b6101116004803603602081101561010a57600080fd5b5035610391565b604080516001600160a01b039092168252519081900360200190f35b6101596004803603604081101561014357600080fd5b506001600160a01b0381351690602001356103f3565b005b61016361051a565b60408051918252519081900360200190f35b6101596004803603606081101561018b57600080fd5b506001600160a01b03813581169160208101359091169060400135610521565b610163600480360360408110156101c157600080fd5b506001600160a01b038135169060200135610576565b610159600480360360608110156101ed57600080fd5b506001600160a01b038135811691602081013590911690604001356105f5565b6101116004803603602081101561022357600080fd5b5035610610565b6101636004803603602081101561024057600080fd5b50356001600160a01b031661066a565b6101596004803603604081101561026657600080fd5b506001600160a01b03813516906020013515156106d2565b6101596004803603608081101561029457600080fd5b6001600160a01b038235811692602081013590911691604082013591908101906080810160608201356401000000008111156102cf57600080fd5b8201836020820111156102e157600080fd5b8035906020019184600183028401116401000000008311171561030357600080fd5b91908080601f01602080910402602001604051908101604052809392919081815260200183838082843760009201919091525092955061079e945050505050565b6100e06004803603604081101561035a57600080fd5b506001600160a01b03813581169160200135166107f6565b6001600160e01b03191660009081526020819052604090205460ff1690565b600061039c82610824565b6103d75760405162461bcd60e51b815260040180806020018281038252602b815260200180611203602b913960400191505060405180910390fd5b506000908152600260205260409020546001600160a01b031690565b60006103fe82610610565b9050806001600160a01b0316836001600160a01b03161415610467576040805162461bcd60e51b815260206004820181905260248201527f4b495031373a20617070726f76616c20746f2063757272656e74206f776e6572604482015290519081900360640190fd5b336001600160a01b0382161480610483575061048381336107f6565b6104be5760405162461bcd60e51b815260040180806020018281038252603781526020018061122e6037913960400191505060405180910390fd5b60008281526002602052604080822080546001600160a01b0319166001600160a01b0387811691821790925591518593918516917f8c5be1e5ebec7d5bd14f71427d1e84f3dd0314c0f7b2291e5b200ac8c7c3b92591a4505050565b6007545b90565b61052b3382610841565b6105665760405162461bcd60e51b81526004018080602001828103825260308152602001806111526030913960400191505060405180910390fd5b6105718383836108e5565b505050565b60006105818361066a565b82106105be5760405162461bcd60e51b815260040180806020018281038252602a815260200180611100602a913960400191505060405180910390fd5b6001600160a01b03831660009081526005602052604090208054839081106105e257fe5b9060005260206000200154905092915050565b6105718383836040518060200160405280600081525061079e565b6000818152600160205260408120546001600160a01b0316806106645760405162461bcd60e51b815260040180806020018281038252602881526020018061112a6028913960400191505060405180910390fd5b92915050565b60006001600160a01b0382166106b15760405162461bcd60e51b81526004018080602001828103825260298152602001806111b26029913960400191505060405180910390fd5b6001600160a01b038216600090815260036020526040902061066490610904565b6001600160a01b038216331415610730576040805162461bcd60e51b815260206004820152601860248201527f4b495031373a20617070726f766520746f2063616c6c65720000000000000000604482015290519081900360640190fd5b3360008181526004602090815260408083206001600160a01b03871680855290835292819020805460ff1916861515908117909155815190815290519293927f17307eab39ab6107e8899845ad3d59bd9653f200f220920489ca2b5937696c31929181900390910190a35050565b6107a9848484610521565b6107b584848484610908565b6107f05760405162461bcd60e51b81526004018080602001828103825260308152602001806111826030913960400191505060405180910390fd5b50505050565b6001600160a01b03918216600090815260046020908152604080832093909416825291909152205460ff1690565b6000908152600160205260409020546001600160a01b0316151590565b600061084c82610824565b6108875760405162461bcd60e51b815260040180806020018281038252602b815260200180611265602b913960400191505060405180910390fd5b600061089283610610565b9050806001600160a01b0316846001600160a01b031614806108cd5750836001600160a01b03166108c284610391565b6001600160a01b0316145b806108dd57506108dd81856107f6565b949350505050565b6108f0838383610ce5565b6108fa8382610e29565b6105718282610f1e565b5490565b600080606061091f866001600160a01b0316610f5c565b61092e576001925050506108dd565b856001600160a01b031663150b7a0260e01b3389888860405160240180856001600160a01b03166001600160a01b03168152602001846001600160a01b03166001600160a01b0316815260200183815260200180602001828103825283818151815260200191508051906020019080838360005b838110156109ba5781810151838201526020016109a2565b50505050905090810190601f1680156109e75780820380516001836020036101000a031916815260200191505b5060408051601f198184030181529181526020820180516001600160e01b03166001600160e01b0319909a16999099178952518151919890975087965094509250829150849050835b60208310610a4f5780518252601f199092019160209182019101610a30565b6001836020036101000a0380198251168184511680821785525050505050509050019150506000604051808303816000865af19150503d8060008114610ab1576040519150601f19603f3d011682016040523d82523d6000602084013e610ab6565b606091505b508051919350915015801590610af357508051630a85bd0160e11b9060208084019190811015610ae557600080fd5b50516001600160e01b031916145b15610b03576001925050506108dd565b856001600160a01b0316636745782b60e01b3389888860405160240180856001600160a01b03166001600160a01b03168152602001846001600160a01b03166001600160a01b0316815260200183815260200180602001828103825283818151815260200191508051906020019080838360005b83811015610b8f578181015183820152602001610b77565b50505050905090810190601f168015610bbc5780820380516001836020036101000a031916815260200191505b5060408051601f198184030181529181526020820180516001600160e01b03166001600160e01b0319909a16999099178952518151919890975087965094509250829150849050835b60208310610c245780518252601f199092019160209182019101610c05565b6001836020036101000a0380198251168184511680821785525050505050509050019150506000604051808303816000865af19150503d8060008114610c86576040519150601f19603f3d011682016040523d82523d6000602084013e610c8b565b606091505b508051919350915015801590610cc857508051636745782b60e01b9060208084019190811015610cba57600080fd5b50516001600160e01b031916145b15610cd8576001925050506108dd565b5060009695505050505050565b826001600160a01b0316610cf882610610565b6001600160a01b031614610d3d5760405162461bcd60e51b81526004018080602001828103825260288152602001806111db6028913960400191505060405180910390fd5b6001600160a01b038216610d825760405162461bcd60e51b81526004018080602001828103825260238152602001806110dd6023913960400191505060405180910390fd5b610d8b81610f62565b6001600160a01b0383166000908152600360205260409020610dac90610f9f565b6001600160a01b0382166000908152600360205260409020610dcd90610fb6565b60008181526001602052604080822080546001600160a01b0319166001600160a01b0386811691821790925591518493918716917fddf252ad1be2c89b69c2b068fc378daa952ba7f163c4a11628f55a4df523b3ef91a4505050565b6001600160a01b038216600090815260056020526040812054610e5390600163ffffffff610fbf16565b600083815260066020526040902054909150808214610eee576001600160a01b0384166000908152600560205260408120805484908110610e9057fe5b906000526020600020015490508060056000876001600160a01b03166001600160a01b031681526020019081526020016000208381548110610ece57fe5b600091825260208083209091019290925591825260069052604090208190555b6001600160a01b0384166000908152600560205260409020805490610f1790600019830161109f565b5050505050565b6001600160a01b0390911660009081526005602081815260408084208054868652600684529185208290559282526001810183559183529091200155565b3b151590565b6000818152600260205260409020546001600160a01b031615610f9c57600081815260026020526040902080546001600160a01b03191690555b50565b8054610fb290600163ffffffff610fbf16565b9055565b80546001019055565b600061100183836040518060400160405280601e81526020017f536166654d6174683a207375627472616374696f6e206f766572666c6f770000815250611008565b9392505050565b600081848411156110975760405162461bcd60e51b81526004018080602001828103825283818151815260200191508051906020019080838360005b8381101561105c578181015183820152602001611044565b50505050905090810190601f1680156110895780820380516001836020036101000a031916815260200191505b509250505060405180910390fd5b505050900390565b8154818355818111156105715760008381526020902061057191810190830161051e91905b808211156110d857600081556001016110c4565b509056fe4b495031373a207472616e7366657220746f20746865207a65726f20616464726573734b49503137456e756d657261626c653a206f776e657220696e646578206f7574206f6620626f756e64734b495031373a206f776e657220717565727920666f72206e6f6e6578697374656e7420746f6b656e4b495031373a207472616e736665722063616c6c6572206973206e6f74206f776e6572206e6f7220617070726f7665644b495031373a207472616e7366657220746f206e6f6e204b49503137526563656976657220696d706c656d656e7465724b495031373a2062616c616e636520717565727920666f7220746865207a65726f20616464726573734b495031373a207472616e73666572206f6620746f6b656e2074686174206973206e6f74206f776e4b495031373a20617070726f76656420717565727920666f72206e6f6e6578697374656e7420746f6b656e4b495031373a20617070726f76652063616c6c6572206973206e6f74206f776e6572206e6f7220617070726f76656420666f7220616c6c4b495031373a206f70657261746f7220717565727920666f72206e6f6e6578697374656e7420746f6b656ea265627a7a7231582020ab7e814181668c6055c591bc128c0fe4f0efb2e62ba512af3d5a32106cf2f364736f6c63430005110032",
  "linkReferences": {},
  "deployedLinkReferences": {}
}