{
  "_format": "hh-sol-artifact-1",
  "contractName": "StableDAORewardDistributor",
  "sourceName": "contracts/StableDAORewardDistributor.sol",
  "abi": [
    {
      "inputs": [],
      "stateMutability": "nonpayable",
      "type": "constructor"
    },
    {
      "anonymous": false,
      "inputs": [
        {
          "indexed": true,
          "internalType": "address",
          "name": "user",
          "type": "address"
        },
        {
          "indexed": false,
          "internalType": "uint256",
          "name": "amount",
          "type": "uint256"
        }
      ],
      "name": "Claim",
      "type": "event"
    },
    {
      "anonymous": false,
      "inputs": [
        {
          "indexed": true,
          "internalType": "address",
          "name": "user",
          "type": "address"
        },
        {
          "indexed": false,
          "internalType": "uint256",
          "name": "amount",
          "type": "uint256"
        }
      ],
      "name": "DisclaimReward",
      "type": "event"
    },
    {
      "anonymous": false,
      "inputs": [
        {
          "indexed": false,
          "internalType": "address",
          "name": "token",
          "type": "address"
        },
        {
          "indexed": false,
          "internalType": "uint256",
          "name": "amount",
          "type": "uint256"
        }
      ],
      "name": "Distribute",
      "type": "event"
    },
    {
      "anonymous": false,
      "inputs": [
        {
          "indexed": true,
          "internalType": "address",
          "name": "previousOwner",
          "type": "address"
        },
        {
          "indexed": true,
          "internalType": "address",
          "name": "newOwner",
          "type": "address"
        }
      ],
      "name": "OwnershipTransferred",
      "type": "event"
    },
    {
      "anonymous": false,
      "inputs": [
        {
          "indexed": false,
          "internalType": "uint256",
          "name": "newInterval",
          "type": "uint256"
        }
      ],
      "name": "UpdateClaimInterval",
      "type": "event"
    },
    {
      "anonymous": false,
      "inputs": [
        {
          "indexed": false,
          "internalType": "address",
          "name": "newDevFund",
          "type": "address"
        }
      ],
      "name": "UpdateDevFund",
      "type": "event"
    },
    {
      "anonymous": false,
      "inputs": [
        {
          "indexed": true,
          "internalType": "address",
          "name": "user",
          "type": "address"
        },
        {
          "indexed": false,
          "internalType": "uint256",
          "name": "amount",
          "type": "uint256"
        }
      ],
      "name": "UpdateUnclaimed",
      "type": "event"
    },
    {
      "stateMutability": "payable",
      "type": "fallback"
    },
    {
      "inputs": [],
      "name": "KLAY",
      "outputs": [
        {
          "internalType": "address",
          "name": "",
          "type": "address"
        }
      ],
      "stateMutability": "view",
      "type": "function"
    },
    {
      "inputs": [
        {
          "internalType": "uint256[]",
          "name": "rewardIds",
          "type": "uint256[]"
        },
        {
          "internalType": "uint256[]",
          "name": "amounts",
          "type": "uint256[]"
        },
        {
          "internalType": "bytes32[][]",
          "name": "proof",
          "type": "bytes32[][]"
        }
      ],
      "name": "claimRewards",
      "outputs": [],
      "stateMutability": "nonpayable",
      "type": "function"
    },
    {
      "inputs": [
        {
          "internalType": "address[]",
          "name": "users",
          "type": "address[]"
        },
        {
          "internalType": "uint256[]",
          "name": "rewardIds",
          "type": "uint256[]"
        },
        {
          "internalType": "uint256[]",
          "name": "amounts",
          "type": "uint256[]"
        },
        {
          "internalType": "bytes32[][]",
          "name": "proof",
          "type": "bytes32[][]"
        }
      ],
      "name": "claimRewardsByOwner",
      "outputs": [],
      "stateMutability": "nonpayable",
      "type": "function"
    },
    {
      "inputs": [
        {
          "internalType": "address",
          "name": "token",
          "type": "address"
        },
        {
          "internalType": "uint256",
          "name": "amount",
          "type": "uint256"
        },
        {
          "internalType": "bytes32",
          "name": "merkleRoot",
          "type": "bytes32"
        }
      ],
      "name": "depositReward",
      "outputs": [
        {
          "internalType": "uint256",
          "name": "rewardId",
          "type": "uint256"
        }
      ],
      "stateMutability": "payable",
      "type": "function"
    },
    {
      "inputs": [
        {
          "internalType": "address",
          "name": "token",
          "type": "address"
        }
      ],
      "name": "emergencyWithdraw",
      "outputs": [],
      "stateMutability": "nonpayable",
      "type": "function"
    },
    {
      "inputs": [
        {
          "internalType": "address",
          "name": "",
          "type": "address"
        }
      ],
      "name": "isDepositor",
      "outputs": [
        {
          "internalType": "bool",
          "name": "",
          "type": "bool"
        }
      ],
      "stateMutability": "view",
      "type": "function"
    },
    {
      "inputs": [
        {
          "internalType": "address",
          "name": "user",
          "type": "address"
        },
        {
          "internalType": "uint256",
          "name": "rewardId",
          "type": "uint256"
        }
      ],
      "name": "isRewardCollected",
      "outputs": [
        {
          "internalType": "bool",
          "name": "",
          "type": "bool"
        }
      ],
      "stateMutability": "view",
      "type": "function"
    },
    {
      "inputs": [],
      "name": "owner",
      "outputs": [
        {
          "internalType": "address",
          "name": "",
          "type": "address"
        }
      ],
      "stateMutability": "view",
      "type": "function"
    },
    {
      "inputs": [],
      "name": "renounceOwnership",
      "outputs": [],
      "stateMutability": "nonpayable",
      "type": "function"
    },
    {
      "inputs": [
        {
          "internalType": "uint256",
          "name": "",
          "type": "uint256"
        }
      ],
      "name": "rewards",
      "outputs": [
        {
          "internalType": "address",
          "name": "token",
          "type": "address"
        },
        {
          "internalType": "uint256",
          "name": "amount",
          "type": "uint256"
        },
        {
          "internalType": "bytes32",
          "name": "merkleRoot",
          "type": "bytes32"
        }
      ],
      "stateMutability": "view",
      "type": "function"
    },
    {
      "inputs": [
        {
          "internalType": "address",
          "name": "newOwner",
          "type": "address"
        }
      ],
      "name": "transferOwnership",
      "outputs": [],
      "stateMutability": "nonpayable",
      "type": "function"
    },
    {
      "inputs": [
        {
          "internalType": "address",
          "name": "depositor",
          "type": "address"
        },
        {
          "internalType": "bool",
          "name": "status",
          "type": "bool"
        }
      ],
      "name": "updateDepositor",
      "outputs": [],
      "stateMutability": "nonpayable",
      "type": "function"
    },
    {
      "stateMutability": "payable",
      "type": "receive"
    }
  ],
  "bytecode": "0x608060405234801561001057600080fd5b5061001a3361003e565b6001808055336000908152600460205260409020805460ff1916909117905561008e565b600080546001600160a01b038381166001600160a01b0319831681178455604051919092169283917f8be0079c531659141344cd1fd0a4f28419497f9722a3daafe3b4186f6b6457e09190a35050565b61142e8061009d6000396000f3fe6080604052600436106100a55760003560e01c80638da5cb5b116100615780638da5cb5b14610195578063ad2fec9e146101b3578063cbe81c8c146101d3578063dbd82687146101f3578063f2fde38b14610214578063f301af421461023457005b8063227a72e9146100ae5780632f70d1ba146100ce578063663db6ff146101135780636ff1c9bc146101405780637041828e14610160578063715018a61461018057005b366100ac57005b005b3480156100ba57600080fd5b506100ac6100c9366004611037565b610279565b3480156100da57600080fd5b506100fe6100e9366004611117565b60046020526000908152604090205460ff1681565b60405190151581526020015b60405180910390f35b34801561011f57600080fd5b50610128600081565b6040516001600160a01b03909116815260200161010a565b34801561014c57600080fd5b506100ac61015b366004611117565b61040a565b34801561016c57600080fd5b506100ac61017b366004611140565b6104d2565b34801561018c57600080fd5b506100ac61058c565b3480156101a157600080fd5b506000546001600160a01b0316610128565b3480156101bf57600080fd5b506100fe6101ce366004611177565b6105c2565b3480156101df57600080fd5b506100ac6101ee3660046111a1565b6105d5565b61020661020136600461123b565b6106bb565b60405190815260200161010a565b34801561022057600080fd5b506100ac61022f366004611117565b6108d9565b34801561024057600080fd5b5061025461024f36600461126e565b610974565b604080516001600160a01b03909416845260208401929092529082015260600161010a565b6002600154036102d05760405162461bcd60e51b815260206004820152601f60248201527f5265656e7472616e637947756172643a207265656e7472616e742063616c6c0060448201526064015b60405180910390fd5b60026001556000546001600160a01b031633146102ff5760405162461bcd60e51b81526004016102c790611287565b86858114801561030e57508381145b801561031957508181145b6103585760405162461bcd60e51b815260206004820152601060248201526f13115391d51217d393d517d15455505360821b60448201526064016102c7565b60005b818110156103fa576103e88a8a83818110610378576103786112bc565b905060200201602081019061038d9190611117565b89898481811061039f5761039f6112bc565b905060200201358888858181106103b8576103b86112bc565b905060200201358787868181106103d1576103d16112bc565b90506020028101906103e391906112d2565b6109b1565b806103f28161131c565b91505061035b565b5050600180555050505050505050565b6000546001600160a01b031633146104345760405162461bcd60e51b81526004016102c790611287565b60006001600160a01b0382166104545750476104503382610b2b565b5050565b6040516370a0823160e01b81523060048201526001600160a01b038316906370a0823190602401602060405180830381865afa158015610498573d6000803e3d6000fd5b505050506040513d601f19601f820116820180604052508101906104bc9190611343565b90506104506001600160a01b0383163383610c49565b6000546001600160a01b031633146104fc5760405162461bcd60e51b81526004016102c790611287565b6001600160a01b03821660009081526004602052604090205460ff16811515811515036105605760405162461bcd60e51b815260206004820152601260248201527114d510551554d7d393d517d0d2105391d15160721b60448201526064016102c7565b506001600160a01b03919091166000908152600460205260409020805460ff1916911515919091179055565b6000546001600160a01b031633146105b65760405162461bcd60e51b81526004016102c790611287565b6105c06000610c9b565b565b60006105ce8383610ceb565b9392505050565b6002600154036106275760405162461bcd60e51b815260206004820152601f60248201527f5265656e7472616e637947756172643a207265656e7472616e742063616c6c0060448201526064016102c7565b600260015584838114801561063b57508181145b61067a5760405162461bcd60e51b815260206004820152601060248201526f13115391d51217d393d517d15455505360821b60448201526064016102c7565b60005b818110156106ad5761069b3389898481811061039f5761039f6112bc565b806106a58161131c565b91505061067d565b505060018055505050505050565b3360009081526004602052604081205460ff166107095760405162461bcd60e51b815260206004820152600c60248201526b15539055551213d49256915160a21b60448201526064016102c7565b826000036107445760405162461bcd60e51b81526020600482015260086024820152670414d4f554e545f360c41b60448201526064016102c7565b6001600160a01b038416610798578234146107935760405162461bcd60e51b815260206004820152600f60248201526e57524f4e475f4d53472e56414c554560881b60448201526064016102c7565b610811565b6040516323b872dd60e01b8152336004820152306024820152604481018490526001600160a01b038516906323b872dd906064016020604051808303816000875af11580156107eb573d6000803e3d6000fd5b505050506040513d601f19601f8201168201806040525081019061080f919061135c565b505b5060028054604080516060810182526001600160a01b0396871681526020810195865290810193845260018201835560009290925290517f405787fa12a823e0f2b7631cc41b3ba8828b3321ca811111fa75cd3aa3bb5ace6003830290810180546001600160a01b031916929096169190911790945591517f405787fa12a823e0f2b7631cc41b3ba8828b3321ca811111fa75cd3aa3bb5acf840155517f405787fa12a823e0f2b7631cc41b3ba8828b3321ca811111fa75cd3aa3bb5ad09092019190915590565b6000546001600160a01b031633146109035760405162461bcd60e51b81526004016102c790611287565b6001600160a01b0381166109685760405162461bcd60e51b815260206004820152602660248201527f4f776e61626c653a206e6577206f776e657220697320746865207a65726f206160448201526564647265737360d01b60648201526084016102c7565b61097181610c9b565b50565b6002818154811061098457600080fd5b60009182526020909120600390910201805460018201546002909201546001600160a01b03909116925083565b6040516bffffffffffffffffffffffff19606087901b16602082015260348101849052600090605401604051602081830303815290604052805190602001209050600060028681548110610a0757610a076112bc565b90600052602060002090600302019050610a218787610ceb565b15610a605760405162461bcd60e51b815260206004820152600f60248201526e1053149150511657d0d31052535151608a1b60448201526064016102c7565b610a708484836002015485610d22565b610ab25760405162461bcd60e51b815260206004820152601360248201527215915492519250d0551253d397d19052531151606a1b60448201526064016102c7565b6001600160a01b038716600090815260036020908152604080832060088a901c845290915290208054600160ff89161b17905580546001600160a01b031680610b0d57610b086001600160a01b03891687610b2b565b610b21565b610b216001600160a01b0382168988610c49565b5050505050505050565b80471015610b7b5760405162461bcd60e51b815260206004820152601d60248201527f416464726573733a20696e73756666696369656e742062616c616e636500000060448201526064016102c7565b6000826001600160a01b03168260405160006040518083038185875af1925050503d8060008114610bc8576040519150601f19603f3d011682016040523d82523d6000602084013e610bcd565b606091505b5050905080610c445760405162461bcd60e51b815260206004820152603a60248201527f416464726573733a20756e61626c6520746f2073656e642076616c75652c207260448201527f6563697069656e74206d6179206861766520726576657274656400000000000060648201526084016102c7565b505050565b604080516001600160a01b038416602482015260448082018490528251808303909101815260649091019091526020810180516001600160e01b031663a9059cbb60e01b179052610c44908490610d98565b600080546001600160a01b038381166001600160a01b0319831681178455604051919092169283917f8be0079c531659141344cd1fd0a4f28419497f9722a3daafe3b4186f6b6457e09190a35050565b6001600160a01b0382166000908152600360209081526040808320600885901c8452909152812054600160ff84161b1615156105ce565b600081815b85811015610d8c576000878783818110610d4357610d436112bc565b905060200201359050808311610d685760008381526020829052604090209250610d79565b600081815260208490526040902092505b5080610d848161131c565b915050610d27565b50909214949350505050565b6000610ded826040518060400160405280602081526020017f5361666545524332303a206c6f772d6c6576656c2063616c6c206661696c6564815250856001600160a01b0316610e6a9092919063ffffffff16565b805190915015610c445780806020019051810190610e0b919061135c565b610c445760405162461bcd60e51b815260206004820152602a60248201527f5361666545524332303a204552433230206f7065726174696f6e20646964206e6044820152691bdd081cdd58d8d9595960b21b60648201526084016102c7565b6060610e798484600085610e81565b949350505050565b606082471015610ee25760405162461bcd60e51b815260206004820152602660248201527f416464726573733a20696e73756666696369656e742062616c616e636520666f6044820152651c8818d85b1b60d21b60648201526084016102c7565b6001600160a01b0385163b610f395760405162461bcd60e51b815260206004820152601d60248201527f416464726573733a2063616c6c20746f206e6f6e2d636f6e747261637400000060448201526064016102c7565b600080866001600160a01b03168587604051610f5591906113a9565b60006040518083038185875af1925050503d8060008114610f92576040519150601f19603f3d011682016040523d82523d6000602084013e610f97565b606091505b5091509150610fa7828286610fb2565b979650505050505050565b60608315610fc15750816105ce565b825115610fd15782518084602001fd5b8160405162461bcd60e51b81526004016102c791906113c5565b60008083601f840112610ffd57600080fd5b50813567ffffffffffffffff81111561101557600080fd5b6020830191508360208260051b850101111561103057600080fd5b9250929050565b6000806000806000806000806080898b03121561105357600080fd5b883567ffffffffffffffff8082111561106b57600080fd5b6110778c838d01610feb565b909a50985060208b013591508082111561109057600080fd5b61109c8c838d01610feb565b909850965060408b01359150808211156110b557600080fd5b6110c18c838d01610feb565b909650945060608b01359150808211156110da57600080fd5b506110e78b828c01610feb565b999c989b5096995094979396929594505050565b80356001600160a01b038116811461111257600080fd5b919050565b60006020828403121561112957600080fd5b6105ce826110fb565b801515811461097157600080fd5b6000806040838503121561115357600080fd5b61115c836110fb565b9150602083013561116c81611132565b809150509250929050565b6000806040838503121561118a57600080fd5b611193836110fb565b946020939093013593505050565b600080600080600080606087890312156111ba57600080fd5b863567ffffffffffffffff808211156111d257600080fd5b6111de8a838b01610feb565b909850965060208901359150808211156111f757600080fd5b6112038a838b01610feb565b9096509450604089013591508082111561121c57600080fd5b5061122989828a01610feb565b979a9699509497509295939492505050565b60008060006060848603121561125057600080fd5b611259846110fb565b95602085013595506040909401359392505050565b60006020828403121561128057600080fd5b5035919050565b6020808252818101527f4f776e61626c653a2063616c6c6572206973206e6f7420746865206f776e6572604082015260600190565b634e487b7160e01b600052603260045260246000fd5b6000808335601e198436030181126112e957600080fd5b83018035915067ffffffffffffffff82111561130457600080fd5b6020019150600581901b360382131561103057600080fd5b60006001820161133c57634e487b7160e01b600052601160045260246000fd5b5060010190565b60006020828403121561135557600080fd5b5051919050565b60006020828403121561136e57600080fd5b81516105ce81611132565b60005b8381101561139457818101518382015260200161137c565b838111156113a3576000848401525b50505050565b600082516113bb818460208701611379565b9190910192915050565b60208152600082518060208401526113e4816040850160208701611379565b601f01601f1916919091016040019291505056fea264697066735822122064aa7b7ee627d9c9facf37c329f85535921638e1b520a18f3d1054f2bc57237164736f6c634300080d0033",
  "linkReferences": {},
  "deployedLinkReferences": {}
}