{
  "_format": "hh-sol-artifact-1",
  "contractName": "KIP17Mintable",
  "sourceName": "contracts/klaytn-contracts/token/KIP17/KIP17Mintable.sol",
  "abi": [
    {
      "inputs": [],
      "payable": false,
      "stateMutability": "nonpayable",
      "type": "constructor"
    },
    {
      "anonymous": false,
      "inputs": [
        {
          "indexed": true,
          "internalType": "address",
          "name": "owner",
          "type": "address"
        },
        {
          "indexed": true,
          "internalType": "address",
          "name": "approved",
          "type": "address"
        },
        {
          "indexed": true,
          "internalType": "uint256",
          "name": "tokenId",
          "type": "uint256"
        }
      ],
      "name": "Approval",
      "type": "event"
    },
    {
      "anonymous": false,
      "inputs": [
        {
          "indexed": true,
          "internalType": "address",
          "name": "owner",
          "type": "address"
        },
        {
          "indexed": true,
          "internalType": "address",
          "name": "operator",
          "type": "address"
        },
        {
          "indexed": false,
          "internalType": "bool",
          "name": "approved",
          "type": "bool"
        }
      ],
      "name": "ApprovalForAll",
      "type": "event"
    },
    {
      "anonymous": false,
      "inputs": [
        {
          "indexed": true,
          "internalType": "address",
          "name": "account",
          "type": "address"
        }
      ],
      "name": "MinterAdded",
      "type": "event"
    },
    {
      "anonymous": false,
      "inputs": [
        {
          "indexed": true,
          "internalType": "address",
          "name": "account",
          "type": "address"
        }
      ],
      "name": "MinterRemoved",
      "type": "event"
    },
    {
      "anonymous": false,
      "inputs": [
        {
          "indexed": true,
          "internalType": "address",
          "name": "from",
          "type": "address"
        },
        {
          "indexed": true,
          "internalType": "address",
          "name": "to",
          "type": "address"
        },
        {
          "indexed": true,
          "internalType": "uint256",
          "name": "tokenId",
          "type": "uint256"
        }
      ],
      "name": "Transfer",
      "type": "event"
    },
    {
      "constant": false,
      "inputs": [
        {
          "internalType": "address",
          "name": "account",
          "type": "address"
        }
      ],
      "name": "addMinter",
      "outputs": [],
      "payable": false,
      "stateMutability": "nonpayable",
      "type": "function"
    },
    {
      "constant": false,
      "inputs": [
        {
          "internalType": "address",
          "name": "to",
          "type": "address"
        },
        {
          "internalType": "uint256",
          "name": "tokenId",
          "type": "uint256"
        }
      ],
      "name": "approve",
      "outputs": [],
      "payable": false,
      "stateMutability": "nonpayable",
      "type": "function"
    },
    {
      "constant": true,
      "inputs": [
        {
          "internalType": "address",
          "name": "owner",
          "type": "address"
        }
      ],
      "name": "balanceOf",
      "outputs": [
        {
          "internalType": "uint256",
          "name": "",
          "type": "uint256"
        }
      ],
      "payable": false,
      "stateMutability": "view",
      "type": "function"
    },
    {
      "constant": true,
      "inputs": [
        {
          "internalType": "uint256",
          "name": "tokenId",
          "type": "uint256"
        }
      ],
      "name": "getApproved",
      "outputs": [
        {
          "internalType": "address",
          "name": "",
          "type": "address"
        }
      ],
      "payable": false,
      "stateMutability": "view",
      "type": "function"
    },
    {
      "constant": true,
      "inputs": [
        {
          "internalType": "address",
          "name": "owner",
          "type": "address"
        },
        {
          "internalType": "address",
          "name": "operator",
          "type": "address"
        }
      ],
      "name": "isApprovedForAll",
      "outputs": [
        {
          "internalType": "bool",
          "name": "",
          "type": "bool"
        }
      ],
      "payable": false,
      "stateMutability": "view",
      "type": "function"
    },
    {
      "constant": true,
      "inputs": [
        {
          "internalType": "address",
          "name": "account",
          "type": "address"
        }
      ],
      "name": "isMinter",
      "outputs": [
        {
          "internalType": "bool",
          "name": "",
          "type": "bool"
        }
      ],
      "payable": false,
      "stateMutability": "view",
      "type": "function"
    },
    {
      "constant": false,
      "inputs": [
        {
          "internalType": "address",
          "name": "to",
          "type": "address"
        },
        {
          "internalType": "uint256",
          "name": "tokenId",
          "type": "uint256"
        }
      ],
      "name": "mint",
      "outputs": [
        {
          "internalType": "bool",
          "name": "",
          "type": "bool"
        }
      ],
      "payable": false,
      "stateMutability": "nonpayable",
      "type": "function"
    },
    {
      "constant": true,
      "inputs": [
        {
          "internalType": "uint256",
          "name": "tokenId",
          "type": "uint256"
        }
      ],
      "name": "ownerOf",
      "outputs": [
        {
          "internalType": "address",
          "name": "",
          "type": "address"
        }
      ],
      "payable": false,
      "stateMutability": "view",
      "type": "function"
    },
    {
      "constant": false,
      "inputs": [],
      "name": "renounceMinter",
      "outputs": [],
      "payable": false,
      "stateMutability": "nonpayable",
      "type": "function"
    },
    {
      "constant": false,
      "inputs": [
        {
          "internalType": "address",
          "name": "from",
          "type": "address"
        },
        {
          "internalType": "address",
          "name": "to",
          "type": "address"
        },
        {
          "internalType": "uint256",
          "name": "tokenId",
          "type": "uint256"
        }
      ],
      "name": "safeTransferFrom",
      "outputs": [],
      "payable": false,
      "stateMutability": "nonpayable",
      "type": "function"
    },
    {
      "constant": false,
      "inputs": [
        {
          "internalType": "address",
          "name": "from",
          "type": "address"
        },
        {
          "internalType": "address",
          "name": "to",
          "type": "address"
        },
        {
          "internalType": "uint256",
          "name": "tokenId",
          "type": "uint256"
        },
        {
          "internalType": "bytes",
          "name": "_data",
          "type": "bytes"
        }
      ],
      "name": "safeTransferFrom",
      "outputs": [],
      "payable": false,
      "stateMutability": "nonpayable",
      "type": "function"
    },
    {
      "constant": false,
      "inputs": [
        {
          "internalType": "address",
          "name": "to",
          "type": "address"
        },
        {
          "internalType": "bool",
          "name": "approved",
          "type": "bool"
        }
      ],
      "name": "setApprovalForAll",
      "outputs": [],
      "payable": false,
      "stateMutability": "nonpayable",
      "type": "function"
    },
    {
      "constant": true,
      "inputs": [
        {
          "internalType": "bytes4",
          "name": "interfaceId",
          "type": "bytes4"
        }
      ],
      "name": "supportsInterface",
      "outputs": [
        {
          "internalType": "bool",
          "name": "",
          "type": "bool"
        }
      ],
      "payable": false,
      "stateMutability": "view",
      "type": "function"
    },
    {
      "constant": false,
      "inputs": [
        {
          "internalType": "address",
          "name": "from",
          "type": "address"
        },
        {
          "internalType": "address",
          "name": "to",
          "type": "address"
        },
        {
          "internalType": "uint256",
          "name": "tokenId",
          "type": "uint256"
        }
      ],
      "name": "transferFrom",
      "outputs": [],
      "payable": false,
      "stateMutability": "nonpayable",
      "type": "function"
    }
  ],
  "bytecode": "0x60806040523480156200001157600080fd5b506200002d6301ffc9a760e01b6001600160e01b036200007d16565b620000486380ac58cd60e01b6001600160e01b036200007d16565b6200005c336001600160e01b036200010216565b62000077630755c1f160e51b6001600160e01b036200007d16565b6200024a565b6001600160e01b03198082161415620000dd576040805162461bcd60e51b815260206004820152601b60248201527f4b495031333a20696e76616c696420696e746572666163652069640000000000604482015290519081900360640190fd5b6001600160e01b0319166000908152602081905260409020805460ff19166001179055565b6200011d8160056200015460201b620011501790919060201c565b6040516001600160a01b038216907f6ae172837ea30b801fbfcdd4108aa1d5bf8ff775444fd70256b44e6bf3dfc3f690600090a250565b6200016982826001600160e01b03620001e116565b15620001bc576040805162461bcd60e51b815260206004820152601f60248201527f526f6c65733a206163636f756e7420616c72656164792068617320726f6c6500604482015290519081900360640190fd5b6001600160a01b0316600090815260209190915260409020805460ff19166001179055565b60006001600160a01b0382166200022a5760405162461bcd60e51b8152600401808060200182810382526022815260200180620017a96022913960400191505060405180910390fd5b506001600160a01b03166000908152602091909152604090205460ff1690565b61154f806200025a6000396000f3fe608060405234801561001057600080fd5b50600436106100ea5760003560e01c806370a082311161008c578063a22cb46511610066578063a22cb465146102ac578063aa271e1a146102da578063b88d4fde14610300578063e985e9c5146103c6576100ea565b806370a0823114610246578063983b2d561461027e57806398650275146102a4576100ea565b806323b872dd116100c857806323b872dd1461019157806340c10f19146101c757806342842e0e146101f35780636352211e14610229576100ea565b806301ffc9a7146100ef578063081812fc1461012a578063095ea7b314610163575b600080fd5b6101166004803603602081101561010557600080fd5b50356001600160e01b0319166103f4565b604080519115158252519081900360200190f35b6101476004803603602081101561014057600080fd5b5035610413565b604080516001600160a01b039092168252519081900360200190f35b61018f6004803603604081101561017957600080fd5b506001600160a01b038135169060200135610475565b005b61018f600480360360608110156101a757600080fd5b506001600160a01b0381358116916020810135909116906040013561059c565b610116600480360360408110156101dd57600080fd5b506001600160a01b0381351690602001356105f1565b61018f6004803603606081101561020957600080fd5b506001600160a01b0381358116916020810135909116906040013561064a565b6101476004803603602081101561023f57600080fd5b5035610665565b61026c6004803603602081101561025c57600080fd5b50356001600160a01b03166106bf565b60408051918252519081900360200190f35b61018f6004803603602081101561029457600080fd5b50356001600160a01b0316610727565b61018f610777565b61018f600480360360408110156102c257600080fd5b506001600160a01b0381351690602001351515610782565b610116600480360360208110156102f057600080fd5b50356001600160a01b031661084e565b61018f6004803603608081101561031657600080fd5b6001600160a01b0382358116926020810135909116916040820135919081019060808101606082013564010000000081111561035157600080fd5b82018360208201111561036357600080fd5b8035906020019184600183028401116401000000008311171561038557600080fd5b91908080601f016020809104026020016040519081016040528093929190818152602001838380828437600092019190915250929550610861945050505050565b610116600480360360408110156103dc57600080fd5b506001600160a01b03813581169160200135166108b9565b6001600160e01b03191660009081526020819052604090205460ff1690565b600061041e826108e7565b6104595760405162461bcd60e51b815260040180806020018281038252602b81526020018061148e602b913960400191505060405180910390fd5b506000908152600260205260409020546001600160a01b031690565b600061048082610665565b9050806001600160a01b0316836001600160a01b031614156104e9576040805162461bcd60e51b815260206004820181905260248201527f4b495031373a20617070726f76616c20746f2063757272656e74206f776e6572604482015290519081900360640190fd5b336001600160a01b0382161480610505575061050581336108b9565b6105405760405162461bcd60e51b81526004018080602001828103825260378152602001806114b96037913960400191505060405180910390fd5b60008281526002602052604080822080546001600160a01b0319166001600160a01b0387811691821790925591518593918516917f8c5be1e5ebec7d5bd14f71427d1e84f3dd0314c0f7b2291e5b200ac8c7c3b92591a4505050565b6105a63382610904565b6105e15760405162461bcd60e51b81526004018080602001828103825260308152602001806113bb6030913960400191505060405180910390fd5b6105ec8383836109a8565b505050565b60006105fc3361084e565b6106375760405162461bcd60e51b81526004018080602001828103825260308152602001806113426030913960400191505060405180910390fd5b6106418383610aec565b50600192915050565b6105ec83838360405180602001604052806000815250610861565b6000818152600160205260408120546001600160a01b0316806106b95760405162461bcd60e51b81526004018080602001828103825260288152602001806113936028913960400191505060405180910390fd5b92915050565b60006001600160a01b0382166107065760405162461bcd60e51b815260040180806020018281038252602981526020018061143d6029913960400191505060405180910390fd5b6001600160a01b03821660009081526003602052604090206106b990610c1d565b6107303361084e565b61076b5760405162461bcd60e51b81526004018080602001828103825260308152602001806113426030913960400191505060405180910390fd5b61077481610c21565b50565b61078033610c69565b565b6001600160a01b0382163314156107e0576040805162461bcd60e51b815260206004820152601860248201527f4b495031373a20617070726f766520746f2063616c6c65720000000000000000604482015290519081900360640190fd5b3360008181526004602090815260408083206001600160a01b03871680855290835292819020805460ff1916861515908117909155815190815290519293927f17307eab39ab6107e8899845ad3d59bd9653f200f220920489ca2b5937696c31929181900390910190a35050565b60006106b960058363ffffffff610cb116565b61086c84848461059c565b61087884848484610d18565b6108b35760405162461bcd60e51b815260040180806020018281038252603081526020018061140d6030913960400191505060405180910390fd5b50505050565b6001600160a01b03918216600090815260046020908152604080832093909416825291909152205460ff1690565b6000908152600160205260409020546001600160a01b0316151590565b600061090f826108e7565b61094a5760405162461bcd60e51b815260040180806020018281038252602b8152602001806114f0602b913960400191505060405180910390fd5b600061095583610665565b9050806001600160a01b0316846001600160a01b031614806109905750836001600160a01b031661098584610413565b6001600160a01b0316145b806109a057506109a081856108b9565b949350505050565b826001600160a01b03166109bb82610665565b6001600160a01b031614610a005760405162461bcd60e51b81526004018080602001828103825260288152602001806114666028913960400191505060405180910390fd5b6001600160a01b038216610a455760405162461bcd60e51b815260040180806020018281038252602381526020018061131f6023913960400191505060405180910390fd5b610a4e816110f5565b6001600160a01b0383166000908152600360205260409020610a6f90611130565b6001600160a01b0382166000908152600360205260409020610a9090611147565b60008181526001602052604080822080546001600160a01b0319166001600160a01b0386811691821790925591518493918716917fddf252ad1be2c89b69c2b068fc378daa952ba7f163c4a11628f55a4df523b3ef91a4505050565b6001600160a01b038216610b47576040805162461bcd60e51b815260206004820152601f60248201527f4b495031373a206d696e7420746f20746865207a65726f206164647265737300604482015290519081900360640190fd5b610b50816108e7565b15610ba2576040805162461bcd60e51b815260206004820152601b60248201527f4b495031373a20746f6b656e20616c7265616479206d696e7465640000000000604482015290519081900360640190fd5b600081815260016020908152604080832080546001600160a01b0319166001600160a01b038716908117909155835260039091529020610be190611147565b60405181906001600160a01b038416906000907fddf252ad1be2c89b69c2b068fc378daa952ba7f163c4a11628f55a4df523b3ef908290a45050565b5490565b610c3260058263ffffffff61115016565b6040516001600160a01b038216907f6ae172837ea30b801fbfcdd4108aa1d5bf8ff775444fd70256b44e6bf3dfc3f690600090a250565b610c7a60058263ffffffff6111d116565b6040516001600160a01b038216907fe94479a9f7e1952cc78f2d6baab678adc1b772d936c6583def489e524cb6669290600090a250565b60006001600160a01b038216610cf85760405162461bcd60e51b81526004018080602001828103825260228152602001806113eb6022913960400191505060405180910390fd5b506001600160a01b03166000908152602091909152604090205460ff1690565b6000806060610d2f866001600160a01b0316611238565b610d3e576001925050506109a0565b856001600160a01b031663150b7a0260e01b3389888860405160240180856001600160a01b03166001600160a01b03168152602001846001600160a01b03166001600160a01b0316815260200183815260200180602001828103825283818151815260200191508051906020019080838360005b83811015610dca578181015183820152602001610db2565b50505050905090810190601f168015610df75780820380516001836020036101000a031916815260200191505b5060408051601f198184030181529181526020820180516001600160e01b03166001600160e01b0319909a16999099178952518151919890975087965094509250829150849050835b60208310610e5f5780518252601f199092019160209182019101610e40565b6001836020036101000a0380198251168184511680821785525050505050509050019150506000604051808303816000865af19150503d8060008114610ec1576040519150601f19603f3d011682016040523d82523d6000602084013e610ec6565b606091505b508051919350915015801590610f0357508051630a85bd0160e11b9060208084019190811015610ef557600080fd5b50516001600160e01b031916145b15610f13576001925050506109a0565b856001600160a01b0316636745782b60e01b3389888860405160240180856001600160a01b03166001600160a01b03168152602001846001600160a01b03166001600160a01b0316815260200183815260200180602001828103825283818151815260200191508051906020019080838360005b83811015610f9f578181015183820152602001610f87565b50505050905090810190601f168015610fcc5780820380516001836020036101000a031916815260200191505b5060408051601f198184030181529181526020820180516001600160e01b03166001600160e01b0319909a16999099178952518151919890975087965094509250829150849050835b602083106110345780518252601f199092019160209182019101611015565b6001836020036101000a0380198251168184511680821785525050505050509050019150506000604051808303816000865af19150503d8060008114611096576040519150601f19603f3d011682016040523d82523d6000602084013e61109b565b606091505b5080519193509150158015906110d857508051636745782b60e01b90602080840191908110156110ca57600080fd5b50516001600160e01b031916145b156110e8576001925050506109a0565b5060009695505050505050565b6000818152600260205260409020546001600160a01b03161561077457600090815260026020526040902080546001600160a01b0319169055565b805461114390600163ffffffff61123e16565b9055565b80546001019055565b61115a8282610cb1565b156111ac576040805162461bcd60e51b815260206004820152601f60248201527f526f6c65733a206163636f756e7420616c72656164792068617320726f6c6500604482015290519081900360640190fd5b6001600160a01b0316600090815260209190915260409020805460ff19166001179055565b6111db8282610cb1565b6112165760405162461bcd60e51b81526004018080602001828103825260218152602001806113726021913960400191505060405180910390fd5b6001600160a01b0316600090815260209190915260409020805460ff19169055565b3b151590565b600061128083836040518060400160405280601e81526020017f536166654d6174683a207375627472616374696f6e206f766572666c6f770000815250611287565b9392505050565b600081848411156113165760405162461bcd60e51b81526004018080602001828103825283818151815260200191508051906020019080838360005b838110156112db5781810151838201526020016112c3565b50505050905090810190601f1680156113085780820380516001836020036101000a031916815260200191505b509250505060405180910390fd5b50505090039056fe4b495031373a207472616e7366657220746f20746865207a65726f20616464726573734d696e746572526f6c653a2063616c6c657220646f6573206e6f74206861766520746865204d696e74657220726f6c65526f6c65733a206163636f756e7420646f6573206e6f74206861766520726f6c654b495031373a206f776e657220717565727920666f72206e6f6e6578697374656e7420746f6b656e4b495031373a207472616e736665722063616c6c6572206973206e6f74206f776e6572206e6f7220617070726f766564526f6c65733a206163636f756e7420697320746865207a65726f20616464726573734b495031373a207472616e7366657220746f206e6f6e204b49503137526563656976657220696d706c656d656e7465724b495031373a2062616c616e636520717565727920666f7220746865207a65726f20616464726573734b495031373a207472616e73666572206f6620746f6b656e2074686174206973206e6f74206f776e4b495031373a20617070726f76656420717565727920666f72206e6f6e6578697374656e7420746f6b656e4b495031373a20617070726f76652063616c6c6572206973206e6f74206f776e6572206e6f7220617070726f76656420666f7220616c6c4b495031373a206f70657261746f7220717565727920666f72206e6f6e6578697374656e7420746f6b656ea265627a7a72315820138b962a3bb710741b722c9702dd5a46671ab882f3e2327ba340459f79fa227964736f6c63430005110032526f6c65733a206163636f756e7420697320746865207a65726f2061646472657373",
  "linkReferences": {},
  "deployedLinkReferences": {}
}