{
  "_format": "hh-sol-artifact-1",
  "contractName": "MinterRoleMock",
  "sourceName": "contracts/klaytn-contracts/mocks/MinterRoleMock.sol",
  "abi": [
    {
      "anonymous": false,
      "inputs": [
        {
          "indexed": true,
          "internalType": "address",
          "name": "account",
          "type": "address"
        }
      ],
      "name": "MinterAdded",
      "type": "event"
    },
    {
      "anonymous": false,
      "inputs": [
        {
          "indexed": true,
          "internalType": "address",
          "name": "account",
          "type": "address"
        }
      ],
      "name": "MinterRemoved",
      "type": "event"
    },
    {
      "constant": false,
      "inputs": [
        {
          "internalType": "address",
          "name": "account",
          "type": "address"
        }
      ],
      "name": "addMinter",
      "outputs": [],
      "payable": false,
      "stateMutability": "nonpayable",
      "type": "function"
    },
    {
      "constant": true,
      "inputs": [
        {
          "internalType": "address",
          "name": "account",
          "type": "address"
        }
      ],
      "name": "isMinter",
      "outputs": [
        {
          "internalType": "bool",
          "name": "",
          "type": "bool"
        }
      ],
      "payable": false,
      "stateMutability": "view",
      "type": "function"
    },
    {
      "constant": true,
      "inputs": [],
      "name": "onlyMinterMock",
      "outputs": [],
      "payable": false,
      "stateMutability": "view",
      "type": "function"
    },
    {
      "constant": false,
      "inputs": [
        {
          "internalType": "address",
          "name": "account",
          "type": "address"
        }
      ],
      "name": "removeMinter",
      "outputs": [],
      "payable": false,
      "stateMutability": "nonpayable",
      "type": "function"
    },
    {
      "constant": false,
      "inputs": [],
      "name": "renounceMinter",
      "outputs": [],
      "payable": false,
      "stateMutability": "nonpayable",
      "type": "function"
    }
  ],
  "bytecode": "0x6080604052610016336001600160e01b0361001b16565b61015b565b61003381600061006a60201b6102b41790919060201c565b6040516001600160a01b038216907f6ae172837ea30b801fbfcdd4108aa1d5bf8ff775444fd70256b44e6bf3dfc3f690600090a250565b61007d82826001600160e01b036100f416565b156100cf576040805162461bcd60e51b815260206004820152601f60248201527f526f6c65733a206163636f756e7420616c72656164792068617320726f6c6500604482015290519081900360640190fd5b6001600160a01b0316600090815260209190915260409020805460ff19166001179055565b60006001600160a01b03821661013b5760405162461bcd60e51b81526004018080602001828103825260228152602001806105ae6022913960400191505060405180910390fd5b506001600160a01b03166000908152602091909152604090205460ff1690565b6104448061016a6000396000f3fe608060405234801561001057600080fd5b50600436106100575760003560e01c80633092afd51461005c578063983b2d561461008457806398650275146100aa578063aa271e1a146100b2578063b5dba35b146100ec575b600080fd5b6100826004803603602081101561007257600080fd5b50356001600160a01b03166100f4565b005b6100826004803603602081101561009a57600080fd5b50356001600160a01b0316610100565b61008261014d565b6100d8600480360360208110156100c857600080fd5b50356001600160a01b0316610158565b604080519115158252519081900360200190f35b610082610170565b6100fd816101b4565b50565b61010933610158565b6101445760405162461bcd60e51b815260040180806020018281038252603081526020018061039d6030913960400191505060405180910390fd5b6100fd816101bd565b610156336101b4565b565b600061016a818363ffffffff61020516565b92915050565b61017933610158565b6101565760405162461bcd60e51b815260040180806020018281038252603081526020018061039d6030913960400191505060405180910390fd5b6100fd8161026c565b6101ce60008263ffffffff6102b416565b6040516001600160a01b038216907f6ae172837ea30b801fbfcdd4108aa1d5bf8ff775444fd70256b44e6bf3dfc3f690600090a250565b60006001600160a01b03821661024c5760405162461bcd60e51b81526004018080602001828103825260228152602001806103ee6022913960400191505060405180910390fd5b506001600160a01b03166000908152602091909152604090205460ff1690565b61027d60008263ffffffff61033516565b6040516001600160a01b038216907fe94479a9f7e1952cc78f2d6baab678adc1b772d936c6583def489e524cb6669290600090a250565b6102be8282610205565b15610310576040805162461bcd60e51b815260206004820152601f60248201527f526f6c65733a206163636f756e7420616c72656164792068617320726f6c6500604482015290519081900360640190fd5b6001600160a01b0316600090815260209190915260409020805460ff19166001179055565b61033f8282610205565b61037a5760405162461bcd60e51b81526004018080602001828103825260218152602001806103cd6021913960400191505060405180910390fd5b6001600160a01b0316600090815260209190915260409020805460ff1916905556fe4d696e746572526f6c653a2063616c6c657220646f6573206e6f74206861766520746865204d696e74657220726f6c65526f6c65733a206163636f756e7420646f6573206e6f74206861766520726f6c65526f6c65733a206163636f756e7420697320746865207a65726f2061646472657373a265627a7a723158207ae1902dd02b8f02a535dd2738aa785f2f528b9bdacdefc2e70b6198e7afcca964736f6c63430005110032526f6c65733a206163636f756e7420697320746865207a65726f2061646472657373",
  "linkReferences": {},
  "deployedLinkReferences": {}
}