{
  "_format": "hh-sol-artifact-1",
  "contractName": "KIP17Full",
  "sourceName": "contracts/klaytn-contracts/token/KIP17/KIP17Full.sol",
  "abi": [
    {
      "inputs": [
        {
          "internalType": "string",
          "name": "name",
          "type": "string"
        },
        {
          "internalType": "string",
          "name": "symbol",
          "type": "string"
        }
      ],
      "payable": false,
      "stateMutability": "nonpayable",
      "type": "constructor"
    },
    {
      "anonymous": false,
      "inputs": [
        {
          "indexed": true,
          "internalType": "address",
          "name": "owner",
          "type": "address"
        },
        {
          "indexed": true,
          "internalType": "address",
          "name": "approved",
          "type": "address"
        },
        {
          "indexed": true,
          "internalType": "uint256",
          "name": "tokenId",
          "type": "uint256"
        }
      ],
      "name": "Approval",
      "type": "event"
    },
    {
      "anonymous": false,
      "inputs": [
        {
          "indexed": true,
          "internalType": "address",
          "name": "owner",
          "type": "address"
        },
        {
          "indexed": true,
          "internalType": "address",
          "name": "operator",
          "type": "address"
        },
        {
          "indexed": false,
          "internalType": "bool",
          "name": "approved",
          "type": "bool"
        }
      ],
      "name": "ApprovalForAll",
      "type": "event"
    },
    {
      "anonymous": false,
      "inputs": [
        {
          "indexed": true,
          "internalType": "address",
          "name": "from",
          "type": "address"
        },
        {
          "indexed": true,
          "internalType": "address",
          "name": "to",
          "type": "address"
        },
        {
          "indexed": true,
          "internalType": "uint256",
          "name": "tokenId",
          "type": "uint256"
        }
      ],
      "name": "Transfer",
      "type": "event"
    },
    {
      "constant": false,
      "inputs": [
        {
          "internalType": "address",
          "name": "to",
          "type": "address"
        },
        {
          "internalType": "uint256",
          "name": "tokenId",
          "type": "uint256"
        }
      ],
      "name": "approve",
      "outputs": [],
      "payable": false,
      "stateMutability": "nonpayable",
      "type": "function"
    },
    {
      "constant": true,
      "inputs": [
        {
          "internalType": "address",
          "name": "owner",
          "type": "address"
        }
      ],
      "name": "balanceOf",
      "outputs": [
        {
          "internalType": "uint256",
          "name": "",
          "type": "uint256"
        }
      ],
      "payable": false,
      "stateMutability": "view",
      "type": "function"
    },
    {
      "constant": true,
      "inputs": [
        {
          "internalType": "uint256",
          "name": "tokenId",
          "type": "uint256"
        }
      ],
      "name": "getApproved",
      "outputs": [
        {
          "internalType": "address",
          "name": "",
          "type": "address"
        }
      ],
      "payable": false,
      "stateMutability": "view",
      "type": "function"
    },
    {
      "constant": true,
      "inputs": [
        {
          "internalType": "address",
          "name": "owner",
          "type": "address"
        },
        {
          "internalType": "address",
          "name": "operator",
          "type": "address"
        }
      ],
      "name": "isApprovedForAll",
      "outputs": [
        {
          "internalType": "bool",
          "name": "",
          "type": "bool"
        }
      ],
      "payable": false,
      "stateMutability": "view",
      "type": "function"
    },
    {
      "constant": true,
      "inputs": [],
      "name": "name",
      "outputs": [
        {
          "internalType": "string",
          "name": "",
          "type": "string"
        }
      ],
      "payable": false,
      "stateMutability": "view",
      "type": "function"
    },
    {
      "constant": true,
      "inputs": [
        {
          "internalType": "uint256",
          "name": "tokenId",
          "type": "uint256"
        }
      ],
      "name": "ownerOf",
      "outputs": [
        {
          "internalType": "address",
          "name": "",
          "type": "address"
        }
      ],
      "payable": false,
      "stateMutability": "view",
      "type": "function"
    },
    {
      "constant": false,
      "inputs": [
        {
          "internalType": "address",
          "name": "from",
          "type": "address"
        },
        {
          "internalType": "address",
          "name": "to",
          "type": "address"
        },
        {
          "internalType": "uint256",
          "name": "tokenId",
          "type": "uint256"
        }
      ],
      "name": "safeTransferFrom",
      "outputs": [],
      "payable": false,
      "stateMutability": "nonpayable",
      "type": "function"
    },
    {
      "constant": false,
      "inputs": [
        {
          "internalType": "address",
          "name": "from",
          "type": "address"
        },
        {
          "internalType": "address",
          "name": "to",
          "type": "address"
        },
        {
          "internalType": "uint256",
          "name": "tokenId",
          "type": "uint256"
        },
        {
          "internalType": "bytes",
          "name": "_data",
          "type": "bytes"
        }
      ],
      "name": "safeTransferFrom",
      "outputs": [],
      "payable": false,
      "stateMutability": "nonpayable",
      "type": "function"
    },
    {
      "constant": false,
      "inputs": [
        {
          "internalType": "address",
          "name": "to",
          "type": "address"
        },
        {
          "internalType": "bool",
          "name": "approved",
          "type": "bool"
        }
      ],
      "name": "setApprovalForAll",
      "outputs": [],
      "payable": false,
      "stateMutability": "nonpayable",
      "type": "function"
    },
    {
      "constant": true,
      "inputs": [
        {
          "internalType": "bytes4",
          "name": "interfaceId",
          "type": "bytes4"
        }
      ],
      "name": "supportsInterface",
      "outputs": [
        {
          "internalType": "bool",
          "name": "",
          "type": "bool"
        }
      ],
      "payable": false,
      "stateMutability": "view",
      "type": "function"
    },
    {
      "constant": true,
      "inputs": [],
      "name": "symbol",
      "outputs": [
        {
          "internalType": "string",
          "name": "",
          "type": "string"
        }
      ],
      "payable": false,
      "stateMutability": "view",
      "type": "function"
    },
    {
      "constant": true,
      "inputs": [
        {
          "internalType": "uint256",
          "name": "index",
          "type": "uint256"
        }
      ],
      "name": "tokenByIndex",
      "outputs": [
        {
          "internalType": "uint256",
          "name": "",
          "type": "uint256"
        }
      ],
      "payable": false,
      "stateMutability": "view",
      "type": "function"
    },
    {
      "constant": true,
      "inputs": [
        {
          "internalType": "address",
          "name": "owner",
          "type": "address"
        },
        {
          "internalType": "uint256",
          "name": "index",
          "type": "uint256"
        }
      ],
      "name": "tokenOfOwnerByIndex",
      "outputs": [
        {
          "internalType": "uint256",
          "name": "",
          "type": "uint256"
        }
      ],
      "payable": false,
      "stateMutability": "view",
      "type": "function"
    },
    {
      "constant": true,
      "inputs": [
        {
          "internalType": "uint256",
          "name": "tokenId",
          "type": "uint256"
        }
      ],
      "name": "tokenURI",
      "outputs": [
        {
          "internalType": "string",
          "name": "",
          "type": "string"
        }
      ],
      "payable": false,
      "stateMutability": "view",
      "type": "function"
    },
    {
      "constant": true,
      "inputs": [],
      "name": "totalSupply",
      "outputs": [
        {
          "internalType": "uint256",
          "name": "",
          "type": "uint256"
        }
      ],
      "payable": false,
      "stateMutability": "view",
      "type": "function"
    },
    {
      "constant": false,
      "inputs": [
        {
          "internalType": "address",
          "name": "from",
          "type": "address"
        },
        {
          "internalType": "address",
          "name": "to",
          "type": "address"
        },
        {
          "internalType": "uint256",
          "name": "tokenId",
          "type": "uint256"
        }
      ],
      "name": "transferFrom",
      "outputs": [],
      "payable": false,
      "stateMutability": "nonpayable",
      "type": "function"
    }
  ],
  "bytecode": "0x60806040523480156200001157600080fd5b50604051620019e9380380620019e9833981810160405260408110156200003757600080fd5b81019080805160405193929190846401000000008211156200005857600080fd5b9083019060208201858111156200006e57600080fd5b82516401000000008111828201881017156200008957600080fd5b82525081516020918201929091019080838360005b83811015620000b85781810151838201526020016200009e565b50505050905090810190601f168015620000e65780820380516001836020036101000a031916815260200191505b50604052602001805160405193929190846401000000008211156200010a57600080fd5b9083019060208201858111156200012057600080fd5b82516401000000008111828201881017156200013b57600080fd5b82525081516020918201929091019080838360005b838110156200016a57818101518382015260200162000150565b50505050905090810190601f168015620001985780820380516001836020036101000a031916815260200191505b5060405250839150829050620001be6301ffc9a760e01b6001600160e01b036200024516565b620001d96380ac58cd60e01b6001600160e01b036200024516565b620001f463780e9d6360e01b6001600160e01b036200024516565b815162000209906009906020850190620002ca565b5080516200021f90600a906020840190620002ca565b506200023b635b5e139f60e01b6001600160e01b036200024516565b505050506200036f565b6001600160e01b03198082161415620002a5576040805162461bcd60e51b815260206004820152601b60248201527f4b495031333a20696e76616c696420696e746572666163652069640000000000604482015290519081900360640190fd5b6001600160e01b0319166000908152602081905260409020805460ff19166001179055565b828054600181600116156101000203166002900490600052602060002090601f016020900481019282601f106200030d57805160ff19168380011785556200033d565b828001600101855582156200033d579182015b828111156200033d57825182559160200191906001019062000320565b506200034b9291506200034f565b5090565b6200036c91905b808211156200034b576000815560010162000356565b90565b61166a806200037f6000396000f3fe608060405234801561001057600080fd5b50600436106101005760003560e01c80634f6ccce711610097578063a22cb46511610066578063a22cb4651461033e578063b88d4fde1461036c578063c87b56dd14610432578063e985e9c51461044f57610100565b80634f6ccce7146102d65780636352211e146102f357806370a082311461031057806395d89b411461033657610100565b806318160ddd116100d357806318160ddd1461022457806323b872dd1461023e5780632f745c591461027457806342842e0e146102a057610100565b806301ffc9a71461010557806306fdde0314610140578063081812fc146101bd578063095ea7b3146101f6575b600080fd5b61012c6004803603602081101561011b57600080fd5b50356001600160e01b03191661047d565b604080519115158252519081900360200190f35b61014861049c565b6040805160208082528351818301528351919283929083019185019080838360005b8381101561018257818101518382015260200161016a565b50505050905090810190601f1680156101af5780820380516001836020036101000a031916815260200191505b509250505060405180910390f35b6101da600480360360208110156101d357600080fd5b5035610533565b604080516001600160a01b039092168252519081900360200190f35b6102226004803603604081101561020c57600080fd5b506001600160a01b038135169060200135610595565b005b61022c6106bc565b60408051918252519081900360200190f35b6102226004803603606081101561025457600080fd5b506001600160a01b038135811691602081013590911690604001356106c2565b61022c6004803603604081101561028a57600080fd5b506001600160a01b038135169060200135610717565b610222600480360360608110156102b657600080fd5b506001600160a01b03813581169160208101359091169060400135610796565b61022c600480360360208110156102ec57600080fd5b50356107b1565b6101da6004803603602081101561030957600080fd5b5035610817565b61022c6004803603602081101561032657600080fd5b50356001600160a01b0316610871565b6101486108d9565b6102226004803603604081101561035457600080fd5b506001600160a01b038135169060200135151561093a565b6102226004803603608081101561038257600080fd5b6001600160a01b038235811692602081013590911691604082013591908101906080810160608201356401000000008111156103bd57600080fd5b8201836020820111156103cf57600080fd5b803590602001918460018302840111640100000000831117156103f157600080fd5b91908080601f016020809104026020016040519081016040528093929190818152602001838380828437600092019190915250929550610a06945050505050565b6101486004803603602081101561044857600080fd5b5035610a5e565b61012c6004803603604081101561046557600080fd5b506001600160a01b0381358116916020013516610b43565b6001600160e01b03191660009081526020819052604090205460ff1690565b60098054604080516020601f60026000196101006001881615020190951694909404938401819004810282018101909252828152606093909290918301828280156105285780601f106104fd57610100808354040283529160200191610528565b820191906000526020600020905b81548152906001019060200180831161050b57829003601f168201915b505050505090505b90565b600061053e82610b71565b6105795760405162461bcd60e51b815260040180806020018281038252602b8152602001806115a9602b913960400191505060405180910390fd5b506000908152600260205260409020546001600160a01b031690565b60006105a082610817565b9050806001600160a01b0316836001600160a01b03161415610609576040805162461bcd60e51b815260206004820181905260248201527f4b495031373a20617070726f76616c20746f2063757272656e74206f776e6572604482015290519081900360640190fd5b336001600160a01b038216148061062557506106258133610b43565b6106605760405162461bcd60e51b81526004018080602001828103825260378152602001806115d46037913960400191505060405180910390fd5b60008281526002602052604080822080546001600160a01b0319166001600160a01b0387811691821790925591518593918516917f8c5be1e5ebec7d5bd14f71427d1e84f3dd0314c0f7b2291e5b200ac8c7c3b92591a4505050565b60075490565b6106cc3382610b8e565b6107075760405162461bcd60e51b81526004018080602001828103825260308152602001806114cd6030913960400191505060405180910390fd5b610712838383610c32565b505050565b600061072283610871565b821061075f5760405162461bcd60e51b815260040180806020018281038252602a81526020018061147b602a913960400191505060405180910390fd5b6001600160a01b038316600090815260056020526040902080548390811061078357fe5b9060005260206000200154905092915050565b61071283838360405180602001604052806000815250610a06565b60006107bb6106bc565b82106107f85760405162461bcd60e51b815260040180806020018281038252602b81526020018061157e602b913960400191505060405180910390fd5b6007828154811061080557fe5b90600052602060002001549050919050565b6000818152600160205260408120546001600160a01b03168061086b5760405162461bcd60e51b81526004018080602001828103825260288152602001806114a56028913960400191505060405180910390fd5b92915050565b60006001600160a01b0382166108b85760405162461bcd60e51b815260040180806020018281038252602981526020018061152d6029913960400191505060405180910390fd5b6001600160a01b038216600090815260036020526040902061086b90610c51565b600a8054604080516020601f60026000196101006001881615020190951694909404938401819004810282018101909252828152606093909290918301828280156105285780601f106104fd57610100808354040283529160200191610528565b6001600160a01b038216331415610998576040805162461bcd60e51b815260206004820152601860248201527f4b495031373a20617070726f766520746f2063616c6c65720000000000000000604482015290519081900360640190fd5b3360008181526004602090815260408083206001600160a01b03871680855290835292819020805460ff1916861515908117909155815190815290519293927f17307eab39ab6107e8899845ad3d59bd9653f200f220920489ca2b5937696c31929181900390910190a35050565b610a118484846106c2565b610a1d84848484610c55565b610a585760405162461bcd60e51b81526004018080602001828103825260308152602001806114fd6030913960400191505060405180910390fd5b50505050565b6060610a6982610b71565b610aa45760405162461bcd60e51b815260040180806020018281038252602e81526020018061142a602e913960400191505060405180910390fd5b6000828152600b602090815260409182902080548351601f600260001961010060018616150201909316929092049182018490048402810184019094528084529091830182828015610b375780601f10610b0c57610100808354040283529160200191610b37565b820191906000526020600020905b815481529060010190602001808311610b1a57829003601f168201915b50505050509050919050565b6001600160a01b03918216600090815260046020908152604080832093909416825291909152205460ff1690565b6000908152600160205260409020546001600160a01b0316151590565b6000610b9982610b71565b610bd45760405162461bcd60e51b815260040180806020018281038252602b81526020018061160b602b913960400191505060405180910390fd5b6000610bdf83610817565b9050806001600160a01b0316846001600160a01b03161480610c1a5750836001600160a01b0316610c0f84610533565b6001600160a01b0316145b80610c2a5750610c2a8185610b43565b949350505050565b610c3d838383611032565b610c478382611176565b610712828261126b565b5490565b6000806060610c6c866001600160a01b03166112a9565b610c7b57600192505050610c2a565b856001600160a01b031663150b7a0260e01b3389888860405160240180856001600160a01b03166001600160a01b03168152602001846001600160a01b03166001600160a01b0316815260200183815260200180602001828103825283818151815260200191508051906020019080838360005b83811015610d07578181015183820152602001610cef565b50505050905090810190601f168015610d345780820380516001836020036101000a031916815260200191505b5060408051601f198184030181529181526020820180516001600160e01b03166001600160e01b0319909a16999099178952518151919890975087965094509250829150849050835b60208310610d9c5780518252601f199092019160209182019101610d7d565b6001836020036101000a0380198251168184511680821785525050505050509050019150506000604051808303816000865af19150503d8060008114610dfe576040519150601f19603f3d011682016040523d82523d6000602084013e610e03565b606091505b508051919350915015801590610e4057508051630a85bd0160e11b9060208084019190811015610e3257600080fd5b50516001600160e01b031916145b15610e5057600192505050610c2a565b856001600160a01b0316636745782b60e01b3389888860405160240180856001600160a01b03166001600160a01b03168152602001846001600160a01b03166001600160a01b0316815260200183815260200180602001828103825283818151815260200191508051906020019080838360005b83811015610edc578181015183820152602001610ec4565b50505050905090810190601f168015610f095780820380516001836020036101000a031916815260200191505b5060408051601f198184030181529181526020820180516001600160e01b03166001600160e01b0319909a16999099178952518151919890975087965094509250829150849050835b60208310610f715780518252601f199092019160209182019101610f52565b6001836020036101000a0380198251168184511680821785525050505050509050019150506000604051808303816000865af19150503d8060008114610fd3576040519150601f19603f3d011682016040523d82523d6000602084013e610fd8565b606091505b50805191935091501580159061101557508051636745782b60e01b906020808401919081101561100757600080fd5b50516001600160e01b031916145b1561102557600192505050610c2a565b5060009695505050505050565b826001600160a01b031661104582610817565b6001600160a01b03161461108a5760405162461bcd60e51b81526004018080602001828103825260288152602001806115566028913960400191505060405180910390fd5b6001600160a01b0382166110cf5760405162461bcd60e51b81526004018080602001828103825260238152602001806114586023913960400191505060405180910390fd5b6110d8816112af565b6001600160a01b03831660009081526003602052604090206110f9906112ec565b6001600160a01b038216600090815260036020526040902061111a90611303565b60008181526001602052604080822080546001600160a01b0319166001600160a01b0386811691821790925591518493918716917fddf252ad1be2c89b69c2b068fc378daa952ba7f163c4a11628f55a4df523b3ef91a4505050565b6001600160a01b0382166000908152600560205260408120546111a090600163ffffffff61130c16565b60008381526006602052604090205490915080821461123b576001600160a01b03841660009081526005602052604081208054849081106111dd57fe5b906000526020600020015490508060056000876001600160a01b03166001600160a01b03168152602001908152602001600020838154811061121b57fe5b600091825260208083209091019290925591825260069052604090208190555b6001600160a01b03841660009081526005602052604090208054906112649060001983016113ec565b5050505050565b6001600160a01b0390911660009081526005602081815260408084208054868652600684529185208290559282526001810183559183529091200155565b3b151590565b6000818152600260205260409020546001600160a01b0316156112e957600081815260026020526040902080546001600160a01b03191690555b50565b80546112ff90600163ffffffff61130c16565b9055565b80546001019055565b600061134e83836040518060400160405280601e81526020017f536166654d6174683a207375627472616374696f6e206f766572666c6f770000815250611355565b9392505050565b600081848411156113e45760405162461bcd60e51b81526004018080602001828103825283818151815260200191508051906020019080838360005b838110156113a9578181015183820152602001611391565b50505050905090810190601f1680156113d65780820380516001836020036101000a031916815260200191505b509250505060405180910390fd5b505050900390565b8154818355818111156107125760008381526020902061071291810190830161053091905b808211156114255760008155600101611411565b509056fe4b495031374d657461646174613a2055524920717565727920666f72206e6f6e6578697374656e7420746f6b656e4b495031373a207472616e7366657220746f20746865207a65726f20616464726573734b49503137456e756d657261626c653a206f776e657220696e646578206f7574206f6620626f756e64734b495031373a206f776e657220717565727920666f72206e6f6e6578697374656e7420746f6b656e4b495031373a207472616e736665722063616c6c6572206973206e6f74206f776e6572206e6f7220617070726f7665644b495031373a207472616e7366657220746f206e6f6e204b49503137526563656976657220696d706c656d656e7465724b495031373a2062616c616e636520717565727920666f7220746865207a65726f20616464726573734b495031373a207472616e73666572206f6620746f6b656e2074686174206973206e6f74206f776e4b49503137456e756d657261626c653a20676c6f62616c20696e646578206f7574206f6620626f756e64734b495031373a20617070726f76656420717565727920666f72206e6f6e6578697374656e7420746f6b656e4b495031373a20617070726f76652063616c6c6572206973206e6f74206f776e6572206e6f7220617070726f76656420666f7220616c6c4b495031373a206f70657261746f7220717565727920666f72206e6f6e6578697374656e7420746f6b656ea265627a7a72315820012a857a855da85c5c43d226f2c3622708677d3a47713acaad239c6c78b4cf1564736f6c63430005110032",
  "linkReferences": {},
  "deployedLinkReferences": {}
}