{
  "_format": "hh-sol-artifact-1",
  "contractName": "SupportsInterfaceWithLookupMock",
  "sourceName": "contracts/klaytn-contracts/mocks/KIP13/KIP13InterfacesSupported.sol",
  "abi": [
    {
      "inputs": [],
      "payable": false,
      "stateMutability": "nonpayable",
      "type": "constructor"
    },
    {
      "constant": true,
      "inputs": [],
      "name": "INTERFACE_ID_KIP13",
      "outputs": [
        {
          "internalType": "bytes4",
          "name": "",
          "type": "bytes4"
        }
      ],
      "payable": false,
      "stateMutability": "view",
      "type": "function"
    },
    {
      "constant": true,
      "inputs": [
        {
          "internalType": "bytes4",
          "name": "interfaceId",
          "type": "bytes4"
        }
      ],
      "name": "supportsInterface",
      "outputs": [
        {
          "internalType": "bool",
          "name": "",
          "type": "bool"
        }
      ],
      "payable": false,
      "stateMutability": "view",
      "type": "function"
    }
  ],
  "bytecode": "0x608060405234801561001057600080fd5b5061002a6301ffc9a760e01b6001600160e01b0361002f16565b61009d565b6001600160e01b031980821614156100785760405162461bcd60e51b815260040180806020018281038252602e81526020018061019c602e913960400191505060405180910390fd5b6001600160e01b0319166000908152602081905260409020805460ff19166001179055565b60f1806100ab6000396000f3fe6080604052348015600f57600080fd5b506004361060325760003560e01c806301ffc9a7146037578063d81037cd14606f575b600080fd5b605b60048036036020811015604b57600080fd5b50356001600160e01b0319166092565b604080519115158252519081900360200190f35b607560b1565b604080516001600160e01b03199092168252519081900360200190f35b6001600160e01b03191660009081526020819052604090205460ff1690565b6301ffc9a760e01b8156fea265627a7a72315820ce14f0a064ecef095fe00298264095c081695c5f2fee89891755f81245855aa164736f6c634300051100324b49503133496e7465726661636573537570706f727465643a20696e76616c696420696e74657266616365206964",
  "linkReferences": {},
  "deployedLinkReferences": {}
}