{
  "_format": "hh-sol-artifact-1",
  "contractName": "KIP17FullMock",
  "sourceName": "contracts/klaytn-contracts/mocks/KIP17FullMock.sol",
  "abi": [
    {
      "inputs": [
        {
          "internalType": "string",
          "name": "name",
          "type": "string"
        },
        {
          "internalType": "string",
          "name": "symbol",
          "type": "string"
        }
      ],
      "payable": false,
      "stateMutability": "nonpayable",
      "type": "constructor"
    },
    {
      "anonymous": false,
      "inputs": [
        {
          "indexed": true,
          "internalType": "address",
          "name": "owner",
          "type": "address"
        },
        {
          "indexed": true,
          "internalType": "address",
          "name": "approved",
          "type": "address"
        },
        {
          "indexed": true,
          "internalType": "uint256",
          "name": "tokenId",
          "type": "uint256"
        }
      ],
      "name": "Approval",
      "type": "event"
    },
    {
      "anonymous": false,
      "inputs": [
        {
          "indexed": true,
          "internalType": "address",
          "name": "owner",
          "type": "address"
        },
        {
          "indexed": true,
          "internalType": "address",
          "name": "operator",
          "type": "address"
        },
        {
          "indexed": false,
          "internalType": "bool",
          "name": "approved",
          "type": "bool"
        }
      ],
      "name": "ApprovalForAll",
      "type": "event"
    },
    {
      "anonymous": false,
      "inputs": [
        {
          "indexed": true,
          "internalType": "address",
          "name": "account",
          "type": "address"
        }
      ],
      "name": "MinterAdded",
      "type": "event"
    },
    {
      "anonymous": false,
      "inputs": [
        {
          "indexed": true,
          "internalType": "address",
          "name": "account",
          "type": "address"
        }
      ],
      "name": "MinterRemoved",
      "type": "event"
    },
    {
      "anonymous": false,
      "inputs": [
        {
          "indexed": true,
          "internalType": "address",
          "name": "from",
          "type": "address"
        },
        {
          "indexed": true,
          "internalType": "address",
          "name": "to",
          "type": "address"
        },
        {
          "indexed": true,
          "internalType": "uint256",
          "name": "tokenId",
          "type": "uint256"
        }
      ],
      "name": "Transfer",
      "type": "event"
    },
    {
      "constant": false,
      "inputs": [
        {
          "internalType": "address",
          "name": "account",
          "type": "address"
        }
      ],
      "name": "addMinter",
      "outputs": [],
      "payable": false,
      "stateMutability": "nonpayable",
      "type": "function"
    },
    {
      "constant": false,
      "inputs": [
        {
          "internalType": "address",
          "name": "to",
          "type": "address"
        },
        {
          "internalType": "uint256",
          "name": "tokenId",
          "type": "uint256"
        }
      ],
      "name": "approve",
      "outputs": [],
      "payable": false,
      "stateMutability": "nonpayable",
      "type": "function"
    },
    {
      "constant": true,
      "inputs": [
        {
          "internalType": "address",
          "name": "owner",
          "type": "address"
        }
      ],
      "name": "balanceOf",
      "outputs": [
        {
          "internalType": "uint256",
          "name": "",
          "type": "uint256"
        }
      ],
      "payable": false,
      "stateMutability": "view",
      "type": "function"
    },
    {
      "constant": false,
      "inputs": [
        {
          "internalType": "uint256",
          "name": "tokenId",
          "type": "uint256"
        }
      ],
      "name": "burn",
      "outputs": [],
      "payable": false,
      "stateMutability": "nonpayable",
      "type": "function"
    },
    {
      "constant": true,
      "inputs": [
        {
          "internalType": "uint256",
          "name": "tokenId",
          "type": "uint256"
        }
      ],
      "name": "exists",
      "outputs": [
        {
          "internalType": "bool",
          "name": "",
          "type": "bool"
        }
      ],
      "payable": false,
      "stateMutability": "view",
      "type": "function"
    },
    {
      "constant": true,
      "inputs": [
        {
          "internalType": "uint256",
          "name": "tokenId",
          "type": "uint256"
        }
      ],
      "name": "getApproved",
      "outputs": [
        {
          "internalType": "address",
          "name": "",
          "type": "address"
        }
      ],
      "payable": false,
      "stateMutability": "view",
      "type": "function"
    },
    {
      "constant": true,
      "inputs": [
        {
          "internalType": "address",
          "name": "owner",
          "type": "address"
        },
        {
          "internalType": "address",
          "name": "operator",
          "type": "address"
        }
      ],
      "name": "isApprovedForAll",
      "outputs": [
        {
          "internalType": "bool",
          "name": "",
          "type": "bool"
        }
      ],
      "payable": false,
      "stateMutability": "view",
      "type": "function"
    },
    {
      "constant": true,
      "inputs": [
        {
          "internalType": "address",
          "name": "account",
          "type": "address"
        }
      ],
      "name": "isMinter",
      "outputs": [
        {
          "internalType": "bool",
          "name": "",
          "type": "bool"
        }
      ],
      "payable": false,
      "stateMutability": "view",
      "type": "function"
    },
    {
      "constant": false,
      "inputs": [
        {
          "internalType": "address",
          "name": "to",
          "type": "address"
        },
        {
          "internalType": "uint256",
          "name": "tokenId",
          "type": "uint256"
        }
      ],
      "name": "mint",
      "outputs": [
        {
          "internalType": "bool",
          "name": "",
          "type": "bool"
        }
      ],
      "payable": false,
      "stateMutability": "nonpayable",
      "type": "function"
    },
    {
      "constant": false,
      "inputs": [
        {
          "internalType": "address",
          "name": "to",
          "type": "address"
        },
        {
          "internalType": "uint256",
          "name": "tokenId",
          "type": "uint256"
        },
        {
          "internalType": "string",
          "name": "tokenURI",
          "type": "string"
        }
      ],
      "name": "mintWithTokenURI",
      "outputs": [
        {
          "internalType": "bool",
          "name": "",
          "type": "bool"
        }
      ],
      "payable": false,
      "stateMutability": "nonpayable",
      "type": "function"
    },
    {
      "constant": true,
      "inputs": [],
      "name": "name",
      "outputs": [
        {
          "internalType": "string",
          "name": "",
          "type": "string"
        }
      ],
      "payable": false,
      "stateMutability": "view",
      "type": "function"
    },
    {
      "constant": true,
      "inputs": [
        {
          "internalType": "uint256",
          "name": "tokenId",
          "type": "uint256"
        }
      ],
      "name": "ownerOf",
      "outputs": [
        {
          "internalType": "address",
          "name": "",
          "type": "address"
        }
      ],
      "payable": false,
      "stateMutability": "view",
      "type": "function"
    },
    {
      "constant": false,
      "inputs": [],
      "name": "renounceMinter",
      "outputs": [],
      "payable": false,
      "stateMutability": "nonpayable",
      "type": "function"
    },
    {
      "constant": false,
      "inputs": [
        {
          "internalType": "address",
          "name": "from",
          "type": "address"
        },
        {
          "internalType": "address",
          "name": "to",
          "type": "address"
        },
        {
          "internalType": "uint256",
          "name": "tokenId",
          "type": "uint256"
        }
      ],
      "name": "safeTransferFrom",
      "outputs": [],
      "payable": false,
      "stateMutability": "nonpayable",
      "type": "function"
    },
    {
      "constant": false,
      "inputs": [
        {
          "internalType": "address",
          "name": "from",
          "type": "address"
        },
        {
          "internalType": "address",
          "name": "to",
          "type": "address"
        },
        {
          "internalType": "uint256",
          "name": "tokenId",
          "type": "uint256"
        },
        {
          "internalType": "bytes",
          "name": "_data",
          "type": "bytes"
        }
      ],
      "name": "safeTransferFrom",
      "outputs": [],
      "payable": false,
      "stateMutability": "nonpayable",
      "type": "function"
    },
    {
      "constant": false,
      "inputs": [
        {
          "internalType": "address",
          "name": "to",
          "type": "address"
        },
        {
          "internalType": "bool",
          "name": "approved",
          "type": "bool"
        }
      ],
      "name": "setApprovalForAll",
      "outputs": [],
      "payable": false,
      "stateMutability": "nonpayable",
      "type": "function"
    },
    {
      "constant": false,
      "inputs": [
        {
          "internalType": "uint256",
          "name": "tokenId",
          "type": "uint256"
        },
        {
          "internalType": "string",
          "name": "uri",
          "type": "string"
        }
      ],
      "name": "setTokenURI",
      "outputs": [],
      "payable": false,
      "stateMutability": "nonpayable",
      "type": "function"
    },
    {
      "constant": true,
      "inputs": [
        {
          "internalType": "bytes4",
          "name": "interfaceId",
          "type": "bytes4"
        }
      ],
      "name": "supportsInterface",
      "outputs": [
        {
          "internalType": "bool",
          "name": "",
          "type": "bool"
        }
      ],
      "payable": false,
      "stateMutability": "view",
      "type": "function"
    },
    {
      "constant": true,
      "inputs": [],
      "name": "symbol",
      "outputs": [
        {
          "internalType": "string",
          "name": "",
          "type": "string"
        }
      ],
      "payable": false,
      "stateMutability": "view",
      "type": "function"
    },
    {
      "constant": true,
      "inputs": [
        {
          "internalType": "uint256",
          "name": "index",
          "type": "uint256"
        }
      ],
      "name": "tokenByIndex",
      "outputs": [
        {
          "internalType": "uint256",
          "name": "",
          "type": "uint256"
        }
      ],
      "payable": false,
      "stateMutability": "view",
      "type": "function"
    },
    {
      "constant": true,
      "inputs": [
        {
          "internalType": "address",
          "name": "owner",
          "type": "address"
        },
        {
          "internalType": "uint256",
          "name": "index",
          "type": "uint256"
        }
      ],
      "name": "tokenOfOwnerByIndex",
      "outputs": [
        {
          "internalType": "uint256",
          "name": "",
          "type": "uint256"
        }
      ],
      "payable": false,
      "stateMutability": "view",
      "type": "function"
    },
    {
      "constant": true,
      "inputs": [
        {
          "internalType": "uint256",
          "name": "tokenId",
          "type": "uint256"
        }
      ],
      "name": "tokenURI",
      "outputs": [
        {
          "internalType": "string",
          "name": "",
          "type": "string"
        }
      ],
      "payable": false,
      "stateMutability": "view",
      "type": "function"
    },
    {
      "constant": true,
      "inputs": [
        {
          "internalType": "address",
          "name": "owner",
          "type": "address"
        }
      ],
      "name": "tokensOfOwner",
      "outputs": [
        {
          "internalType": "uint256[]",
          "name": "",
          "type": "uint256[]"
        }
      ],
      "payable": false,
      "stateMutability": "view",
      "type": "function"
    },
    {
      "constant": true,
      "inputs": [],
      "name": "totalSupply",
      "outputs": [
        {
          "internalType": "uint256",
          "name": "",
          "type": "uint256"
        }
      ],
      "payable": false,
      "stateMutability": "view",
      "type": "function"
    },
    {
      "constant": false,
      "inputs": [
        {
          "internalType": "address",
          "name": "from",
          "type": "address"
        },
        {
          "internalType": "address",
          "name": "to",
          "type": "address"
        },
        {
          "internalType": "uint256",
          "name": "tokenId",
          "type": "uint256"
        }
      ],
      "name": "transferFrom",
      "outputs": [],
      "payable": false,
      "stateMutability": "nonpayable",
      "type": "function"
    }
  ],
  "bytecode": "0x60806040523480156200001157600080fd5b506040516200284238038062002842833981810160405260408110156200003757600080fd5b81019080805160405193929190846401000000008211156200005857600080fd5b9083019060208201858111156200006e57600080fd5b82516401000000008111828201881017156200008957600080fd5b82525081516020918201929091019080838360005b83811015620000b85781810151838201526020016200009e565b50505050905090810190601f168015620000e65780820380516001836020036101000a031916815260200191505b50604052602001805160405193929190846401000000008211156200010a57600080fd5b9083019060208201858111156200012057600080fd5b82516401000000008111828201881017156200013b57600080fd5b82525081516020918201929091019080838360005b838110156200016a57818101518382015260200162000150565b50505050905090810190601f168015620001985780820380516001836020036101000a031916815260200191505b50604052508391508290508181620001c06301ffc9a760e01b6001600160e01b03620002ab16565b620001db6380ac58cd60e01b6001600160e01b03620002ab16565b620001f663780e9d6360e01b6001600160e01b03620002ab16565b81516200020b90600990602085019062000478565b5080516200022190600a90602084019062000478565b506200023d635b5e139f60e01b6001600160e01b03620002ab16565b5050505062000252336200033060201b60201c565b6200026d630755c1f160e51b6001600160e01b03620002ab16565b62000288637d613fa360e11b6001600160e01b03620002ab16565b620002a3630852cd8d60e31b6001600160e01b03620002ab16565b50506200051d565b6001600160e01b031980821614156200030b576040805162461bcd60e51b815260206004820152601b60248201527f4b495031333a20696e76616c696420696e746572666163652069640000000000604482015290519081900360640190fd5b6001600160e01b0319166000908152602081905260409020805460ff19166001179055565b6200034b81600c6200038260201b62001afd1790919060201c565b6040516001600160a01b038216907f6ae172837ea30b801fbfcdd4108aa1d5bf8ff775444fd70256b44e6bf3dfc3f690600090a250565b6200039782826001600160e01b036200040f16565b15620003ea576040805162461bcd60e51b815260206004820152601f60248201527f526f6c65733a206163636f756e7420616c72656164792068617320726f6c6500604482015290519081900360640190fd5b6001600160a01b0316600090815260209190915260409020805460ff19166001179055565b60006001600160a01b038216620004585760405162461bcd60e51b8152600401808060200182810382526022815260200180620028206022913960400191505060405180910390fd5b506001600160a01b03166000908152602091909152604090205460ff1690565b828054600181600116156101000203166002900490600052602060002090601f016020900481019282601f10620004bb57805160ff1916838001178555620004eb565b82800160010185558215620004eb579182015b82811115620004eb578251825591602001919060010190620004ce565b50620004f9929150620004fd565b5090565b6200051a91905b80821115620004f9576000815560010162000504565b90565b6122f3806200052d6000396000f3fe608060405234801561001057600080fd5b50600436106101735760003560e01c80634f6ccce7116100de578063983b2d5611610097578063aa271e1a11610071578063aa271e1a14610651578063b88d4fde14610677578063c87b56dd1461073d578063e985e9c51461075a57610173565b8063983b2d56146105f5578063986502751461061b578063a22cb4651461062357610173565b80634f6ccce71461045c57806350bb4e7f146104795780636352211e1461053457806370a08231146105515780638462151c1461057757806395d89b41146105ed57610173565b806323b872dd1161013057806323b872dd1461035e5780632f745c591461039457806340c10f19146103c057806342842e0e146103ec57806342966c68146104225780634f558e791461043f57610173565b806301ffc9a71461017857806306fdde03146101b3578063081812fc14610230578063095ea7b314610269578063162094c41461029757806318160ddd14610344575b600080fd5b61019f6004803603602081101561018e57600080fd5b50356001600160e01b031916610788565b604080519115158252519081900360200190f35b6101bb6107a7565b6040805160208082528351818301528351919283929083019185019080838360005b838110156101f55781810151838201526020016101dd565b50505050905090810190601f1680156102225780820380516001836020036101000a031916815260200191505b509250505060405180910390f35b61024d6004803603602081101561024657600080fd5b503561083e565b604080516001600160a01b039092168252519081900360200190f35b6102956004803603604081101561027f57600080fd5b506001600160a01b0381351690602001356108a0565b005b610295600480360360408110156102ad57600080fd5b813591908101906040810160208201356401000000008111156102cf57600080fd5b8201836020820111156102e157600080fd5b8035906020019184600183028401116401000000008311171561030357600080fd5b91908080601f0160208091040260200160405190810160405280939291908181526020018383808284376000920191909152509295506109c7945050505050565b61034c6109d5565b60408051918252519081900360200190f35b6102956004803603606081101561037457600080fd5b506001600160a01b038135811691602081013590911690604001356109db565b61034c600480360360408110156103aa57600080fd5b506001600160a01b038135169060200135610a30565b61019f600480360360408110156103d657600080fd5b506001600160a01b038135169060200135610aaf565b6102956004803603606081101561040257600080fd5b506001600160a01b03813581169160208101359091169060400135610b08565b6102956004803603602081101561043857600080fd5b5035610b23565b61019f6004803603602081101561045557600080fd5b5035610b74565b61034c6004803603602081101561047257600080fd5b5035610b85565b61019f6004803603606081101561048f57600080fd5b6001600160a01b03823516916020810135918101906060810160408201356401000000008111156104bf57600080fd5b8201836020820111156104d157600080fd5b803590602001918460018302840111640100000000831117156104f357600080fd5b91908080601f016020809104026020016040519081016040528093929190818152602001838380828437600092019190915250929550610beb945050505050565b61024d6004803603602081101561054a57600080fd5b5035610c4f565b61034c6004803603602081101561056757600080fd5b50356001600160a01b0316610ca3565b61059d6004803603602081101561058d57600080fd5b50356001600160a01b0316610d0b565b60408051602080825283518183015283519192839290830191858101910280838360005b838110156105d95781810151838201526020016105c1565b505050509050019250505060405180910390f35b6101bb610d6c565b6102956004803603602081101561060b57600080fd5b50356001600160a01b0316610dcd565b610295610e1a565b6102956004803603604081101561063957600080fd5b506001600160a01b0381351690602001351515610e25565b61019f6004803603602081101561066757600080fd5b50356001600160a01b0316610ef1565b6102956004803603608081101561068d57600080fd5b6001600160a01b038235811692602081013590911691604082013591908101906080810160608201356401000000008111156106c857600080fd5b8201836020820111156106da57600080fd5b803590602001918460018302840111640100000000831117156106fc57600080fd5b91908080601f016020809104026020016040519081016040528093929190818152602001838380828437600092019190915250929550610f04945050505050565b6101bb6004803603602081101561075357600080fd5b5035610f5c565b61019f6004803603604081101561077057600080fd5b506001600160a01b0381358116916020013516611037565b6001600160e01b03191660009081526020819052604090205460ff1690565b60098054604080516020601f60026000196101006001881615020190951694909404938401819004810282018101909252828152606093909290918301828280156108335780601f1061080857610100808354040283529160200191610833565b820191906000526020600020905b81548152906001019060200180831161081657829003601f168201915b505050505090505b90565b600061084982611065565b6108845760405162461bcd60e51b815260040180806020018281038252602b815260200180612232602b913960400191505060405180910390fd5b506000908152600260205260409020546001600160a01b031690565b60006108ab82610c4f565b9050806001600160a01b0316836001600160a01b03161415610914576040805162461bcd60e51b815260206004820181905260248201527f4b495031373a20617070726f76616c20746f2063757272656e74206f776e6572604482015290519081900360640190fd5b336001600160a01b038216148061093057506109308133611037565b61096b5760405162461bcd60e51b815260040180806020018281038252603781526020018061225d6037913960400191505060405180910390fd5b60008281526002602052604080822080546001600160a01b0319166001600160a01b0387811691821790925591518593918516917f8c5be1e5ebec7d5bd14f71427d1e84f3dd0314c0f7b2291e5b200ac8c7c3b92591a4505050565b6109d18282611082565b5050565b60075490565b6109e533826110e5565b610a205760405162461bcd60e51b81526004018080602001828103825260308152602001806120e16030913960400191505060405180910390fd5b610a2b838383611189565b505050565b6000610a3b83610ca3565b8210610a785760405162461bcd60e51b815260040180806020018281038252602a815260200180612013602a913960400191505060405180910390fd5b6001600160a01b0383166000908152600560205260409020805483908110610a9c57fe5b9060005260206000200154905092915050565b6000610aba33610ef1565b610af55760405162461bcd60e51b815260040180806020018281038252603081526020018061203d6030913960400191505060405180910390fd5b610aff83836111a8565b50600192915050565b610a2b83838360405180602001604052806000815250610f04565b610b2d33826110e5565b610b685760405162461bcd60e51b815260040180806020018281038252602f815260200180612163602f913960400191505060405180910390fd5b610b71816111c5565b50565b6000610b7f82611065565b92915050565b6000610b8f6109d5565b8210610bcc5760405162461bcd60e51b815260040180806020018281038252602b8152602001806121e3602b913960400191505060405180910390fd5b60078281548110610bd957fe5b90600052602060002001549050919050565b6000610bf633610ef1565b610c315760405162461bcd60e51b815260040180806020018281038252603081526020018061203d6030913960400191505060405180910390fd5b610c3b84846111a8565b610c458383611082565b5060019392505050565b6000818152600160205260408120546001600160a01b031680610b7f5760405162461bcd60e51b815260040180806020018281038252602881526020018061208e6028913960400191505060405180910390fd5b60006001600160a01b038216610cea5760405162461bcd60e51b81526004018080602001828103825260298152602001806121926029913960400191505060405180910390fd5b6001600160a01b0382166000908152600360205260409020610b7f906111d7565b6060610d16826111db565b805480602002602001604051908101604052809291908181526020018280548015610d6057602002820191906000526020600020905b815481526020019060010190808311610d4c575b50505050509050919050565b600a8054604080516020601f60026000196101006001881615020190951694909404938401819004810282018101909252828152606093909290918301828280156108335780601f1061080857610100808354040283529160200191610833565b610dd633610ef1565b610e115760405162461bcd60e51b815260040180806020018281038252603081526020018061203d6030913960400191505060405180910390fd5b610b71816111f5565b610e233361123d565b565b6001600160a01b038216331415610e83576040805162461bcd60e51b815260206004820152601860248201527f4b495031373a20617070726f766520746f2063616c6c65720000000000000000604482015290519081900360640190fd5b3360008181526004602090815260408083206001600160a01b03871680855290835292819020805460ff1916861515908117909155815190815290519293927f17307eab39ab6107e8899845ad3d59bd9653f200f220920489ca2b5937696c31929181900390910190a35050565b6000610b7f600c8363ffffffff61128516565b610f0f8484846109db565b610f1b848484846112ec565b610f565760405162461bcd60e51b81526004018080602001828103825260308152602001806121336030913960400191505060405180910390fd5b50505050565b6060610f6782611065565b610fa25760405162461bcd60e51b815260040180806020018281038252602e815260200180611fc2602e913960400191505060405180910390fd5b6000828152600b602090815260409182902080548351601f600260001961010060018616150201909316929092049182018490048402810184019094528084529091830182828015610d605780601f1061100a57610100808354040283529160200191610d60565b820191906000526020600020905b8154815290600101906020018083116110185750939695505050505050565b6001600160a01b03918216600090815260046020908152604080832093909416825291909152205460ff1690565b6000908152600160205260409020546001600160a01b0316151590565b61108b82611065565b6110c65760405162461bcd60e51b815260040180806020018281038252602b8152602001806120b6602b913960400191505060405180910390fd5b6000828152600b602090815260409091208251610a2b92840190611ec5565b60006110f082611065565b61112b5760405162461bcd60e51b815260040180806020018281038252602b815260200180612294602b913960400191505060405180910390fd5b600061113683610c4f565b9050806001600160a01b0316846001600160a01b031614806111715750836001600160a01b03166111668461083e565b6001600160a01b0316145b8061118157506111818185611037565b949350505050565b6111948383836116c9565b61119e838261180d565b610a2b8282611902565b6111b28282611940565b6111bc8282611902565b6109d181611a71565b610b716111d182610c4f565b82611ab5565b5490565b6001600160a01b0316600090815260056020526040902090565b611206600c8263ffffffff611afd16565b6040516001600160a01b038216907f6ae172837ea30b801fbfcdd4108aa1d5bf8ff775444fd70256b44e6bf3dfc3f690600090a250565b61124e600c8263ffffffff611b7e16565b6040516001600160a01b038216907fe94479a9f7e1952cc78f2d6baab678adc1b772d936c6583def489e524cb6669290600090a250565b60006001600160a01b0382166112cc5760405162461bcd60e51b81526004018080602001828103825260228152602001806121116022913960400191505060405180910390fd5b506001600160a01b03166000908152602091909152604090205460ff1690565b6000806060611303866001600160a01b0316611be5565b61131257600192505050611181565b856001600160a01b031663150b7a0260e01b3389888860405160240180856001600160a01b03166001600160a01b03168152602001846001600160a01b03166001600160a01b0316815260200183815260200180602001828103825283818151815260200191508051906020019080838360005b8381101561139e578181015183820152602001611386565b50505050905090810190601f1680156113cb5780820380516001836020036101000a031916815260200191505b5060408051601f198184030181529181526020820180516001600160e01b03166001600160e01b0319909a16999099178952518151919890975087965094509250829150849050835b602083106114335780518252601f199092019160209182019101611414565b6001836020036101000a0380198251168184511680821785525050505050509050019150506000604051808303816000865af19150503d8060008114611495576040519150601f19603f3d011682016040523d82523d6000602084013e61149a565b606091505b5080519193509150158015906114d757508051630a85bd0160e11b90602080840191908110156114c957600080fd5b50516001600160e01b031916145b156114e757600192505050611181565b856001600160a01b0316636745782b60e01b3389888860405160240180856001600160a01b03166001600160a01b03168152602001846001600160a01b03166001600160a01b0316815260200183815260200180602001828103825283818151815260200191508051906020019080838360005b8381101561157357818101518382015260200161155b565b50505050905090810190601f1680156115a05780820380516001836020036101000a031916815260200191505b5060408051601f198184030181529181526020820180516001600160e01b03166001600160e01b0319909a16999099178952518151919890975087965094509250829150849050835b602083106116085780518252601f1990920191602091820191016115e9565b6001836020036101000a0380198251168184511680821785525050505050509050019150506000604051808303816000865af19150503d806000811461166a576040519150601f19603f3d011682016040523d82523d6000602084013e61166f565b606091505b5080519193509150158015906116ac57508051636745782b60e01b906020808401919081101561169e57600080fd5b50516001600160e01b031916145b156116bc57600192505050611181565b5060009695505050505050565b826001600160a01b03166116dc82610c4f565b6001600160a01b0316146117215760405162461bcd60e51b81526004018080602001828103825260288152602001806121bb6028913960400191505060405180910390fd5b6001600160a01b0382166117665760405162461bcd60e51b8152600401808060200182810382526023815260200180611ff06023913960400191505060405180910390fd5b61176f81611beb565b6001600160a01b038316600090815260036020526040902061179090611c26565b6001600160a01b03821660009081526003602052604090206117b190611c3d565b60008181526001602052604080822080546001600160a01b0319166001600160a01b0386811691821790925591518493918716917fddf252ad1be2c89b69c2b068fc378daa952ba7f163c4a11628f55a4df523b3ef91a4505050565b6001600160a01b03821660009081526005602052604081205461183790600163ffffffff611c4616565b6000838152600660205260409020549091508082146118d2576001600160a01b038416600090815260056020526040812080548490811061187457fe5b906000526020600020015490508060056000876001600160a01b03166001600160a01b0316815260200190815260200160002083815481106118b257fe5b600091825260208083209091019290925591825260069052604090208190555b6001600160a01b03841660009081526005602052604090208054906118fb906000198301611f43565b5050505050565b6001600160a01b0390911660009081526005602081815260408084208054868652600684529185208290559282526001810183559183529091200155565b6001600160a01b03821661199b576040805162461bcd60e51b815260206004820152601f60248201527f4b495031373a206d696e7420746f20746865207a65726f206164647265737300604482015290519081900360640190fd5b6119a481611065565b156119f6576040805162461bcd60e51b815260206004820152601b60248201527f4b495031373a20746f6b656e20616c7265616479206d696e7465640000000000604482015290519081900360640190fd5b600081815260016020908152604080832080546001600160a01b0319166001600160a01b038716908117909155835260039091529020611a3590611c3d565b60405181906001600160a01b038416906000907fddf252ad1be2c89b69c2b068fc378daa952ba7f163c4a11628f55a4df523b3ef908290a45050565b600780546000838152600860205260408120829055600182018355919091527fa66cc928b5edb82af9bd49922954155ab7b0942694bea4ce44661d9a8736c6880155565b611abf8282611c8f565b6000818152600b602052604090205460026000196101006001841615020190911604156109d1576000818152600b602052604081206109d191611f67565b611b078282611285565b15611b59576040805162461bcd60e51b815260206004820152601f60248201527f526f6c65733a206163636f756e7420616c72656164792068617320726f6c6500604482015290519081900360640190fd5b6001600160a01b0316600090815260209190915260409020805460ff19166001179055565b611b888282611285565b611bc35760405162461bcd60e51b815260040180806020018281038252602181526020018061206d6021913960400191505060405180910390fd5b6001600160a01b0316600090815260209190915260409020805460ff19169055565b3b151590565b6000818152600260205260409020546001600160a01b031615610b7157600090815260026020526040902080546001600160a01b0319169055565b8054611c3990600163ffffffff611c4616565b9055565b80546001019055565b6000611c8883836040518060400160405280601e81526020017f536166654d6174683a207375627472616374696f6e206f766572666c6f770000815250611cbb565b9392505050565b611c998282611d52565b611ca3828261180d565b6000818152600660205260408120556109d181611e29565b60008184841115611d4a5760405162461bcd60e51b81526004018080602001828103825283818151815260200191508051906020019080838360005b83811015611d0f578181015183820152602001611cf7565b50505050905090810190601f168015611d3c5780820380516001836020036101000a031916815260200191505b509250505060405180910390fd5b505050900390565b816001600160a01b0316611d6582610c4f565b6001600160a01b031614611daa5760405162461bcd60e51b815260040180806020018281038252602481526020018061220e6024913960400191505060405180910390fd5b611db381611beb565b6001600160a01b0382166000908152600360205260409020611dd490611c26565b60008181526001602052604080822080546001600160a01b0319169055518291906001600160a01b038516907fddf252ad1be2c89b69c2b068fc378daa952ba7f163c4a11628f55a4df523b3ef908390a45050565b600754600090611e4090600163ffffffff611c4616565b60008381526008602052604081205460078054939450909284908110611e6257fe5b906000526020600020015490508060078381548110611e7d57fe5b60009182526020808320909101929092558281526008909152604090208290556007805490611eb0906000198301611f43565b50505060009182525060086020526040812055565b828054600181600116156101000203166002900490600052602060002090601f016020900481019282601f10611f0657805160ff1916838001178555611f33565b82800160010185558215611f33579182015b82811115611f33578251825591602001919060010190611f18565b50611f3f929150611fa7565b5090565b815481835581811115610a2b57600083815260209020610a2b918101908301611fa7565b50805460018160011615610100020316600290046000825580601f10611f8d5750610b71565b601f016020900490600052602060002090810190610b7191905b61083b91905b80821115611f3f5760008155600101611fad56fe4b495031374d657461646174613a2055524920717565727920666f72206e6f6e6578697374656e7420746f6b656e4b495031373a207472616e7366657220746f20746865207a65726f20616464726573734b49503137456e756d657261626c653a206f776e657220696e646578206f7574206f6620626f756e64734d696e746572526f6c653a2063616c6c657220646f6573206e6f74206861766520746865204d696e74657220726f6c65526f6c65733a206163636f756e7420646f6573206e6f74206861766520726f6c654b495031373a206f776e657220717565727920666f72206e6f6e6578697374656e7420746f6b656e4b495031374d657461646174613a2055524920736574206f66206e6f6e6578697374656e7420746f6b656e4b495031373a207472616e736665722063616c6c6572206973206e6f74206f776e6572206e6f7220617070726f766564526f6c65733a206163636f756e7420697320746865207a65726f20616464726573734b495031373a207472616e7366657220746f206e6f6e204b49503137526563656976657220696d706c656d656e7465724b495031374275726e61626c653a2063616c6c6572206973206e6f74206f776e6572206e6f7220617070726f7665644b495031373a2062616c616e636520717565727920666f7220746865207a65726f20616464726573734b495031373a207472616e73666572206f6620746f6b656e2074686174206973206e6f74206f776e4b49503137456e756d657261626c653a20676c6f62616c20696e646578206f7574206f6620626f756e64734b495031373a206275726e206f6620746f6b656e2074686174206973206e6f74206f776e4b495031373a20617070726f76656420717565727920666f72206e6f6e6578697374656e7420746f6b656e4b495031373a20617070726f76652063616c6c6572206973206e6f74206f776e6572206e6f7220617070726f76656420666f7220616c6c4b495031373a206f70657261746f7220717565727920666f72206e6f6e6578697374656e7420746f6b656ea265627a7a723158202da86736acc8dc42b7c614576007ec047e8239d0e8cee4c9fa3bb1fd3c1a529a64736f6c63430005110032526f6c65733a206163636f756e7420697320746865207a65726f2061646472657373",
  "linkReferences": {},
  "deployedLinkReferences": {}
}