{
  "_format": "hh-sol-artifact-1",
  "contractName": "GaiaStableDAOOperator",
  "sourceName": "contracts/GaiaStableDAOOperator.sol",
  "abi": [
    {
      "inputs": [
        {
          "internalType": "contract IGaiaStableDAO",
          "name": "_stableDAO",
          "type": "address"
        },
        {
          "internalType": "address",
          "name": "_gaiaKronos",
          "type": "address"
        },
        {
          "internalType": "address",
          "name": "_supernova",
          "type": "address"
        },
        {
          "internalType": "address",
          "name": "_KUSDT",
          "type": "address"
        },
        {
          "internalType": "address",
          "name": "_KSP",
          "type": "address"
        },
        {
          "internalType": "address",
          "name": "_KUSDT_KS_POOL",
          "type": "address"
        },
        {
          "internalType": "address",
          "name": "_KUSDT_KLAY_LP",
          "type": "address"
        },
        {
          "internalType": "address",
          "name": "_devFund",
          "type": "address"
        }
      ],
      "stateMutability": "nonpayable",
      "type": "constructor"
    },
    {
      "anonymous": false,
      "inputs": [
        {
          "indexed": true,
          "internalType": "address",
          "name": "user",
          "type": "address"
        },
        {
          "indexed": true,
          "internalType": "uint256",
          "name": "id",
          "type": "uint256"
        }
      ],
      "name": "BuyBack",
      "type": "event"
    },
    {
      "anonymous": false,
      "inputs": [
        {
          "indexed": false,
          "internalType": "uint256",
          "name": "amountOfKUSDT",
          "type": "uint256"
        },
        {
          "indexed": false,
          "internalType": "uint256",
          "name": "amountOfKSP",
          "type": "uint256"
        }
      ],
      "name": "ClaimInterest",
      "type": "event"
    },
    {
      "anonymous": false,
      "inputs": [
        {
          "indexed": false,
          "internalType": "uint256",
          "name": "amountOfKSP",
          "type": "uint256"
        }
      ],
      "name": "ClaimKSPReward",
      "type": "event"
    },
    {
      "anonymous": false,
      "inputs": [
        {
          "indexed": false,
          "internalType": "uint256",
          "name": "amountOfKUSDT",
          "type": "uint256"
        },
        {
          "indexed": false,
          "internalType": "uint256",
          "name": "amountOfKSP",
          "type": "uint256"
        }
      ],
      "name": "EmergencyWithdraw",
      "type": "event"
    },
    {
      "anonymous": false,
      "inputs": [
        {
          "indexed": true,
          "internalType": "address",
          "name": "previousOwner",
          "type": "address"
        },
        {
          "indexed": true,
          "internalType": "address",
          "name": "newOwner",
          "type": "address"
        }
      ],
      "name": "OwnershipTransferred",
      "type": "event"
    },
    {
      "anonymous": false,
      "inputs": [
        {
          "indexed": false,
          "internalType": "uint256",
          "name": "priceForII",
          "type": "uint256"
        }
      ],
      "name": "SetPriceForII",
      "type": "event"
    },
    {
      "anonymous": false,
      "inputs": [
        {
          "indexed": false,
          "internalType": "address",
          "name": "newDevFund",
          "type": "address"
        }
      ],
      "name": "UpdateDevFund",
      "type": "event"
    },
    {
      "stateMutability": "payable",
      "type": "fallback"
    },
    {
      "inputs": [],
      "name": "BUYBACKPRICE",
      "outputs": [
        {
          "internalType": "uint256",
          "name": "",
          "type": "uint256"
        }
      ],
      "stateMutability": "view",
      "type": "function"
    },
    {
      "inputs": [],
      "name": "KSP",
      "outputs": [
        {
          "internalType": "contract IERC20",
          "name": "",
          "type": "address"
        }
      ],
      "stateMutability": "view",
      "type": "function"
    },
    {
      "inputs": [],
      "name": "KUSDT",
      "outputs": [
        {
          "internalType": "contract IERC20",
          "name": "",
          "type": "address"
        }
      ],
      "stateMutability": "view",
      "type": "function"
    },
    {
      "inputs": [],
      "name": "KUSDT_KLAY_LP",
      "outputs": [
        {
          "internalType": "contract IKSLP",
          "name": "",
          "type": "address"
        }
      ],
      "stateMutability": "view",
      "type": "function"
    },
    {
      "inputs": [],
      "name": "KUSDT_KS_POOL",
      "outputs": [
        {
          "internalType": "contract IKSSinglePool",
          "name": "",
          "type": "address"
        }
      ],
      "stateMutability": "view",
      "type": "function"
    },
    {
      "inputs": [],
      "name": "PUBLICPRICE",
      "outputs": [
        {
          "internalType": "uint256",
          "name": "",
          "type": "uint256"
        }
      ],
      "stateMutability": "view",
      "type": "function"
    },
    {
      "inputs": [],
      "name": "burnedTokensAmount",
      "outputs": [
        {
          "internalType": "uint256",
          "name": "",
          "type": "uint256"
        }
      ],
      "stateMutability": "view",
      "type": "function"
    },
    {
      "inputs": [
        {
          "internalType": "uint256[]",
          "name": "ids",
          "type": "uint256[]"
        }
      ],
      "name": "buyBack",
      "outputs": [],
      "stateMutability": "nonpayable",
      "type": "function"
    },
    {
      "inputs": [],
      "name": "claimInterest",
      "outputs": [],
      "stateMutability": "nonpayable",
      "type": "function"
    },
    {
      "inputs": [],
      "name": "claimKSPReward",
      "outputs": [],
      "stateMutability": "nonpayable",
      "type": "function"
    },
    {
      "inputs": [
        {
          "internalType": "address",
          "name": "token",
          "type": "address"
        }
      ],
      "name": "claimTokens",
      "outputs": [],
      "stateMutability": "nonpayable",
      "type": "function"
    },
    {
      "inputs": [],
      "name": "devFund",
      "outputs": [
        {
          "internalType": "address",
          "name": "",
          "type": "address"
        }
      ],
      "stateMutability": "view",
      "type": "function"
    },
    {
      "inputs": [
        {
          "internalType": "uint256",
          "name": "iKUSDTAmount",
          "type": "uint256"
        }
      ],
      "name": "emergencyWithdraw",
      "outputs": [],
      "stateMutability": "nonpayable",
      "type": "function"
    },
    {
      "inputs": [
        {
          "internalType": "uint256",
          "name": "totalKUSDTAmount",
          "type": "uint256"
        }
      ],
      "name": "estimateNeededKlayForZapping",
      "outputs": [
        {
          "internalType": "uint256",
          "name": "neededKlay",
          "type": "uint256"
        }
      ],
      "stateMutability": "view",
      "type": "function"
    },
    {
      "inputs": [],
      "name": "gaiaKronos",
      "outputs": [
        {
          "internalType": "address",
          "name": "",
          "type": "address"
        }
      ],
      "stateMutability": "view",
      "type": "function"
    },
    {
      "inputs": [],
      "name": "gaiaSupernova",
      "outputs": [
        {
          "internalType": "address",
          "name": "",
          "type": "address"
        }
      ],
      "stateMutability": "view",
      "type": "function"
    },
    {
      "inputs": [],
      "name": "getBurnedIds",
      "outputs": [
        {
          "internalType": "uint16[]",
          "name": "",
          "type": "uint16[]"
        }
      ],
      "stateMutability": "view",
      "type": "function"
    },
    {
      "inputs": [
        {
          "internalType": "address",
          "name": "",
          "type": "address"
        }
      ],
      "name": "isListedII",
      "outputs": [
        {
          "internalType": "bool",
          "name": "",
          "type": "bool"
        }
      ],
      "stateMutability": "view",
      "type": "function"
    },
    {
      "inputs": [
        {
          "internalType": "uint256",
          "name": "amount",
          "type": "uint256"
        },
        {
          "internalType": "address",
          "name": "nft",
          "type": "address"
        }
      ],
      "name": "mintStableDAO",
      "outputs": [],
      "stateMutability": "nonpayable",
      "type": "function"
    },
    {
      "inputs": [
        {
          "internalType": "uint256",
          "name": "amount",
          "type": "uint256"
        },
        {
          "internalType": "address[]",
          "name": "path",
          "type": "address[]"
        }
      ],
      "name": "mintStableDAOAsII",
      "outputs": [],
      "stateMutability": "payable",
      "type": "function"
    },
    {
      "inputs": [
        {
          "internalType": "address",
          "name": "",
          "type": "address"
        }
      ],
      "name": "mintedAmountWithGaiaKronos",
      "outputs": [
        {
          "internalType": "uint256",
          "name": "",
          "type": "uint256"
        }
      ],
      "stateMutability": "view",
      "type": "function"
    },
    {
      "inputs": [
        {
          "internalType": "address",
          "name": "",
          "type": "address"
        }
      ],
      "name": "mintedAmountWithGaiaSupernova",
      "outputs": [
        {
          "internalType": "uint256",
          "name": "",
          "type": "uint256"
        }
      ],
      "stateMutability": "view",
      "type": "function"
    },
    {
      "inputs": [],
      "name": "owner",
      "outputs": [
        {
          "internalType": "address",
          "name": "",
          "type": "address"
        }
      ],
      "stateMutability": "view",
      "type": "function"
    },
    {
      "inputs": [],
      "name": "renounceOwnership",
      "outputs": [],
      "stateMutability": "nonpayable",
      "type": "function"
    },
    {
      "inputs": [
        {
          "internalType": "address[]",
          "name": "iis",
          "type": "address[]"
        },
        {
          "internalType": "bool[]",
          "name": "eligible",
          "type": "bool[]"
        }
      ],
      "name": "setIIList",
      "outputs": [],
      "stateMutability": "nonpayable",
      "type": "function"
    },
    {
      "inputs": [
        {
          "internalType": "uint256",
          "name": "_priceForII",
          "type": "uint256"
        }
      ],
      "name": "setPriceForII",
      "outputs": [],
      "stateMutability": "nonpayable",
      "type": "function"
    },
    {
      "inputs": [
        {
          "internalType": "address[]",
          "name": "users",
          "type": "address[]"
        },
        {
          "internalType": "uint256[]",
          "name": "tickets",
          "type": "uint256[]"
        }
      ],
      "name": "setWhitelist",
      "outputs": [],
      "stateMutability": "nonpayable",
      "type": "function"
    },
    {
      "inputs": [],
      "name": "stableDAO",
      "outputs": [
        {
          "internalType": "contract IGaiaStableDAO",
          "name": "",
          "type": "address"
        }
      ],
      "stateMutability": "view",
      "type": "function"
    },
    {
      "inputs": [
        {
          "internalType": "address",
          "name": "newOwner",
          "type": "address"
        }
      ],
      "name": "transferOwnership",
      "outputs": [],
      "stateMutability": "nonpayable",
      "type": "function"
    },
    {
      "inputs": [
        {
          "internalType": "address",
          "name": "newDevFund",
          "type": "address"
        }
      ],
      "name": "updateDevFund",
      "outputs": [],
      "stateMutability": "nonpayable",
      "type": "function"
    },
    {
      "inputs": [
        {
          "internalType": "address",
          "name": "",
          "type": "address"
        }
      ],
      "name": "whitelistedAmount",
      "outputs": [
        {
          "internalType": "uint256",
          "name": "",
          "type": "uint256"
        }
      ],
      "stateMutability": "view",
      "type": "function"
    },
    {
      "stateMutability": "payable",
      "type": "receive"
    }
  ],
  "bytecode": "0x6101606040523480156200001257600080fd5b5060405162003578380380620035788339810160408190526200003591620001da565b620000403362000171565b600180556001600160a01b038816158015906200006557506001600160a01b03871615155b80156200007a57506001600160a01b03861615155b80156200008f57506001600160a01b03851615155b8015620000a457506001600160a01b03841615155b8015620000b957506001600160a01b03831615155b8015620000ce57506001600160a01b03821615155b8015620000e357506001600160a01b03811615155b620001245760405162461bcd60e51b815260206004820152600d60248201526c57524f4e475f4144445245535360981b604482015260640160405180910390fd5b6001600160a01b0397881660805295871660a05293861660c05291851660e052841661010052831661012052821661014052600780546001600160a01b031916919092161790556200029b565b600080546001600160a01b038381166001600160a01b0319831681178455604051919092169283917f8be0079c531659141344cd1fd0a4f28419497f9722a3daafe3b4186f6b6457e09190a35050565b6001600160a01b0381168114620001d757600080fd5b50565b600080600080600080600080610100898b031215620001f857600080fd5b88516200020581620001c1565b60208a01519098506200021881620001c1565b60408a01519097506200022b81620001c1565b60608a01519096506200023e81620001c1565b60808a01519095506200025181620001c1565b60a08a01519094506200026481620001c1565b60c08a01519093506200027781620001c1565b60e08a01519092506200028a81620001c1565b809150509295985092959890939650565b60805160a05160c05160e05161010051610120516101405161317f620003f96000396000818161033201526110980152600081816104110152818161069701528181610b7001528181610bfc01528181612233015281816122a00152818161234f0152818161245601526124da0152600081816105050152818161071f015281816107ad015281816109e301528181610a7001528181610d0e01528181610e840152611b7b01526000818161021f0152818161095001528181610c7701528181610d99015281816110c5015281816113ee0152818161187b0152818161198601528181611ba301528181611cae01526124290152600081816102fe0152818161160301526116730152600081816102aa015281816114be01526115200152600081816105de015281816108920152818161117f0152818161126b0152818161256201528181612695015281816127900152612830015261317f6000f3fe6080604052600436106101c45760003560e01c806391a7fa32116100f6578063d8d587311161008f578063ebd8781911610061578063ebd87819146105cc578063f013e0e114610600578063f2fde38b14610620578063fa00992a1461064057005b8063d8d587311461053f578063df8de3e71461055f578063e40db51e1461057f578063e8d8a2551461059f57005b8063b22bca72116100c8578063b22bca72146104a0578063b373e347146104e0578063bcee54ac146104f3578063d8116d391461052757005b806391a7fa32146103ff5780639f4f393014610433578063a8087d2f14610460578063b104c5c41461048057005b8063464039ba1161016857806374bf35fd1161013a57806374bf35fd146103895780637642eb01146103a1578063834b843b146103c15780638da5cb5b146103e157005b8063464039ba146102ec5780634e9da4fe146103205780635312ea8e14610354578063715018a61461037457005b806335981fd8116101a157806335981fd81461026e578063387c588414610283578063424ddd31146102985780634390d2a8146102cc57005b80630647079b146101cd5780631928c8f51461020d57806323d821961461025957005b366101cb57005b005b3480156101d957600080fd5b506101fa6101e8366004612ce0565b60036020526000908152604090205481565b6040519081526020015b60405180910390f35b34801561021957600080fd5b506102417f000000000000000000000000000000000000000000000000000000000000000081565b6040516001600160a01b039091168152602001610204565b34801561026557600080fd5b506101cb610662565b34801561027a57600080fd5b506101cb61085f565b34801561028f57600080fd5b506008546101fa565b3480156102a457600080fd5b506102417f000000000000000000000000000000000000000000000000000000000000000081565b3480156102d857600080fd5b50600754610241906001600160a01b031681565b3480156102f857600080fd5b506102417f000000000000000000000000000000000000000000000000000000000000000081565b34801561032c57600080fd5b506102417f000000000000000000000000000000000000000000000000000000000000000081565b34801561036057600080fd5b506101cb61036f366004612cfd565b610b28565b34801561038057600080fd5b506101cb610fa0565b34801561039557600080fd5b506101fa634d7c6d0081565b3480156103ad57600080fd5b506101cb6103bc366004612cfd565b610fd6565b3480156103cd57600080fd5b506101fa6103dc366004612cfd565b61107e565b3480156103ed57600080fd5b506000546001600160a01b0316610241565b34801561040b57600080fd5b506102417f000000000000000000000000000000000000000000000000000000000000000081565b34801561043f57600080fd5b506101fa61044e366004612ce0565b60046020526000908152604090205481565b34801561046c57600080fd5b506101cb61047b366004612d62565b611136565b34801561048c57600080fd5b506101cb61049b366004612da4565b61146e565b3480156104ac57600080fd5b506104d06104bb366004612ce0565b60066020526000908152604090205460ff1681565b6040519015158152602001610204565b6101cb6104ee366004612dd4565b611a42565b3480156104ff57600080fd5b506102417f000000000000000000000000000000000000000000000000000000000000000081565b34801561053357600080fd5b506101fa6347868c0081565b34801561054b57600080fd5b506101cb61055a366004612e20565b611d72565b34801561056b57600080fd5b506101cb61057a366004612ce0565b611e7c565b34801561058b57600080fd5b506101cb61059a366004612ce0565b611f44565b3480156105ab57600080fd5b506101fa6105ba366004612ce0565b60056020526000908152604090205481565b3480156105d857600080fd5b506102417f000000000000000000000000000000000000000000000000000000000000000081565b34801561060c57600080fd5b506101cb61061b366004612e20565b612007565b34801561062c57600080fd5b506101cb61063b366004612ce0565b6120ee565b34801561064c57600080fd5b50610655612189565b6040516102049190612e8c565b6000546001600160a01b031633146106955760405162461bcd60e51b815260040161068c90612ed4565b60405180910390fd5b7f00000000000000000000000000000000000000000000000000000000000000006001600160a01b031663b88a802f6040518163ffffffff1660e01b8152600401600060405180830381600087803b1580156106f057600080fd5b505af1158015610704573d6000803e3d6000fd5b50506040516370a0823160e01b8152306004820152600092507f00000000000000000000000000000000000000000000000000000000000000006001600160a01b031691506370a0823190602401602060405180830381865afa15801561076f573d6000803e3d6000fd5b505050506040513d601f19601f820116820180604052508101906107939190612f09565b60405163a9059cbb60e01b81529091506001600160a01b037f0000000000000000000000000000000000000000000000000000000000000000169063a9059cbb906107e49033908590600401612f22565b6020604051808303816000875af1158015610803573d6000803e3d6000fd5b505050506040513d601f19601f820116820180604052508101906108279190612f49565b506040518181527f827033f41b04f3a38de270190753a9e2f8282ed861e7c39ee3534e9139a67822906020015b60405180910390a150565b6000546001600160a01b031633146108895760405162461bcd60e51b815260040161068c90612ed4565b60006347868c007f00000000000000000000000000000000000000000000000000000000000000006001600160a01b03166318160ddd6040518163ffffffff1660e01b8152600401602060405180830381865afa1580156108ee573d6000803e3d6000fd5b505050506040513d601f19601f820116820180604052508101906109129190612f09565b61091c9190612f7c565b610924612209565b61092e9190612f9b565b905061093981612339565b60405163a9059cbb60e01b81526001600160a01b037f0000000000000000000000000000000000000000000000000000000000000000169063a9059cbb906109879033908590600401612f22565b6020604051808303816000875af11580156109a6573d6000803e3d6000fd5b505050506040513d601f19601f820116820180604052508101906109ca9190612f49565b506040516370a0823160e01b81523060048201526000907f00000000000000000000000000000000000000000000000000000000000000006001600160a01b0316906370a0823190602401602060405180830381865afa158015610a32573d6000803e3d6000fd5b505050506040513d601f19601f82011682018060405250810190610a569190612f09565b60405163a9059cbb60e01b81529091506001600160a01b037f0000000000000000000000000000000000000000000000000000000000000000169063a9059cbb90610aa79033908590600401612f22565b6020604051808303816000875af1158015610ac6573d6000803e3d6000fd5b505050506040513d601f19601f82011682018060405250810190610aea9190612f49565b5060408051838152602081018390527fc3ffd12cb2da41d132d91075fe44e4bac86de74fc7cb8decfbee8b91b0d7e78d910160405180910390a15050565b6000546001600160a01b03163314610b525760405162461bcd60e51b815260040161068c90612ed4565b6000198103610be6576040516370a0823160e01b81523060048201527f00000000000000000000000000000000000000000000000000000000000000006001600160a01b0316906370a0823190602401602060405180830381865afa158015610bbf573d6000803e3d6000fd5b505050506040513d601f19601f82011682018060405250810190610be39190612f09565b90505b604051635521e9bf60e01b8152600481018290527f00000000000000000000000000000000000000000000000000000000000000006001600160a01b031690635521e9bf90602401600060405180830381600087803b158015610c4857600080fd5b505af1158015610c5c573d6000803e3d6000fd5b50506040516370a0823160e01b8152306004820152600092507f00000000000000000000000000000000000000000000000000000000000000006001600160a01b031691506370a0823190602401602060405180830381865afa158015610cc7573d6000803e3d6000fd5b505050506040513d601f19601f82011682018060405250810190610ceb9190612f09565b6040516370a0823160e01b81523060048201529091506000906001600160a01b037f000000000000000000000000000000000000000000000000000000000000000016906370a0823190602401602060405180830381865afa158015610d55573d6000803e3d6000fd5b505050506040513d601f19601f82011682018060405250810190610d799190612f09565b6040516370a0823160e01b81523060048201529091506001600160a01b037f0000000000000000000000000000000000000000000000000000000000000000169063a9059cbb90339083906370a0823190602401602060405180830381865afa158015610dea573d6000803e3d6000fd5b505050506040513d601f19601f82011682018060405250810190610e0e9190612f09565b6040518363ffffffff1660e01b8152600401610e2b929190612f22565b6020604051808303816000875af1158015610e4a573d6000803e3d6000fd5b505050506040513d601f19601f82011682018060405250810190610e6e9190612f49565b506040516370a0823160e01b81523060048201527f00000000000000000000000000000000000000000000000000000000000000006001600160a01b03169063a9059cbb90339083906370a0823190602401602060405180830381865afa158015610edd573d6000803e3d6000fd5b505050506040513d601f19601f82011682018060405250810190610f019190612f09565b6040518363ffffffff1660e01b8152600401610f1e929190612f22565b6020604051808303816000875af1158015610f3d573d6000803e3d6000fd5b505050506040513d601f19601f82011682018060405250810190610f619190612f49565b5060408051838152602081018390527fb073e6fbd06d7557d2c82f414fee57de28e7fb517ecc0afdd6b1fc57034a9cb8910160405180910390a1505050565b6000546001600160a01b03163314610fca5760405162461bcd60e51b815260040161068c90612ed4565b610fd460006123af565b565b6000546001600160a01b031633146110005760405162461bcd60e51b815260040161068c90612ed4565b6347868c008110156110495760405162461bcd60e51b8152602060048201526012602482015271494e56414c49445f5052494345464f52494960701b604482015260640161068c565b60028190556040518181527faddbfdd6b306d5763bccf05efd206438a3c37d233894f16d6256d937750a73e190602001610854565b60405163603acc2160e11b81526000906001600160a01b037f0000000000000000000000000000000000000000000000000000000000000000169063c0759842906110ef907f0000000000000000000000000000000000000000000000000000000000000000908690600401612f22565b602060405180830381865afa15801561110c573d6000803e3d6000fd5b505050506040513d601f19601f820116820180604052508101906111309190612f09565b92915050565b806111715760405162461bcd60e51b815260206004820152600b60248201526a494e56414c49445f49445360a81b604482015260640161068c565b60005b818110156113bb57337f00000000000000000000000000000000000000000000000000000000000000006001600160a01b0316636352211e8585858181106111be576111be612fb2565b905060200201356040518263ffffffff1660e01b81526004016111e391815260200190565b602060405180830381865afa158015611200573d6000803e3d6000fd5b505050506040513d601f19601f820116820180604052508101906112249190612fc8565b6001600160a01b0316146112695760405162461bcd60e51b815260206004820152600c60248201526b15539055551213d49256915160a21b604482015260640161068c565b7f00000000000000000000000000000000000000000000000000000000000000006001600160a01b03166342966c688484848181106112aa576112aa612fb2565b905060200201356040518263ffffffff1660e01b81526004016112cf91815260200190565b600060405180830381600087803b1580156112e957600080fd5b505af11580156112fd573d6000803e3d6000fd5b50505050600883838381811061131557611315612fb2565b835460018101855560009485526020948590206010820401805461ffff96909302949094013585166002600f909216919091026101000a908102940219169290921790555082828281811061136c5761136c612fb2565b90506020020135336001600160a01b03167f515a362443b428d4aab92057f742255c765d68033ba3f00847b57e323d0468d460405160405180910390a3806113b381612fe5565b915050611174565b5060006113cc6347868c0083612f7c565b90506113d781612339565b60405163a9059cbb60e01b81526001600160a01b037f0000000000000000000000000000000000000000000000000000000000000000169063a9059cbb906114259033908590600401612f22565b6020604051808303816000875af1158015611444573d6000803e3d6000fd5b505050506040513d601f19601f820116820180604052508101906114689190612f49565b50505050565b816000036114af5760405162461bcd60e51b815260206004820152600e60248201526d1253959053125117d05353d5539560921b604482015260640161068c565b634d7c6d006001600160a01b037f00000000000000000000000000000000000000000000000000000000000000008116908316036116015750336000818152600360205260408082205490516370a0823160e01b815260048101939093526347868c00929091906001600160a01b037f000000000000000000000000000000000000000000000000000000000000000016906370a0823190602401602060405180830381865afa158015611567573d6000803e3d6000fd5b505050506040513d601f19601f8201168201806040525081019061158b9190612f09565b9050806115988684612ffe565b11156115df5760405162461bcd60e51b81526020600482015260166024820152754e4f545f454e4f5547485f474149415f4b524f4e4f5360501b604482015260640161068c565b6115e98583612ffe565b33600090815260036020526040902055506118719050565b7f00000000000000000000000000000000000000000000000000000000000000006001600160a01b0316826001600160a01b03160361175b57503360008181526004602081905260408083205490516370a0823160e01b815291820193909352634a817c809291906001600160a01b037f000000000000000000000000000000000000000000000000000000000000000016906370a0823190602401602060405180830381865afa1580156116ba573d6000803e3d6000fd5b505050506040513d601f19601f820116820180604052508101906116de9190612f09565b9050806116eb8684612ffe565b11156117395760405162461bcd60e51b815260206004820152601960248201527f4e4f545f454e4f5547485f474149415f53555045524e4f564100000000000000604482015260640161068c565b6117438583612ffe565b33600090815260046020526040902055506118719050565b6002600160a01b03196001600160a01b0383160161182c5750336000908152600560205260409020546347868c0090806117ca5760405162461bcd60e51b815260206004820152601060248201526f1393d517d25397d5d2125511531254d560821b604482015260640161068c565b808411156118125760405162461bcd60e51b8152602060048201526015602482015274414d4f554e545f4558434545445f5449434b45545360581b604482015260640161068c565b336000908152600560205260409020908490039055611871565b6001600160a01b038216156118715760405162461bcd60e51b815260206004820152600b60248201526a1253959053125117d3919560aa1b604482015260640161068c565b6001600160a01b037f0000000000000000000000000000000000000000000000000000000000000000166323b872dd33306118ac8786612f7c565b6040516001600160e01b031960e086901b1681526001600160a01b03938416600482015292909116602483015260448201526064016020604051808303816000875af1158015611900573d6000803e3d6000fd5b505050506040513d601f19601f820116820180604052508101906119249190612f49565b506347868c008114611a2a576007546001600160a01b03166119795760405162461bcd60e51b815260206004820152600e60248201526d046554e445f414444524553535f360941b604482015260640161068c565b6007546001600160a01b037f000000000000000000000000000000000000000000000000000000000000000081169163a9059cbb9116856119be6347868c0086612f9b565b6119c89190612f7c565b6040518363ffffffff1660e01b81526004016119e5929190612f22565b6020604051808303816000875af1158015611a04573d6000803e3d6000fd5b505050506040513d601f19601f82011682018060405250810190611a289190612f49565b505b611a33836123ff565b611a3d3384612542565b505050565b600260015403611a945760405162461bcd60e51b815260206004820152601f60248201527f5265656e7472616e637947756172643a207265656e7472616e742063616c6c00604482015260640161068c565b60026001553360009081526006602052604090205460ff16611aea5760405162461bcd60e51b815260206004820152600f60248201526e4e4f545f454c494749424c455f494960881b604482015260640161068c565b82600003611b2b5760405162461bcd60e51b815260206004820152600e60248201526d1253959053125117d05353d5539560921b604482015260640161068c565b60025480611b705760405162461bcd60e51b8152602060048201526012602482015271494e56414c49445f5052494345464f52494960701b604482015260640161068c565b476001600160a01b037f00000000000000000000000000000000000000000000000000000000000000001663a7c07e92347f0000000000000000000000000000000000000000000000000000000000000000611bcc8987612f7c565b88886040518663ffffffff1660e01b8152600401611bed9493929190613016565b6000604051808303818588803b158015611c0657600080fd5b505af1158015611c1a573d6000803e3d6000fd5b505050505060004782611c2d9190612f9b565b90506000611c3b8234612f9b565b90508015611c4d57611c4d33826128d3565b6347868c008414611d52576007546001600160a01b0316611ca15760405162461bcd60e51b815260206004820152600e60248201526d046554e445f414444524553535f360941b604482015260640161068c565b6007546001600160a01b037f000000000000000000000000000000000000000000000000000000000000000081169163a9059cbb911689611ce66347868c0089612f9b565b611cf09190612f7c565b6040518363ffffffff1660e01b8152600401611d0d929190612f22565b6020604051808303816000875af1158015611d2c573d6000803e3d6000fd5b505050506040513d601f19601f82011682018060405250810190611d509190612f49565b505b611d5b876123ff565b611d653388612542565b5050600180555050505050565b6000546001600160a01b03163314611d9c5760405162461bcd60e51b815260040161068c90612ed4565b828114611dde5760405162461bcd60e51b815260206004820152601060248201526f13115391d51217d393d517d15455505360821b604482015260640161068c565b60005b83811015611e7557828282818110611dfb57611dfb612fb2565b9050602002016020810190611e109190613079565b60066000878785818110611e2657611e26612fb2565b9050602002016020810190611e3b9190612ce0565b6001600160a01b031681526020810191909152604001600020805460ff191691151591909117905580611e6d81612fe5565b915050611de1565b5050505050565b6000546001600160a01b03163314611ea65760405162461bcd60e51b815260040161068c90612ed4565b60006001600160a01b038216611ec6575047611ec233826128d3565b5050565b6040516370a0823160e01b81523060048201526001600160a01b038316906370a0823190602401602060405180830381865afa158015611f0a573d6000803e3d6000fd5b505050506040513d601f19601f82011682018060405250810190611f2e9190612f09565b9050611ec26001600160a01b03831633836129ec565b6000546001600160a01b03163314611f6e5760405162461bcd60e51b815260040161068c90612ed4565b6007546001600160a01b03808316911603611fb95760405162461bcd60e51b815260206004820152600b60248201526a1393d517d0d2105391d15160aa1b604482015260640161068c565b600780546001600160a01b0319166001600160a01b0383169081179091556040519081527f7de9de9894d93d7f1b540d3876ef6dac577aa15e5d92a990d987e1de839e271090602001610854565b6000546001600160a01b031633146120315760405162461bcd60e51b815260040161068c90612ed4565b8281146120735760405162461bcd60e51b815260206004820152601060248201526f13115391d51217d393d517d15455505360821b604482015260640161068c565b60005b83811015611e755782828281811061209057612090612fb2565b90506020020135600560008787858181106120ad576120ad612fb2565b90506020020160208101906120c29190612ce0565b6001600160a01b03168152602081019190915260400160002055806120e681612fe5565b915050612076565b6000546001600160a01b031633146121185760405162461bcd60e51b815260040161068c90612ed4565b6001600160a01b03811661217d5760405162461bcd60e51b815260206004820152602660248201527f4f776e61626c653a206e6577206f776e657220697320746865207a65726f206160448201526564647265737360d01b606482015260840161068c565b612186816123af565b50565b606060088054806020026020016040519081016040528092919081815260200182805480156121ff57602002820191906000526020600020906000905b82829054906101000a900461ffff1661ffff16815260200190600201906020826001010492830192600103820291508084116121c65790505b5050505050905090565b6040516370a0823160e01b8152306004820152600090670de0b6b3a7640000906001600160a01b037f000000000000000000000000000000000000000000000000000000000000000016906370a0823190602401602060405180830381865afa15801561227a573d6000803e3d6000fd5b505050506040513d601f19601f8201168201806040525081019061229e9190612f09565b7f00000000000000000000000000000000000000000000000000000000000000006001600160a01b031663182df0f56040518163ffffffff1660e01b8152600401602060405180830381865afa1580156122fc573d6000803e3d6000fd5b505050506040513d601f19601f820116820180604052508101906123209190612f09565b61232a9190612f7c565b6123349190613096565b905090565b604051632e1a7d4d60e01b8152600481018290527f00000000000000000000000000000000000000000000000000000000000000006001600160a01b031690632e1a7d4d90602401600060405180830381600087803b15801561239b57600080fd5b505af1158015611e75573d6000803e3d6000fd5b600080546001600160a01b038381166001600160a01b0319831681178455604051919092169283917f8be0079c531659141344cd1fd0a4f28419497f9722a3daafe3b4186f6b6457e09190a35050565b600061240f6347868c0083612f7c565b60405163095ea7b360e01b81529091506001600160a01b037f0000000000000000000000000000000000000000000000000000000000000000169063095ea7b390612480907f0000000000000000000000000000000000000000000000000000000000000000908590600401612f22565b6020604051808303816000875af115801561249f573d6000803e3d6000fd5b505050506040513d601f19601f820116820180604052508101906124c39190612f49565b50604051639e3a92ff60e01b8152600481018290527f00000000000000000000000000000000000000000000000000000000000000006001600160a01b031690639e3a92ff90602401600060405180830381600087803b15801561252657600080fd5b505af115801561253a573d6000803e3d6000fd5b505050505050565b600854818111156126885760005b82811015611468576001600160a01b037f0000000000000000000000000000000000000000000000000000000000000000166340c10f1985600884612596600188612f9b565b6125a09190612f9b565b815481106125b0576125b0612fb2565b90600052602060002090601091828204019190066002029054906101000a900461ffff1661ffff166040518363ffffffff1660e01b81526004016125f5929190612f22565b6020604051808303816000875af1158015612614573d6000803e3d6000fd5b505050506040513d601f19601f820116820180604052508101906126389190612f49565b50600880548061264a5761264a6130b8565b600082815260209020601060001990920191820401805461ffff6002600f8516026101000a021916905590558061268081612fe5565b915050612550565b60005b81811015612771577f00000000000000000000000000000000000000000000000000000000000000006001600160a01b03166340c10f1985600884815481106126d6576126d6612fb2565b90600052602060002090601091828204019190066002029054906101000a900461ffff1661ffff166040518363ffffffff1660e01b815260040161271b929190612f22565b6020604051808303816000875af115801561273a573d6000803e3d6000fd5b505050506040513d601f19601f8201168201806040525081019061275e9190612f49565b508061276981612fe5565b91505061268b565b5080156127845761278460086000612c92565b81811015611a3d5760007f00000000000000000000000000000000000000000000000000000000000000006001600160a01b03166318160ddd6040518163ffffffff1660e01b8152600401602060405180830381865afa1580156127ec573d6000803e3d6000fd5b505050506040513d601f19601f820116820180604052508101906128109190612f09565b905060005b61281f8385612f9b565b811015611e75576001600160a01b037f0000000000000000000000000000000000000000000000000000000000000000166340c10f19866128608486612ffe565b6040518363ffffffff1660e01b815260040161287d929190612f22565b6020604051808303816000875af115801561289c573d6000803e3d6000fd5b505050506040513d601f19601f820116820180604052508101906128c09190612f49565b50806128cb81612fe5565b915050612815565b804710156129235760405162461bcd60e51b815260206004820152601d60248201527f416464726573733a20696e73756666696369656e742062616c616e6365000000604482015260640161068c565b6000826001600160a01b03168260405160006040518083038185875af1925050503d8060008114612970576040519150601f19603f3d011682016040523d82523d6000602084013e612975565b606091505b5050905080611a3d5760405162461bcd60e51b815260206004820152603a60248201527f416464726573733a20756e61626c6520746f2073656e642076616c75652c207260448201527f6563697069656e74206d61792068617665207265766572746564000000000000606482015260840161068c565b611a3d8363a9059cbb60e01b8484604051602401612a0b929190612f22565b60408051601f198184030181529190526020810180516001600160e01b03166001600160e01b0319909316929092179091526000612a92826040518060400160405280602081526020017f5361666545524332303a206c6f772d6c6576656c2063616c6c206661696c6564815250856001600160a01b0316612b0f9092919063ffffffff16565b805190915015611a3d5780806020019051810190612ab09190612f49565b611a3d5760405162461bcd60e51b815260206004820152602a60248201527f5361666545524332303a204552433230206f7065726174696f6e20646964206e6044820152691bdd081cdd58d8d9595960b21b606482015260840161068c565b6060612b1e8484600085612b28565b90505b9392505050565b606082471015612b895760405162461bcd60e51b815260206004820152602660248201527f416464726573733a20696e73756666696369656e742062616c616e636520666f6044820152651c8818d85b1b60d21b606482015260840161068c565b6001600160a01b0385163b612be05760405162461bcd60e51b815260206004820152601d60248201527f416464726573733a2063616c6c20746f206e6f6e2d636f6e7472616374000000604482015260640161068c565b600080866001600160a01b03168587604051612bfc91906130fa565b60006040518083038185875af1925050503d8060008114612c39576040519150601f19603f3d011682016040523d82523d6000602084013e612c3e565b606091505b5091509150612c4e828286612c59565b979650505050505050565b60608315612c68575081612b21565b825115612c785782518084602001fd5b8160405162461bcd60e51b815260040161068c9190613116565b50805460008255600f01601090049060005260206000209081019061218691905b80821115612cc75760008155600101612cb3565b5090565b6001600160a01b038116811461218657600080fd5b600060208284031215612cf257600080fd5b8135612b2181612ccb565b600060208284031215612d0f57600080fd5b5035919050565b60008083601f840112612d2857600080fd5b50813567ffffffffffffffff811115612d4057600080fd5b6020830191508360208260051b8501011115612d5b57600080fd5b9250929050565b60008060208385031215612d7557600080fd5b823567ffffffffffffffff811115612d8c57600080fd5b612d9885828601612d16565b90969095509350505050565b60008060408385031215612db757600080fd5b823591506020830135612dc981612ccb565b809150509250929050565b600080600060408486031215612de957600080fd5b83359250602084013567ffffffffffffffff811115612e0757600080fd5b612e1386828701612d16565b9497909650939450505050565b60008060008060408587031215612e3657600080fd5b843567ffffffffffffffff80821115612e4e57600080fd5b612e5a88838901612d16565b90965094506020870135915080821115612e7357600080fd5b50612e8087828801612d16565b95989497509550505050565b6020808252825182820181905260009190848201906040850190845b81811015612ec857835161ffff1683529284019291840191600101612ea8565b50909695505050505050565b6020808252818101527f4f776e61626c653a2063616c6c6572206973206e6f7420746865206f776e6572604082015260600190565b600060208284031215612f1b57600080fd5b5051919050565b6001600160a01b03929092168252602082015260400190565b801515811461218657600080fd5b600060208284031215612f5b57600080fd5b8151612b2181612f3b565b634e487b7160e01b600052601160045260246000fd5b6000816000190483118215151615612f9657612f96612f66565b500290565b600082821015612fad57612fad612f66565b500390565b634e487b7160e01b600052603260045260246000fd5b600060208284031215612fda57600080fd5b8151612b2181612ccb565b600060018201612ff757612ff7612f66565b5060010190565b6000821982111561301157613011612f66565b500190565b6001600160a01b03858116825260208083018690526060604084018190528301849052600091859160808501845b8781101561306b57843561305781612ccb565b841682529382019390820190600101613044565b509998505050505050505050565b60006020828403121561308b57600080fd5b8135612b2181612f3b565b6000826130b357634e487b7160e01b600052601260045260246000fd5b500490565b634e487b7160e01b600052603160045260246000fd5b60005b838110156130e95781810151838201526020016130d1565b838111156114685750506000910152565b6000825161310c8184602087016130ce565b9190910192915050565b60208152600082518060208401526131358160408501602087016130ce565b601f01601f1916919091016040019291505056fea2646970667358221220f21389aac4f51807e9819933aa6d01e655d49ddcfb4c5a89e2e1b53a4eaea3ba64736f6c634300080d0033",
  "linkReferences": {},
  "deployedLinkReferences": {}
}