{
    "_format": "hh-sol-artifact-1",
    "contractName": "GaiaStableDAO",
    "sourceName": "contracts/GaiaStableDAO.sol",
    "abi": [
        {
            "inputs": [],
            "payable": false,
            "stateMutability": "nonpayable",
            "type": "constructor"
        },
        {
            "anonymous": false,
            "inputs": [
                {
                    "indexed": true,
                    "internalType": "address",
                    "name": "owner",
                    "type": "address"
                },
                {
                    "indexed": true,
                    "internalType": "address",
                    "name": "approved",
                    "type": "address"
                },
                {
                    "indexed": true,
                    "internalType": "uint256",
                    "name": "tokenId",
                    "type": "uint256"
                }
            ],
            "name": "Approval",
            "type": "event"
        },
        {
            "anonymous": false,
            "inputs": [
                {
                    "indexed": true,
                    "internalType": "address",
                    "name": "owner",
                    "type": "address"
                },
                {
                    "indexed": true,
                    "internalType": "address",
                    "name": "operator",
                    "type": "address"
                },
                {
                    "indexed": false,
                    "internalType": "bool",
                    "name": "approved",
                    "type": "bool"
                }
            ],
            "name": "ApprovalForAll",
            "type": "event"
        },
        {
            "anonymous": false,
            "inputs": [
                {
                    "indexed": true,
                    "internalType": "address",
                    "name": "account",
                    "type": "address"
                }
            ],
            "name": "MinterAdded",
            "type": "event"
        },
        {
            "anonymous": false,
            "inputs": [
                {
                    "indexed": true,
                    "internalType": "address",
                    "name": "account",
                    "type": "address"
                }
            ],
            "name": "MinterRemoved",
            "type": "event"
        },
        {
            "anonymous": false,
            "inputs": [
                {
                    "indexed": true,
                    "internalType": "address",
                    "name": "previousOwner",
                    "type": "address"
                },
                {
                    "indexed": true,
                    "internalType": "address",
                    "name": "newOwner",
                    "type": "address"
                }
            ],
            "name": "OwnershipTransferred",
            "type": "event"
        },
        {
            "anonymous": false,
            "inputs": [
                {
                    "indexed": false,
                    "internalType": "address",
                    "name": "account",
                    "type": "address"
                }
            ],
            "name": "Paused",
            "type": "event"
        },
        {
            "anonymous": false,
            "inputs": [
                {
                    "indexed": true,
                    "internalType": "address",
                    "name": "account",
                    "type": "address"
                }
            ],
            "name": "PauserAdded",
            "type": "event"
        },
        {
            "anonymous": false,
            "inputs": [
                {
                    "indexed": true,
                    "internalType": "address",
                    "name": "account",
                    "type": "address"
                }
            ],
            "name": "PauserRemoved",
            "type": "event"
        },
        {
            "anonymous": false,
            "inputs": [
                {
                    "indexed": false,
                    "internalType": "string",
                    "name": "baseURI",
                    "type": "string"
                }
            ],
            "name": "SetBaseURI",
            "type": "event"
        },
        {
            "anonymous": false,
            "inputs": [
                {
                    "indexed": false,
                    "internalType": "address",
                    "name": "user",
                    "type": "address"
                },
                {
                    "indexed": false,
                    "internalType": "bool",
                    "name": "status",
                    "type": "bool"
                }
            ],
            "name": "SetBlacklist",
            "type": "event"
        },
        {
            "anonymous": false,
            "inputs": [
                {
                    "indexed": false,
                    "internalType": "bool",
                    "name": "status",
                    "type": "bool"
                }
            ],
            "name": "SetBurnable",
            "type": "event"
        },
        {
            "anonymous": false,
            "inputs": [
                {
                    "indexed": false,
                    "internalType": "bool",
                    "name": "status",
                    "type": "bool"
                }
            ],
            "name": "SetMintable",
            "type": "event"
        },
        {
            "anonymous": false,
            "inputs": [
                {
                    "indexed": false,
                    "internalType": "string",
                    "name": "name",
                    "type": "string"
                }
            ],
            "name": "SetName",
            "type": "event"
        },
        {
            "anonymous": false,
            "inputs": [
                {
                    "indexed": false,
                    "internalType": "string",
                    "name": "symbol",
                    "type": "string"
                }
            ],
            "name": "SetSymbol",
            "type": "event"
        },
        {
            "anonymous": false,
            "inputs": [
                {
                    "indexed": true,
                    "internalType": "address",
                    "name": "from",
                    "type": "address"
                },
                {
                    "indexed": true,
                    "internalType": "address",
                    "name": "to",
                    "type": "address"
                },
                {
                    "indexed": true,
                    "internalType": "uint256",
                    "name": "tokenId",
                    "type": "uint256"
                }
            ],
            "name": "Transfer",
            "type": "event"
        },
        {
            "anonymous": false,
            "inputs": [
                {
                    "indexed": false,
                    "internalType": "address",
                    "name": "account",
                    "type": "address"
                }
            ],
            "name": "Unpaused",
            "type": "event"
        },
        {
            "constant": false,
            "inputs": [
                {
                    "internalType": "address",
                    "name": "account",
                    "type": "address"
                }
            ],
            "name": "addMinter",
            "outputs": [],
            "payable": false,
            "stateMutability": "nonpayable",
            "type": "function"
        },
        {
            "constant": false,
            "inputs": [
                {
                    "internalType": "address",
                    "name": "account",
                    "type": "address"
                }
            ],
            "name": "addPauser",
            "outputs": [],
            "payable": false,
            "stateMutability": "nonpayable",
            "type": "function"
        },
        {
            "constant": false,
            "inputs": [
                {
                    "internalType": "address",
                    "name": "to",
                    "type": "address"
                },
                {
                    "internalType": "uint256",
                    "name": "tokenId",
                    "type": "uint256"
                }
            ],
            "name": "approve",
            "outputs": [],
            "payable": false,
            "stateMutability": "nonpayable",
            "type": "function"
        },
        {
            "constant": true,
            "inputs": [
                {
                    "internalType": "address",
                    "name": "owner",
                    "type": "address"
                }
            ],
            "name": "balanceOf",
            "outputs": [
                {
                    "internalType": "uint256",
                    "name": "",
                    "type": "uint256"
                }
            ],
            "payable": false,
            "stateMutability": "view",
            "type": "function"
        },
        {
            "constant": true,
            "inputs": [],
            "name": "baseURI",
            "outputs": [
                {
                    "internalType": "string",
                    "name": "",
                    "type": "string"
                }
            ],
            "payable": false,
            "stateMutability": "view",
            "type": "function"
        },
        {
            "constant": false,
            "inputs": [
                {
                    "internalType": "uint256",
                    "name": "tokenId",
                    "type": "uint256"
                }
            ],
            "name": "burn",
            "outputs": [],
            "payable": false,
            "stateMutability": "nonpayable",
            "type": "function"
        },
        {
            "constant": true,
            "inputs": [
                {
                    "internalType": "uint256",
                    "name": "tokenId",
                    "type": "uint256"
                }
            ],
            "name": "exists",
            "outputs": [
                {
                    "internalType": "bool",
                    "name": "",
                    "type": "bool"
                }
            ],
            "payable": false,
            "stateMutability": "view",
            "type": "function"
        },
        {
            "constant": true,
            "inputs": [
                {
                    "internalType": "uint256",
                    "name": "tokenId",
                    "type": "uint256"
                }
            ],
            "name": "getApproved",
            "outputs": [
                {
                    "internalType": "address",
                    "name": "",
                    "type": "address"
                }
            ],
            "payable": false,
            "stateMutability": "view",
            "type": "function"
        },
        {
            "constant": true,
            "inputs": [
                {
                    "internalType": "address",
                    "name": "owner",
                    "type": "address"
                },
                {
                    "internalType": "address",
                    "name": "operator",
                    "type": "address"
                }
            ],
            "name": "isApprovedForAll",
            "outputs": [
                {
                    "internalType": "bool",
                    "name": "",
                    "type": "bool"
                }
            ],
            "payable": false,
            "stateMutability": "view",
            "type": "function"
        },
        {
            "constant": true,
            "inputs": [
                {
                    "internalType": "address",
                    "name": "user",
                    "type": "address"
                }
            ],
            "name": "isBlacklist",
            "outputs": [
                {
                    "internalType": "bool",
                    "name": "",
                    "type": "bool"
                }
            ],
            "payable": false,
            "stateMutability": "view",
            "type": "function"
        },
        {
            "constant": true,
            "inputs": [],
            "name": "isBurnable",
            "outputs": [
                {
                    "internalType": "bool",
                    "name": "",
                    "type": "bool"
                }
            ],
            "payable": false,
            "stateMutability": "view",
            "type": "function"
        },
        {
            "constant": true,
            "inputs": [],
            "name": "isMintable",
            "outputs": [
                {
                    "internalType": "bool",
                    "name": "",
                    "type": "bool"
                }
            ],
            "payable": false,
            "stateMutability": "view",
            "type": "function"
        },
        {
            "constant": true,
            "inputs": [
                {
                    "internalType": "address",
                    "name": "account",
                    "type": "address"
                }
            ],
            "name": "isMinter",
            "outputs": [
                {
                    "internalType": "bool",
                    "name": "",
                    "type": "bool"
                }
            ],
            "payable": false,
            "stateMutability": "view",
            "type": "function"
        },
        {
            "constant": true,
            "inputs": [],
            "name": "isOwner",
            "outputs": [
                {
                    "internalType": "bool",
                    "name": "",
                    "type": "bool"
                }
            ],
            "payable": false,
            "stateMutability": "view",
            "type": "function"
        },
        {
            "constant": true,
            "inputs": [
                {
                    "internalType": "address",
                    "name": "account",
                    "type": "address"
                }
            ],
            "name": "isPauser",
            "outputs": [
                {
                    "internalType": "bool",
                    "name": "",
                    "type": "bool"
                }
            ],
            "payable": false,
            "stateMutability": "view",
            "type": "function"
        },
        {
            "constant": false,
            "inputs": [
                {
                    "internalType": "address",
                    "name": "to",
                    "type": "address"
                },
                {
                    "internalType": "uint256",
                    "name": "tokenId",
                    "type": "uint256"
                }
            ],
            "name": "mint",
            "outputs": [
                {
                    "internalType": "bool",
                    "name": "",
                    "type": "bool"
                }
            ],
            "payable": false,
            "stateMutability": "nonpayable",
            "type": "function"
        },
        {
            "constant": true,
            "inputs": [
                {
                    "internalType": "uint256",
                    "name": "tokenId",
                    "type": "uint256"
                }
            ],
            "name": "mintedAtBlock",
            "outputs": [
                {
                    "internalType": "uint256",
                    "name": "blockNumber",
                    "type": "uint256"
                }
            ],
            "payable": false,
            "stateMutability": "view",
            "type": "function"
        },
        {
            "constant": true,
            "inputs": [],
            "name": "name",
            "outputs": [
                {
                    "internalType": "string",
                    "name": "",
                    "type": "string"
                }
            ],
            "payable": false,
            "stateMutability": "view",
            "type": "function"
        },
        {
            "constant": true,
            "inputs": [],
            "name": "owner",
            "outputs": [
                {
                    "internalType": "address payable",
                    "name": "",
                    "type": "address"
                }
            ],
            "payable": false,
            "stateMutability": "view",
            "type": "function"
        },
        {
            "constant": true,
            "inputs": [
                {
                    "internalType": "uint256",
                    "name": "tokenId",
                    "type": "uint256"
                }
            ],
            "name": "ownerOf",
            "outputs": [
                {
                    "internalType": "address",
                    "name": "",
                    "type": "address"
                }
            ],
            "payable": false,
            "stateMutability": "view",
            "type": "function"
        },
        {
            "constant": false,
            "inputs": [],
            "name": "pause",
            "outputs": [],
            "payable": false,
            "stateMutability": "nonpayable",
            "type": "function"
        },
        {
            "constant": true,
            "inputs": [],
            "name": "paused",
            "outputs": [
                {
                    "internalType": "bool",
                    "name": "",
                    "type": "bool"
                }
            ],
            "payable": false,
            "stateMutability": "view",
            "type": "function"
        },
        {
            "constant": false,
            "inputs": [],
            "name": "renounceMinter",
            "outputs": [],
            "payable": false,
            "stateMutability": "nonpayable",
            "type": "function"
        },
        {
            "constant": false,
            "inputs": [],
            "name": "renounceOwnership",
            "outputs": [],
            "payable": false,
            "stateMutability": "nonpayable",
            "type": "function"
        },
        {
            "constant": false,
            "inputs": [],
            "name": "renouncePauser",
            "outputs": [],
            "payable": false,
            "stateMutability": "nonpayable",
            "type": "function"
        },
        {
            "constant": false,
            "inputs": [
                {
                    "internalType": "address",
                    "name": "from",
                    "type": "address"
                },
                {
                    "internalType": "address",
                    "name": "to",
                    "type": "address"
                },
                {
                    "internalType": "uint256",
                    "name": "tokenId",
                    "type": "uint256"
                }
            ],
            "name": "safeTransferFrom",
            "outputs": [],
            "payable": false,
            "stateMutability": "nonpayable",
            "type": "function"
        },
        {
            "constant": false,
            "inputs": [
                {
                    "internalType": "address",
                    "name": "from",
                    "type": "address"
                },
                {
                    "internalType": "address",
                    "name": "to",
                    "type": "address"
                },
                {
                    "internalType": "uint256",
                    "name": "tokenId",
                    "type": "uint256"
                },
                {
                    "internalType": "bytes",
                    "name": "_data",
                    "type": "bytes"
                }
            ],
            "name": "safeTransferFrom",
            "outputs": [],
            "payable": false,
            "stateMutability": "nonpayable",
            "type": "function"
        },
        {
            "constant": false,
            "inputs": [
                {
                    "internalType": "address",
                    "name": "to",
                    "type": "address"
                },
                {
                    "internalType": "bool",
                    "name": "approved",
                    "type": "bool"
                }
            ],
            "name": "setApprovalForAll",
            "outputs": [],
            "payable": false,
            "stateMutability": "nonpayable",
            "type": "function"
        },
        {
            "constant": false,
            "inputs": [
                {
                    "internalType": "string",
                    "name": "_baseURI",
                    "type": "string"
                }
            ],
            "name": "setBaseURI",
            "outputs": [],
            "payable": false,
            "stateMutability": "nonpayable",
            "type": "function"
        },
        {
            "constant": false,
            "inputs": [
                {
                    "internalType": "address",
                    "name": "user",
                    "type": "address"
                },
                {
                    "internalType": "bool",
                    "name": "status",
                    "type": "bool"
                }
            ],
            "name": "setBlacklist",
            "outputs": [],
            "payable": false,
            "stateMutability": "nonpayable",
            "type": "function"
        },
        {
            "constant": false,
            "inputs": [
                {
                    "internalType": "bool",
                    "name": "status",
                    "type": "bool"
                }
            ],
            "name": "setBurnable",
            "outputs": [],
            "payable": false,
            "stateMutability": "nonpayable",
            "type": "function"
        },
        {
            "constant": false,
            "inputs": [
                {
                    "internalType": "bool",
                    "name": "status",
                    "type": "bool"
                }
            ],
            "name": "setMintable",
            "outputs": [],
            "payable": false,
            "stateMutability": "nonpayable",
            "type": "function"
        },
        {
            "constant": false,
            "inputs": [
                {
                    "internalType": "string",
                    "name": "_name",
                    "type": "string"
                }
            ],
            "name": "setName",
            "outputs": [],
            "payable": false,
            "stateMutability": "nonpayable",
            "type": "function"
        },
        {
            "constant": false,
            "inputs": [
                {
                    "internalType": "string",
                    "name": "_symbol",
                    "type": "string"
                }
            ],
            "name": "setSymbol",
            "outputs": [],
            "payable": false,
            "stateMutability": "nonpayable",
            "type": "function"
        },
        {
            "constant": true,
            "inputs": [
                {
                    "internalType": "bytes4",
                    "name": "interfaceId",
                    "type": "bytes4"
                }
            ],
            "name": "supportsInterface",
            "outputs": [
                {
                    "internalType": "bool",
                    "name": "",
                    "type": "bool"
                }
            ],
            "payable": false,
            "stateMutability": "view",
            "type": "function"
        },
        {
            "constant": true,
            "inputs": [],
            "name": "symbol",
            "outputs": [
                {
                    "internalType": "string",
                    "name": "",
                    "type": "string"
                }
            ],
            "payable": false,
            "stateMutability": "view",
            "type": "function"
        },
        {
            "constant": true,
            "inputs": [
                {
                    "internalType": "address",
                    "name": "owner",
                    "type": "address"
                },
                {
                    "internalType": "uint256",
                    "name": "index",
                    "type": "uint256"
                }
            ],
            "name": "tokenOfOwnerByIndex",
            "outputs": [
                {
                    "internalType": "uint256",
                    "name": "",
                    "type": "uint256"
                }
            ],
            "payable": false,
            "stateMutability": "view",
            "type": "function"
        },
        {
            "constant": true,
            "inputs": [
                {
                    "internalType": "uint256",
                    "name": "tokenId",
                    "type": "uint256"
                }
            ],
            "name": "tokenURI",
            "outputs": [
                {
                    "internalType": "string",
                    "name": "",
                    "type": "string"
                }
            ],
            "payable": false,
            "stateMutability": "view",
            "type": "function"
        },
        {
            "constant": true,
            "inputs": [
                {
                    "internalType": "address",
                    "name": "owner",
                    "type": "address"
                }
            ],
            "name": "tokensOfOwner",
            "outputs": [
                {
                    "internalType": "uint256[]",
                    "name": "",
                    "type": "uint256[]"
                }
            ],
            "payable": false,
            "stateMutability": "view",
            "type": "function"
        },
        {
            "constant": true,
            "inputs": [],
            "name": "totalSupply",
            "outputs": [
                {
                    "internalType": "uint256",
                    "name": "",
                    "type": "uint256"
                }
            ],
            "payable": false,
            "stateMutability": "view",
            "type": "function"
        },
        {
            "constant": false,
            "inputs": [
                {
                    "internalType": "address",
                    "name": "from",
                    "type": "address"
                },
                {
                    "internalType": "address",
                    "name": "to",
                    "type": "address"
                },
                {
                    "internalType": "uint256",
                    "name": "tokenId",
                    "type": "uint256"
                }
            ],
            "name": "transferFrom",
            "outputs": [],
            "payable": false,
            "stateMutability": "nonpayable",
            "type": "function"
        },
        {
            "constant": false,
            "inputs": [
                {
                    "internalType": "address payable",
                    "name": "newOwner",
                    "type": "address"
                }
            ],
            "name": "transferOwnership",
            "outputs": [],
            "payable": false,
            "stateMutability": "nonpayable",
            "type": "function"
        },
        {
            "constant": false,
            "inputs": [],
            "name": "unpause",
            "outputs": [],
            "payable": false,
            "stateMutability": "nonpayable",
            "type": "function"
        }
    ],
    "bytecode": "0x60c0604052600e60808190526d4761696120537461626c6544414f60901b60a09081526200003191600c9190620003fc565b50604080518082019091526004808252634741494160e01b60209092019182526200005f91600d91620003fc565b506040518060600160405280602781526020016200357c6027913980516200009091600e91602090910190620003fc565b506011805461ff001960ff1990911660011716610100179055348015620000b657600080fd5b50620000d26301ffc9a760e01b6001600160e01b03620001dd16565b600180546001600160a01b0319163317908190556040516001600160a01b0391909116906000907f8be0079c531659141344cd1fd0a4f28419497f9722a3daafe3b4186f6b6457e0908290a3620001396380ac58cd60e01b6001600160e01b03620001dd16565b6200014d336001600160e01b036200026216565b62000168630755c1f160e51b6001600160e01b03620001dd16565b6200017c336001600160e01b03620002b416565b600b805460ff19169055620001a1634d5507ff60e01b6001600160e01b03620001dd16565b620001bc630852cd8d60e31b6001600160e01b03620001dd16565b620001d7635b5e139f60e01b6001600160e01b03620001dd16565b620004a1565b6001600160e01b031980821614156200023d576040805162461bcd60e51b815260206004820152601b60248201527f4b495031333a20696e76616c696420696e746572666163652069640000000000604482015290519081900360640190fd5b6001600160e01b0319166000908152602081905260409020805460ff19166001179055565b6200027d8160096200030660201b6200260f1790919060201c565b6040516001600160a01b038216907f6ae172837ea30b801fbfcdd4108aa1d5bf8ff775444fd70256b44e6bf3dfc3f690600090a250565b620002cf81600a6200030660201b6200260f1790919060201c565b6040516001600160a01b038216907f6719d08c1888103bea251a4ed56406bd0c3e69723c8a1686e017e7bbe159b6f890600090a250565b6200031b82826001600160e01b036200039316565b156200036e576040805162461bcd60e51b815260206004820152601f60248201527f526f6c65733a206163636f756e7420616c72656164792068617320726f6c6500604482015290519081900360640190fd5b6001600160a01b0316600090815260209190915260409020805460ff19166001179055565b60006001600160a01b038216620003dc5760405162461bcd60e51b81526004018080602001828103825260228152602001806200355a6022913960400191505060405180910390fd5b506001600160a01b03166000908152602091909152604090205460ff1690565b828054600181600116156101000203166002900490600052602060002090601f016020900481019282601f106200043f57805160ff19168380011785556200046f565b828001600101855582156200046f579182015b828111156200046f57825182559160200191906001019062000452565b506200047d92915062000481565b5090565b6200049e91905b808211156200047d576000815560010162000488565b90565b6130a980620004b16000396000f3fe608060405234801561001057600080fd5b50600436106102695760003560e01c80636ef8d66d11610151578063983b2d56116100c3578063b88d4fde11610087578063b88d4fde146107f2578063b9eed00c146108b6578063c47f0027146108d3578063c87b56dd14610941578063e985e9c51461095e578063f2fde38b1461098c57610269565b8063983b2d56146107025780639865027514610728578063a22cb46514610730578063aa271e1a1461075e578063b84c82461461078457610269565b80638456cb59116101155780638456cb59146106645780638462151c1461066c578063883356d9146106e25780638da5cb5b146106ea5780638f32d59b146106f257806395d89b41146106fa57610269565b80636ef8d66d146105e957806370a08231146105f1578063715018a61461061757806380929e5b1461061f57806382dc1ec41461063e57610269565b80633f4ba83a116101ea57806346fbf68e116101ae57806346fbf68e1461050b5780634f558e791461053157806355f804b31461054e5780635c975abb146105bc5780636352211e146105c45780636c0360eb146105e157610269565b80633f4ba83a1461047c57806340c10f191461048457806342842e0e146104b057806342966c68146104e657806346b45af71461050357610269565b806318160ddd1161023157806318160ddd146103bb57806323b872dd146103d5578063285d70d41461040b5780632f745c591461042a578063333e99db1461045657610269565b806301ffc9a71461026e57806306fdde03146102a9578063081812fc14610326578063095ea7b31461035f578063153b0d1e1461038d575b600080fd5b6102956004803603602081101561028457600080fd5b50356001600160e01b0319166109b2565b604080519115158252519081900360200190f35b6102b16109d5565b6040805160208082528351818301528351919283929083019185019080838360005b838110156102eb5781810151838201526020016102d3565b50505050905090810190601f1680156103185780820380516001836020036101000a031916815260200191505b509250505060405180910390f35b6103436004803603602081101561033c57600080fd5b5035610a63565b604080516001600160a01b039092168252519081900360200190f35b61038b6004803603604081101561037557600080fd5b506001600160a01b038135169060200135610ac5565b005b61038b600480360360408110156103a357600080fd5b506001600160a01b0381351690602001351515610b1e565b6103c3610bc9565b60408051918252519081900360200190f35b61038b600480360360608110156103eb57600080fd5b506001600160a01b03813581169160208101359091169060400135610bd0565b61038b6004803603602081101561042157600080fd5b50351515610c2b565b6103c36004803603604081101561044057600080fd5b506001600160a01b038135169060200135610d0e565b6102956004803603602081101561046c57600080fd5b50356001600160a01b0316610d8d565b61038b610dab565b6102956004803603604081101561049a57600080fd5b506001600160a01b038135169060200135610e7c565b61038b600480360360608110156104c657600080fd5b506001600160a01b03813581169160208101359091169060400135610ed5565b61038b600480360360208110156104fc57600080fd5b5035610ef0565b610295610f41565b6102956004803603602081101561052157600080fd5b50356001600160a01b0316610f4a565b6102956004803603602081101561054757600080fd5b5035610f63565b61038b6004803603602081101561056457600080fd5b810190602081018135600160201b81111561057e57600080fd5b82018360208201111561059057600080fd5b803590602001918460018302840111600160201b831117156105b157600080fd5b509092509050610f6e565b610295611026565b610343600480360360208110156105da57600080fd5b503561102f565b6102b1611083565b61038b6110de565b6103c36004803603602081101561060757600080fd5b50356001600160a01b03166110e9565b61038b611151565b61038b6004803603602081101561063557600080fd5b503515156111e2565b61038b6004803603602081101561065457600080fd5b50356001600160a01b03166112d2565b61038b61131f565b6106926004803603602081101561068257600080fd5b50356001600160a01b03166113f0565b60408051602080825283518183015283519192839290830191858101910280838360005b838110156106ce5781810151838201526020016106b6565b505050509050019250505060405180910390f35b610295611451565b61034361145f565b61029561146e565b6102b161147f565b61038b6004803603602081101561071857600080fd5b50356001600160a01b03166114da565b61038b611527565b61038b6004803603604081101561074657600080fd5b506001600160a01b0381351690602001351515611530565b6102956004803603602081101561077457600080fd5b50356001600160a01b0316611585565b61038b6004803603602081101561079a57600080fd5b810190602081018135600160201b8111156107b457600080fd5b8201836020820111156107c657600080fd5b803590602001918460018302840111600160201b831117156107e757600080fd5b509092509050611598565b61038b6004803603608081101561080857600080fd5b6001600160a01b03823581169260208101359091169160408201359190810190608081016060820135600160201b81111561084257600080fd5b82018360208201111561085457600080fd5b803590602001918460018302840111600160201b8311171561087557600080fd5b91908080601f016020809104026020016040519081016040528093929190818152602001838380828437600092019190915250929550611650945050505050565b6103c3600480360360208110156108cc57600080fd5b50356116a8565b61038b600480360360208110156108e957600080fd5b810190602081018135600160201b81111561090357600080fd5b82018360208201111561091557600080fd5b803590602001918460018302840111600160201b8311171561093657600080fd5b5090925090506116c8565b6102b16004803603602081101561095757600080fd5b5035611780565b6102956004803603604081101561097457600080fd5b506001600160a01b03813581169160200135166119e5565b61038b600480360360208110156109a257600080fd5b50356001600160a01b0316611a13565b6001600160e01b0319811660009081526020819052604090205460ff165b919050565b600c805460408051602060026001851615610100026000190190941693909304601f81018490048402820184019092528181529291830182828015610a5b5780601f10610a3057610100808354040283529160200191610a5b565b820191906000526020600020905b815481529060010190602001808311610a3e57829003601f168201915b505050505081565b6000610a6e82611a63565b610aa95760405162461bcd60e51b815260040180806020018281038252602b815260200180612fe8602b913960400191505060405180910390fd5b506000908152600360205260409020546001600160a01b031690565b600b5460ff1615610b10576040805162461bcd60e51b815260206004820152601060248201526f14185d5cd8589b194e881c185d5cd95960821b604482015290519081900360640190fd5b610b1a8282611a80565b5050565b610b2661146e565b610b65576040805162461bcd60e51b81526020600482018190526024820152600080516020612ed2833981519152604482015290519081900360640190fd5b6001600160a01b0382166000818152600f6020908152604091829020805460ff191685151590811790915582519384529083015280517ffed07c88bd5d31bfd0ce77ed7ffdc74a163a61cfc5edcec801e3a7954e33d6e79281900390910190a15050565b6008545b90565b600b5460ff1615610c1b576040805162461bcd60e51b815260206004820152601060248201526f14185d5cd8589b194e881c185d5cd95960821b604482015290519081900360640190fd5b610c26838383611ba7565b505050565b610c3361146e565b610c72576040805162461bcd60e51b81526020600482018190526024820152600080516020612ed2833981519152604482015290519081900360640190fd5b60115460ff168015158215151415610cc6576040805162461bcd60e51b815260206004820152601260248201527114d510551554d7d393d517d0d2105391d15160721b604482015290519081900360640190fd5b6011805483151560ff19909116811790915560408051918252517fe717a2bfc51e250b028aaac5eb448e76f4df26b9609956782bff49097bb792cf9181900360200190a15050565b6000610d19836110e9565b8210610d565760405162461bcd60e51b815260040180806020018281038252602a815260200180612dff602a913960400191505060405180910390fd5b6001600160a01b0383166000908152600660205260409020805483908110610d7a57fe5b9060005260206000200154905092915050565b6001600160a01b03166000908152600f602052604090205460ff1690565b610db433610f4a565b610def5760405162461bcd60e51b8152600401808060200182810382526030815260200180612d866030913960400191505060405180910390fd5b600b5460ff16610e3d576040805162461bcd60e51b815260206004820152601460248201527314185d5cd8589b194e881b9bdd081c185d5cd95960621b604482015290519081900360640190fd5b600b805460ff191690556040805133815290517f5db9ee0a495bf2e6ff9c91a7834c1ba4fdd244a5e8aa4e537bd38aeae4b073aa9181900360200190a1565b6000610e8733611585565b610ec25760405162461bcd60e51b8152600401808060200182810382526030815260200180612e296030913960400191505060405180910390fd5b610ecc8383611bf7565b50600192915050565b610c2683838360405180602001604052806000815250611650565b610efa3382611cc0565b610f355760405162461bcd60e51b815260040180806020018281038252602f815260200180612f44602f913960400191505060405180910390fd5b610f3e81611d64565b50565b60115460ff1681565b6000610f5d600a8363ffffffff611de016565b92915050565b6000610f5d82611a63565b610f7661146e565b610fb5576040805162461bcd60e51b81526020600482018190526024820152600080516020612ed2833981519152604482015290519081900360640190fd5b610fc1600e8383612c9f565b507f23c8c9488efebfd474e85a7956de6f39b17c7ab88502d42a623db2d8e382bbaa828260405180806020018281038252848482818152602001925080828437600083820152604051601f909101601f19169092018290039550909350505050a15050565b600b5460ff1690565b6000818152600260205260408120546001600160a01b031680610f5d5760405162461bcd60e51b8152600401808060200182810382526028815260200180612e7a6028913960400191505060405180910390fd5b600e805460408051602060026001851615610100026000190190941693909304601f81018490048402820184019092528181529291830182828015610a5b5780601f10610a3057610100808354040283529160200191610a5b565b6110e733611e47565b565b60006001600160a01b0382166111305760405162461bcd60e51b8152600401808060200182810382526029815260200180612f736029913960400191505060405180910390fd5b6001600160a01b0382166000908152600460205260409020610f5d90611e8f565b61115961146e565b611198576040805162461bcd60e51b81526020600482018190526024820152600080516020612ed2833981519152604482015290519081900360640190fd5b6001546040516000916001600160a01b0316907f8be0079c531659141344cd1fd0a4f28419497f9722a3daafe3b4186f6b6457e0908390a3600180546001600160a01b0319169055565b6111ea61146e565b611229576040805162461bcd60e51b81526020600482018190526024820152600080516020612ed2833981519152604482015290519081900360640190fd5b601154610100900460ff168115158115151415611282576040805162461bcd60e51b815260206004820152601260248201527114d510551554d7d393d517d0d2105391d15160721b604482015290519081900360640190fd5b60118054831515610100810261ff00199092169190911790915560408051918252517f29c75de63228ee2a42f9ee78a0e01daa10561801f4d66d599c596a70c770b5d39181900360200190a15050565b6112db33610f4a565b6113165760405162461bcd60e51b8152600401808060200182810382526030815260200180612d866030913960400191505060405180910390fd5b610f3e81611e93565b61132833610f4a565b6113635760405162461bcd60e51b8152600401808060200182810382526030815260200180612d866030913960400191505060405180910390fd5b600b5460ff16156113ae576040805162461bcd60e51b815260206004820152601060248201526f14185d5cd8589b194e881c185d5cd95960821b604482015290519081900360640190fd5b600b805460ff191660011790556040805133815290517f62e78cea01bee320cd4e420270b5ea74000d11b0c9f74754ebdbfc544b05a2589181900360200190a1565b60606113fb82611edb565b80548060200260200160405190810160405280929190818152602001828054801561144557602002820191906000526020600020905b815481526020019060010190808311611431575b50505050509050919050565b601154610100900460ff1681565b6001546001600160a01b031690565b6001546001600160a01b0316331490565b600d805460408051602060026001851615610100026000190190941693909304601f81018490048402820184019092528181529291830182828015610a5b5780601f10610a3057610100808354040283529160200191610a5b565b6114e333611585565b61151e5760405162461bcd60e51b8152600401808060200182810382526030815260200180612e296030913960400191505060405180910390fd5b610f3e81611ef5565b6110e733611f3d565b600b5460ff161561157b576040805162461bcd60e51b815260206004820152601060248201526f14185d5cd8589b194e881c185d5cd95960821b604482015290519081900360640190fd5b610b1a8282611f85565b6000610f5d60098363ffffffff611de016565b6115a061146e565b6115df576040805162461bcd60e51b81526020600482018190526024820152600080516020612ed2833981519152604482015290519081900360640190fd5b6115eb600d8383612c9f565b507fadf3ae8bd543b3007d464f15cb8ea1db3f44e84d41d203164f40b95e27558ac6828260405180806020018281038252848482818152602001925080828437600083820152604051601f909101601f19169092018290039550909350505050a15050565b61165b848484610bd0565b61166784848484612051565b6116a25760405162461bcd60e51b8152600401808060200182810382526030815260200180612f146030913960400191505060405180910390fd5b50505050565b60008181526010602052604090205460018114156109d057506000919050565b6116d061146e565b61170f576040805162461bcd60e51b81526020600482018190526024820152600080516020612ed2833981519152604482015290519081900360640190fd5b61171b600c8383612c9f565b507f4df9dcd34ae35f40f2c756fd8ac83210ed0b76d065543ee73d868aec7c7fcf02828260405180806020018281038252848482818152602001925080828437600083820152604051601f909101601f19169092018290039550909350505050a15050565b606061178b82611a63565b6117c65760405162461bcd60e51b815260040180806020018281038252602e815260200180612d58602e913960400191505060405180910390fd5b8161185257600e604051602001808280546001816001161561010002031660029004801561182b5780601f1061180957610100808354040283529182019161182b565b820191906000526020600020905b815481529060010190602001808311611817575b505080600360fc1b81525060010191505060405160208183030381529060405290506109d0565b60608260005b811561186c57600101600a82049150611858565b6060816040519080825280601f01601f191660200182016040528015611899576020820181803883390190505b5090505b85156118e25760001990910190600a860660300160f81b8183815181106118c057fe5b60200101906001600160f81b031916908160001a905350600a8604955061189d565b8093506000600e8054600181600116156101000203166002900490501161191857604051806020016040528060008152506119db565b600e8460405160200180838054600181600116156101000203166002900480156119795780601f10611957576101008083540402835291820191611979565b820191906000526020600020905b815481529060010190602001808311611965575b5050825160208401908083835b602083106119a55780518252601f199092019160209182019101611986565b6001836020036101000a038019825116818451168082178552505050505050905001925050506040516020818303038152906040525b9695505050505050565b6001600160a01b03918216600090815260056020908152604080832093909416825291909152205460ff1690565b611a1b61146e565b611a5a576040805162461bcd60e51b81526020600482018190526024820152600080516020612ed2833981519152604482015290519081900360640190fd5b610f3e8161242e565b6000908152600260205260409020546001600160a01b0316151590565b6000611a8b8261102f565b9050806001600160a01b0316836001600160a01b03161415611af4576040805162461bcd60e51b815260206004820181905260248201527f4b495031373a20617070726f76616c20746f2063757272656e74206f776e6572604482015290519081900360640190fd5b336001600160a01b0382161480611b105750611b1081336119e5565b611b4b5760405162461bcd60e51b81526004018080602001828103825260378152602001806130136037913960400191505060405180910390fd5b60008281526003602052604080822080546001600160a01b0319166001600160a01b0387811691821790925591518593918516917f8c5be1e5ebec7d5bd14f71427d1e84f3dd0314c0f7b2291e5b200ac8c7c3b92591a4505050565b611bb13382611cc0565b611bec5760405162461bcd60e51b8152600401808060200182810382526030815260200180612ea26030913960400191505060405180910390fd5b610c268383836124cf565b6001600160a01b0382166000908152600f602052604090205460ff1615611c51576040805162461bcd60e51b815260206004820152600960248201526810931050d2d31254d560ba1b604482015290519081900360640190fd5b60115460ff168015611c64575061271081105b611ca5576040805162461bcd60e51b815260206004820152600d60248201526c4e4f545f415641494c41424c4560981b604482015290519081900360640190fd5b6000818152601060205260409020439055610b1a8282612575565b6000611ccb82611a63565b611d065760405162461bcd60e51b815260040180806020018281038252602b81526020018061304a602b913960400191505060405180910390fd5b6000611d118361102f565b9050806001600160a01b0316846001600160a01b03161480611d4c5750836001600160a01b0316611d4184610a63565b6001600160a01b0316145b80611d5c5750611d5c81856119e5565b949350505050565b601154610100900460ff168015611d845750611d7e610bc9565b61271014155b611dc5576040805162461bcd60e51b815260206004820152600d60248201526c4e4f545f415641494c41424c4560981b604482015290519081900360640190fd5b600081815260106020526040902060019055610f3e81612596565b60006001600160a01b038216611e275760405162461bcd60e51b8152600401808060200182810382526022815260200180612ef26022913960400191505060405180910390fd5b506001600160a01b03166000908152602091909152604090205460ff1690565b611e58600a8263ffffffff6125a816565b6040516001600160a01b038216907fcd265ebaf09df2871cc7bd4133404a235ba12eff2041bb89d9c714a2621c7c7e90600090a250565b5490565b611ea4600a8263ffffffff61260f16565b6040516001600160a01b038216907f6719d08c1888103bea251a4ed56406bd0c3e69723c8a1686e017e7bbe159b6f890600090a250565b6001600160a01b0316600090815260066020526040902090565b611f0660098263ffffffff61260f16565b6040516001600160a01b038216907f6ae172837ea30b801fbfcdd4108aa1d5bf8ff775444fd70256b44e6bf3dfc3f690600090a250565b611f4e60098263ffffffff6125a816565b6040516001600160a01b038216907fe94479a9f7e1952cc78f2d6baab678adc1b772d936c6583def489e524cb6669290600090a250565b6001600160a01b038216331415611fe3576040805162461bcd60e51b815260206004820152601860248201527f4b495031373a20617070726f766520746f2063616c6c65720000000000000000604482015290519081900360640190fd5b3360008181526005602090815260408083206001600160a01b03871680855290835292819020805460ff1916861515908117909155815190815290519293927f17307eab39ab6107e8899845ad3d59bd9653f200f220920489ca2b5937696c31929181900390910190a35050565b6000806060612068866001600160a01b0316612690565b61207757600192505050611d5c565b856001600160a01b031663150b7a0260e01b3389888860405160240180856001600160a01b03166001600160a01b03168152602001846001600160a01b03166001600160a01b0316815260200183815260200180602001828103825283818151815260200191508051906020019080838360005b838110156121035781810151838201526020016120eb565b50505050905090810190601f1680156121305780820380516001836020036101000a031916815260200191505b5060408051601f198184030181529181526020820180516001600160e01b03166001600160e01b0319909a16999099178952518151919890975087965094509250829150849050835b602083106121985780518252601f199092019160209182019101612179565b6001836020036101000a0380198251168184511680821785525050505050509050019150506000604051808303816000865af19150503d80600081146121fa576040519150601f19603f3d011682016040523d82523d6000602084013e6121ff565b606091505b50805191935091501580159061223c57508051630a85bd0160e11b906020808401919081101561222e57600080fd5b50516001600160e01b031916145b1561224c57600192505050611d5c565b856001600160a01b0316636745782b60e01b3389888860405160240180856001600160a01b03166001600160a01b03168152602001846001600160a01b03166001600160a01b0316815260200183815260200180602001828103825283818151815260200191508051906020019080838360005b838110156122d85781810151838201526020016122c0565b50505050905090810190601f1680156123055780820380516001836020036101000a031916815260200191505b5060408051601f198184030181529181526020820180516001600160e01b03166001600160e01b0319909a16999099178952518151919890975087965094509250829150849050835b6020831061236d5780518252601f19909201916020918201910161234e565b6001836020036101000a0380198251168184511680821785525050505050509050019150506000604051808303816000865af19150503d80600081146123cf576040519150601f19603f3d011682016040523d82523d6000602084013e6123d4565b606091505b50805191935091501580159061241157508051636745782b60e01b906020808401919081101561240357600080fd5b50516001600160e01b031916145b1561242157600192505050611d5c565b5060009695505050505050565b6001600160a01b0381166124735760405162461bcd60e51b8152600401808060200182810382526026815260200180612db66026913960400191505060405180910390fd5b6001546040516001600160a01b038084169216907f8be0079c531659141344cd1fd0a4f28419497f9722a3daafe3b4186f6b6457e090600090a3600180546001600160a01b0319166001600160a01b0392909216919091179055565b6001600160a01b0383166000908152600f602052604090205460ff1615801561251157506001600160a01b0382166000908152600f602052604090205460ff16155b801561252d5750336000908152600f602052604090205460ff16155b61256a576040805162461bcd60e51b815260206004820152600960248201526810931050d2d31254d560ba1b604482015290519081900360640190fd5b610c26838383612696565b61257f82826126b5565b61258982826127e6565b5050600880546001019055565b610f3e6125a28261102f565b82612824565b6125b28282611de0565b6125ed5760405162461bcd60e51b8152600401808060200182810382526021815260200180612e596021913960400191505060405180910390fd5b6001600160a01b0316600090815260209190915260409020805460ff19169055565b6126198282611de0565b1561266b576040805162461bcd60e51b815260206004820152601f60248201527f526f6c65733a206163636f756e7420616c72656164792068617320726f6c6500604482015290519081900360640190fd5b6001600160a01b0316600090815260209190915260409020805460ff19166001179055565b3b151590565b6126a1838383612854565b6126ab8382612998565b610c2682826127e6565b6001600160a01b038216612710576040805162461bcd60e51b815260206004820152601f60248201527f4b495031373a206d696e7420746f20746865207a65726f206164647265737300604482015290519081900360640190fd5b61271981611a63565b1561276b576040805162461bcd60e51b815260206004820152601b60248201527f4b495031373a20746f6b656e20616c7265616479206d696e7465640000000000604482015290519081900360640190fd5b600081815260026020908152604080832080546001600160a01b0319166001600160a01b0387169081179091558352600490915290206127aa90612a8d565b60405181906001600160a01b038416906000907fddf252ad1be2c89b69c2b068fc378daa952ba7f163c4a11628f55a4df523b3ef908290a45050565b6001600160a01b0390911660009081526006602081815260408084208054868652600784529185208290559282526001810183559183529091200155565b61282e8282612a96565b6128388282612998565b6000908152600760205260408120555060088054600019019055565b826001600160a01b03166128678261102f565b6001600160a01b0316146128ac5760405162461bcd60e51b8152600401808060200182810382526028815260200180612f9c6028913960400191505060405180910390fd5b6001600160a01b0382166128f15760405162461bcd60e51b8152600401808060200182810382526023815260200180612ddc6023913960400191505060405180910390fd5b6128fa81612b6d565b6001600160a01b038316600090815260046020526040902061291b90612ba8565b6001600160a01b038216600090815260046020526040902061293c90612a8d565b60008181526002602052604080822080546001600160a01b0319166001600160a01b0386811691821790925591518493918716917fddf252ad1be2c89b69c2b068fc378daa952ba7f163c4a11628f55a4df523b3ef91a4505050565b6001600160a01b0382166000908152600660205260408120546129c290600163ffffffff612bbf16565b600083815260076020526040902054909150808214612a5d576001600160a01b03841660009081526006602052604081208054849081106129ff57fe5b906000526020600020015490508060066000876001600160a01b03166001600160a01b031681526020019081526020016000208381548110612a3d57fe5b600091825260208083209091019290925591825260079052604090208190555b6001600160a01b0384166000908152600660205260409020805490612a86906000198301612d1d565b5050505050565b80546001019055565b816001600160a01b0316612aa98261102f565b6001600160a01b031614612aee5760405162461bcd60e51b8152600401808060200182810382526024815260200180612fc46024913960400191505060405180910390fd5b612af781612b6d565b6001600160a01b0382166000908152600460205260409020612b1890612ba8565b60008181526002602052604080822080546001600160a01b0319169055518291906001600160a01b038516907fddf252ad1be2c89b69c2b068fc378daa952ba7f163c4a11628f55a4df523b3ef908390a45050565b6000818152600360205260409020546001600160a01b031615610f3e57600090815260036020526040902080546001600160a01b0319169055565b8054612bbb90600163ffffffff612bbf16565b9055565b6000612c0183836040518060400160405280601e81526020017f536166654d6174683a207375627472616374696f6e206f766572666c6f770000815250612c08565b9392505050565b60008184841115612c975760405162461bcd60e51b81526004018080602001828103825283818151815260200191508051906020019080838360005b83811015612c5c578181015183820152602001612c44565b50505050905090810190601f168015612c895780820380516001836020036101000a031916815260200191505b509250505060405180910390fd5b505050900390565b828054600181600116156101000203166002900490600052602060002090601f016020900481019282601f10612ce05782800160ff19823516178555612d0d565b82800160010185558215612d0d579182015b82811115612d0d578235825591602001919060010190612cf2565b50612d19929150612d3d565b5090565b815481835581811115610c2657600083815260209020610c269181019083015b610bcd91905b80821115612d195760008155600101612d4356fe4b495031374d657461646174613a2055524920717565727920666f72206e6f6e6578697374656e7420746f6b656e506175736572526f6c653a2063616c6c657220646f6573206e6f742068617665207468652050617573657220726f6c654f776e61626c653a206e6577206f776e657220697320746865207a65726f20616464726573734b495031373a207472616e7366657220746f20746865207a65726f20616464726573734b49503137456e756d657261626c653a206f776e657220696e646578206f7574206f6620626f756e64734d696e746572526f6c653a2063616c6c657220646f6573206e6f74206861766520746865204d696e74657220726f6c65526f6c65733a206163636f756e7420646f6573206e6f74206861766520726f6c654b495031373a206f776e657220717565727920666f72206e6f6e6578697374656e7420746f6b656e4b495031373a207472616e736665722063616c6c6572206973206e6f74206f776e6572206e6f7220617070726f7665644f776e61626c653a2063616c6c6572206973206e6f7420746865206f776e6572526f6c65733a206163636f756e7420697320746865207a65726f20616464726573734b495031373a207472616e7366657220746f206e6f6e204b49503137526563656976657220696d706c656d656e7465724b495031374275726e61626c653a2063616c6c6572206973206e6f74206f776e6572206e6f7220617070726f7665644b495031373a2062616c616e636520717565727920666f7220746865207a65726f20616464726573734b495031373a207472616e73666572206f6620746f6b656e2074686174206973206e6f74206f776e4b495031373a206275726e206f6620746f6b656e2074686174206973206e6f74206f776e4b495031373a20617070726f76656420717565727920666f72206e6f6e6578697374656e7420746f6b656e4b495031373a20617070726f76652063616c6c6572206973206e6f74206f776e6572206e6f7220617070726f76656420666f7220616c6c4b495031373a206f70657261746f7220717565727920666f72206e6f6e6578697374656e7420746f6b656ea265627a7a723158202b2c88c8e947d1596e37cf2dce8082045ad51943229b649d9631e73e91081b8d64736f6c63430005110032526f6c65733a206163636f756e7420697320746865207a65726f206164647265737368747470733a2f2f6170692e6761696170726f746f636f6c2e636f6d2f737461626c6564616f2f",
    "linkReferences": {},
    "deployedLinkReferences": {}
}