{
  "contracts/GaiaStableDAOOperator.sol": {
    "GaiaStableDAOOperator": {
      "abi": [
        {
          "inputs": [
            {
              "internalType": "contract IGaiaStableDAO",
              "name": "_stableDAO",
              "type": "address"
            },
            {
              "internalType": "address",
              "name": "_gaiaKronos",
              "type": "address"
            },
            {
              "internalType": "address",
              "name": "_supernova",
              "type": "address"
            },
            {
              "internalType": "address",
              "name": "_KUSDT",
              "type": "address"
            },
            {
              "internalType": "address",
              "name": "_KSP",
              "type": "address"
            },
            {
              "internalType": "address",
              "name": "_KUSDT_KS_POOL",
              "type": "address"
            },
            {
              "internalType": "address",
              "name": "_KUSDT_KLAY_LP",
              "type": "address"
            },
            {
              "internalType": "address",
              "name": "_devFund",
              "type": "address"
            }
          ],
          "stateMutability": "nonpayable",
          "type": "constructor"
        },
        {
          "anonymous": false,
          "inputs": [
            {
              "indexed": true,
              "internalType": "address",
              "name": "user",
              "type": "address"
            },
            {
              "indexed": true,
              "internalType": "uint256",
              "name": "id",
              "type": "uint256"
            }
          ],
          "name": "BuyBack",
          "type": "event"
        },
        {
          "anonymous": false,
          "inputs": [
            {
              "indexed": false,
              "internalType": "uint256",
              "name": "amountOfKUSDT",
              "type": "uint256"
            },
            {
              "indexed": false,
              "internalType": "uint256",
              "name": "amountOfKSP",
              "type": "uint256"
            }
          ],
          "name": "ClaimInterest",
          "type": "event"
        },
        {
          "anonymous": false,
          "inputs": [
            {
              "indexed": false,
              "internalType": "uint256",
              "name": "amountOfKSP",
              "type": "uint256"
            }
          ],
          "name": "ClaimKSPReward",
          "type": "event"
        },
        {
          "anonymous": false,
          "inputs": [
            {
              "indexed": false,
              "internalType": "uint256",
              "name": "amountOfKUSDT",
              "type": "uint256"
            },
            {
              "indexed": false,
              "internalType": "uint256",
              "name": "amountOfKSP",
              "type": "uint256"
            }
          ],
          "name": "EmergencyWithdraw",
          "type": "event"
        },
        {
          "anonymous": false,
          "inputs": [
            {
              "indexed": true,
              "internalType": "address",
              "name": "previousOwner",
              "type": "address"
            },
            {
              "indexed": true,
              "internalType": "address",
              "name": "newOwner",
              "type": "address"
            }
          ],
          "name": "OwnershipTransferred",
          "type": "event"
        },
        {
          "anonymous": false,
          "inputs": [
            {
              "indexed": false,
              "internalType": "uint256",
              "name": "priceForII",
              "type": "uint256"
            }
          ],
          "name": "SetPriceForII",
          "type": "event"
        },
        {
          "anonymous": false,
          "inputs": [
            {
              "indexed": false,
              "internalType": "address",
              "name": "newDevFund",
              "type": "address"
            }
          ],
          "name": "UpdateDevFund",
          "type": "event"
        },
        {
          "stateMutability": "payable",
          "type": "fallback"
        },
        {
          "inputs": [],
          "name": "BUYBACKPRICE",
          "outputs": [
            {
              "internalType": "uint256",
              "name": "",
              "type": "uint256"
            }
          ],
          "stateMutability": "view",
          "type": "function"
        },
        {
          "inputs": [],
          "name": "KSP",
          "outputs": [
            {
              "internalType": "contract IERC20",
              "name": "",
              "type": "address"
            }
          ],
          "stateMutability": "view",
          "type": "function"
        },
        {
          "inputs": [],
          "name": "KUSDT",
          "outputs": [
            {
              "internalType": "contract IERC20",
              "name": "",
              "type": "address"
            }
          ],
          "stateMutability": "view",
          "type": "function"
        },
        {
          "inputs": [],
          "name": "KUSDT_KLAY_LP",
          "outputs": [
            {
              "internalType": "contract IKSLP",
              "name": "",
              "type": "address"
            }
          ],
          "stateMutability": "view",
          "type": "function"
        },
        {
          "inputs": [],
          "name": "KUSDT_KS_POOL",
          "outputs": [
            {
              "internalType": "contract IKSSinglePool",
              "name": "",
              "type": "address"
            }
          ],
          "stateMutability": "view",
          "type": "function"
        },
        {
          "inputs": [],
          "name": "PUBLICPRICE",
          "outputs": [
            {
              "internalType": "uint256",
              "name": "",
              "type": "uint256"
            }
          ],
          "stateMutability": "view",
          "type": "function"
        },
        {
          "inputs": [],
          "name": "burnedTokensAmount",
          "outputs": [
            {
              "internalType": "uint256",
              "name": "",
              "type": "uint256"
            }
          ],
          "stateMutability": "view",
          "type": "function"
        },
        {
          "inputs": [
            {
              "internalType": "uint256[]",
              "name": "ids",
              "type": "uint256[]"
            }
          ],
          "name": "buyBack",
          "outputs": [],
          "stateMutability": "nonpayable",
          "type": "function"
        },
        {
          "inputs": [],
          "name": "claimInterest",
          "outputs": [],
          "stateMutability": "nonpayable",
          "type": "function"
        },
        {
          "inputs": [],
          "name": "claimKSPReward",
          "outputs": [],
          "stateMutability": "nonpayable",
          "type": "function"
        },
        {
          "inputs": [
            {
              "internalType": "address",
              "name": "token",
              "type": "address"
            }
          ],
          "name": "claimTokens",
          "outputs": [],
          "stateMutability": "nonpayable",
          "type": "function"
        },
        {
          "inputs": [],
          "name": "claimableInterest",
          "outputs": [
            {
              "internalType": "uint256",
              "name": "",
              "type": "uint256"
            }
          ],
          "stateMutability": "view",
          "type": "function"
        },
        {
          "inputs": [],
          "name": "claimableKSPReward",
          "outputs": [
            {
              "internalType": "uint256",
              "name": "",
              "type": "uint256"
            }
          ],
          "stateMutability": "view",
          "type": "function"
        },
        {
          "inputs": [],
          "name": "devFund",
          "outputs": [
            {
              "internalType": "address",
              "name": "",
              "type": "address"
            }
          ],
          "stateMutability": "view",
          "type": "function"
        },
        {
          "inputs": [
            {
              "internalType": "uint256",
              "name": "iKUSDTAmount",
              "type": "uint256"
            }
          ],
          "name": "emergencyWithdraw",
          "outputs": [],
          "stateMutability": "nonpayable",
          "type": "function"
        },
        {
          "inputs": [
            {
              "internalType": "uint256",
              "name": "totalKUSDTAmount",
              "type": "uint256"
            }
          ],
          "name": "estimateNeededKlayForZapping",
          "outputs": [
            {
              "internalType": "uint256",
              "name": "neededKlay",
              "type": "uint256"
            }
          ],
          "stateMutability": "view",
          "type": "function"
        },
        {
          "inputs": [],
          "name": "gaiaKronos",
          "outputs": [
            {
              "internalType": "address",
              "name": "",
              "type": "address"
            }
          ],
          "stateMutability": "view",
          "type": "function"
        },
        {
          "inputs": [],
          "name": "gaiaSupernova",
          "outputs": [
            {
              "internalType": "address",
              "name": "",
              "type": "address"
            }
          ],
          "stateMutability": "view",
          "type": "function"
        },
        {
          "inputs": [],
          "name": "getBurnedIds",
          "outputs": [
            {
              "internalType": "uint16[]",
              "name": "",
              "type": "uint16[]"
            }
          ],
          "stateMutability": "view",
          "type": "function"
        },
        {
          "inputs": [
            {
              "internalType": "address",
              "name": "",
              "type": "address"
            }
          ],
          "name": "isListedII",
          "outputs": [
            {
              "internalType": "bool",
              "name": "",
              "type": "bool"
            }
          ],
          "stateMutability": "view",
          "type": "function"
        },
        {
          "inputs": [
            {
              "internalType": "uint256",
              "name": "amount",
              "type": "uint256"
            },
            {
              "internalType": "address",
              "name": "nft",
              "type": "address"
            }
          ],
          "name": "mintStableDAO",
          "outputs": [],
          "stateMutability": "nonpayable",
          "type": "function"
        },
        {
          "inputs": [
            {
              "internalType": "uint256",
              "name": "amount",
              "type": "uint256"
            },
            {
              "internalType": "address[]",
              "name": "path",
              "type": "address[]"
            }
          ],
          "name": "mintStableDAOAsII",
          "outputs": [],
          "stateMutability": "payable",
          "type": "function"
        },
        {
          "inputs": [
            {
              "internalType": "address",
              "name": "",
              "type": "address"
            }
          ],
          "name": "mintedAmountWithGaiaKronos",
          "outputs": [
            {
              "internalType": "uint256",
              "name": "",
              "type": "uint256"
            }
          ],
          "stateMutability": "view",
          "type": "function"
        },
        {
          "inputs": [
            {
              "internalType": "address",
              "name": "",
              "type": "address"
            }
          ],
          "name": "mintedAmountWithGaiaSupernova",
          "outputs": [
            {
              "internalType": "uint256",
              "name": "",
              "type": "uint256"
            }
          ],
          "stateMutability": "view",
          "type": "function"
        },
        {
          "inputs": [],
          "name": "owner",
          "outputs": [
            {
              "internalType": "address",
              "name": "",
              "type": "address"
            }
          ],
          "stateMutability": "view",
          "type": "function"
        },
        {
          "inputs": [],
          "name": "renounceOwnership",
          "outputs": [],
          "stateMutability": "nonpayable",
          "type": "function"
        },
        {
          "inputs": [
            {
              "internalType": "address[]",
              "name": "iis",
              "type": "address[]"
            },
            {
              "internalType": "bool[]",
              "name": "eligible",
              "type": "bool[]"
            }
          ],
          "name": "setIIList",
          "outputs": [],
          "stateMutability": "nonpayable",
          "type": "function"
        },
        {
          "inputs": [
            {
              "internalType": "uint256",
              "name": "_priceForII",
              "type": "uint256"
            }
          ],
          "name": "setPriceForII",
          "outputs": [],
          "stateMutability": "nonpayable",
          "type": "function"
        },
        {
          "inputs": [
            {
              "internalType": "address[]",
              "name": "users",
              "type": "address[]"
            },
            {
              "internalType": "uint256[]",
              "name": "tickets",
              "type": "uint256[]"
            }
          ],
          "name": "setWhitelist",
          "outputs": [],
          "stateMutability": "nonpayable",
          "type": "function"
        },
        {
          "inputs": [],
          "name": "stableDAO",
          "outputs": [
            {
              "internalType": "contract IGaiaStableDAO",
              "name": "",
              "type": "address"
            }
          ],
          "stateMutability": "view",
          "type": "function"
        },
        {
          "inputs": [
            {
              "internalType": "address",
              "name": "newOwner",
              "type": "address"
            }
          ],
          "name": "transferOwnership",
          "outputs": [],
          "stateMutability": "nonpayable",
          "type": "function"
        },
        {
          "inputs": [
            {
              "internalType": "address",
              "name": "newDevFund",
              "type": "address"
            }
          ],
          "name": "updateDevFund",
          "outputs": [],
          "stateMutability": "nonpayable",
          "type": "function"
        },
        {
          "inputs": [
            {
              "internalType": "address",
              "name": "",
              "type": "address"
            }
          ],
          "name": "whitelistedAmount",
          "outputs": [
            {
              "internalType": "uint256",
              "name": "",
              "type": "uint256"
            }
          ],
          "stateMutability": "view",
          "type": "function"
        },
        {
          "stateMutability": "payable",
          "type": "receive"
        }
      ],
      "evm": {
        "bytecode": {
          "linkReferences": {},
          "object": "6101606040523480156200001257600080fd5b50604051620038ed380380620038ed8339810160408190526200003591620001da565b620000403362000171565b600180556001600160a01b038816158015906200006557506001600160a01b03871615155b80156200007a57506001600160a01b03861615155b80156200008f57506001600160a01b03851615155b8015620000a457506001600160a01b03841615155b8015620000b957506001600160a01b03831615155b8015620000ce57506001600160a01b03821615155b8015620000e357506001600160a01b03811615155b620001245760405162461bcd60e51b815260206004820152600d60248201526c57524f4e475f4144445245535360981b604482015260640160405180910390fd5b6001600160a01b0397881660805295871660a05293861660c05291851660e052841661010052831661012052821661014052600780546001600160a01b031916919092161790556200029b565b600080546001600160a01b038381166001600160a01b0319831681178455604051919092169283917f8be0079c531659141344cd1fd0a4f28419497f9722a3daafe3b4186f6b6457e09190a35050565b6001600160a01b0381168114620001d757600080fd5b50565b600080600080600080600080610100898b031215620001f857600080fd5b88516200020581620001c1565b60208a01519098506200021881620001c1565b60408a01519097506200022b81620001c1565b60608a01519096506200023e81620001c1565b60808a01519095506200025181620001c1565b60a08a01519094506200026481620001c1565b60c08a01519093506200027781620001c1565b60e08a01519092506200028a81620001c1565b809150509295985092959890939650565b60805160a05160c05160e0516101005161012051610140516134d16200041c6000396000818161034801526113ef015260008181610451015281816106d701528181610bb001528181610c3c0152818161116d01528181611210015281816112af0152818161258a015281816125f7015281816126a1015281816127a8015261282c0152600081816105450152818161075f015281816107ed01528181610a2301528181610ab001528181610d4e01528181610ec4015281816113500152611ed20152600081816102350152818161099001528181610cb701528181610dd90152818161141c0152818161174501528181611bd201528181611cdd01528181611efa01528181612005015261277b0152600081816103140152818161195a01526119ca0152600081816102c001528181611815015261187701526000818161061e015281816108d201528181610fe9015281816114d6015281816115c2015281816128b4015281816129e701528181612ae20152612b8201526134d16000f3fe6080604052600436106101da5760003560e01c80638da5cb5b11610101578063d8116d391161009a578063e8d8a2551161006c578063e8d8a255146105df578063ebd878191461060c578063f013e0e114610640578063f2fde38b14610660578063fa00992a1461068057005b8063d8116d3914610567578063d8d587311461057f578063df8de3e71461059f578063e40db51e146105bf57005b8063b104c5c4116100d3578063b104c5c4146104c0578063b22bca72146104e0578063b373e34714610520578063bcee54ac1461053357005b80638da5cb5b1461042157806391a7fa321461043f5780639f4f393014610473578063a8087d2f146104a057005b80634e9da4fe1161017357806374bf35fd1161014557806374bf35fd146103b45780637642eb01146103cc57806376ffe548146103ec578063834b843b1461040157005b80634e9da4fe146103365780635312ea8e1461036a578063551b03ff1461038a578063715018a61461039f57005b8063387c5884116101ac578063387c588414610299578063424ddd31146102ae5780634390d2a8146102e2578063464039ba1461030257005b80630647079b146101e35780631928c8f51461022357806323d821961461026f57806335981fd81461028457005b366101e157005b005b3480156101ef57600080fd5b506102106101fe366004613032565b60036020526000908152604090205481565b6040519081526020015b60405180910390f35b34801561022f57600080fd5b506102577f000000000000000000000000000000000000000000000000000000000000000081565b6040516001600160a01b03909116815260200161021a565b34801561027b57600080fd5b506101e16106a2565b34801561029057600080fd5b506101e161089f565b3480156102a557600080fd5b50600854610210565b3480156102ba57600080fd5b506102577f000000000000000000000000000000000000000000000000000000000000000081565b3480156102ee57600080fd5b50600754610257906001600160a01b031681565b34801561030e57600080fd5b506102577f000000000000000000000000000000000000000000000000000000000000000081565b34801561034257600080fd5b506102577f000000000000000000000000000000000000000000000000000000000000000081565b34801561037657600080fd5b506101e161038536600461304f565b610b68565b34801561039657600080fd5b50610210610fe0565b3480156103ab57600080fd5b506101e161108a565b3480156103c057600080fd5b50610210634d7c6d0081565b3480156103d857600080fd5b506101e16103e736600461304f565b6110c0565b3480156103f857600080fd5b50610210611168565b34801561040d57600080fd5b5061021061041c36600461304f565b6113d5565b34801561042d57600080fd5b506000546001600160a01b0316610257565b34801561044b57600080fd5b506102577f000000000000000000000000000000000000000000000000000000000000000081565b34801561047f57600080fd5b5061021061048e366004613032565b60046020526000908152604090205481565b3480156104ac57600080fd5b506101e16104bb3660046130b4565b61148d565b3480156104cc57600080fd5b506101e16104db3660046130f6565b6117c5565b3480156104ec57600080fd5b506105106104fb366004613032565b60066020526000908152604090205460ff1681565b604051901515815260200161021a565b6101e161052e366004613126565b611d99565b34801561053f57600080fd5b506102577f000000000000000000000000000000000000000000000000000000000000000081565b34801561057357600080fd5b506102106347868c0081565b34801561058b57600080fd5b506101e161059a366004613172565b6120c9565b3480156105ab57600080fd5b506101e16105ba366004613032565b6121d3565b3480156105cb57600080fd5b506101e16105da366004613032565b61229b565b3480156105eb57600080fd5b506102106105fa366004613032565b60056020526000908152604090205481565b34801561061857600080fd5b506102577f000000000000000000000000000000000000000000000000000000000000000081565b34801561064c57600080fd5b506101e161065b366004613172565b61235e565b34801561066c57600080fd5b506101e161067b366004613032565b612445565b34801561068c57600080fd5b506106956124e0565b60405161021a91906131de565b6000546001600160a01b031633146106d55760405162461bcd60e51b81526004016106cc90613226565b60405180910390fd5b7f00000000000000000000000000000000000000000000000000000000000000006001600160a01b031663b88a802f6040518163ffffffff1660e01b8152600401600060405180830381600087803b15801561073057600080fd5b505af1158015610744573d6000803e3d6000fd5b50506040516370a0823160e01b8152306004820152600092507f00000000000000000000000000000000000000000000000000000000000000006001600160a01b031691506370a0823190602401602060405180830381865afa1580156107af573d6000803e3d6000fd5b505050506040513d601f19601f820116820180604052508101906107d3919061325b565b60405163a9059cbb60e01b81529091506001600160a01b037f0000000000000000000000000000000000000000000000000000000000000000169063a9059cbb906108249033908590600401613274565b6020604051808303816000875af1158015610843573d6000803e3d6000fd5b505050506040513d601f19601f82011682018060405250810190610867919061329b565b506040518181527f827033f41b04f3a38de270190753a9e2f8282ed861e7c39ee3534e9139a67822906020015b60405180910390a150565b6000546001600160a01b031633146108c95760405162461bcd60e51b81526004016106cc90613226565b60006347868c007f00000000000000000000000000000000000000000000000000000000000000006001600160a01b03166318160ddd6040518163ffffffff1660e01b8152600401602060405180830381865afa15801561092e573d6000803e3d6000fd5b505050506040513d601f19601f82011682018060405250810190610952919061325b565b61095c91906132ce565b610964612560565b61096e91906132ed565b90506109798161268b565b60405163a9059cbb60e01b81526001600160a01b037f0000000000000000000000000000000000000000000000000000000000000000169063a9059cbb906109c79033908590600401613274565b6020604051808303816000875af11580156109e6573d6000803e3d6000fd5b505050506040513d601f19601f82011682018060405250810190610a0a919061329b565b506040516370a0823160e01b81523060048201526000907f00000000000000000000000000000000000000000000000000000000000000006001600160a01b0316906370a0823190602401602060405180830381865afa158015610a72573d6000803e3d6000fd5b505050506040513d601f19601f82011682018060405250810190610a96919061325b565b60405163a9059cbb60e01b81529091506001600160a01b037f0000000000000000000000000000000000000000000000000000000000000000169063a9059cbb90610ae79033908590600401613274565b6020604051808303816000875af1158015610b06573d6000803e3d6000fd5b505050506040513d601f19601f82011682018060405250810190610b2a919061329b565b5060408051838152602081018390527fc3ffd12cb2da41d132d91075fe44e4bac86de74fc7cb8decfbee8b91b0d7e78d910160405180910390a15050565b6000546001600160a01b03163314610b925760405162461bcd60e51b81526004016106cc90613226565b6000198103610c26576040516370a0823160e01b81523060048201527f00000000000000000000000000000000000000000000000000000000000000006001600160a01b0316906370a0823190602401602060405180830381865afa158015610bff573d6000803e3d6000fd5b505050506040513d601f19601f82011682018060405250810190610c23919061325b565b90505b604051635521e9bf60e01b8152600481018290527f00000000000000000000000000000000000000000000000000000000000000006001600160a01b031690635521e9bf90602401600060405180830381600087803b158015610c8857600080fd5b505af1158015610c9c573d6000803e3d6000fd5b50506040516370a0823160e01b8152306004820152600092507f00000000000000000000000000000000000000000000000000000000000000006001600160a01b031691506370a0823190602401602060405180830381865afa158015610d07573d6000803e3d6000fd5b505050506040513d601f19601f82011682018060405250810190610d2b919061325b565b6040516370a0823160e01b81523060048201529091506000906001600160a01b037f000000000000000000000000000000000000000000000000000000000000000016906370a0823190602401602060405180830381865afa158015610d95573d6000803e3d6000fd5b505050506040513d601f19601f82011682018060405250810190610db9919061325b565b6040516370a0823160e01b81523060048201529091506001600160a01b037f0000000000000000000000000000000000000000000000000000000000000000169063a9059cbb90339083906370a0823190602401602060405180830381865afa158015610e2a573d6000803e3d6000fd5b505050506040513d601f19601f82011682018060405250810190610e4e919061325b565b6040518363ffffffff1660e01b8152600401610e6b929190613274565b6020604051808303816000875af1158015610e8a573d6000803e3d6000fd5b505050506040513d601f19601f82011682018060405250810190610eae919061329b565b506040516370a0823160e01b81523060048201527f00000000000000000000000000000000000000000000000000000000000000006001600160a01b03169063a9059cbb90339083906370a0823190602401602060405180830381865afa158015610f1d573d6000803e3d6000fd5b505050506040513d601f19601f82011682018060405250810190610f41919061325b565b6040518363ffffffff1660e01b8152600401610f5e929190613274565b6020604051808303816000875af1158015610f7d573d6000803e3d6000fd5b505050506040513d601f19601f82011682018060405250810190610fa1919061329b565b5060408051838152602081018390527fb073e6fbd06d7557d2c82f414fee57de28e7fb517ecc0afdd6b1fc57034a9cb8910160405180910390a1505050565b60006347868c007f00000000000000000000000000000000000000000000000000000000000000006001600160a01b03166318160ddd6040518163ffffffff1660e01b8152600401602060405180830381865afa158015611045573d6000803e3d6000fd5b505050506040513d601f19601f82011682018060405250810190611069919061325b565b61107391906132ce565b61107b612560565b61108591906132ed565b905090565b6000546001600160a01b031633146110b45760405162461bcd60e51b81526004016106cc90613226565b6110be6000612701565b565b6000546001600160a01b031633146110ea5760405162461bcd60e51b81526004016106cc90613226565b6347868c008110156111335760405162461bcd60e51b8152602060048201526012602482015271494e56414c49445f5052494345464f52494960701b60448201526064016106cc565b60028190556040518181527faddbfdd6b306d5763bccf05efd206438a3c37d233894f16d6256d937750a73e190602001610894565b6000807f00000000000000000000000000000000000000000000000000000000000000006001600160a01b0316638d80fc0c6040518163ffffffff1660e01b8152600401602060405180830381865afa1580156111c9573d6000803e3d6000fd5b505050506040513d601f19601f820116820180604052508101906111ed919061325b565b60405163738c07cd60e11b81523060048201529091506000906001600160a01b037f0000000000000000000000000000000000000000000000000000000000000000169063e7180f9a90602401602060405180830381865afa158015611257573d6000803e3d6000fd5b505050506040513d601f19601f8201168201806040525081019061127b919061325b565b905060008183111561133957670de0b6b3a764000061129a83856132ed565b6040516370a0823160e01b81523060048201527f00000000000000000000000000000000000000000000000000000000000000006001600160a01b0316906370a0823190602401602060405180830381865afa1580156112fe573d6000803e3d6000fd5b505050506040513d601f19601f82011682018060405250810190611322919061325b565b61132c91906132ce565b6113369190613304565b90505b6040516370a0823160e01b815230600482015281907f00000000000000000000000000000000000000000000000000000000000000006001600160a01b0316906370a0823190602401602060405180830381865afa15801561139f573d6000803e3d6000fd5b505050506040513d601f19601f820116820180604052508101906113c3919061325b565b6113cd9190613326565b935050505090565b60405163603acc2160e11b81526000906001600160a01b037f0000000000000000000000000000000000000000000000000000000000000000169063c075984290611446907f0000000000000000000000000000000000000000000000000000000000000000908690600401613274565b602060405180830381865afa158015611463573d6000803e3d6000fd5b505050506040513d601f19601f82011682018060405250810190611487919061325b565b92915050565b806114c85760405162461bcd60e51b815260206004820152600b60248201526a494e56414c49445f49445360a81b60448201526064016106cc565b60005b8181101561171257337f00000000000000000000000000000000000000000000000000000000000000006001600160a01b0316636352211e8585858181106115155761151561333e565b905060200201356040518263ffffffff1660e01b815260040161153a91815260200190565b602060405180830381865afa158015611557573d6000803e3d6000fd5b505050506040513d601f19601f8201168201806040525081019061157b9190613354565b6001600160a01b0316146115c05760405162461bcd60e51b815260206004820152600c60248201526b15539055551213d49256915160a21b60448201526064016106cc565b7f00000000000000000000000000000000000000000000000000000000000000006001600160a01b03166342966c688484848181106116015761160161333e565b905060200201356040518263ffffffff1660e01b815260040161162691815260200190565b600060405180830381600087803b15801561164057600080fd5b505af1158015611654573d6000803e3d6000fd5b50505050600883838381811061166c5761166c61333e565b835460018101855560009485526020948590206010820401805461ffff96909302949094013585166002600f909216919091026101000a90810294021916929092179055508282828181106116c3576116c361333e565b90506020020135336001600160a01b03167f515a362443b428d4aab92057f742255c765d68033ba3f00847b57e323d0468d460405160405180910390a38061170a81613371565b9150506114cb565b5060006117236347868c00836132ce565b905061172e8161268b565b60405163a9059cbb60e01b81526001600160a01b037f0000000000000000000000000000000000000000000000000000000000000000169063a9059cbb9061177c9033908590600401613274565b6020604051808303816000875af115801561179b573d6000803e3d6000fd5b505050506040513d601f19601f820116820180604052508101906117bf919061329b565b50505050565b816000036118065760405162461bcd60e51b815260206004820152600e60248201526d1253959053125117d05353d5539560921b60448201526064016106cc565b634d7c6d006001600160a01b037f00000000000000000000000000000000000000000000000000000000000000008116908316036119585750336000818152600360205260408082205490516370a0823160e01b815260048101939093526347868c00929091906001600160a01b037f000000000000000000000000000000000000000000000000000000000000000016906370a0823190602401602060405180830381865afa1580156118be573d6000803e3d6000fd5b505050506040513d601f19601f820116820180604052508101906118e2919061325b565b9050806118ef8684613326565b11156119365760405162461bcd60e51b81526020600482015260166024820152754e4f545f454e4f5547485f474149415f4b524f4e4f5360501b60448201526064016106cc565b6119408583613326565b3360009081526003602052604090205550611bc89050565b7f00000000000000000000000000000000000000000000000000000000000000006001600160a01b0316826001600160a01b031603611ab257503360008181526004602081905260408083205490516370a0823160e01b815291820193909352634a817c809291906001600160a01b037f000000000000000000000000000000000000000000000000000000000000000016906370a0823190602401602060405180830381865afa158015611a11573d6000803e3d6000fd5b505050506040513d601f19601f82011682018060405250810190611a35919061325b565b905080611a428684613326565b1115611a905760405162461bcd60e51b815260206004820152601960248201527f4e4f545f454e4f5547485f474149415f53555045524e4f56410000000000000060448201526064016106cc565b611a9a8583613326565b3360009081526004602052604090205550611bc89050565b6002600160a01b03196001600160a01b03831601611b835750336000908152600560205260409020546347868c009080611b215760405162461bcd60e51b815260206004820152601060248201526f1393d517d25397d5d2125511531254d560821b60448201526064016106cc565b80841115611b695760405162461bcd60e51b8152602060048201526015602482015274414d4f554e545f4558434545445f5449434b45545360581b60448201526064016106cc565b336000908152600560205260409020908490039055611bc8565b6001600160a01b03821615611bc85760405162461bcd60e51b815260206004820152600b60248201526a1253959053125117d3919560aa1b60448201526064016106cc565b6001600160a01b037f0000000000000000000000000000000000000000000000000000000000000000166323b872dd3330611c0387866132ce565b6040516001600160e01b031960e086901b1681526001600160a01b03938416600482015292909116602483015260448201526064016020604051808303816000875af1158015611c57573d6000803e3d6000fd5b505050506040513d601f19601f82011682018060405250810190611c7b919061329b565b506347868c008114611d81576007546001600160a01b0316611cd05760405162461bcd60e51b815260206004820152600e60248201526d046554e445f414444524553535f360941b60448201526064016106cc565b6007546001600160a01b037f000000000000000000000000000000000000000000000000000000000000000081169163a9059cbb911685611d156347868c00866132ed565b611d1f91906132ce565b6040518363ffffffff1660e01b8152600401611d3c929190613274565b6020604051808303816000875af1158015611d5b573d6000803e3d6000fd5b505050506040513d601f19601f82011682018060405250810190611d7f919061329b565b505b611d8a83612751565b611d943384612894565b505050565b600260015403611deb5760405162461bcd60e51b815260206004820152601f60248201527f5265656e7472616e637947756172643a207265656e7472616e742063616c6c0060448201526064016106cc565b60026001553360009081526006602052604090205460ff16611e415760405162461bcd60e51b815260206004820152600f60248201526e4e4f545f454c494749424c455f494960881b60448201526064016106cc565b82600003611e825760405162461bcd60e51b815260206004820152600e60248201526d1253959053125117d05353d5539560921b60448201526064016106cc565b60025480611ec75760405162461bcd60e51b8152602060048201526012602482015271494e56414c49445f5052494345464f52494960701b60448201526064016106cc565b476001600160a01b037f00000000000000000000000000000000000000000000000000000000000000001663a7c07e92347f0000000000000000000000000000000000000000000000000000000000000000611f2389876132ce565b88886040518663ffffffff1660e01b8152600401611f44949392919061338a565b6000604051808303818588803b158015611f5d57600080fd5b505af1158015611f71573d6000803e3d6000fd5b505050505060004782611f8491906132ed565b90506000611f9282346132ed565b90508015611fa457611fa43382612c25565b6347868c0084146120a9576007546001600160a01b0316611ff85760405162461bcd60e51b815260206004820152600e60248201526d046554e445f414444524553535f360941b60448201526064016106cc565b6007546001600160a01b037f000000000000000000000000000000000000000000000000000000000000000081169163a9059cbb91168961203d6347868c00896132ed565b61204791906132ce565b6040518363ffffffff1660e01b8152600401612064929190613274565b6020604051808303816000875af1158015612083573d6000803e3d6000fd5b505050506040513d601f19601f820116820180604052508101906120a7919061329b565b505b6120b287612751565b6120bc3388612894565b5050600180555050505050565b6000546001600160a01b031633146120f35760405162461bcd60e51b81526004016106cc90613226565b8281146121355760405162461bcd60e51b815260206004820152601060248201526f13115391d51217d393d517d15455505360821b60448201526064016106cc565b60005b838110156121cc578282828181106121525761215261333e565b905060200201602081019061216791906133ed565b6006600087878581811061217d5761217d61333e565b90506020020160208101906121929190613032565b6001600160a01b031681526020810191909152604001600020805460ff1916911515919091179055806121c481613371565b915050612138565b5050505050565b6000546001600160a01b031633146121fd5760405162461bcd60e51b81526004016106cc90613226565b60006001600160a01b03821661221d5750476122193382612c25565b5050565b6040516370a0823160e01b81523060048201526001600160a01b038316906370a0823190602401602060405180830381865afa158015612261573d6000803e3d6000fd5b505050506040513d601f19601f82011682018060405250810190612285919061325b565b90506122196001600160a01b0383163383612d3e565b6000546001600160a01b031633146122c55760405162461bcd60e51b81526004016106cc90613226565b6007546001600160a01b038083169116036123105760405162461bcd60e51b815260206004820152600b60248201526a1393d517d0d2105391d15160aa1b60448201526064016106cc565b600780546001600160a01b0319166001600160a01b0383169081179091556040519081527f7de9de9894d93d7f1b540d3876ef6dac577aa15e5d92a990d987e1de839e271090602001610894565b6000546001600160a01b031633146123885760405162461bcd60e51b81526004016106cc90613226565b8281146123ca5760405162461bcd60e51b815260206004820152601060248201526f13115391d51217d393d517d15455505360821b60448201526064016106cc565b60005b838110156121cc578282828181106123e7576123e761333e565b90506020020135600560008787858181106124045761240461333e565b90506020020160208101906124199190613032565b6001600160a01b031681526020810191909152604001600020558061243d81613371565b9150506123cd565b6000546001600160a01b0316331461246f5760405162461bcd60e51b81526004016106cc90613226565b6001600160a01b0381166124d45760405162461bcd60e51b815260206004820152602660248201527f4f776e61626c653a206e6577206f776e657220697320746865207a65726f206160448201526564647265737360d01b60648201526084016106cc565b6124dd81612701565b50565b6060600880548060200260200160405190810160405280929190818152602001828054801561255657602002820191906000526020600020906000905b82829054906101000a900461ffff1661ffff168152602001906002019060208260010104928301926001038202915080841161251d5790505b5050505050905090565b6040516370a0823160e01b8152306004820152600090670de0b6b3a7640000906001600160a01b037f000000000000000000000000000000000000000000000000000000000000000016906370a0823190602401602060405180830381865afa1580156125d1573d6000803e3d6000fd5b505050506040513d601f19601f820116820180604052508101906125f5919061325b565b7f00000000000000000000000000000000000000000000000000000000000000006001600160a01b031663182df0f56040518163ffffffff1660e01b8152600401602060405180830381865afa158015612653573d6000803e3d6000fd5b505050506040513d601f19601f82011682018060405250810190612677919061325b565b61268191906132ce565b6110859190613304565b604051632e1a7d4d60e01b8152600481018290527f00000000000000000000000000000000000000000000000000000000000000006001600160a01b031690632e1a7d4d90602401600060405180830381600087803b1580156126ed57600080fd5b505af11580156121cc573d6000803e3d6000fd5b600080546001600160a01b038381166001600160a01b0319831681178455604051919092169283917f8be0079c531659141344cd1fd0a4f28419497f9722a3daafe3b4186f6b6457e09190a35050565b60006127616347868c00836132ce565b60405163095ea7b360e01b81529091506001600160a01b037f0000000000000000000000000000000000000000000000000000000000000000169063095ea7b3906127d2907f0000000000000000000000000000000000000000000000000000000000000000908590600401613274565b6020604051808303816000875af11580156127f1573d6000803e3d6000fd5b505050506040513d601f19601f82011682018060405250810190612815919061329b565b50604051639e3a92ff60e01b8152600481018290527f00000000000000000000000000000000000000000000000000000000000000006001600160a01b031690639e3a92ff90602401600060405180830381600087803b15801561287857600080fd5b505af115801561288c573d6000803e3d6000fd5b505050505050565b600854818111156129da5760005b828110156117bf576001600160a01b037f0000000000000000000000000000000000000000000000000000000000000000166340c10f19856008846128e86001886132ed565b6128f291906132ed565b815481106129025761290261333e565b90600052602060002090601091828204019190066002029054906101000a900461ffff1661ffff166040518363ffffffff1660e01b8152600401612947929190613274565b6020604051808303816000875af1158015612966573d6000803e3d6000fd5b505050506040513d601f19601f8201168201806040525081019061298a919061329b565b50600880548061299c5761299c61340a565b600082815260209020601060001990920191820401805461ffff6002600f8516026101000a02191690559055806129d281613371565b9150506128a2565b60005b81811015612ac3577f00000000000000000000000000000000000000000000000000000000000000006001600160a01b03166340c10f198560088481548110612a2857612a2861333e565b90600052602060002090601091828204019190066002029054906101000a900461ffff1661ffff166040518363ffffffff1660e01b8152600401612a6d929190613274565b6020604051808303816000875af1158015612a8c573d6000803e3d6000fd5b505050506040513d601f19601f82011682018060405250810190612ab0919061329b565b5080612abb81613371565b9150506129dd565b508015612ad657612ad660086000612fe4565b81811015611d945760007f00000000000000000000000000000000000000000000000000000000000000006001600160a01b03166318160ddd6040518163ffffffff1660e01b8152600401602060405180830381865afa158015612b3e573d6000803e3d6000fd5b505050506040513d601f19601f82011682018060405250810190612b62919061325b565b905060005b612b7183856132ed565b8110156121cc576001600160a01b037f0000000000000000000000000000000000000000000000000000000000000000166340c10f1986612bb28486613326565b6040518363ffffffff1660e01b8152600401612bcf929190613274565b6020604051808303816000875af1158015612bee573d6000803e3d6000fd5b505050506040513d601f19601f82011682018060405250810190612c12919061329b565b5080612c1d81613371565b915050612b67565b80471015612c755760405162461bcd60e51b815260206004820152601d60248201527f416464726573733a20696e73756666696369656e742062616c616e636500000060448201526064016106cc565b6000826001600160a01b03168260405160006040518083038185875af1925050503d8060008114612cc2576040519150601f19603f3d011682016040523d82523d6000602084013e612cc7565b606091505b5050905080611d945760405162461bcd60e51b815260206004820152603a60248201527f416464726573733a20756e61626c6520746f2073656e642076616c75652c207260448201527f6563697069656e74206d6179206861766520726576657274656400000000000060648201526084016106cc565b611d948363a9059cbb60e01b8484604051602401612d5d929190613274565b60408051601f198184030181529190526020810180516001600160e01b03166001600160e01b0319909316929092179091526000612de4826040518060400160405280602081526020017f5361666545524332303a206c6f772d6c6576656c2063616c6c206661696c6564815250856001600160a01b0316612e619092919063ffffffff16565b805190915015611d945780806020019051810190612e02919061329b565b611d945760405162461bcd60e51b815260206004820152602a60248201527f5361666545524332303a204552433230206f7065726174696f6e20646964206e6044820152691bdd081cdd58d8d9595960b21b60648201526084016106cc565b6060612e708484600085612e7a565b90505b9392505050565b606082471015612edb5760405162461bcd60e51b815260206004820152602660248201527f416464726573733a20696e73756666696369656e742062616c616e636520666f6044820152651c8818d85b1b60d21b60648201526084016106cc565b6001600160a01b0385163b612f325760405162461bcd60e51b815260206004820152601d60248201527f416464726573733a2063616c6c20746f206e6f6e2d636f6e747261637400000060448201526064016106cc565b600080866001600160a01b03168587604051612f4e919061344c565b60006040518083038185875af1925050503d8060008114612f8b576040519150601f19603f3d011682016040523d82523d6000602084013e612f90565b606091505b5091509150612fa0828286612fab565b979650505050505050565b60608315612fba575081612e73565b825115612fca5782518084602001fd5b8160405162461bcd60e51b81526004016106cc9190613468565b50805460008255600f0160109004906000526020600020908101906124dd91905b808211156130195760008155600101613005565b5090565b6001600160a01b03811681146124dd57600080fd5b60006020828403121561304457600080fd5b8135612e738161301d565b60006020828403121561306157600080fd5b5035919050565b60008083601f84011261307a57600080fd5b50813567ffffffffffffffff81111561309257600080fd5b6020830191508360208260051b85010111156130ad57600080fd5b9250929050565b600080602083850312156130c757600080fd5b823567ffffffffffffffff8111156130de57600080fd5b6130ea85828601613068565b90969095509350505050565b6000806040838503121561310957600080fd5b82359150602083013561311b8161301d565b809150509250929050565b60008060006040848603121561313b57600080fd5b83359250602084013567ffffffffffffffff81111561315957600080fd5b61316586828701613068565b9497909650939450505050565b6000806000806040858703121561318857600080fd5b843567ffffffffffffffff808211156131a057600080fd5b6131ac88838901613068565b909650945060208701359150808211156131c557600080fd5b506131d287828801613068565b95989497509550505050565b6020808252825182820181905260009190848201906040850190845b8181101561321a57835161ffff16835292840192918401916001016131fa565b50909695505050505050565b6020808252818101527f4f776e61626c653a2063616c6c6572206973206e6f7420746865206f776e6572604082015260600190565b60006020828403121561326d57600080fd5b5051919050565b6001600160a01b03929092168252602082015260400190565b80151581146124dd57600080fd5b6000602082840312156132ad57600080fd5b8151612e738161328d565b634e487b7160e01b600052601160045260246000fd5b60008160001904831182151516156132e8576132e86132b8565b500290565b6000828210156132ff576132ff6132b8565b500390565b60008261332157634e487b7160e01b600052601260045260246000fd5b500490565b60008219821115613339576133396132b8565b500190565b634e487b7160e01b600052603260045260246000fd5b60006020828403121561336657600080fd5b8151612e738161301d565b600060018201613383576133836132b8565b5060010190565b6001600160a01b03858116825260208083018690526060604084018190528301849052600091859160808501845b878110156133df5784356133cb8161301d565b8416825293820193908201906001016133b8565b509998505050505050505050565b6000602082840312156133ff57600080fd5b8135612e738161328d565b634e487b7160e01b600052603160045260246000fd5b60005b8381101561343b578181015183820152602001613423565b838111156117bf5750506000910152565b6000825161345e818460208701613420565b9190910192915050565b6020815260008251806020840152613487816040850160208701613420565b601f01601f1916919091016040019291505056fea2646970667358221220d94ab52df5c87a02b5830f6de449c509c65077f31a32aabdc9dbe86bb695422564736f6c634300080d0033",
          "opcodes": "PUSH2 0x160 PUSH1 0x40 MSTORE CALLVALUE DUP1 ISZERO PUSH3 0x12 JUMPI PUSH1 0x0 DUP1 REVERT JUMPDEST POP PUSH1 0x40 MLOAD PUSH3 0x38ED CODESIZE SUB DUP1 PUSH3 0x38ED DUP4 CODECOPY DUP2 ADD PUSH1 0x40 DUP2 SWAP1 MSTORE PUSH3 0x35 SWAP2 PUSH3 0x1DA JUMP JUMPDEST PUSH3 0x40 CALLER PUSH3 0x171 JUMP JUMPDEST PUSH1 0x1 DUP1 SSTORE PUSH1 0x1 PUSH1 0x1 PUSH1 0xA0 SHL SUB DUP9 AND ISZERO DUP1 ISZERO SWAP1 PUSH3 0x65 JUMPI POP PUSH1 0x1 PUSH1 0x1 PUSH1 0xA0 SHL SUB DUP8 AND ISZERO ISZERO JUMPDEST DUP1 ISZERO PUSH3 0x7A JUMPI POP PUSH1 0x1 PUSH1 0x1 PUSH1 0xA0 SHL SUB DUP7 AND ISZERO ISZERO JUMPDEST DUP1 ISZERO PUSH3 0x8F JUMPI POP PUSH1 0x1 PUSH1 0x1 PUSH1 0xA0 SHL SUB DUP6 AND ISZERO ISZERO JUMPDEST DUP1 ISZERO PUSH3 0xA4 JUMPI POP PUSH1 0x1 PUSH1 0x1 PUSH1 0xA0 SHL SUB DUP5 AND ISZERO ISZERO JUMPDEST DUP1 ISZERO PUSH3 0xB9 JUMPI POP PUSH1 0x1 PUSH1 0x1 PUSH1 0xA0 SHL SUB DUP4 AND ISZERO ISZERO JUMPDEST DUP1 ISZERO PUSH3 0xCE JUMPI POP PUSH1 0x1 PUSH1 0x1 PUSH1 0xA0 SHL SUB DUP3 AND ISZERO ISZERO JUMPDEST DUP1 ISZERO PUSH3 0xE3 JUMPI POP PUSH1 0x1 PUSH1 0x1 PUSH1 0xA0 SHL SUB DUP2 AND ISZERO ISZERO JUMPDEST PUSH3 0x124 JUMPI PUSH1 0x40 MLOAD PUSH3 0x461BCD PUSH1 0xE5 SHL DUP2 MSTORE PUSH1 0x20 PUSH1 0x4 DUP3 ADD MSTORE PUSH1 0xD PUSH1 0x24 DUP3 ADD MSTORE PUSH13 0x57524F4E475F41444452455353 PUSH1 0x98 SHL PUSH1 0x44 DUP3 ADD MSTORE PUSH1 0x64 ADD PUSH1 0x40 MLOAD DUP1 SWAP2 SUB SWAP1 REVERT JUMPDEST PUSH1 0x1 PUSH1 0x1 PUSH1 0xA0 SHL SUB SWAP8 DUP9 AND PUSH1 0x80 MSTORE SWAP6 DUP8 AND PUSH1 0xA0 MSTORE SWAP4 DUP7 AND PUSH1 0xC0 MSTORE SWAP2 DUP6 AND PUSH1 0xE0 MSTORE DUP5 AND PUSH2 0x100 MSTORE DUP4 AND PUSH2 0x120 MSTORE DUP3 AND PUSH2 0x140 MSTORE PUSH1 0x7 DUP1 SLOAD PUSH1 0x1 PUSH1 0x1 PUSH1 0xA0 SHL SUB NOT AND SWAP2 SWAP1 SWAP3 AND OR SWAP1 SSTORE PUSH3 0x29B JUMP JUMPDEST PUSH1 0x0 DUP1 SLOAD PUSH1 0x1 PUSH1 0x1 PUSH1 0xA0 SHL SUB DUP4 DUP2 AND PUSH1 0x1 PUSH1 0x1 PUSH1 0xA0 SHL SUB NOT DUP4 AND DUP2 OR DUP5 SSTORE PUSH1 0x40 MLOAD SWAP2 SWAP1 SWAP3 AND SWAP3 DUP4 SWAP2 PUSH32 0x8BE0079C531659141344CD1FD0A4F28419497F9722A3DAAFE3B4186F6B6457E0 SWAP2 SWAP1 LOG3 POP POP JUMP JUMPDEST PUSH1 0x1 PUSH1 0x1 PUSH1 0xA0 SHL SUB DUP2 AND DUP2 EQ PUSH3 0x1D7 JUMPI PUSH1 0x0 DUP1 REVERT JUMPDEST POP JUMP JUMPDEST PUSH1 0x0 DUP1 PUSH1 0x0 DUP1 PUSH1 0x0 DUP1 PUSH1 0x0 DUP1 PUSH2 0x100 DUP10 DUP12 SUB SLT ISZERO PUSH3 0x1F8 JUMPI PUSH1 0x0 DUP1 REVERT JUMPDEST DUP9 MLOAD PUSH3 0x205 DUP2 PUSH3 0x1C1 JUMP JUMPDEST PUSH1 0x20 DUP11 ADD MLOAD SWAP1 SWAP9 POP PUSH3 0x218 DUP2 PUSH3 0x1C1 JUMP JUMPDEST PUSH1 0x40 DUP11 ADD MLOAD SWAP1 SWAP8 POP PUSH3 0x22B DUP2 PUSH3 0x1C1 JUMP JUMPDEST PUSH1 0x60 DUP11 ADD MLOAD SWAP1 SWAP7 POP PUSH3 0x23E DUP2 PUSH3 0x1C1 JUMP JUMPDEST PUSH1 0x80 DUP11 ADD MLOAD SWAP1 SWAP6 POP PUSH3 0x251 DUP2 PUSH3 0x1C1 JUMP JUMPDEST PUSH1 0xA0 DUP11 ADD MLOAD SWAP1 SWAP5 POP PUSH3 0x264 DUP2 PUSH3 0x1C1 JUMP JUMPDEST PUSH1 0xC0 DUP11 ADD MLOAD SWAP1 SWAP4 POP PUSH3 0x277 DUP2 PUSH3 0x1C1 JUMP JUMPDEST PUSH1 0xE0 DUP11 ADD MLOAD SWAP1 SWAP3 POP PUSH3 0x28A DUP2 PUSH3 0x1C1 JUMP JUMPDEST DUP1 SWAP2 POP POP SWAP3 SWAP6 SWAP9 POP SWAP3 SWAP6 SWAP9 SWAP1 SWAP4 SWAP7 POP JUMP JUMPDEST PUSH1 0x80 MLOAD PUSH1 0xA0 MLOAD PUSH1 0xC0 MLOAD PUSH1 0xE0 MLOAD PUSH2 0x100 MLOAD PUSH2 0x120 MLOAD PUSH2 0x140 MLOAD PUSH2 0x34D1 PUSH3 0x41C PUSH1 0x0 CODECOPY PUSH1 0x0 DUP2 DUP2 PUSH2 0x348 ADD MSTORE PUSH2 0x13EF ADD MSTORE PUSH1 0x0 DUP2 DUP2 PUSH2 0x451 ADD MSTORE DUP2 DUP2 PUSH2 0x6D7 ADD MSTORE DUP2 DUP2 PUSH2 0xBB0 ADD MSTORE DUP2 DUP2 PUSH2 0xC3C ADD MSTORE DUP2 DUP2 PUSH2 0x116D ADD MSTORE DUP2 DUP2 PUSH2 0x1210 ADD MSTORE DUP2 DUP2 PUSH2 0x12AF ADD MSTORE DUP2 DUP2 PUSH2 0x258A ADD MSTORE DUP2 DUP2 PUSH2 0x25F7 ADD MSTORE DUP2 DUP2 PUSH2 0x26A1 ADD MSTORE DUP2 DUP2 PUSH2 0x27A8 ADD MSTORE PUSH2 0x282C ADD MSTORE PUSH1 0x0 DUP2 DUP2 PUSH2 0x545 ADD MSTORE DUP2 DUP2 PUSH2 0x75F ADD MSTORE DUP2 DUP2 PUSH2 0x7ED ADD MSTORE DUP2 DUP2 PUSH2 0xA23 ADD MSTORE DUP2 DUP2 PUSH2 0xAB0 ADD MSTORE DUP2 DUP2 PUSH2 0xD4E ADD MSTORE DUP2 DUP2 PUSH2 0xEC4 ADD MSTORE DUP2 DUP2 PUSH2 0x1350 ADD MSTORE PUSH2 0x1ED2 ADD MSTORE PUSH1 0x0 DUP2 DUP2 PUSH2 0x235 ADD MSTORE DUP2 DUP2 PUSH2 0x990 ADD MSTORE DUP2 DUP2 PUSH2 0xCB7 ADD MSTORE DUP2 DUP2 PUSH2 0xDD9 ADD MSTORE DUP2 DUP2 PUSH2 0x141C ADD MSTORE DUP2 DUP2 PUSH2 0x1745 ADD MSTORE DUP2 DUP2 PUSH2 0x1BD2 ADD MSTORE DUP2 DUP2 PUSH2 0x1CDD ADD MSTORE DUP2 DUP2 PUSH2 0x1EFA ADD MSTORE DUP2 DUP2 PUSH2 0x2005 ADD MSTORE PUSH2 0x277B ADD MSTORE PUSH1 0x0 DUP2 DUP2 PUSH2 0x314 ADD MSTORE DUP2 DUP2 PUSH2 0x195A ADD MSTORE PUSH2 0x19CA ADD MSTORE PUSH1 0x0 DUP2 DUP2 PUSH2 0x2C0 ADD MSTORE DUP2 DUP2 PUSH2 0x1815 ADD MSTORE PUSH2 0x1877 ADD MSTORE PUSH1 0x0 DUP2 DUP2 PUSH2 0x61E ADD MSTORE DUP2 DUP2 PUSH2 0x8D2 ADD MSTORE DUP2 DUP2 PUSH2 0xFE9 ADD MSTORE DUP2 DUP2 PUSH2 0x14D6 ADD MSTORE DUP2 DUP2 PUSH2 0x15C2 ADD MSTORE DUP2 DUP2 PUSH2 0x28B4 ADD MSTORE DUP2 DUP2 PUSH2 0x29E7 ADD MSTORE DUP2 DUP2 PUSH2 0x2AE2 ADD MSTORE PUSH2 0x2B82 ADD MSTORE PUSH2 0x34D1 PUSH1 0x0 RETURN INVALID PUSH1 0x80 PUSH1 0x40 MSTORE PUSH1 0x4 CALLDATASIZE LT PUSH2 0x1DA JUMPI PUSH1 0x0 CALLDATALOAD PUSH1 0xE0 SHR DUP1 PUSH4 0x8DA5CB5B GT PUSH2 0x101 JUMPI DUP1 PUSH4 0xD8116D39 GT PUSH2 0x9A JUMPI DUP1 PUSH4 0xE8D8A255 GT PUSH2 0x6C JUMPI DUP1 PUSH4 0xE8D8A255 EQ PUSH2 0x5DF JUMPI DUP1 PUSH4 0xEBD87819 EQ PUSH2 0x60C JUMPI DUP1 PUSH4 0xF013E0E1 EQ PUSH2 0x640 JUMPI DUP1 PUSH4 0xF2FDE38B EQ PUSH2 0x660 JUMPI DUP1 PUSH4 0xFA00992A EQ PUSH2 0x680 JUMPI STOP JUMPDEST DUP1 PUSH4 0xD8116D39 EQ PUSH2 0x567 JUMPI DUP1 PUSH4 0xD8D58731 EQ PUSH2 0x57F JUMPI DUP1 PUSH4 0xDF8DE3E7 EQ PUSH2 0x59F JUMPI DUP1 PUSH4 0xE40DB51E EQ PUSH2 0x5BF JUMPI STOP JUMPDEST DUP1 PUSH4 0xB104C5C4 GT PUSH2 0xD3 JUMPI DUP1 PUSH4 0xB104C5C4 EQ PUSH2 0x4C0 JUMPI DUP1 PUSH4 0xB22BCA72 EQ PUSH2 0x4E0 JUMPI DUP1 PUSH4 0xB373E347 EQ PUSH2 0x520 JUMPI DUP1 PUSH4 0xBCEE54AC EQ PUSH2 0x533 JUMPI STOP JUMPDEST DUP1 PUSH4 0x8DA5CB5B EQ PUSH2 0x421 JUMPI DUP1 PUSH4 0x91A7FA32 EQ PUSH2 0x43F JUMPI DUP1 PUSH4 0x9F4F3930 EQ PUSH2 0x473 JUMPI DUP1 PUSH4 0xA8087D2F EQ PUSH2 0x4A0 JUMPI STOP JUMPDEST DUP1 PUSH4 0x4E9DA4FE GT PUSH2 0x173 JUMPI DUP1 PUSH4 0x74BF35FD GT PUSH2 0x145 JUMPI DUP1 PUSH4 0x74BF35FD EQ PUSH2 0x3B4 JUMPI DUP1 PUSH4 0x7642EB01 EQ PUSH2 0x3CC JUMPI DUP1 PUSH4 0x76FFE548 EQ PUSH2 0x3EC JUMPI DUP1 PUSH4 0x834B843B EQ PUSH2 0x401 JUMPI STOP JUMPDEST DUP1 PUSH4 0x4E9DA4FE EQ PUSH2 0x336 JUMPI DUP1 PUSH4 0x5312EA8E EQ PUSH2 0x36A JUMPI DUP1 PUSH4 0x551B03FF EQ PUSH2 0x38A JUMPI DUP1 PUSH4 0x715018A6 EQ PUSH2 0x39F JUMPI STOP JUMPDEST DUP1 PUSH4 0x387C5884 GT PUSH2 0x1AC JUMPI DUP1 PUSH4 0x387C5884 EQ PUSH2 0x299 JUMPI DUP1 PUSH4 0x424DDD31 EQ PUSH2 0x2AE JUMPI DUP1 PUSH4 0x4390D2A8 EQ PUSH2 0x2E2 JUMPI DUP1 PUSH4 0x464039BA EQ PUSH2 0x302 JUMPI STOP JUMPDEST DUP1 PUSH4 0x647079B EQ PUSH2 0x1E3 JUMPI DUP1 PUSH4 0x1928C8F5 EQ PUSH2 0x223 JUMPI DUP1 PUSH4 0x23D82196 EQ PUSH2 0x26F JUMPI DUP1 PUSH4 0x35981FD8 EQ PUSH2 0x284 JUMPI STOP JUMPDEST CALLDATASIZE PUSH2 0x1E1 JUMPI STOP JUMPDEST STOP JUMPDEST CALLVALUE DUP1 ISZERO PUSH2 0x1EF JUMPI PUSH1 0x0 DUP1 REVERT JUMPDEST POP PUSH2 0x210 PUSH2 0x1FE CALLDATASIZE PUSH1 0x4 PUSH2 0x3032 JUMP JUMPDEST PUSH1 0x3 PUSH1 0x20 MSTORE PUSH1 0x0 SWAP1 DUP2 MSTORE PUSH1 0x40 SWAP1 KECCAK256 SLOAD DUP2 JUMP JUMPDEST PUSH1 0x40 MLOAD SWAP1 DUP2 MSTORE PUSH1 0x20 ADD JUMPDEST PUSH1 0x40 MLOAD DUP1 SWAP2 SUB SWAP1 RETURN JUMPDEST CALLVALUE DUP1 ISZERO PUSH2 0x22F JUMPI PUSH1 0x0 DUP1 REVERT JUMPDEST POP PUSH2 0x257 PUSH32 0x0 DUP2 JUMP JUMPDEST PUSH1 0x40 MLOAD PUSH1 0x1 PUSH1 0x1 PUSH1 0xA0 SHL SUB SWAP1 SWAP2 AND DUP2 MSTORE PUSH1 0x20 ADD PUSH2 0x21A JUMP JUMPDEST CALLVALUE DUP1 ISZERO PUSH2 0x27B JUMPI PUSH1 0x0 DUP1 REVERT JUMPDEST POP PUSH2 0x1E1 PUSH2 0x6A2 JUMP JUMPDEST CALLVALUE DUP1 ISZERO PUSH2 0x290 JUMPI PUSH1 0x0 DUP1 REVERT JUMPDEST POP PUSH2 0x1E1 PUSH2 0x89F JUMP JUMPDEST CALLVALUE DUP1 ISZERO PUSH2 0x2A5 JUMPI PUSH1 0x0 DUP1 REVERT JUMPDEST POP PUSH1 0x8 SLOAD PUSH2 0x210 JUMP JUMPDEST CALLVALUE DUP1 ISZERO PUSH2 0x2BA JUMPI PUSH1 0x0 DUP1 REVERT JUMPDEST POP PUSH2 0x257 PUSH32 0x0 DUP2 JUMP JUMPDEST CALLVALUE DUP1 ISZERO PUSH2 0x2EE JUMPI PUSH1 0x0 DUP1 REVERT JUMPDEST POP PUSH1 0x7 SLOAD PUSH2 0x257 SWAP1 PUSH1 0x1 PUSH1 0x1 PUSH1 0xA0 SHL SUB AND DUP2 JUMP JUMPDEST CALLVALUE DUP1 ISZERO PUSH2 0x30E JUMPI PUSH1 0x0 DUP1 REVERT JUMPDEST POP PUSH2 0x257 PUSH32 0x0 DUP2 JUMP JUMPDEST CALLVALUE DUP1 ISZERO PUSH2 0x342 JUMPI PUSH1 0x0 DUP1 REVERT JUMPDEST POP PUSH2 0x257 PUSH32 0x0 DUP2 JUMP JUMPDEST CALLVALUE DUP1 ISZERO PUSH2 0x376 JUMPI PUSH1 0x0 DUP1 REVERT JUMPDEST POP PUSH2 0x1E1 PUSH2 0x385 CALLDATASIZE PUSH1 0x4 PUSH2 0x304F JUMP JUMPDEST PUSH2 0xB68 JUMP JUMPDEST CALLVALUE DUP1 ISZERO PUSH2 0x396 JUMPI PUSH1 0x0 DUP1 REVERT JUMPDEST POP PUSH2 0x210 PUSH2 0xFE0 JUMP JUMPDEST CALLVALUE DUP1 ISZERO PUSH2 0x3AB JUMPI PUSH1 0x0 DUP1 REVERT JUMPDEST POP PUSH2 0x1E1 PUSH2 0x108A JUMP JUMPDEST CALLVALUE DUP1 ISZERO PUSH2 0x3C0 JUMPI PUSH1 0x0 DUP1 REVERT JUMPDEST POP PUSH2 0x210 PUSH4 0x4D7C6D00 DUP2 JUMP JUMPDEST CALLVALUE DUP1 ISZERO PUSH2 0x3D8 JUMPI PUSH1 0x0 DUP1 REVERT JUMPDEST POP PUSH2 0x1E1 PUSH2 0x3E7 CALLDATASIZE PUSH1 0x4 PUSH2 0x304F JUMP JUMPDEST PUSH2 0x10C0 JUMP JUMPDEST CALLVALUE DUP1 ISZERO PUSH2 0x3F8 JUMPI PUSH1 0x0 DUP1 REVERT JUMPDEST POP PUSH2 0x210 PUSH2 0x1168 JUMP JUMPDEST CALLVALUE DUP1 ISZERO PUSH2 0x40D JUMPI PUSH1 0x0 DUP1 REVERT JUMPDEST POP PUSH2 0x210 PUSH2 0x41C CALLDATASIZE PUSH1 0x4 PUSH2 0x304F JUMP JUMPDEST PUSH2 0x13D5 JUMP JUMPDEST CALLVALUE DUP1 ISZERO PUSH2 0x42D JUMPI PUSH1 0x0 DUP1 REVERT JUMPDEST POP PUSH1 0x0 SLOAD PUSH1 0x1 PUSH1 0x1 PUSH1 0xA0 SHL SUB AND PUSH2 0x257 JUMP JUMPDEST CALLVALUE DUP1 ISZERO PUSH2 0x44B JUMPI PUSH1 0x0 DUP1 REVERT JUMPDEST POP PUSH2 0x257 PUSH32 0x0 DUP2 JUMP JUMPDEST CALLVALUE DUP1 ISZERO PUSH2 0x47F JUMPI PUSH1 0x0 DUP1 REVERT JUMPDEST POP PUSH2 0x210 PUSH2 0x48E CALLDATASIZE PUSH1 0x4 PUSH2 0x3032 JUMP JUMPDEST PUSH1 0x4 PUSH1 0x20 MSTORE PUSH1 0x0 SWAP1 DUP2 MSTORE PUSH1 0x40 SWAP1 KECCAK256 SLOAD DUP2 JUMP JUMPDEST CALLVALUE DUP1 ISZERO PUSH2 0x4AC JUMPI PUSH1 0x0 DUP1 REVERT JUMPDEST POP PUSH2 0x1E1 PUSH2 0x4BB CALLDATASIZE PUSH1 0x4 PUSH2 0x30B4 JUMP JUMPDEST PUSH2 0x148D JUMP JUMPDEST CALLVALUE DUP1 ISZERO PUSH2 0x4CC JUMPI PUSH1 0x0 DUP1 REVERT JUMPDEST POP PUSH2 0x1E1 PUSH2 0x4DB CALLDATASIZE PUSH1 0x4 PUSH2 0x30F6 JUMP JUMPDEST PUSH2 0x17C5 JUMP JUMPDEST CALLVALUE DUP1 ISZERO PUSH2 0x4EC JUMPI PUSH1 0x0 DUP1 REVERT JUMPDEST POP PUSH2 0x510 PUSH2 0x4FB CALLDATASIZE PUSH1 0x4 PUSH2 0x3032 JUMP JUMPDEST PUSH1 0x6 PUSH1 0x20 MSTORE PUSH1 0x0 SWAP1 DUP2 MSTORE PUSH1 0x40 SWAP1 KECCAK256 SLOAD PUSH1 0xFF AND DUP2 JUMP JUMPDEST PUSH1 0x40 MLOAD SWAP1 ISZERO ISZERO DUP2 MSTORE PUSH1 0x20 ADD PUSH2 0x21A JUMP JUMPDEST PUSH2 0x1E1 PUSH2 0x52E CALLDATASIZE PUSH1 0x4 PUSH2 0x3126 JUMP JUMPDEST PUSH2 0x1D99 JUMP JUMPDEST CALLVALUE DUP1 ISZERO PUSH2 0x53F JUMPI PUSH1 0x0 DUP1 REVERT JUMPDEST POP PUSH2 0x257 PUSH32 0x0 DUP2 JUMP JUMPDEST CALLVALUE DUP1 ISZERO PUSH2 0x573 JUMPI PUSH1 0x0 DUP1 REVERT JUMPDEST POP PUSH2 0x210 PUSH4 0x47868C00 DUP2 JUMP JUMPDEST CALLVALUE DUP1 ISZERO PUSH2 0x58B JUMPI PUSH1 0x0 DUP1 REVERT JUMPDEST POP PUSH2 0x1E1 PUSH2 0x59A CALLDATASIZE PUSH1 0x4 PUSH2 0x3172 JUMP JUMPDEST PUSH2 0x20C9 JUMP JUMPDEST CALLVALUE DUP1 ISZERO PUSH2 0x5AB JUMPI PUSH1 0x0 DUP1 REVERT JUMPDEST POP PUSH2 0x1E1 PUSH2 0x5BA CALLDATASIZE PUSH1 0x4 PUSH2 0x3032 JUMP JUMPDEST PUSH2 0x21D3 JUMP JUMPDEST CALLVALUE DUP1 ISZERO PUSH2 0x5CB JUMPI PUSH1 0x0 DUP1 REVERT JUMPDEST POP PUSH2 0x1E1 PUSH2 0x5DA CALLDATASIZE PUSH1 0x4 PUSH2 0x3032 JUMP JUMPDEST PUSH2 0x229B JUMP JUMPDEST CALLVALUE DUP1 ISZERO PUSH2 0x5EB JUMPI PUSH1 0x0 DUP1 REVERT JUMPDEST POP PUSH2 0x210 PUSH2 0x5FA CALLDATASIZE PUSH1 0x4 PUSH2 0x3032 JUMP JUMPDEST PUSH1 0x5 PUSH1 0x20 MSTORE PUSH1 0x0 SWAP1 DUP2 MSTORE PUSH1 0x40 SWAP1 KECCAK256 SLOAD DUP2 JUMP JUMPDEST CALLVALUE DUP1 ISZERO PUSH2 0x618 JUMPI PUSH1 0x0 DUP1 REVERT JUMPDEST POP PUSH2 0x257 PUSH32 0x0 DUP2 JUMP JUMPDEST CALLVALUE DUP1 ISZERO PUSH2 0x64C JUMPI PUSH1 0x0 DUP1 REVERT JUMPDEST POP PUSH2 0x1E1 PUSH2 0x65B CALLDATASIZE PUSH1 0x4 PUSH2 0x3172 JUMP JUMPDEST PUSH2 0x235E JUMP JUMPDEST CALLVALUE DUP1 ISZERO PUSH2 0x66C JUMPI PUSH1 0x0 DUP1 REVERT JUMPDEST POP PUSH2 0x1E1 PUSH2 0x67B CALLDATASIZE PUSH1 0x4 PUSH2 0x3032 JUMP JUMPDEST PUSH2 0x2445 JUMP JUMPDEST CALLVALUE DUP1 ISZERO PUSH2 0x68C JUMPI PUSH1 0x0 DUP1 REVERT JUMPDEST POP PUSH2 0x695 PUSH2 0x24E0 JUMP JUMPDEST PUSH1 0x40 MLOAD PUSH2 0x21A SWAP2 SWAP1 PUSH2 0x31DE JUMP JUMPDEST PUSH1 0x0 SLOAD PUSH1 0x1 PUSH1 0x1 PUSH1 0xA0 SHL SUB AND CALLER EQ PUSH2 0x6D5 JUMPI PUSH1 0x40 MLOAD PUSH3 0x461BCD PUSH1 0xE5 SHL DUP2 MSTORE PUSH1 0x4 ADD PUSH2 0x6CC SWAP1 PUSH2 0x3226 JUMP JUMPDEST PUSH1 0x40 MLOAD DUP1 SWAP2 SUB SWAP1 REVERT JUMPDEST PUSH32 0x0 PUSH1 0x1 PUSH1 0x1 PUSH1 0xA0 SHL SUB AND PUSH4 0xB88A802F PUSH1 0x40 MLOAD DUP2 PUSH4 0xFFFFFFFF AND PUSH1 0xE0 SHL DUP2 MSTORE PUSH1 0x4 ADD PUSH1 0x0 PUSH1 0x40 MLOAD DUP1 DUP4 SUB DUP2 PUSH1 0x0 DUP8 DUP1 EXTCODESIZE ISZERO DUP1 ISZERO PUSH2 0x730 JUMPI PUSH1 0x0 DUP1 REVERT JUMPDEST POP GAS CALL ISZERO DUP1 ISZERO PUSH2 0x744 JUMPI RETURNDATASIZE PUSH1 0x0 DUP1 RETURNDATACOPY RETURNDATASIZE PUSH1 0x0 REVERT JUMPDEST POP POP PUSH1 0x40 MLOAD PUSH4 0x70A08231 PUSH1 0xE0 SHL DUP2 MSTORE ADDRESS PUSH1 0x4 DUP3 ADD MSTORE PUSH1 0x0 SWAP3 POP PUSH32 0x0 PUSH1 0x1 PUSH1 0x1 PUSH1 0xA0 SHL SUB AND SWAP2 POP PUSH4 0x70A08231 SWAP1 PUSH1 0x24 ADD PUSH1 0x20 PUSH1 0x40 MLOAD DUP1 DUP4 SUB DUP2 DUP7 GAS STATICCALL ISZERO DUP1 ISZERO PUSH2 0x7AF JUMPI RETURNDATASIZE PUSH1 0x0 DUP1 RETURNDATACOPY RETURNDATASIZE PUSH1 0x0 REVERT JUMPDEST POP POP POP POP PUSH1 0x40 MLOAD RETURNDATASIZE PUSH1 0x1F NOT PUSH1 0x1F DUP3 ADD AND DUP3 ADD DUP1 PUSH1 0x40 MSTORE POP DUP2 ADD SWAP1 PUSH2 0x7D3 SWAP2 SWAP1 PUSH2 0x325B JUMP JUMPDEST PUSH1 0x40 MLOAD PUSH4 0xA9059CBB PUSH1 0xE0 SHL DUP2 MSTORE SWAP1 SWAP2 POP PUSH1 0x1 PUSH1 0x1 PUSH1 0xA0 SHL SUB PUSH32 0x0 AND SWAP1 PUSH4 0xA9059CBB SWAP1 PUSH2 0x824 SWAP1 CALLER SWAP1 DUP6 SWAP1 PUSH1 0x4 ADD PUSH2 0x3274 JUMP JUMPDEST PUSH1 0x20 PUSH1 0x40 MLOAD DUP1 DUP4 SUB DUP2 PUSH1 0x0 DUP8 GAS CALL ISZERO DUP1 ISZERO PUSH2 0x843 JUMPI RETURNDATASIZE PUSH1 0x0 DUP1 RETURNDATACOPY RETURNDATASIZE PUSH1 0x0 REVERT JUMPDEST POP POP POP POP PUSH1 0x40 MLOAD RETURNDATASIZE PUSH1 0x1F NOT PUSH1 0x1F DUP3 ADD AND DUP3 ADD DUP1 PUSH1 0x40 MSTORE POP DUP2 ADD SWAP1 PUSH2 0x867 SWAP2 SWAP1 PUSH2 0x329B JUMP JUMPDEST POP PUSH1 0x40 MLOAD DUP2 DUP2 MSTORE PUSH32 0x827033F41B04F3A38DE270190753A9E2F8282ED861E7C39EE3534E9139A67822 SWAP1 PUSH1 0x20 ADD JUMPDEST PUSH1 0x40 MLOAD DUP1 SWAP2 SUB SWAP1 LOG1 POP JUMP JUMPDEST PUSH1 0x0 SLOAD PUSH1 0x1 PUSH1 0x1 PUSH1 0xA0 SHL SUB AND CALLER EQ PUSH2 0x8C9 JUMPI PUSH1 0x40 MLOAD PUSH3 0x461BCD PUSH1 0xE5 SHL DUP2 MSTORE PUSH1 0x4 ADD PUSH2 0x6CC SWAP1 PUSH2 0x3226 JUMP JUMPDEST PUSH1 0x0 PUSH4 0x47868C00 PUSH32 0x0 PUSH1 0x1 PUSH1 0x1 PUSH1 0xA0 SHL SUB AND PUSH4 0x18160DDD PUSH1 0x40 MLOAD DUP2 PUSH4 0xFFFFFFFF AND PUSH1 0xE0 SHL DUP2 MSTORE PUSH1 0x4 ADD PUSH1 0x20 PUSH1 0x40 MLOAD DUP1 DUP4 SUB DUP2 DUP7 GAS STATICCALL ISZERO DUP1 ISZERO PUSH2 0x92E JUMPI RETURNDATASIZE PUSH1 0x0 DUP1 RETURNDATACOPY RETURNDATASIZE PUSH1 0x0 REVERT JUMPDEST POP POP POP POP PUSH1 0x40 MLOAD RETURNDATASIZE PUSH1 0x1F NOT PUSH1 0x1F DUP3 ADD AND DUP3 ADD DUP1 PUSH1 0x40 MSTORE POP DUP2 ADD SWAP1 PUSH2 0x952 SWAP2 SWAP1 PUSH2 0x325B JUMP JUMPDEST PUSH2 0x95C SWAP2 SWAP1 PUSH2 0x32CE JUMP JUMPDEST PUSH2 0x964 PUSH2 0x2560 JUMP JUMPDEST PUSH2 0x96E SWAP2 SWAP1 PUSH2 0x32ED JUMP JUMPDEST SWAP1 POP PUSH2 0x979 DUP2 PUSH2 0x268B JUMP JUMPDEST PUSH1 0x40 MLOAD PUSH4 0xA9059CBB PUSH1 0xE0 SHL DUP2 MSTORE PUSH1 0x1 PUSH1 0x1 PUSH1 0xA0 SHL SUB PUSH32 0x0 AND SWAP1 PUSH4 0xA9059CBB SWAP1 PUSH2 0x9C7 SWAP1 CALLER SWAP1 DUP6 SWAP1 PUSH1 0x4 ADD PUSH2 0x3274 JUMP JUMPDEST PUSH1 0x20 PUSH1 0x40 MLOAD DUP1 DUP4 SUB DUP2 PUSH1 0x0 DUP8 GAS CALL ISZERO DUP1 ISZERO PUSH2 0x9E6 JUMPI RETURNDATASIZE PUSH1 0x0 DUP1 RETURNDATACOPY RETURNDATASIZE PUSH1 0x0 REVERT JUMPDEST POP POP POP POP PUSH1 0x40 MLOAD RETURNDATASIZE PUSH1 0x1F NOT PUSH1 0x1F DUP3 ADD AND DUP3 ADD DUP1 PUSH1 0x40 MSTORE POP DUP2 ADD SWAP1 PUSH2 0xA0A SWAP2 SWAP1 PUSH2 0x329B JUMP JUMPDEST POP PUSH1 0x40 MLOAD PUSH4 0x70A08231 PUSH1 0xE0 SHL DUP2 MSTORE ADDRESS PUSH1 0x4 DUP3 ADD MSTORE PUSH1 0x0 SWAP1 PUSH32 0x0 PUSH1 0x1 PUSH1 0x1 PUSH1 0xA0 SHL SUB AND SWAP1 PUSH4 0x70A08231 SWAP1 PUSH1 0x24 ADD PUSH1 0x20 PUSH1 0x40 MLOAD DUP1 DUP4 SUB DUP2 DUP7 GAS STATICCALL ISZERO DUP1 ISZERO PUSH2 0xA72 JUMPI RETURNDATASIZE PUSH1 0x0 DUP1 RETURNDATACOPY RETURNDATASIZE PUSH1 0x0 REVERT JUMPDEST POP POP POP POP PUSH1 0x40 MLOAD RETURNDATASIZE PUSH1 0x1F NOT PUSH1 0x1F DUP3 ADD AND DUP3 ADD DUP1 PUSH1 0x40 MSTORE POP DUP2 ADD SWAP1 PUSH2 0xA96 SWAP2 SWAP1 PUSH2 0x325B JUMP JUMPDEST PUSH1 0x40 MLOAD PUSH4 0xA9059CBB PUSH1 0xE0 SHL DUP2 MSTORE SWAP1 SWAP2 POP PUSH1 0x1 PUSH1 0x1 PUSH1 0xA0 SHL SUB PUSH32 0x0 AND SWAP1 PUSH4 0xA9059CBB SWAP1 PUSH2 0xAE7 SWAP1 CALLER SWAP1 DUP6 SWAP1 PUSH1 0x4 ADD PUSH2 0x3274 JUMP JUMPDEST PUSH1 0x20 PUSH1 0x40 MLOAD DUP1 DUP4 SUB DUP2 PUSH1 0x0 DUP8 GAS CALL ISZERO DUP1 ISZERO PUSH2 0xB06 JUMPI RETURNDATASIZE PUSH1 0x0 DUP1 RETURNDATACOPY RETURNDATASIZE PUSH1 0x0 REVERT JUMPDEST POP POP POP POP PUSH1 0x40 MLOAD RETURNDATASIZE PUSH1 0x1F NOT PUSH1 0x1F DUP3 ADD AND DUP3 ADD DUP1 PUSH1 0x40 MSTORE POP DUP2 ADD SWAP1 PUSH2 0xB2A SWAP2 SWAP1 PUSH2 0x329B JUMP JUMPDEST POP PUSH1 0x40 DUP1 MLOAD DUP4 DUP2 MSTORE PUSH1 0x20 DUP2 ADD DUP4 SWAP1 MSTORE PUSH32 0xC3FFD12CB2DA41D132D91075FE44E4BAC86DE74FC7CB8DECFBEE8B91B0D7E78D SWAP2 ADD PUSH1 0x40 MLOAD DUP1 SWAP2 SUB SWAP1 LOG1 POP POP JUMP JUMPDEST PUSH1 0x0 SLOAD PUSH1 0x1 PUSH1 0x1 PUSH1 0xA0 SHL SUB AND CALLER EQ PUSH2 0xB92 JUMPI PUSH1 0x40 MLOAD PUSH3 0x461BCD PUSH1 0xE5 SHL DUP2 MSTORE PUSH1 0x4 ADD PUSH2 0x6CC SWAP1 PUSH2 0x3226 JUMP JUMPDEST PUSH1 0x0 NOT DUP2 SUB PUSH2 0xC26 JUMPI PUSH1 0x40 MLOAD PUSH4 0x70A08231 PUSH1 0xE0 SHL DUP2 MSTORE ADDRESS PUSH1 0x4 DUP3 ADD MSTORE PUSH32 0x0 PUSH1 0x1 PUSH1 0x1 PUSH1 0xA0 SHL SUB AND SWAP1 PUSH4 0x70A08231 SWAP1 PUSH1 0x24 ADD PUSH1 0x20 PUSH1 0x40 MLOAD DUP1 DUP4 SUB DUP2 DUP7 GAS STATICCALL ISZERO DUP1 ISZERO PUSH2 0xBFF JUMPI RETURNDATASIZE PUSH1 0x0 DUP1 RETURNDATACOPY RETURNDATASIZE PUSH1 0x0 REVERT JUMPDEST POP POP POP POP PUSH1 0x40 MLOAD RETURNDATASIZE PUSH1 0x1F NOT PUSH1 0x1F DUP3 ADD AND DUP3 ADD DUP1 PUSH1 0x40 MSTORE POP DUP2 ADD SWAP1 PUSH2 0xC23 SWAP2 SWAP1 PUSH2 0x325B JUMP JUMPDEST SWAP1 POP JUMPDEST PUSH1 0x40 MLOAD PUSH4 0x5521E9BF PUSH1 0xE0 SHL DUP2 MSTORE PUSH1 0x4 DUP2 ADD DUP3 SWAP1 MSTORE PUSH32 0x0 PUSH1 0x1 PUSH1 0x1 PUSH1 0xA0 SHL SUB AND SWAP1 PUSH4 0x5521E9BF SWAP1 PUSH1 0x24 ADD PUSH1 0x0 PUSH1 0x40 MLOAD DUP1 DUP4 SUB DUP2 PUSH1 0x0 DUP8 DUP1 EXTCODESIZE ISZERO DUP1 ISZERO PUSH2 0xC88 JUMPI PUSH1 0x0 DUP1 REVERT JUMPDEST POP GAS CALL ISZERO DUP1 ISZERO PUSH2 0xC9C JUMPI RETURNDATASIZE PUSH1 0x0 DUP1 RETURNDATACOPY RETURNDATASIZE PUSH1 0x0 REVERT JUMPDEST POP POP PUSH1 0x40 MLOAD PUSH4 0x70A08231 PUSH1 0xE0 SHL DUP2 MSTORE ADDRESS PUSH1 0x4 DUP3 ADD MSTORE PUSH1 0x0 SWAP3 POP PUSH32 0x0 PUSH1 0x1 PUSH1 0x1 PUSH1 0xA0 SHL SUB AND SWAP2 POP PUSH4 0x70A08231 SWAP1 PUSH1 0x24 ADD PUSH1 0x20 PUSH1 0x40 MLOAD DUP1 DUP4 SUB DUP2 DUP7 GAS STATICCALL ISZERO DUP1 ISZERO PUSH2 0xD07 JUMPI RETURNDATASIZE PUSH1 0x0 DUP1 RETURNDATACOPY RETURNDATASIZE PUSH1 0x0 REVERT JUMPDEST POP POP POP POP PUSH1 0x40 MLOAD RETURNDATASIZE PUSH1 0x1F NOT PUSH1 0x1F DUP3 ADD AND DUP3 ADD DUP1 PUSH1 0x40 MSTORE POP DUP2 ADD SWAP1 PUSH2 0xD2B SWAP2 SWAP1 PUSH2 0x325B JUMP JUMPDEST PUSH1 0x40 MLOAD PUSH4 0x70A08231 PUSH1 0xE0 SHL DUP2 MSTORE ADDRESS PUSH1 0x4 DUP3 ADD MSTORE SWAP1 SWAP2 POP PUSH1 0x0 SWAP1 PUSH1 0x1 PUSH1 0x1 PUSH1 0xA0 SHL SUB PUSH32 0x0 AND SWAP1 PUSH4 0x70A08231 SWAP1 PUSH1 0x24 ADD PUSH1 0x20 PUSH1 0x40 MLOAD DUP1 DUP4 SUB DUP2 DUP7 GAS STATICCALL ISZERO DUP1 ISZERO PUSH2 0xD95 JUMPI RETURNDATASIZE PUSH1 0x0 DUP1 RETURNDATACOPY RETURNDATASIZE PUSH1 0x0 REVERT JUMPDEST POP POP POP POP PUSH1 0x40 MLOAD RETURNDATASIZE PUSH1 0x1F NOT PUSH1 0x1F DUP3 ADD AND DUP3 ADD DUP1 PUSH1 0x40 MSTORE POP DUP2 ADD SWAP1 PUSH2 0xDB9 SWAP2 SWAP1 PUSH2 0x325B JUMP JUMPDEST PUSH1 0x40 MLOAD PUSH4 0x70A08231 PUSH1 0xE0 SHL DUP2 MSTORE ADDRESS PUSH1 0x4 DUP3 ADD MSTORE SWAP1 SWAP2 POP PUSH1 0x1 PUSH1 0x1 PUSH1 0xA0 SHL SUB PUSH32 0x0 AND SWAP1 PUSH4 0xA9059CBB SWAP1 CALLER SWAP1 DUP4 SWAP1 PUSH4 0x70A08231 SWAP1 PUSH1 0x24 ADD PUSH1 0x20 PUSH1 0x40 MLOAD DUP1 DUP4 SUB DUP2 DUP7 GAS STATICCALL ISZERO DUP1 ISZERO PUSH2 0xE2A JUMPI RETURNDATASIZE PUSH1 0x0 DUP1 RETURNDATACOPY RETURNDATASIZE PUSH1 0x0 REVERT JUMPDEST POP POP POP POP PUSH1 0x40 MLOAD RETURNDATASIZE PUSH1 0x1F NOT PUSH1 0x1F DUP3 ADD AND DUP3 ADD DUP1 PUSH1 0x40 MSTORE POP DUP2 ADD SWAP1 PUSH2 0xE4E SWAP2 SWAP1 PUSH2 0x325B JUMP JUMPDEST PUSH1 0x40 MLOAD DUP4 PUSH4 0xFFFFFFFF AND PUSH1 0xE0 SHL DUP2 MSTORE PUSH1 0x4 ADD PUSH2 0xE6B SWAP3 SWAP2 SWAP1 PUSH2 0x3274 JUMP JUMPDEST PUSH1 0x20 PUSH1 0x40 MLOAD DUP1 DUP4 SUB DUP2 PUSH1 0x0 DUP8 GAS CALL ISZERO DUP1 ISZERO PUSH2 0xE8A JUMPI RETURNDATASIZE PUSH1 0x0 DUP1 RETURNDATACOPY RETURNDATASIZE PUSH1 0x0 REVERT JUMPDEST POP POP POP POP PUSH1 0x40 MLOAD RETURNDATASIZE PUSH1 0x1F NOT PUSH1 0x1F DUP3 ADD AND DUP3 ADD DUP1 PUSH1 0x40 MSTORE POP DUP2 ADD SWAP1 PUSH2 0xEAE SWAP2 SWAP1 PUSH2 0x329B JUMP JUMPDEST POP PUSH1 0x40 MLOAD PUSH4 0x70A08231 PUSH1 0xE0 SHL DUP2 MSTORE ADDRESS PUSH1 0x4 DUP3 ADD MSTORE PUSH32 0x0 PUSH1 0x1 PUSH1 0x1 PUSH1 0xA0 SHL SUB AND SWAP1 PUSH4 0xA9059CBB SWAP1 CALLER SWAP1 DUP4 SWAP1 PUSH4 0x70A08231 SWAP1 PUSH1 0x24 ADD PUSH1 0x20 PUSH1 0x40 MLOAD DUP1 DUP4 SUB DUP2 DUP7 GAS STATICCALL ISZERO DUP1 ISZERO PUSH2 0xF1D JUMPI RETURNDATASIZE PUSH1 0x0 DUP1 RETURNDATACOPY RETURNDATASIZE PUSH1 0x0 REVERT JUMPDEST POP POP POP POP PUSH1 0x40 MLOAD RETURNDATASIZE PUSH1 0x1F NOT PUSH1 0x1F DUP3 ADD AND DUP3 ADD DUP1 PUSH1 0x40 MSTORE POP DUP2 ADD SWAP1 PUSH2 0xF41 SWAP2 SWAP1 PUSH2 0x325B JUMP JUMPDEST PUSH1 0x40 MLOAD DUP4 PUSH4 0xFFFFFFFF AND PUSH1 0xE0 SHL DUP2 MSTORE PUSH1 0x4 ADD PUSH2 0xF5E SWAP3 SWAP2 SWAP1 PUSH2 0x3274 JUMP JUMPDEST PUSH1 0x20 PUSH1 0x40 MLOAD DUP1 DUP4 SUB DUP2 PUSH1 0x0 DUP8 GAS CALL ISZERO DUP1 ISZERO PUSH2 0xF7D JUMPI RETURNDATASIZE PUSH1 0x0 DUP1 RETURNDATACOPY RETURNDATASIZE PUSH1 0x0 REVERT JUMPDEST POP POP POP POP PUSH1 0x40 MLOAD RETURNDATASIZE PUSH1 0x1F NOT PUSH1 0x1F DUP3 ADD AND DUP3 ADD DUP1 PUSH1 0x40 MSTORE POP DUP2 ADD SWAP1 PUSH2 0xFA1 SWAP2 SWAP1 PUSH2 0x329B JUMP JUMPDEST POP PUSH1 0x40 DUP1 MLOAD DUP4 DUP2 MSTORE PUSH1 0x20 DUP2 ADD DUP4 SWAP1 MSTORE PUSH32 0xB073E6FBD06D7557D2C82F414FEE57DE28E7FB517ECC0AFDD6B1FC57034A9CB8 SWAP2 ADD PUSH1 0x40 MLOAD DUP1 SWAP2 SUB SWAP1 LOG1 POP POP POP JUMP JUMPDEST PUSH1 0x0 PUSH4 0x47868C00 PUSH32 0x0 PUSH1 0x1 PUSH1 0x1 PUSH1 0xA0 SHL SUB AND PUSH4 0x18160DDD PUSH1 0x40 MLOAD DUP2 PUSH4 0xFFFFFFFF AND PUSH1 0xE0 SHL DUP2 MSTORE PUSH1 0x4 ADD PUSH1 0x20 PUSH1 0x40 MLOAD DUP1 DUP4 SUB DUP2 DUP7 GAS STATICCALL ISZERO DUP1 ISZERO PUSH2 0x1045 JUMPI RETURNDATASIZE PUSH1 0x0 DUP1 RETURNDATACOPY RETURNDATASIZE PUSH1 0x0 REVERT JUMPDEST POP POP POP POP PUSH1 0x40 MLOAD RETURNDATASIZE PUSH1 0x1F NOT PUSH1 0x1F DUP3 ADD AND DUP3 ADD DUP1 PUSH1 0x40 MSTORE POP DUP2 ADD SWAP1 PUSH2 0x1069 SWAP2 SWAP1 PUSH2 0x325B JUMP JUMPDEST PUSH2 0x1073 SWAP2 SWAP1 PUSH2 0x32CE JUMP JUMPDEST PUSH2 0x107B PUSH2 0x2560 JUMP JUMPDEST PUSH2 0x1085 SWAP2 SWAP1 PUSH2 0x32ED JUMP JUMPDEST SWAP1 POP SWAP1 JUMP JUMPDEST PUSH1 0x0 SLOAD PUSH1 0x1 PUSH1 0x1 PUSH1 0xA0 SHL SUB AND CALLER EQ PUSH2 0x10B4 JUMPI PUSH1 0x40 MLOAD PUSH3 0x461BCD PUSH1 0xE5 SHL DUP2 MSTORE PUSH1 0x4 ADD PUSH2 0x6CC SWAP1 PUSH2 0x3226 JUMP JUMPDEST PUSH2 0x10BE PUSH1 0x0 PUSH2 0x2701 JUMP JUMPDEST JUMP JUMPDEST PUSH1 0x0 SLOAD PUSH1 0x1 PUSH1 0x1 PUSH1 0xA0 SHL SUB AND CALLER EQ PUSH2 0x10EA JUMPI PUSH1 0x40 MLOAD PUSH3 0x461BCD PUSH1 0xE5 SHL DUP2 MSTORE PUSH1 0x4 ADD PUSH2 0x6CC SWAP1 PUSH2 0x3226 JUMP JUMPDEST PUSH4 0x47868C00 DUP2 LT ISZERO PUSH2 0x1133 JUMPI PUSH1 0x40 MLOAD PUSH3 0x461BCD PUSH1 0xE5 SHL DUP2 MSTORE PUSH1 0x20 PUSH1 0x4 DUP3 ADD MSTORE PUSH1 0x12 PUSH1 0x24 DUP3 ADD MSTORE PUSH18 0x494E56414C49445F5052494345464F524949 PUSH1 0x70 SHL PUSH1 0x44 DUP3 ADD MSTORE PUSH1 0x64 ADD PUSH2 0x6CC JUMP JUMPDEST PUSH1 0x2 DUP2 SWAP1 SSTORE PUSH1 0x40 MLOAD DUP2 DUP2 MSTORE PUSH32 0xADDBFDD6B306D5763BCCF05EFD206438A3C37D233894F16D6256D937750A73E1 SWAP1 PUSH1 0x20 ADD PUSH2 0x894 JUMP JUMPDEST PUSH1 0x0 DUP1 PUSH32 0x0 PUSH1 0x1 PUSH1 0x1 PUSH1 0xA0 SHL SUB AND PUSH4 0x8D80FC0C PUSH1 0x40 MLOAD DUP2 PUSH4 0xFFFFFFFF AND PUSH1 0xE0 SHL DUP2 MSTORE PUSH1 0x4 ADD PUSH1 0x20 PUSH1 0x40 MLOAD DUP1 DUP4 SUB DUP2 DUP7 GAS STATICCALL ISZERO DUP1 ISZERO PUSH2 0x11C9 JUMPI RETURNDATASIZE PUSH1 0x0 DUP1 RETURNDATACOPY RETURNDATASIZE PUSH1 0x0 REVERT JUMPDEST POP POP POP POP PUSH1 0x40 MLOAD RETURNDATASIZE PUSH1 0x1F NOT PUSH1 0x1F DUP3 ADD AND DUP3 ADD DUP1 PUSH1 0x40 MSTORE POP DUP2 ADD SWAP1 PUSH2 0x11ED SWAP2 SWAP1 PUSH2 0x325B JUMP JUMPDEST PUSH1 0x40 MLOAD PUSH4 0x738C07CD PUSH1 0xE1 SHL DUP2 MSTORE ADDRESS PUSH1 0x4 DUP3 ADD MSTORE SWAP1 SWAP2 POP PUSH1 0x0 SWAP1 PUSH1 0x1 PUSH1 0x1 PUSH1 0xA0 SHL SUB PUSH32 0x0 AND SWAP1 PUSH4 0xE7180F9A SWAP1 PUSH1 0x24 ADD PUSH1 0x20 PUSH1 0x40 MLOAD DUP1 DUP4 SUB DUP2 DUP7 GAS STATICCALL ISZERO DUP1 ISZERO PUSH2 0x1257 JUMPI RETURNDATASIZE PUSH1 0x0 DUP1 RETURNDATACOPY RETURNDATASIZE PUSH1 0x0 REVERT JUMPDEST POP POP POP POP PUSH1 0x40 MLOAD RETURNDATASIZE PUSH1 0x1F NOT PUSH1 0x1F DUP3 ADD AND DUP3 ADD DUP1 PUSH1 0x40 MSTORE POP DUP2 ADD SWAP1 PUSH2 0x127B SWAP2 SWAP1 PUSH2 0x325B JUMP JUMPDEST SWAP1 POP PUSH1 0x0 DUP2 DUP4 GT ISZERO PUSH2 0x1339 JUMPI PUSH8 0xDE0B6B3A7640000 PUSH2 0x129A DUP4 DUP6 PUSH2 0x32ED JUMP JUMPDEST PUSH1 0x40 MLOAD PUSH4 0x70A08231 PUSH1 0xE0 SHL DUP2 MSTORE ADDRESS PUSH1 0x4 DUP3 ADD MSTORE PUSH32 0x0 PUSH1 0x1 PUSH1 0x1 PUSH1 0xA0 SHL SUB AND SWAP1 PUSH4 0x70A08231 SWAP1 PUSH1 0x24 ADD PUSH1 0x20 PUSH1 0x40 MLOAD DUP1 DUP4 SUB DUP2 DUP7 GAS STATICCALL ISZERO DUP1 ISZERO PUSH2 0x12FE JUMPI RETURNDATASIZE PUSH1 0x0 DUP1 RETURNDATACOPY RETURNDATASIZE PUSH1 0x0 REVERT JUMPDEST POP POP POP POP PUSH1 0x40 MLOAD RETURNDATASIZE PUSH1 0x1F NOT PUSH1 0x1F DUP3 ADD AND DUP3 ADD DUP1 PUSH1 0x40 MSTORE POP DUP2 ADD SWAP1 PUSH2 0x1322 SWAP2 SWAP1 PUSH2 0x325B JUMP JUMPDEST PUSH2 0x132C SWAP2 SWAP1 PUSH2 0x32CE JUMP JUMPDEST PUSH2 0x1336 SWAP2 SWAP1 PUSH2 0x3304 JUMP JUMPDEST SWAP1 POP JUMPDEST PUSH1 0x40 MLOAD PUSH4 0x70A08231 PUSH1 0xE0 SHL DUP2 MSTORE ADDRESS PUSH1 0x4 DUP3 ADD MSTORE DUP2 SWAP1 PUSH32 0x0 PUSH1 0x1 PUSH1 0x1 PUSH1 0xA0 SHL SUB AND SWAP1 PUSH4 0x70A08231 SWAP1 PUSH1 0x24 ADD PUSH1 0x20 PUSH1 0x40 MLOAD DUP1 DUP4 SUB DUP2 DUP7 GAS STATICCALL ISZERO DUP1 ISZERO PUSH2 0x139F JUMPI RETURNDATASIZE PUSH1 0x0 DUP1 RETURNDATACOPY RETURNDATASIZE PUSH1 0x0 REVERT JUMPDEST POP POP POP POP PUSH1 0x40 MLOAD RETURNDATASIZE PUSH1 0x1F NOT PUSH1 0x1F DUP3 ADD AND DUP3 ADD DUP1 PUSH1 0x40 MSTORE POP DUP2 ADD SWAP1 PUSH2 0x13C3 SWAP2 SWAP1 PUSH2 0x325B JUMP JUMPDEST PUSH2 0x13CD SWAP2 SWAP1 PUSH2 0x3326 JUMP JUMPDEST SWAP4 POP POP POP POP SWAP1 JUMP JUMPDEST PUSH1 0x40 MLOAD PUSH4 0x603ACC21 PUSH1 0xE1 SHL DUP2 MSTORE PUSH1 0x0 SWAP1 PUSH1 0x1 PUSH1 0x1 PUSH1 0xA0 SHL SUB PUSH32 0x0 AND SWAP1 PUSH4 0xC0759842 SWAP1 PUSH2 0x1446 SWAP1 PUSH32 0x0 SWAP1 DUP7 SWAP1 PUSH1 0x4 ADD PUSH2 0x3274 JUMP JUMPDEST PUSH1 0x20 PUSH1 0x40 MLOAD DUP1 DUP4 SUB DUP2 DUP7 GAS STATICCALL ISZERO DUP1 ISZERO PUSH2 0x1463 JUMPI RETURNDATASIZE PUSH1 0x0 DUP1 RETURNDATACOPY RETURNDATASIZE PUSH1 0x0 REVERT JUMPDEST POP POP POP POP PUSH1 0x40 MLOAD RETURNDATASIZE PUSH1 0x1F NOT PUSH1 0x1F DUP3 ADD AND DUP3 ADD DUP1 PUSH1 0x40 MSTORE POP DUP2 ADD SWAP1 PUSH2 0x1487 SWAP2 SWAP1 PUSH2 0x325B JUMP JUMPDEST SWAP3 SWAP2 POP POP JUMP JUMPDEST DUP1 PUSH2 0x14C8 JUMPI PUSH1 0x40 MLOAD PUSH3 0x461BCD PUSH1 0xE5 SHL DUP2 MSTORE PUSH1 0x20 PUSH1 0x4 DUP3 ADD MSTORE PUSH1 0xB PUSH1 0x24 DUP3 ADD MSTORE PUSH11 0x494E56414C49445F494453 PUSH1 0xA8 SHL PUSH1 0x44 DUP3 ADD MSTORE PUSH1 0x64 ADD PUSH2 0x6CC JUMP JUMPDEST PUSH1 0x0 JUMPDEST DUP2 DUP2 LT ISZERO PUSH2 0x1712 JUMPI CALLER PUSH32 0x0 PUSH1 0x1 PUSH1 0x1 PUSH1 0xA0 SHL SUB AND PUSH4 0x6352211E DUP6 DUP6 DUP6 DUP2 DUP2 LT PUSH2 0x1515 JUMPI PUSH2 0x1515 PUSH2 0x333E JUMP JUMPDEST SWAP1 POP PUSH1 0x20 MUL ADD CALLDATALOAD PUSH1 0x40 MLOAD DUP3 PUSH4 0xFFFFFFFF AND PUSH1 0xE0 SHL DUP2 MSTORE PUSH1 0x4 ADD PUSH2 0x153A SWAP2 DUP2 MSTORE PUSH1 0x20 ADD SWAP1 JUMP JUMPDEST PUSH1 0x20 PUSH1 0x40 MLOAD DUP1 DUP4 SUB DUP2 DUP7 GAS STATICCALL ISZERO DUP1 ISZERO PUSH2 0x1557 JUMPI RETURNDATASIZE PUSH1 0x0 DUP1 RETURNDATACOPY RETURNDATASIZE PUSH1 0x0 REVERT JUMPDEST POP POP POP POP PUSH1 0x40 MLOAD RETURNDATASIZE PUSH1 0x1F NOT PUSH1 0x1F DUP3 ADD AND DUP3 ADD DUP1 PUSH1 0x40 MSTORE POP DUP2 ADD SWAP1 PUSH2 0x157B SWAP2 SWAP1 PUSH2 0x3354 JUMP JUMPDEST PUSH1 0x1 PUSH1 0x1 PUSH1 0xA0 SHL SUB AND EQ PUSH2 0x15C0 JUMPI PUSH1 0x40 MLOAD PUSH3 0x461BCD PUSH1 0xE5 SHL DUP2 MSTORE PUSH1 0x20 PUSH1 0x4 DUP3 ADD MSTORE PUSH1 0xC PUSH1 0x24 DUP3 ADD MSTORE PUSH12 0x15539055551213D492569151 PUSH1 0xA2 SHL PUSH1 0x44 DUP3 ADD MSTORE PUSH1 0x64 ADD PUSH2 0x6CC JUMP JUMPDEST PUSH32 0x0 PUSH1 0x1 PUSH1 0x1 PUSH1 0xA0 SHL SUB AND PUSH4 0x42966C68 DUP5 DUP5 DUP5 DUP2 DUP2 LT PUSH2 0x1601 JUMPI PUSH2 0x1601 PUSH2 0x333E JUMP JUMPDEST SWAP1 POP PUSH1 0x20 MUL ADD CALLDATALOAD PUSH1 0x40 MLOAD DUP3 PUSH4 0xFFFFFFFF AND PUSH1 0xE0 SHL DUP2 MSTORE PUSH1 0x4 ADD PUSH2 0x1626 SWAP2 DUP2 MSTORE PUSH1 0x20 ADD SWAP1 JUMP JUMPDEST PUSH1 0x0 PUSH1 0x40 MLOAD DUP1 DUP4 SUB DUP2 PUSH1 0x0 DUP8 DUP1 EXTCODESIZE ISZERO DUP1 ISZERO PUSH2 0x1640 JUMPI PUSH1 0x0 DUP1 REVERT JUMPDEST POP GAS CALL ISZERO DUP1 ISZERO PUSH2 0x1654 JUMPI RETURNDATASIZE PUSH1 0x0 DUP1 RETURNDATACOPY RETURNDATASIZE PUSH1 0x0 REVERT JUMPDEST POP POP POP POP PUSH1 0x8 DUP4 DUP4 DUP4 DUP2 DUP2 LT PUSH2 0x166C JUMPI PUSH2 0x166C PUSH2 0x333E JUMP JUMPDEST DUP4 SLOAD PUSH1 0x1 DUP2 ADD DUP6 SSTORE PUSH1 0x0 SWAP5 DUP6 MSTORE PUSH1 0x20 SWAP5 DUP6 SWAP1 KECCAK256 PUSH1 0x10 DUP3 DIV ADD DUP1 SLOAD PUSH2 0xFFFF SWAP7 SWAP1 SWAP4 MUL SWAP5 SWAP1 SWAP5 ADD CALLDATALOAD DUP6 AND PUSH1 0x2 PUSH1 0xF SWAP1 SWAP3 AND SWAP2 SWAP1 SWAP2 MUL PUSH2 0x100 EXP SWAP1 DUP2 MUL SWAP5 MUL NOT AND SWAP3 SWAP1 SWAP3 OR SWAP1 SSTORE POP DUP3 DUP3 DUP3 DUP2 DUP2 LT PUSH2 0x16C3 JUMPI PUSH2 0x16C3 PUSH2 0x333E JUMP JUMPDEST SWAP1 POP PUSH1 0x20 MUL ADD CALLDATALOAD CALLER PUSH1 0x1 PUSH1 0x1 PUSH1 0xA0 SHL SUB AND PUSH32 0x515A362443B428D4AAB92057F742255C765D68033BA3F00847B57E323D0468D4 PUSH1 0x40 MLOAD PUSH1 0x40 MLOAD DUP1 SWAP2 SUB SWAP1 LOG3 DUP1 PUSH2 0x170A DUP2 PUSH2 0x3371 JUMP JUMPDEST SWAP2 POP POP PUSH2 0x14CB JUMP JUMPDEST POP PUSH1 0x0 PUSH2 0x1723 PUSH4 0x47868C00 DUP4 PUSH2 0x32CE JUMP JUMPDEST SWAP1 POP PUSH2 0x172E DUP2 PUSH2 0x268B JUMP JUMPDEST PUSH1 0x40 MLOAD PUSH4 0xA9059CBB PUSH1 0xE0 SHL DUP2 MSTORE PUSH1 0x1 PUSH1 0x1 PUSH1 0xA0 SHL SUB PUSH32 0x0 AND SWAP1 PUSH4 0xA9059CBB SWAP1 PUSH2 0x177C SWAP1 CALLER SWAP1 DUP6 SWAP1 PUSH1 0x4 ADD PUSH2 0x3274 JUMP JUMPDEST PUSH1 0x20 PUSH1 0x40 MLOAD DUP1 DUP4 SUB DUP2 PUSH1 0x0 DUP8 GAS CALL ISZERO DUP1 ISZERO PUSH2 0x179B JUMPI RETURNDATASIZE PUSH1 0x0 DUP1 RETURNDATACOPY RETURNDATASIZE PUSH1 0x0 REVERT JUMPDEST POP POP POP POP PUSH1 0x40 MLOAD RETURNDATASIZE PUSH1 0x1F NOT PUSH1 0x1F DUP3 ADD AND DUP3 ADD DUP1 PUSH1 0x40 MSTORE POP DUP2 ADD SWAP1 PUSH2 0x17BF SWAP2 SWAP1 PUSH2 0x329B JUMP JUMPDEST POP POP POP POP JUMP JUMPDEST DUP2 PUSH1 0x0 SUB PUSH2 0x1806 JUMPI PUSH1 0x40 MLOAD PUSH3 0x461BCD PUSH1 0xE5 SHL DUP2 MSTORE PUSH1 0x20 PUSH1 0x4 DUP3 ADD MSTORE PUSH1 0xE PUSH1 0x24 DUP3 ADD MSTORE PUSH14 0x1253959053125117D05353D55395 PUSH1 0x92 SHL PUSH1 0x44 DUP3 ADD MSTORE PUSH1 0x64 ADD PUSH2 0x6CC JUMP JUMPDEST PUSH4 0x4D7C6D00 PUSH1 0x1 PUSH1 0x1 PUSH1 0xA0 SHL SUB PUSH32 0x0 DUP2 AND SWAP1 DUP4 AND SUB PUSH2 0x1958 JUMPI POP CALLER PUSH1 0x0 DUP2 DUP2 MSTORE PUSH1 0x3 PUSH1 0x20 MSTORE PUSH1 0x40 DUP1 DUP3 KECCAK256 SLOAD SWAP1 MLOAD PUSH4 0x70A08231 PUSH1 0xE0 SHL DUP2 MSTORE PUSH1 0x4 DUP2 ADD SWAP4 SWAP1 SWAP4 MSTORE PUSH4 0x47868C00 SWAP3 SWAP1 SWAP2 SWAP1 PUSH1 0x1 PUSH1 0x1 PUSH1 0xA0 SHL SUB PUSH32 0x0 AND SWAP1 PUSH4 0x70A08231 SWAP1 PUSH1 0x24 ADD PUSH1 0x20 PUSH1 0x40 MLOAD DUP1 DUP4 SUB DUP2 DUP7 GAS STATICCALL ISZERO DUP1 ISZERO PUSH2 0x18BE JUMPI RETURNDATASIZE PUSH1 0x0 DUP1 RETURNDATACOPY RETURNDATASIZE PUSH1 0x0 REVERT JUMPDEST POP POP POP POP PUSH1 0x40 MLOAD RETURNDATASIZE PUSH1 0x1F NOT PUSH1 0x1F DUP3 ADD AND DUP3 ADD DUP1 PUSH1 0x40 MSTORE POP DUP2 ADD SWAP1 PUSH2 0x18E2 SWAP2 SWAP1 PUSH2 0x325B JUMP JUMPDEST SWAP1 POP DUP1 PUSH2 0x18EF DUP7 DUP5 PUSH2 0x3326 JUMP JUMPDEST GT ISZERO PUSH2 0x1936 JUMPI PUSH1 0x40 MLOAD PUSH3 0x461BCD PUSH1 0xE5 SHL DUP2 MSTORE PUSH1 0x20 PUSH1 0x4 DUP3 ADD MSTORE PUSH1 0x16 PUSH1 0x24 DUP3 ADD MSTORE PUSH22 0x4E4F545F454E4F5547485F474149415F4B524F4E4F53 PUSH1 0x50 SHL PUSH1 0x44 DUP3 ADD MSTORE PUSH1 0x64 ADD PUSH2 0x6CC JUMP JUMPDEST PUSH2 0x1940 DUP6 DUP4 PUSH2 0x3326 JUMP JUMPDEST CALLER PUSH1 0x0 SWAP1 DUP2 MSTORE PUSH1 0x3 PUSH1 0x20 MSTORE PUSH1 0x40 SWAP1 KECCAK256 SSTORE POP PUSH2 0x1BC8 SWAP1 POP JUMP JUMPDEST PUSH32 0x0 PUSH1 0x1 PUSH1 0x1 PUSH1 0xA0 SHL SUB AND DUP3 PUSH1 0x1 PUSH1 0x1 PUSH1 0xA0 SHL SUB AND SUB PUSH2 0x1AB2 JUMPI POP CALLER PUSH1 0x0 DUP2 DUP2 MSTORE PUSH1 0x4 PUSH1 0x20 DUP2 SWAP1 MSTORE PUSH1 0x40 DUP1 DUP4 KECCAK256 SLOAD SWAP1 MLOAD PUSH4 0x70A08231 PUSH1 0xE0 SHL DUP2 MSTORE SWAP2 DUP3 ADD SWAP4 SWAP1 SWAP4 MSTORE PUSH4 0x4A817C80 SWAP3 SWAP2 SWAP1 PUSH1 0x1 PUSH1 0x1 PUSH1 0xA0 SHL SUB PUSH32 0x0 AND SWAP1 PUSH4 0x70A08231 SWAP1 PUSH1 0x24 ADD PUSH1 0x20 PUSH1 0x40 MLOAD DUP1 DUP4 SUB DUP2 DUP7 GAS STATICCALL ISZERO DUP1 ISZERO PUSH2 0x1A11 JUMPI RETURNDATASIZE PUSH1 0x0 DUP1 RETURNDATACOPY RETURNDATASIZE PUSH1 0x0 REVERT JUMPDEST POP POP POP POP PUSH1 0x40 MLOAD RETURNDATASIZE PUSH1 0x1F NOT PUSH1 0x1F DUP3 ADD AND DUP3 ADD DUP1 PUSH1 0x40 MSTORE POP DUP2 ADD SWAP1 PUSH2 0x1A35 SWAP2 SWAP1 PUSH2 0x325B JUMP JUMPDEST SWAP1 POP DUP1 PUSH2 0x1A42 DUP7 DUP5 PUSH2 0x3326 JUMP JUMPDEST GT ISZERO PUSH2 0x1A90 JUMPI PUSH1 0x40 MLOAD PUSH3 0x461BCD PUSH1 0xE5 SHL DUP2 MSTORE PUSH1 0x20 PUSH1 0x4 DUP3 ADD MSTORE PUSH1 0x19 PUSH1 0x24 DUP3 ADD MSTORE PUSH32 0x4E4F545F454E4F5547485F474149415F53555045524E4F564100000000000000 PUSH1 0x44 DUP3 ADD MSTORE PUSH1 0x64 ADD PUSH2 0x6CC JUMP JUMPDEST PUSH2 0x1A9A DUP6 DUP4 PUSH2 0x3326 JUMP JUMPDEST CALLER PUSH1 0x0 SWAP1 DUP2 MSTORE PUSH1 0x4 PUSH1 0x20 MSTORE PUSH1 0x40 SWAP1 KECCAK256 SSTORE POP PUSH2 0x1BC8 SWAP1 POP JUMP JUMPDEST PUSH1 0x2 PUSH1 0x1 PUSH1 0xA0 SHL SUB NOT PUSH1 0x1 PUSH1 0x1 PUSH1 0xA0 SHL SUB DUP4 AND ADD PUSH2 0x1B83 JUMPI POP CALLER PUSH1 0x0 SWAP1 DUP2 MSTORE PUSH1 0x5 PUSH1 0x20 MSTORE PUSH1 0x40 SWAP1 KECCAK256 SLOAD PUSH4 0x47868C00 SWAP1 DUP1 PUSH2 0x1B21 JUMPI PUSH1 0x40 MLOAD PUSH3 0x461BCD PUSH1 0xE5 SHL DUP2 MSTORE PUSH1 0x20 PUSH1 0x4 DUP3 ADD MSTORE PUSH1 0x10 PUSH1 0x24 DUP3 ADD MSTORE PUSH16 0x1393D517D25397D5D2125511531254D5 PUSH1 0x82 SHL PUSH1 0x44 DUP3 ADD MSTORE PUSH1 0x64 ADD PUSH2 0x6CC JUMP JUMPDEST DUP1 DUP5 GT ISZERO PUSH2 0x1B69 JUMPI PUSH1 0x40 MLOAD PUSH3 0x461BCD PUSH1 0xE5 SHL DUP2 MSTORE PUSH1 0x20 PUSH1 0x4 DUP3 ADD MSTORE PUSH1 0x15 PUSH1 0x24 DUP3 ADD MSTORE PUSH21 0x414D4F554E545F4558434545445F5449434B455453 PUSH1 0x58 SHL PUSH1 0x44 DUP3 ADD MSTORE PUSH1 0x64 ADD PUSH2 0x6CC JUMP JUMPDEST CALLER PUSH1 0x0 SWAP1 DUP2 MSTORE PUSH1 0x5 PUSH1 0x20 MSTORE PUSH1 0x40 SWAP1 KECCAK256 SWAP1 DUP5 SWAP1 SUB SWAP1 SSTORE PUSH2 0x1BC8 JUMP JUMPDEST PUSH1 0x1 PUSH1 0x1 PUSH1 0xA0 SHL SUB DUP3 AND ISZERO PUSH2 0x1BC8 JUMPI PUSH1 0x40 MLOAD PUSH3 0x461BCD PUSH1 0xE5 SHL DUP2 MSTORE PUSH1 0x20 PUSH1 0x4 DUP3 ADD MSTORE PUSH1 0xB PUSH1 0x24 DUP3 ADD MSTORE PUSH11 0x1253959053125117D39195 PUSH1 0xAA SHL PUSH1 0x44 DUP3 ADD MSTORE PUSH1 0x64 ADD PUSH2 0x6CC JUMP JUMPDEST PUSH1 0x1 PUSH1 0x1 PUSH1 0xA0 SHL SUB PUSH32 0x0 AND PUSH4 0x23B872DD CALLER ADDRESS PUSH2 0x1C03 DUP8 DUP7 PUSH2 0x32CE JUMP JUMPDEST PUSH1 0x40 MLOAD PUSH1 0x1 PUSH1 0x1 PUSH1 0xE0 SHL SUB NOT PUSH1 0xE0 DUP7 SWAP1 SHL AND DUP2 MSTORE PUSH1 0x1 PUSH1 0x1 PUSH1 0xA0 SHL SUB SWAP4 DUP5 AND PUSH1 0x4 DUP3 ADD MSTORE SWAP3 SWAP1 SWAP2 AND PUSH1 0x24 DUP4 ADD MSTORE PUSH1 0x44 DUP3 ADD MSTORE PUSH1 0x64 ADD PUSH1 0x20 PUSH1 0x40 MLOAD DUP1 DUP4 SUB DUP2 PUSH1 0x0 DUP8 GAS CALL ISZERO DUP1 ISZERO PUSH2 0x1C57 JUMPI RETURNDATASIZE PUSH1 0x0 DUP1 RETURNDATACOPY RETURNDATASIZE PUSH1 0x0 REVERT JUMPDEST POP POP POP POP PUSH1 0x40 MLOAD RETURNDATASIZE PUSH1 0x1F NOT PUSH1 0x1F DUP3 ADD AND DUP3 ADD DUP1 PUSH1 0x40 MSTORE POP DUP2 ADD SWAP1 PUSH2 0x1C7B SWAP2 SWAP1 PUSH2 0x329B JUMP JUMPDEST POP PUSH4 0x47868C00 DUP2 EQ PUSH2 0x1D81 JUMPI PUSH1 0x7 SLOAD PUSH1 0x1 PUSH1 0x1 PUSH1 0xA0 SHL SUB AND PUSH2 0x1CD0 JUMPI PUSH1 0x40 MLOAD PUSH3 0x461BCD PUSH1 0xE5 SHL DUP2 MSTORE PUSH1 0x20 PUSH1 0x4 DUP3 ADD MSTORE PUSH1 0xE PUSH1 0x24 DUP3 ADD MSTORE PUSH14 0x46554E445F414444524553535F3 PUSH1 0x94 SHL PUSH1 0x44 DUP3 ADD MSTORE PUSH1 0x64 ADD PUSH2 0x6CC JUMP JUMPDEST PUSH1 0x7 SLOAD PUSH1 0x1 PUSH1 0x1 PUSH1 0xA0 SHL SUB PUSH32 0x0 DUP2 AND SWAP2 PUSH4 0xA9059CBB SWAP2 AND DUP6 PUSH2 0x1D15 PUSH4 0x47868C00 DUP7 PUSH2 0x32ED JUMP JUMPDEST PUSH2 0x1D1F SWAP2 SWAP1 PUSH2 0x32CE JUMP JUMPDEST PUSH1 0x40 MLOAD DUP4 PUSH4 0xFFFFFFFF AND PUSH1 0xE0 SHL DUP2 MSTORE PUSH1 0x4 ADD PUSH2 0x1D3C SWAP3 SWAP2 SWAP1 PUSH2 0x3274 JUMP JUMPDEST PUSH1 0x20 PUSH1 0x40 MLOAD DUP1 DUP4 SUB DUP2 PUSH1 0x0 DUP8 GAS CALL ISZERO DUP1 ISZERO PUSH2 0x1D5B JUMPI RETURNDATASIZE PUSH1 0x0 DUP1 RETURNDATACOPY RETURNDATASIZE PUSH1 0x0 REVERT JUMPDEST POP POP POP POP PUSH1 0x40 MLOAD RETURNDATASIZE PUSH1 0x1F NOT PUSH1 0x1F DUP3 ADD AND DUP3 ADD DUP1 PUSH1 0x40 MSTORE POP DUP2 ADD SWAP1 PUSH2 0x1D7F SWAP2 SWAP1 PUSH2 0x329B JUMP JUMPDEST POP JUMPDEST PUSH2 0x1D8A DUP4 PUSH2 0x2751 JUMP JUMPDEST PUSH2 0x1D94 CALLER DUP5 PUSH2 0x2894 JUMP JUMPDEST POP POP POP JUMP JUMPDEST PUSH1 0x2 PUSH1 0x1 SLOAD SUB PUSH2 0x1DEB JUMPI PUSH1 0x40 MLOAD PUSH3 0x461BCD PUSH1 0xE5 SHL DUP2 MSTORE PUSH1 0x20 PUSH1 0x4 DUP3 ADD MSTORE PUSH1 0x1F PUSH1 0x24 DUP3 ADD MSTORE PUSH32 0x5265656E7472616E637947756172643A207265656E7472616E742063616C6C00 PUSH1 0x44 DUP3 ADD MSTORE PUSH1 0x64 ADD PUSH2 0x6CC JUMP JUMPDEST PUSH1 0x2 PUSH1 0x1 SSTORE CALLER PUSH1 0x0 SWAP1 DUP2 MSTORE PUSH1 0x6 PUSH1 0x20 MSTORE PUSH1 0x40 SWAP1 KECCAK256 SLOAD PUSH1 0xFF AND PUSH2 0x1E41 JUMPI PUSH1 0x40 MLOAD PUSH3 0x461BCD PUSH1 0xE5 SHL DUP2 MSTORE PUSH1 0x20 PUSH1 0x4 DUP3 ADD MSTORE PUSH1 0xF PUSH1 0x24 DUP3 ADD MSTORE PUSH15 0x4E4F545F454C494749424C455F4949 PUSH1 0x88 SHL PUSH1 0x44 DUP3 ADD MSTORE PUSH1 0x64 ADD PUSH2 0x6CC JUMP JUMPDEST DUP3 PUSH1 0x0 SUB PUSH2 0x1E82 JUMPI PUSH1 0x40 MLOAD PUSH3 0x461BCD PUSH1 0xE5 SHL DUP2 MSTORE PUSH1 0x20 PUSH1 0x4 DUP3 ADD MSTORE PUSH1 0xE PUSH1 0x24 DUP3 ADD MSTORE PUSH14 0x1253959053125117D05353D55395 PUSH1 0x92 SHL PUSH1 0x44 DUP3 ADD MSTORE PUSH1 0x64 ADD PUSH2 0x6CC JUMP JUMPDEST PUSH1 0x2 SLOAD DUP1 PUSH2 0x1EC7 JUMPI PUSH1 0x40 MLOAD PUSH3 0x461BCD PUSH1 0xE5 SHL DUP2 MSTORE PUSH1 0x20 PUSH1 0x4 DUP3 ADD MSTORE PUSH1 0x12 PUSH1 0x24 DUP3 ADD MSTORE PUSH18 0x494E56414C49445F5052494345464F524949 PUSH1 0x70 SHL PUSH1 0x44 DUP3 ADD MSTORE PUSH1 0x64 ADD PUSH2 0x6CC JUMP JUMPDEST SELFBALANCE PUSH1 0x1 PUSH1 0x1 PUSH1 0xA0 SHL SUB PUSH32 0x0 AND PUSH4 0xA7C07E92 CALLVALUE PUSH32 0x0 PUSH2 0x1F23 DUP10 DUP8 PUSH2 0x32CE JUMP JUMPDEST DUP9 DUP9 PUSH1 0x40 MLOAD DUP7 PUSH4 0xFFFFFFFF AND PUSH1 0xE0 SHL DUP2 MSTORE PUSH1 0x4 ADD PUSH2 0x1F44 SWAP5 SWAP4 SWAP3 SWAP2 SWAP1 PUSH2 0x338A JUMP JUMPDEST PUSH1 0x0 PUSH1 0x40 MLOAD DUP1 DUP4 SUB DUP2 DUP6 DUP9 DUP1 EXTCODESIZE ISZERO DUP1 ISZERO PUSH2 0x1F5D JUMPI PUSH1 0x0 DUP1 REVERT JUMPDEST POP GAS CALL ISZERO DUP1 ISZERO PUSH2 0x1F71 JUMPI RETURNDATASIZE PUSH1 0x0 DUP1 RETURNDATACOPY RETURNDATASIZE PUSH1 0x0 REVERT JUMPDEST POP POP POP POP POP PUSH1 0x0 SELFBALANCE DUP3 PUSH2 0x1F84 SWAP2 SWAP1 PUSH2 0x32ED JUMP JUMPDEST SWAP1 POP PUSH1 0x0 PUSH2 0x1F92 DUP3 CALLVALUE PUSH2 0x32ED JUMP JUMPDEST SWAP1 POP DUP1 ISZERO PUSH2 0x1FA4 JUMPI PUSH2 0x1FA4 CALLER DUP3 PUSH2 0x2C25 JUMP JUMPDEST PUSH4 0x47868C00 DUP5 EQ PUSH2 0x20A9 JUMPI PUSH1 0x7 SLOAD PUSH1 0x1 PUSH1 0x1 PUSH1 0xA0 SHL SUB AND PUSH2 0x1FF8 JUMPI PUSH1 0x40 MLOAD PUSH3 0x461BCD PUSH1 0xE5 SHL DUP2 MSTORE PUSH1 0x20 PUSH1 0x4 DUP3 ADD MSTORE PUSH1 0xE PUSH1 0x24 DUP3 ADD MSTORE PUSH14 0x46554E445F414444524553535F3 PUSH1 0x94 SHL PUSH1 0x44 DUP3 ADD MSTORE PUSH1 0x64 ADD PUSH2 0x6CC JUMP JUMPDEST PUSH1 0x7 SLOAD PUSH1 0x1 PUSH1 0x1 PUSH1 0xA0 SHL SUB PUSH32 0x0 DUP2 AND SWAP2 PUSH4 0xA9059CBB SWAP2 AND DUP10 PUSH2 0x203D PUSH4 0x47868C00 DUP10 PUSH2 0x32ED JUMP JUMPDEST PUSH2 0x2047 SWAP2 SWAP1 PUSH2 0x32CE JUMP JUMPDEST PUSH1 0x40 MLOAD DUP4 PUSH4 0xFFFFFFFF AND PUSH1 0xE0 SHL DUP2 MSTORE PUSH1 0x4 ADD PUSH2 0x2064 SWAP3 SWAP2 SWAP1 PUSH2 0x3274 JUMP JUMPDEST PUSH1 0x20 PUSH1 0x40 MLOAD DUP1 DUP4 SUB DUP2 PUSH1 0x0 DUP8 GAS CALL ISZERO DUP1 ISZERO PUSH2 0x2083 JUMPI RETURNDATASIZE PUSH1 0x0 DUP1 RETURNDATACOPY RETURNDATASIZE PUSH1 0x0 REVERT JUMPDEST POP POP POP POP PUSH1 0x40 MLOAD RETURNDATASIZE PUSH1 0x1F NOT PUSH1 0x1F DUP3 ADD AND DUP3 ADD DUP1 PUSH1 0x40 MSTORE POP DUP2 ADD SWAP1 PUSH2 0x20A7 SWAP2 SWAP1 PUSH2 0x329B JUMP JUMPDEST POP JUMPDEST PUSH2 0x20B2 DUP8 PUSH2 0x2751 JUMP JUMPDEST PUSH2 0x20BC CALLER DUP9 PUSH2 0x2894 JUMP JUMPDEST POP POP PUSH1 0x1 DUP1 SSTORE POP POP POP POP POP JUMP JUMPDEST PUSH1 0x0 SLOAD PUSH1 0x1 PUSH1 0x1 PUSH1 0xA0 SHL SUB AND CALLER EQ PUSH2 0x20F3 JUMPI PUSH1 0x40 MLOAD PUSH3 0x461BCD PUSH1 0xE5 SHL DUP2 MSTORE PUSH1 0x4 ADD PUSH2 0x6CC SWAP1 PUSH2 0x3226 JUMP JUMPDEST DUP3 DUP2 EQ PUSH2 0x2135 JUMPI PUSH1 0x40 MLOAD PUSH3 0x461BCD PUSH1 0xE5 SHL DUP2 MSTORE PUSH1 0x20 PUSH1 0x4 DUP3 ADD MSTORE PUSH1 0x10 PUSH1 0x24 DUP3 ADD MSTORE PUSH16 0x13115391D51217D393D517D154555053 PUSH1 0x82 SHL PUSH1 0x44 DUP3 ADD MSTORE PUSH1 0x64 ADD PUSH2 0x6CC JUMP JUMPDEST PUSH1 0x0 JUMPDEST DUP4 DUP2 LT ISZERO PUSH2 0x21CC JUMPI DUP3 DUP3 DUP3 DUP2 DUP2 LT PUSH2 0x2152 JUMPI PUSH2 0x2152 PUSH2 0x333E JUMP JUMPDEST SWAP1 POP PUSH1 0x20 MUL ADD PUSH1 0x20 DUP2 ADD SWAP1 PUSH2 0x2167 SWAP2 SWAP1 PUSH2 0x33ED JUMP JUMPDEST PUSH1 0x6 PUSH1 0x0 DUP8 DUP8 DUP6 DUP2 DUP2 LT PUSH2 0x217D JUMPI PUSH2 0x217D PUSH2 0x333E JUMP JUMPDEST SWAP1 POP PUSH1 0x20 MUL ADD PUSH1 0x20 DUP2 ADD SWAP1 PUSH2 0x2192 SWAP2 SWAP1 PUSH2 0x3032 JUMP JUMPDEST PUSH1 0x1 PUSH1 0x1 PUSH1 0xA0 SHL SUB AND DUP2 MSTORE PUSH1 0x20 DUP2 ADD SWAP2 SWAP1 SWAP2 MSTORE PUSH1 0x40 ADD PUSH1 0x0 KECCAK256 DUP1 SLOAD PUSH1 0xFF NOT AND SWAP2 ISZERO ISZERO SWAP2 SWAP1 SWAP2 OR SWAP1 SSTORE DUP1 PUSH2 0x21C4 DUP2 PUSH2 0x3371 JUMP JUMPDEST SWAP2 POP POP PUSH2 0x2138 JUMP JUMPDEST POP POP POP POP POP JUMP JUMPDEST PUSH1 0x0 SLOAD PUSH1 0x1 PUSH1 0x1 PUSH1 0xA0 SHL SUB AND CALLER EQ PUSH2 0x21FD JUMPI PUSH1 0x40 MLOAD PUSH3 0x461BCD PUSH1 0xE5 SHL DUP2 MSTORE PUSH1 0x4 ADD PUSH2 0x6CC SWAP1 PUSH2 0x3226 JUMP JUMPDEST PUSH1 0x0 PUSH1 0x1 PUSH1 0x1 PUSH1 0xA0 SHL SUB DUP3 AND PUSH2 0x221D JUMPI POP SELFBALANCE PUSH2 0x2219 CALLER DUP3 PUSH2 0x2C25 JUMP JUMPDEST POP POP JUMP JUMPDEST PUSH1 0x40 MLOAD PUSH4 0x70A08231 PUSH1 0xE0 SHL DUP2 MSTORE ADDRESS PUSH1 0x4 DUP3 ADD MSTORE PUSH1 0x1 PUSH1 0x1 PUSH1 0xA0 SHL SUB DUP4 AND SWAP1 PUSH4 0x70A08231 SWAP1 PUSH1 0x24 ADD PUSH1 0x20 PUSH1 0x40 MLOAD DUP1 DUP4 SUB DUP2 DUP7 GAS STATICCALL ISZERO DUP1 ISZERO PUSH2 0x2261 JUMPI RETURNDATASIZE PUSH1 0x0 DUP1 RETURNDATACOPY RETURNDATASIZE PUSH1 0x0 REVERT JUMPDEST POP POP POP POP PUSH1 0x40 MLOAD RETURNDATASIZE PUSH1 0x1F NOT PUSH1 0x1F DUP3 ADD AND DUP3 ADD DUP1 PUSH1 0x40 MSTORE POP DUP2 ADD SWAP1 PUSH2 0x2285 SWAP2 SWAP1 PUSH2 0x325B JUMP JUMPDEST SWAP1 POP PUSH2 0x2219 PUSH1 0x1 PUSH1 0x1 PUSH1 0xA0 SHL SUB DUP4 AND CALLER DUP4 PUSH2 0x2D3E JUMP JUMPDEST PUSH1 0x0 SLOAD PUSH1 0x1 PUSH1 0x1 PUSH1 0xA0 SHL SUB AND CALLER EQ PUSH2 0x22C5 JUMPI PUSH1 0x40 MLOAD PUSH3 0x461BCD PUSH1 0xE5 SHL DUP2 MSTORE PUSH1 0x4 ADD PUSH2 0x6CC SWAP1 PUSH2 0x3226 JUMP JUMPDEST PUSH1 0x7 SLOAD PUSH1 0x1 PUSH1 0x1 PUSH1 0xA0 SHL SUB DUP1 DUP4 AND SWAP2 AND SUB PUSH2 0x2310 JUMPI PUSH1 0x40 MLOAD PUSH3 0x461BCD PUSH1 0xE5 SHL DUP2 MSTORE PUSH1 0x20 PUSH1 0x4 DUP3 ADD MSTORE PUSH1 0xB PUSH1 0x24 DUP3 ADD MSTORE PUSH11 0x1393D517D0D2105391D151 PUSH1 0xAA SHL PUSH1 0x44 DUP3 ADD MSTORE PUSH1 0x64 ADD PUSH2 0x6CC JUMP JUMPDEST PUSH1 0x7 DUP1 SLOAD PUSH1 0x1 PUSH1 0x1 PUSH1 0xA0 SHL SUB NOT AND PUSH1 0x1 PUSH1 0x1 PUSH1 0xA0 SHL SUB DUP4 AND SWAP1 DUP2 OR SWAP1 SWAP2 SSTORE PUSH1 0x40 MLOAD SWAP1 DUP2 MSTORE PUSH32 0x7DE9DE9894D93D7F1B540D3876EF6DAC577AA15E5D92A990D987E1DE839E2710 SWAP1 PUSH1 0x20 ADD PUSH2 0x894 JUMP JUMPDEST PUSH1 0x0 SLOAD PUSH1 0x1 PUSH1 0x1 PUSH1 0xA0 SHL SUB AND CALLER EQ PUSH2 0x2388 JUMPI PUSH1 0x40 MLOAD PUSH3 0x461BCD PUSH1 0xE5 SHL DUP2 MSTORE PUSH1 0x4 ADD PUSH2 0x6CC SWAP1 PUSH2 0x3226 JUMP JUMPDEST DUP3 DUP2 EQ PUSH2 0x23CA JUMPI PUSH1 0x40 MLOAD PUSH3 0x461BCD PUSH1 0xE5 SHL DUP2 MSTORE PUSH1 0x20 PUSH1 0x4 DUP3 ADD MSTORE PUSH1 0x10 PUSH1 0x24 DUP3 ADD MSTORE PUSH16 0x13115391D51217D393D517D154555053 PUSH1 0x82 SHL PUSH1 0x44 DUP3 ADD MSTORE PUSH1 0x64 ADD PUSH2 0x6CC JUMP JUMPDEST PUSH1 0x0 JUMPDEST DUP4 DUP2 LT ISZERO PUSH2 0x21CC JUMPI DUP3 DUP3 DUP3 DUP2 DUP2 LT PUSH2 0x23E7 JUMPI PUSH2 0x23E7 PUSH2 0x333E JUMP JUMPDEST SWAP1 POP PUSH1 0x20 MUL ADD CALLDATALOAD PUSH1 0x5 PUSH1 0x0 DUP8 DUP8 DUP6 DUP2 DUP2 LT PUSH2 0x2404 JUMPI PUSH2 0x2404 PUSH2 0x333E JUMP JUMPDEST SWAP1 POP PUSH1 0x20 MUL ADD PUSH1 0x20 DUP2 ADD SWAP1 PUSH2 0x2419 SWAP2 SWAP1 PUSH2 0x3032 JUMP JUMPDEST PUSH1 0x1 PUSH1 0x1 PUSH1 0xA0 SHL SUB AND DUP2 MSTORE PUSH1 0x20 DUP2 ADD SWAP2 SWAP1 SWAP2 MSTORE PUSH1 0x40 ADD PUSH1 0x0 KECCAK256 SSTORE DUP1 PUSH2 0x243D DUP2 PUSH2 0x3371 JUMP JUMPDEST SWAP2 POP POP PUSH2 0x23CD JUMP JUMPDEST PUSH1 0x0 SLOAD PUSH1 0x1 PUSH1 0x1 PUSH1 0xA0 SHL SUB AND CALLER EQ PUSH2 0x246F JUMPI PUSH1 0x40 MLOAD PUSH3 0x461BCD PUSH1 0xE5 SHL DUP2 MSTORE PUSH1 0x4 ADD PUSH2 0x6CC SWAP1 PUSH2 0x3226 JUMP JUMPDEST PUSH1 0x1 PUSH1 0x1 PUSH1 0xA0 SHL SUB DUP2 AND PUSH2 0x24D4 JUMPI PUSH1 0x40 MLOAD PUSH3 0x461BCD PUSH1 0xE5 SHL DUP2 MSTORE PUSH1 0x20 PUSH1 0x4 DUP3 ADD MSTORE PUSH1 0x26 PUSH1 0x24 DUP3 ADD MSTORE PUSH32 0x4F776E61626C653A206E6577206F776E657220697320746865207A65726F2061 PUSH1 0x44 DUP3 ADD MSTORE PUSH6 0x646472657373 PUSH1 0xD0 SHL PUSH1 0x64 DUP3 ADD MSTORE PUSH1 0x84 ADD PUSH2 0x6CC JUMP JUMPDEST PUSH2 0x24DD DUP2 PUSH2 0x2701 JUMP JUMPDEST POP JUMP JUMPDEST PUSH1 0x60 PUSH1 0x8 DUP1 SLOAD DUP1 PUSH1 0x20 MUL PUSH1 0x20 ADD PUSH1 0x40 MLOAD SWAP1 DUP2 ADD PUSH1 0x40 MSTORE DUP1 SWAP3 SWAP2 SWAP1 DUP2 DUP2 MSTORE PUSH1 0x20 ADD DUP3 DUP1 SLOAD DUP1 ISZERO PUSH2 0x2556 JUMPI PUSH1 0x20 MUL DUP3 ADD SWAP2 SWAP1 PUSH1 0x0 MSTORE PUSH1 0x20 PUSH1 0x0 KECCAK256 SWAP1 PUSH1 0x0 SWAP1 JUMPDEST DUP3 DUP3 SWAP1 SLOAD SWAP1 PUSH2 0x100 EXP SWAP1 DIV PUSH2 0xFFFF AND PUSH2 0xFFFF AND DUP2 MSTORE PUSH1 0x20 ADD SWAP1 PUSH1 0x2 ADD SWAP1 PUSH1 0x20 DUP3 PUSH1 0x1 ADD DIV SWAP3 DUP4 ADD SWAP3 PUSH1 0x1 SUB DUP3 MUL SWAP2 POP DUP1 DUP5 GT PUSH2 0x251D JUMPI SWAP1 POP JUMPDEST POP POP POP POP POP SWAP1 POP SWAP1 JUMP JUMPDEST PUSH1 0x40 MLOAD PUSH4 0x70A08231 PUSH1 0xE0 SHL DUP2 MSTORE ADDRESS PUSH1 0x4 DUP3 ADD MSTORE PUSH1 0x0 SWAP1 PUSH8 0xDE0B6B3A7640000 SWAP1 PUSH1 0x1 PUSH1 0x1 PUSH1 0xA0 SHL SUB PUSH32 0x0 AND SWAP1 PUSH4 0x70A08231 SWAP1 PUSH1 0x24 ADD PUSH1 0x20 PUSH1 0x40 MLOAD DUP1 DUP4 SUB DUP2 DUP7 GAS STATICCALL ISZERO DUP1 ISZERO PUSH2 0x25D1 JUMPI RETURNDATASIZE PUSH1 0x0 DUP1 RETURNDATACOPY RETURNDATASIZE PUSH1 0x0 REVERT JUMPDEST POP POP POP POP PUSH1 0x40 MLOAD RETURNDATASIZE PUSH1 0x1F NOT PUSH1 0x1F DUP3 ADD AND DUP3 ADD DUP1 PUSH1 0x40 MSTORE POP DUP2 ADD SWAP1 PUSH2 0x25F5 SWAP2 SWAP1 PUSH2 0x325B JUMP JUMPDEST PUSH32 0x0 PUSH1 0x1 PUSH1 0x1 PUSH1 0xA0 SHL SUB AND PUSH4 0x182DF0F5 PUSH1 0x40 MLOAD DUP2 PUSH4 0xFFFFFFFF AND PUSH1 0xE0 SHL DUP2 MSTORE PUSH1 0x4 ADD PUSH1 0x20 PUSH1 0x40 MLOAD DUP1 DUP4 SUB DUP2 DUP7 GAS STATICCALL ISZERO DUP1 ISZERO PUSH2 0x2653 JUMPI RETURNDATASIZE PUSH1 0x0 DUP1 RETURNDATACOPY RETURNDATASIZE PUSH1 0x0 REVERT JUMPDEST POP POP POP POP PUSH1 0x40 MLOAD RETURNDATASIZE PUSH1 0x1F NOT PUSH1 0x1F DUP3 ADD AND DUP3 ADD DUP1 PUSH1 0x40 MSTORE POP DUP2 ADD SWAP1 PUSH2 0x2677 SWAP2 SWAP1 PUSH2 0x325B JUMP JUMPDEST PUSH2 0x2681 SWAP2 SWAP1 PUSH2 0x32CE JUMP JUMPDEST PUSH2 0x1085 SWAP2 SWAP1 PUSH2 0x3304 JUMP JUMPDEST PUSH1 0x40 MLOAD PUSH4 0x2E1A7D4D PUSH1 0xE0 SHL DUP2 MSTORE PUSH1 0x4 DUP2 ADD DUP3 SWAP1 MSTORE PUSH32 0x0 PUSH1 0x1 PUSH1 0x1 PUSH1 0xA0 SHL SUB AND SWAP1 PUSH4 0x2E1A7D4D SWAP1 PUSH1 0x24 ADD PUSH1 0x0 PUSH1 0x40 MLOAD DUP1 DUP4 SUB DUP2 PUSH1 0x0 DUP8 DUP1 EXTCODESIZE ISZERO DUP1 ISZERO PUSH2 0x26ED JUMPI PUSH1 0x0 DUP1 REVERT JUMPDEST POP GAS CALL ISZERO DUP1 ISZERO PUSH2 0x21CC JUMPI RETURNDATASIZE PUSH1 0x0 DUP1 RETURNDATACOPY RETURNDATASIZE PUSH1 0x0 REVERT JUMPDEST PUSH1 0x0 DUP1 SLOAD PUSH1 0x1 PUSH1 0x1 PUSH1 0xA0 SHL SUB DUP4 DUP2 AND PUSH1 0x1 PUSH1 0x1 PUSH1 0xA0 SHL SUB NOT DUP4 AND DUP2 OR DUP5 SSTORE PUSH1 0x40 MLOAD SWAP2 SWAP1 SWAP3 AND SWAP3 DUP4 SWAP2 PUSH32 0x8BE0079C531659141344CD1FD0A4F28419497F9722A3DAAFE3B4186F6B6457E0 SWAP2 SWAP1 LOG3 POP POP JUMP JUMPDEST PUSH1 0x0 PUSH2 0x2761 PUSH4 0x47868C00 DUP4 PUSH2 0x32CE JUMP JUMPDEST PUSH1 0x40 MLOAD PUSH4 0x95EA7B3 PUSH1 0xE0 SHL DUP2 MSTORE SWAP1 SWAP2 POP PUSH1 0x1 PUSH1 0x1 PUSH1 0xA0 SHL SUB PUSH32 0x0 AND SWAP1 PUSH4 0x95EA7B3 SWAP1 PUSH2 0x27D2 SWAP1 PUSH32 0x0 SWAP1 DUP6 SWAP1 PUSH1 0x4 ADD PUSH2 0x3274 JUMP JUMPDEST PUSH1 0x20 PUSH1 0x40 MLOAD DUP1 DUP4 SUB DUP2 PUSH1 0x0 DUP8 GAS CALL ISZERO DUP1 ISZERO PUSH2 0x27F1 JUMPI RETURNDATASIZE PUSH1 0x0 DUP1 RETURNDATACOPY RETURNDATASIZE PUSH1 0x0 REVERT JUMPDEST POP POP POP POP PUSH1 0x40 MLOAD RETURNDATASIZE PUSH1 0x1F NOT PUSH1 0x1F DUP3 ADD AND DUP3 ADD DUP1 PUSH1 0x40 MSTORE POP DUP2 ADD SWAP1 PUSH2 0x2815 SWAP2 SWAP1 PUSH2 0x329B JUMP JUMPDEST POP PUSH1 0x40 MLOAD PUSH4 0x9E3A92FF PUSH1 0xE0 SHL DUP2 MSTORE PUSH1 0x4 DUP2 ADD DUP3 SWAP1 MSTORE PUSH32 0x0 PUSH1 0x1 PUSH1 0x1 PUSH1 0xA0 SHL SUB AND SWAP1 PUSH4 0x9E3A92FF SWAP1 PUSH1 0x24 ADD PUSH1 0x0 PUSH1 0x40 MLOAD DUP1 DUP4 SUB DUP2 PUSH1 0x0 DUP8 DUP1 EXTCODESIZE ISZERO DUP1 ISZERO PUSH2 0x2878 JUMPI PUSH1 0x0 DUP1 REVERT JUMPDEST POP GAS CALL ISZERO DUP1 ISZERO PUSH2 0x288C JUMPI RETURNDATASIZE PUSH1 0x0 DUP1 RETURNDATACOPY RETURNDATASIZE PUSH1 0x0 REVERT JUMPDEST POP POP POP POP POP POP JUMP JUMPDEST PUSH1 0x8 SLOAD DUP2 DUP2 GT ISZERO PUSH2 0x29DA JUMPI PUSH1 0x0 JUMPDEST DUP3 DUP2 LT ISZERO PUSH2 0x17BF JUMPI PUSH1 0x1 PUSH1 0x1 PUSH1 0xA0 SHL SUB PUSH32 0x0 AND PUSH4 0x40C10F19 DUP6 PUSH1 0x8 DUP5 PUSH2 0x28E8 PUSH1 0x1 DUP9 PUSH2 0x32ED JUMP JUMPDEST PUSH2 0x28F2 SWAP2 SWAP1 PUSH2 0x32ED JUMP JUMPDEST DUP2 SLOAD DUP2 LT PUSH2 0x2902 JUMPI PUSH2 0x2902 PUSH2 0x333E JUMP JUMPDEST SWAP1 PUSH1 0x0 MSTORE PUSH1 0x20 PUSH1 0x0 KECCAK256 SWAP1 PUSH1 0x10 SWAP2 DUP3 DUP3 DIV ADD SWAP2 SWAP1 MOD PUSH1 0x2 MUL SWAP1 SLOAD SWAP1 PUSH2 0x100 EXP SWAP1 DIV PUSH2 0xFFFF AND PUSH2 0xFFFF AND PUSH1 0x40 MLOAD DUP4 PUSH4 0xFFFFFFFF AND PUSH1 0xE0 SHL DUP2 MSTORE PUSH1 0x4 ADD PUSH2 0x2947 SWAP3 SWAP2 SWAP1 PUSH2 0x3274 JUMP JUMPDEST PUSH1 0x20 PUSH1 0x40 MLOAD DUP1 DUP4 SUB DUP2 PUSH1 0x0 DUP8 GAS CALL ISZERO DUP1 ISZERO PUSH2 0x2966 JUMPI RETURNDATASIZE PUSH1 0x0 DUP1 RETURNDATACOPY RETURNDATASIZE PUSH1 0x0 REVERT JUMPDEST POP POP POP POP PUSH1 0x40 MLOAD RETURNDATASIZE PUSH1 0x1F NOT PUSH1 0x1F DUP3 ADD AND DUP3 ADD DUP1 PUSH1 0x40 MSTORE POP DUP2 ADD SWAP1 PUSH2 0x298A SWAP2 SWAP1 PUSH2 0x329B JUMP JUMPDEST POP PUSH1 0x8 DUP1 SLOAD DUP1 PUSH2 0x299C JUMPI PUSH2 0x299C PUSH2 0x340A JUMP JUMPDEST PUSH1 0x0 DUP3 DUP2 MSTORE PUSH1 0x20 SWAP1 KECCAK256 PUSH1 0x10 PUSH1 0x0 NOT SWAP1 SWAP3 ADD SWAP2 DUP3 DIV ADD DUP1 SLOAD PUSH2 0xFFFF PUSH1 0x2 PUSH1 0xF DUP6 AND MUL PUSH2 0x100 EXP MUL NOT AND SWAP1 SSTORE SWAP1 SSTORE DUP1 PUSH2 0x29D2 DUP2 PUSH2 0x3371 JUMP JUMPDEST SWAP2 POP POP PUSH2 0x28A2 JUMP JUMPDEST PUSH1 0x0 JUMPDEST DUP2 DUP2 LT ISZERO PUSH2 0x2AC3 JUMPI PUSH32 0x0 PUSH1 0x1 PUSH1 0x1 PUSH1 0xA0 SHL SUB AND PUSH4 0x40C10F19 DUP6 PUSH1 0x8 DUP5 DUP2 SLOAD DUP2 LT PUSH2 0x2A28 JUMPI PUSH2 0x2A28 PUSH2 0x333E JUMP JUMPDEST SWAP1 PUSH1 0x0 MSTORE PUSH1 0x20 PUSH1 0x0 KECCAK256 SWAP1 PUSH1 0x10 SWAP2 DUP3 DUP3 DIV ADD SWAP2 SWAP1 MOD PUSH1 0x2 MUL SWAP1 SLOAD SWAP1 PUSH2 0x100 EXP SWAP1 DIV PUSH2 0xFFFF AND PUSH2 0xFFFF AND PUSH1 0x40 MLOAD DUP4 PUSH4 0xFFFFFFFF AND PUSH1 0xE0 SHL DUP2 MSTORE PUSH1 0x4 ADD PUSH2 0x2A6D SWAP3 SWAP2 SWAP1 PUSH2 0x3274 JUMP JUMPDEST PUSH1 0x20 PUSH1 0x40 MLOAD DUP1 DUP4 SUB DUP2 PUSH1 0x0 DUP8 GAS CALL ISZERO DUP1 ISZERO PUSH2 0x2A8C JUMPI RETURNDATASIZE PUSH1 0x0 DUP1 RETURNDATACOPY RETURNDATASIZE PUSH1 0x0 REVERT JUMPDEST POP POP POP POP PUSH1 0x40 MLOAD RETURNDATASIZE PUSH1 0x1F NOT PUSH1 0x1F DUP3 ADD AND DUP3 ADD DUP1 PUSH1 0x40 MSTORE POP DUP2 ADD SWAP1 PUSH2 0x2AB0 SWAP2 SWAP1 PUSH2 0x329B JUMP JUMPDEST POP DUP1 PUSH2 0x2ABB DUP2 PUSH2 0x3371 JUMP JUMPDEST SWAP2 POP POP PUSH2 0x29DD JUMP JUMPDEST POP DUP1 ISZERO PUSH2 0x2AD6 JUMPI PUSH2 0x2AD6 PUSH1 0x8 PUSH1 0x0 PUSH2 0x2FE4 JUMP JUMPDEST DUP2 DUP2 LT ISZERO PUSH2 0x1D94 JUMPI PUSH1 0x0 PUSH32 0x0 PUSH1 0x1 PUSH1 0x1 PUSH1 0xA0 SHL SUB AND PUSH4 0x18160DDD PUSH1 0x40 MLOAD DUP2 PUSH4 0xFFFFFFFF AND PUSH1 0xE0 SHL DUP2 MSTORE PUSH1 0x4 ADD PUSH1 0x20 PUSH1 0x40 MLOAD DUP1 DUP4 SUB DUP2 DUP7 GAS STATICCALL ISZERO DUP1 ISZERO PUSH2 0x2B3E JUMPI RETURNDATASIZE PUSH1 0x0 DUP1 RETURNDATACOPY RETURNDATASIZE PUSH1 0x0 REVERT JUMPDEST POP POP POP POP PUSH1 0x40 MLOAD RETURNDATASIZE PUSH1 0x1F NOT PUSH1 0x1F DUP3 ADD AND DUP3 ADD DUP1 PUSH1 0x40 MSTORE POP DUP2 ADD SWAP1 PUSH2 0x2B62 SWAP2 SWAP1 PUSH2 0x325B JUMP JUMPDEST SWAP1 POP PUSH1 0x0 JUMPDEST PUSH2 0x2B71 DUP4 DUP6 PUSH2 0x32ED JUMP JUMPDEST DUP2 LT ISZERO PUSH2 0x21CC JUMPI PUSH1 0x1 PUSH1 0x1 PUSH1 0xA0 SHL SUB PUSH32 0x0 AND PUSH4 0x40C10F19 DUP7 PUSH2 0x2BB2 DUP5 DUP7 PUSH2 0x3326 JUMP JUMPDEST PUSH1 0x40 MLOAD DUP4 PUSH4 0xFFFFFFFF AND PUSH1 0xE0 SHL DUP2 MSTORE PUSH1 0x4 ADD PUSH2 0x2BCF SWAP3 SWAP2 SWAP1 PUSH2 0x3274 JUMP JUMPDEST PUSH1 0x20 PUSH1 0x40 MLOAD DUP1 DUP4 SUB DUP2 PUSH1 0x0 DUP8 GAS CALL ISZERO DUP1 ISZERO PUSH2 0x2BEE JUMPI RETURNDATASIZE PUSH1 0x0 DUP1 RETURNDATACOPY RETURNDATASIZE PUSH1 0x0 REVERT JUMPDEST POP POP POP POP PUSH1 0x40 MLOAD RETURNDATASIZE PUSH1 0x1F NOT PUSH1 0x1F DUP3 ADD AND DUP3 ADD DUP1 PUSH1 0x40 MSTORE POP DUP2 ADD SWAP1 PUSH2 0x2C12 SWAP2 SWAP1 PUSH2 0x329B JUMP JUMPDEST POP DUP1 PUSH2 0x2C1D DUP2 PUSH2 0x3371 JUMP JUMPDEST SWAP2 POP POP PUSH2 0x2B67 JUMP JUMPDEST DUP1 SELFBALANCE LT ISZERO PUSH2 0x2C75 JUMPI PUSH1 0x40 MLOAD PUSH3 0x461BCD PUSH1 0xE5 SHL DUP2 MSTORE PUSH1 0x20 PUSH1 0x4 DUP3 ADD MSTORE PUSH1 0x1D PUSH1 0x24 DUP3 ADD MSTORE PUSH32 0x416464726573733A20696E73756666696369656E742062616C616E6365000000 PUSH1 0x44 DUP3 ADD MSTORE PUSH1 0x64 ADD PUSH2 0x6CC JUMP JUMPDEST PUSH1 0x0 DUP3 PUSH1 0x1 PUSH1 0x1 PUSH1 0xA0 SHL SUB AND DUP3 PUSH1 0x40 MLOAD PUSH1 0x0 PUSH1 0x40 MLOAD DUP1 DUP4 SUB DUP2 DUP6 DUP8 GAS CALL SWAP3 POP POP POP RETURNDATASIZE DUP1 PUSH1 0x0 DUP2 EQ PUSH2 0x2CC2 JUMPI PUSH1 0x40 MLOAD SWAP2 POP PUSH1 0x1F NOT PUSH1 0x3F RETURNDATASIZE ADD AND DUP3 ADD PUSH1 0x40 MSTORE RETURNDATASIZE DUP3 MSTORE RETURNDATASIZE PUSH1 0x0 PUSH1 0x20 DUP5 ADD RETURNDATACOPY PUSH2 0x2CC7 JUMP JUMPDEST PUSH1 0x60 SWAP2 POP JUMPDEST POP POP SWAP1 POP DUP1 PUSH2 0x1D94 JUMPI PUSH1 0x40 MLOAD PUSH3 0x461BCD PUSH1 0xE5 SHL DUP2 MSTORE PUSH1 0x20 PUSH1 0x4 DUP3 ADD MSTORE PUSH1 0x3A PUSH1 0x24 DUP3 ADD MSTORE PUSH32 0x416464726573733A20756E61626C6520746F2073656E642076616C75652C2072 PUSH1 0x44 DUP3 ADD MSTORE PUSH32 0x6563697069656E74206D61792068617665207265766572746564000000000000 PUSH1 0x64 DUP3 ADD MSTORE PUSH1 0x84 ADD PUSH2 0x6CC JUMP JUMPDEST PUSH2 0x1D94 DUP4 PUSH4 0xA9059CBB PUSH1 0xE0 SHL DUP5 DUP5 PUSH1 0x40 MLOAD PUSH1 0x24 ADD PUSH2 0x2D5D SWAP3 SWAP2 SWAP1 PUSH2 0x3274 JUMP JUMPDEST PUSH1 0x40 DUP1 MLOAD PUSH1 0x1F NOT DUP2 DUP5 SUB ADD DUP2 MSTORE SWAP2 SWAP1 MSTORE PUSH1 0x20 DUP2 ADD DUP1 MLOAD PUSH1 0x1 PUSH1 0x1 PUSH1 0xE0 SHL SUB AND PUSH1 0x1 PUSH1 0x1 PUSH1 0xE0 SHL SUB NOT SWAP1 SWAP4 AND SWAP3 SWAP1 SWAP3 OR SWAP1 SWAP2 MSTORE PUSH1 0x0 PUSH2 0x2DE4 DUP3 PUSH1 0x40 MLOAD DUP1 PUSH1 0x40 ADD PUSH1 0x40 MSTORE DUP1 PUSH1 0x20 DUP2 MSTORE PUSH1 0x20 ADD PUSH32 0x5361666545524332303A206C6F772D6C6576656C2063616C6C206661696C6564 DUP2 MSTORE POP DUP6 PUSH1 0x1 PUSH1 0x1 PUSH1 0xA0 SHL SUB AND PUSH2 0x2E61 SWAP1 SWAP3 SWAP2 SWAP1 PUSH4 0xFFFFFFFF AND JUMP JUMPDEST DUP1 MLOAD SWAP1 SWAP2 POP ISZERO PUSH2 0x1D94 JUMPI DUP1 DUP1 PUSH1 0x20 ADD SWAP1 MLOAD DUP2 ADD SWAP1 PUSH2 0x2E02 SWAP2 SWAP1 PUSH2 0x329B JUMP JUMPDEST PUSH2 0x1D94 JUMPI PUSH1 0x40 MLOAD PUSH3 0x461BCD PUSH1 0xE5 SHL DUP2 MSTORE PUSH1 0x20 PUSH1 0x4 DUP3 ADD MSTORE PUSH1 0x2A PUSH1 0x24 DUP3 ADD MSTORE PUSH32 0x5361666545524332303A204552433230206F7065726174696F6E20646964206E PUSH1 0x44 DUP3 ADD MSTORE PUSH10 0x1BDD081CDD58D8D95959 PUSH1 0xB2 SHL PUSH1 0x64 DUP3 ADD MSTORE PUSH1 0x84 ADD PUSH2 0x6CC JUMP JUMPDEST PUSH1 0x60 PUSH2 0x2E70 DUP5 DUP5 PUSH1 0x0 DUP6 PUSH2 0x2E7A JUMP JUMPDEST SWAP1 POP JUMPDEST SWAP4 SWAP3 POP POP POP JUMP JUMPDEST PUSH1 0x60 DUP3 SELFBALANCE LT ISZERO PUSH2 0x2EDB JUMPI PUSH1 0x40 MLOAD PUSH3 0x461BCD PUSH1 0xE5 SHL DUP2 MSTORE PUSH1 0x20 PUSH1 0x4 DUP3 ADD MSTORE PUSH1 0x26 PUSH1 0x24 DUP3 ADD MSTORE PUSH32 0x416464726573733A20696E73756666696369656E742062616C616E636520666F PUSH1 0x44 DUP3 ADD MSTORE PUSH6 0x1C8818D85B1B PUSH1 0xD2 SHL PUSH1 0x64 DUP3 ADD MSTORE PUSH1 0x84 ADD PUSH2 0x6CC JUMP JUMPDEST PUSH1 0x1 PUSH1 0x1 PUSH1 0xA0 SHL SUB DUP6 AND EXTCODESIZE PUSH2 0x2F32 JUMPI PUSH1 0x40 MLOAD PUSH3 0x461BCD PUSH1 0xE5 SHL DUP2 MSTORE PUSH1 0x20 PUSH1 0x4 DUP3 ADD MSTORE PUSH1 0x1D PUSH1 0x24 DUP3 ADD MSTORE PUSH32 0x416464726573733A2063616C6C20746F206E6F6E2D636F6E7472616374000000 PUSH1 0x44 DUP3 ADD MSTORE PUSH1 0x64 ADD PUSH2 0x6CC JUMP JUMPDEST PUSH1 0x0 DUP1 DUP7 PUSH1 0x1 PUSH1 0x1 PUSH1 0xA0 SHL SUB AND DUP6 DUP8 PUSH1 0x40 MLOAD PUSH2 0x2F4E SWAP2 SWAP1 PUSH2 0x344C JUMP JUMPDEST PUSH1 0x0 PUSH1 0x40 MLOAD DUP1 DUP4 SUB DUP2 DUP6 DUP8 GAS CALL SWAP3 POP POP POP RETURNDATASIZE DUP1 PUSH1 0x0 DUP2 EQ PUSH2 0x2F8B JUMPI PUSH1 0x40 MLOAD SWAP2 POP PUSH1 0x1F NOT PUSH1 0x3F RETURNDATASIZE ADD AND DUP3 ADD PUSH1 0x40 MSTORE RETURNDATASIZE DUP3 MSTORE RETURNDATASIZE PUSH1 0x0 PUSH1 0x20 DUP5 ADD RETURNDATACOPY PUSH2 0x2F90 JUMP JUMPDEST PUSH1 0x60 SWAP2 POP JUMPDEST POP SWAP2 POP SWAP2 POP PUSH2 0x2FA0 DUP3 DUP3 DUP7 PUSH2 0x2FAB JUMP JUMPDEST SWAP8 SWAP7 POP POP POP POP POP POP POP JUMP JUMPDEST PUSH1 0x60 DUP4 ISZERO PUSH2 0x2FBA JUMPI POP DUP2 PUSH2 0x2E73 JUMP JUMPDEST DUP3 MLOAD ISZERO PUSH2 0x2FCA JUMPI DUP3 MLOAD DUP1 DUP5 PUSH1 0x20 ADD REVERT JUMPDEST DUP2 PUSH1 0x40 MLOAD PUSH3 0x461BCD PUSH1 0xE5 SHL DUP2 MSTORE PUSH1 0x4 ADD PUSH2 0x6CC SWAP2 SWAP1 PUSH2 0x3468 JUMP JUMPDEST POP DUP1 SLOAD PUSH1 0x0 DUP3 SSTORE PUSH1 0xF ADD PUSH1 0x10 SWAP1 DIV SWAP1 PUSH1 0x0 MSTORE PUSH1 0x20 PUSH1 0x0 KECCAK256 SWAP1 DUP2 ADD SWAP1 PUSH2 0x24DD SWAP2 SWAP1 JUMPDEST DUP1 DUP3 GT ISZERO PUSH2 0x3019 JUMPI PUSH1 0x0 DUP2 SSTORE PUSH1 0x1 ADD PUSH2 0x3005 JUMP JUMPDEST POP SWAP1 JUMP JUMPDEST PUSH1 0x1 PUSH1 0x1 PUSH1 0xA0 SHL SUB DUP2 AND DUP2 EQ PUSH2 0x24DD JUMPI PUSH1 0x0 DUP1 REVERT JUMPDEST PUSH1 0x0 PUSH1 0x20 DUP3 DUP5 SUB SLT ISZERO PUSH2 0x3044 JUMPI PUSH1 0x0 DUP1 REVERT JUMPDEST DUP2 CALLDATALOAD PUSH2 0x2E73 DUP2 PUSH2 0x301D JUMP JUMPDEST PUSH1 0x0 PUSH1 0x20 DUP3 DUP5 SUB SLT ISZERO PUSH2 0x3061 JUMPI PUSH1 0x0 DUP1 REVERT JUMPDEST POP CALLDATALOAD SWAP2 SWAP1 POP JUMP JUMPDEST PUSH1 0x0 DUP1 DUP4 PUSH1 0x1F DUP5 ADD SLT PUSH2 0x307A JUMPI PUSH1 0x0 DUP1 REVERT JUMPDEST POP DUP2 CALLDATALOAD PUSH8 0xFFFFFFFFFFFFFFFF DUP2 GT ISZERO PUSH2 0x3092 JUMPI PUSH1 0x0 DUP1 REVERT JUMPDEST PUSH1 0x20 DUP4 ADD SWAP2 POP DUP4 PUSH1 0x20 DUP3 PUSH1 0x5 SHL DUP6 ADD ADD GT ISZERO PUSH2 0x30AD JUMPI PUSH1 0x0 DUP1 REVERT JUMPDEST SWAP3 POP SWAP3 SWAP1 POP JUMP JUMPDEST PUSH1 0x0 DUP1 PUSH1 0x20 DUP4 DUP6 SUB SLT ISZERO PUSH2 0x30C7 JUMPI PUSH1 0x0 DUP1 REVERT JUMPDEST DUP3 CALLDATALOAD PUSH8 0xFFFFFFFFFFFFFFFF DUP2 GT ISZERO PUSH2 0x30DE JUMPI PUSH1 0x0 DUP1 REVERT JUMPDEST PUSH2 0x30EA DUP6 DUP3 DUP7 ADD PUSH2 0x3068 JUMP JUMPDEST SWAP1 SWAP7 SWAP1 SWAP6 POP SWAP4 POP POP POP POP JUMP JUMPDEST PUSH1 0x0 DUP1 PUSH1 0x40 DUP4 DUP6 SUB SLT ISZERO PUSH2 0x3109 JUMPI PUSH1 0x0 DUP1 REVERT JUMPDEST DUP3 CALLDATALOAD SWAP2 POP PUSH1 0x20 DUP4 ADD CALLDATALOAD PUSH2 0x311B DUP2 PUSH2 0x301D JUMP JUMPDEST DUP1 SWAP2 POP POP SWAP3 POP SWAP3 SWAP1 POP JUMP JUMPDEST PUSH1 0x0 DUP1 PUSH1 0x0 PUSH1 0x40 DUP5 DUP7 SUB SLT ISZERO PUSH2 0x313B JUMPI PUSH1 0x0 DUP1 REVERT JUMPDEST DUP4 CALLDATALOAD SWAP3 POP PUSH1 0x20 DUP5 ADD CALLDATALOAD PUSH8 0xFFFFFFFFFFFFFFFF DUP2 GT ISZERO PUSH2 0x3159 JUMPI PUSH1 0x0 DUP1 REVERT JUMPDEST PUSH2 0x3165 DUP7 DUP3 DUP8 ADD PUSH2 0x3068 JUMP JUMPDEST SWAP5 SWAP8 SWAP1 SWAP7 POP SWAP4 SWAP5 POP POP POP POP JUMP JUMPDEST PUSH1 0x0 DUP1 PUSH1 0x0 DUP1 PUSH1 0x40 DUP6 DUP8 SUB SLT ISZERO PUSH2 0x3188 JUMPI PUSH1 0x0 DUP1 REVERT JUMPDEST DUP5 CALLDATALOAD PUSH8 0xFFFFFFFFFFFFFFFF DUP1 DUP3 GT ISZERO PUSH2 0x31A0 JUMPI PUSH1 0x0 DUP1 REVERT JUMPDEST PUSH2 0x31AC DUP9 DUP4 DUP10 ADD PUSH2 0x3068 JUMP JUMPDEST SWAP1 SWAP7 POP SWAP5 POP PUSH1 0x20 DUP8 ADD CALLDATALOAD SWAP2 POP DUP1 DUP3 GT ISZERO PUSH2 0x31C5 JUMPI PUSH1 0x0 DUP1 REVERT JUMPDEST POP PUSH2 0x31D2 DUP8 DUP3 DUP9 ADD PUSH2 0x3068 JUMP JUMPDEST SWAP6 SWAP9 SWAP5 SWAP8 POP SWAP6 POP POP POP POP JUMP JUMPDEST PUSH1 0x20 DUP1 DUP3 MSTORE DUP3 MLOAD DUP3 DUP3 ADD DUP2 SWAP1 MSTORE PUSH1 0x0 SWAP2 SWAP1 DUP5 DUP3 ADD SWAP1 PUSH1 0x40 DUP6 ADD SWAP1 DUP5 JUMPDEST DUP2 DUP2 LT ISZERO PUSH2 0x321A JUMPI DUP4 MLOAD PUSH2 0xFFFF AND DUP4 MSTORE SWAP3 DUP5 ADD SWAP3 SWAP2 DUP5 ADD SWAP2 PUSH1 0x1 ADD PUSH2 0x31FA JUMP JUMPDEST POP SWAP1 SWAP7 SWAP6 POP POP POP POP POP POP JUMP JUMPDEST PUSH1 0x20 DUP1 DUP3 MSTORE DUP2 DUP2 ADD MSTORE PUSH32 0x4F776E61626C653A2063616C6C6572206973206E6F7420746865206F776E6572 PUSH1 0x40 DUP3 ADD MSTORE PUSH1 0x60 ADD SWAP1 JUMP JUMPDEST PUSH1 0x0 PUSH1 0x20 DUP3 DUP5 SUB SLT ISZERO PUSH2 0x326D JUMPI PUSH1 0x0 DUP1 REVERT JUMPDEST POP MLOAD SWAP2 SWAP1 POP JUMP JUMPDEST PUSH1 0x1 PUSH1 0x1 PUSH1 0xA0 SHL SUB SWAP3 SWAP1 SWAP3 AND DUP3 MSTORE PUSH1 0x20 DUP3 ADD MSTORE PUSH1 0x40 ADD SWAP1 JUMP JUMPDEST DUP1 ISZERO ISZERO DUP2 EQ PUSH2 0x24DD JUMPI PUSH1 0x0 DUP1 REVERT JUMPDEST PUSH1 0x0 PUSH1 0x20 DUP3 DUP5 SUB SLT ISZERO PUSH2 0x32AD JUMPI PUSH1 0x0 DUP1 REVERT JUMPDEST DUP2 MLOAD PUSH2 0x2E73 DUP2 PUSH2 0x328D JUMP JUMPDEST PUSH4 0x4E487B71 PUSH1 0xE0 SHL PUSH1 0x0 MSTORE PUSH1 0x11 PUSH1 0x4 MSTORE PUSH1 0x24 PUSH1 0x0 REVERT JUMPDEST PUSH1 0x0 DUP2 PUSH1 0x0 NOT DIV DUP4 GT DUP3 ISZERO ISZERO AND ISZERO PUSH2 0x32E8 JUMPI PUSH2 0x32E8 PUSH2 0x32B8 JUMP JUMPDEST POP MUL SWAP1 JUMP JUMPDEST PUSH1 0x0 DUP3 DUP3 LT ISZERO PUSH2 0x32FF JUMPI PUSH2 0x32FF PUSH2 0x32B8 JUMP JUMPDEST POP SUB SWAP1 JUMP JUMPDEST PUSH1 0x0 DUP3 PUSH2 0x3321 JUMPI PUSH4 0x4E487B71 PUSH1 0xE0 SHL PUSH1 0x0 MSTORE PUSH1 0x12 PUSH1 0x4 MSTORE PUSH1 0x24 PUSH1 0x0 REVERT JUMPDEST POP DIV SWAP1 JUMP JUMPDEST PUSH1 0x0 DUP3 NOT DUP3 GT ISZERO PUSH2 0x3339 JUMPI PUSH2 0x3339 PUSH2 0x32B8 JUMP JUMPDEST POP ADD SWAP1 JUMP JUMPDEST PUSH4 0x4E487B71 PUSH1 0xE0 SHL PUSH1 0x0 MSTORE PUSH1 0x32 PUSH1 0x4 MSTORE PUSH1 0x24 PUSH1 0x0 REVERT JUMPDEST PUSH1 0x0 PUSH1 0x20 DUP3 DUP5 SUB SLT ISZERO PUSH2 0x3366 JUMPI PUSH1 0x0 DUP1 REVERT JUMPDEST DUP2 MLOAD PUSH2 0x2E73 DUP2 PUSH2 0x301D JUMP JUMPDEST PUSH1 0x0 PUSH1 0x1 DUP3 ADD PUSH2 0x3383 JUMPI PUSH2 0x3383 PUSH2 0x32B8 JUMP JUMPDEST POP PUSH1 0x1 ADD SWAP1 JUMP JUMPDEST PUSH1 0x1 PUSH1 0x1 PUSH1 0xA0 SHL SUB DUP6 DUP2 AND DUP3 MSTORE PUSH1 0x20 DUP1 DUP4 ADD DUP7 SWAP1 MSTORE PUSH1 0x60 PUSH1 0x40 DUP5 ADD DUP2 SWAP1 MSTORE DUP4 ADD DUP5 SWAP1 MSTORE PUSH1 0x0 SWAP2 DUP6 SWAP2 PUSH1 0x80 DUP6 ADD DUP5 JUMPDEST DUP8 DUP2 LT ISZERO PUSH2 0x33DF JUMPI DUP5 CALLDATALOAD PUSH2 0x33CB DUP2 PUSH2 0x301D JUMP JUMPDEST DUP5 AND DUP3 MSTORE SWAP4 DUP3 ADD SWAP4 SWAP1 DUP3 ADD SWAP1 PUSH1 0x1 ADD PUSH2 0x33B8 JUMP JUMPDEST POP SWAP10 SWAP9 POP POP POP POP POP POP POP POP POP JUMP JUMPDEST PUSH1 0x0 PUSH1 0x20 DUP3 DUP5 SUB SLT ISZERO PUSH2 0x33FF JUMPI PUSH1 0x0 DUP1 REVERT JUMPDEST DUP2 CALLDATALOAD PUSH2 0x2E73 DUP2 PUSH2 0x328D JUMP JUMPDEST PUSH4 0x4E487B71 PUSH1 0xE0 SHL PUSH1 0x0 MSTORE PUSH1 0x31 PUSH1 0x4 MSTORE PUSH1 0x24 PUSH1 0x0 REVERT JUMPDEST PUSH1 0x0 JUMPDEST DUP4 DUP2 LT ISZERO PUSH2 0x343B JUMPI DUP2 DUP2 ADD MLOAD DUP4 DUP3 ADD MSTORE PUSH1 0x20 ADD PUSH2 0x3423 JUMP JUMPDEST DUP4 DUP2 GT ISZERO PUSH2 0x17BF JUMPI POP POP PUSH1 0x0 SWAP2 ADD MSTORE JUMP JUMPDEST PUSH1 0x0 DUP3 MLOAD PUSH2 0x345E DUP2 DUP5 PUSH1 0x20 DUP8 ADD PUSH2 0x3420 JUMP JUMPDEST SWAP2 SWAP1 SWAP2 ADD SWAP3 SWAP2 POP POP JUMP JUMPDEST PUSH1 0x20 DUP2 MSTORE PUSH1 0x0 DUP3 MLOAD DUP1 PUSH1 0x20 DUP5 ADD MSTORE PUSH2 0x3487 DUP2 PUSH1 0x40 DUP6 ADD PUSH1 0x20 DUP8 ADD PUSH2 0x3420 JUMP JUMPDEST PUSH1 0x1F ADD PUSH1 0x1F NOT AND SWAP2 SWAP1 SWAP2 ADD PUSH1 0x40 ADD SWAP3 SWAP2 POP POP JUMP INVALID LOG2 PUSH5 0x6970667358 0x22 SLT KECCAK256 0xD9 0x4A 0xB5 0x2D CREATE2 0xC8 PUSH27 0x2B5830F6DE449C509C65077F31A32AABDC9DBE86BB69542256473 PUSH16 0x6C634300080D00330000000000000000 "
        },
        "methodIdentifiers": {
          "BUYBACKPRICE()": "d8116d39",
          "KSP()": "bcee54ac",
          "KUSDT()": "1928c8f5",
          "KUSDT_KLAY_LP()": "4e9da4fe",
          "KUSDT_KS_POOL()": "91a7fa32",
          "PUBLICPRICE()": "74bf35fd",
          "burnedTokensAmount()": "387c5884",
          "buyBack(uint256[])": "a8087d2f",
          "claimInterest()": "35981fd8",
          "claimKSPReward()": "23d82196",
          "claimTokens(address)": "df8de3e7",
          "claimableInterest()": "551b03ff",
          "claimableKSPReward()": "76ffe548",
          "devFund()": "4390d2a8",
          "emergencyWithdraw(uint256)": "5312ea8e",
          "estimateNeededKlayForZapping(uint256)": "834b843b",
          "gaiaKronos()": "424ddd31",
          "gaiaSupernova()": "464039ba",
          "getBurnedIds()": "fa00992a",
          "isListedII(address)": "b22bca72",
          "mintStableDAO(uint256,address)": "b104c5c4",
          "mintStableDAOAsII(uint256,address[])": "b373e347",
          "mintedAmountWithGaiaKronos(address)": "0647079b",
          "mintedAmountWithGaiaSupernova(address)": "9f4f3930",
          "owner()": "8da5cb5b",
          "renounceOwnership()": "715018a6",
          "setIIList(address[],bool[])": "d8d58731",
          "setPriceForII(uint256)": "7642eb01",
          "setWhitelist(address[],uint256[])": "f013e0e1",
          "stableDAO()": "ebd87819",
          "transferOwnership(address)": "f2fde38b",
          "updateDevFund(address)": "e40db51e",
          "whitelistedAmount(address)": "e8d8a255"
        }
      }
    }
  }
}