{
  "contracts/StableDAORewardDistributor.sol": {
    "StableDAORewardDistributor": {
      "abi": [
        {
          "inputs": [],
          "stateMutability": "nonpayable",
          "type": "constructor"
        },
        {
          "anonymous": false,
          "inputs": [
            {
              "indexed": true,
              "internalType": "address",
              "name": "user",
              "type": "address"
            },
            {
              "indexed": false,
              "internalType": "uint256",
              "name": "amount",
              "type": "uint256"
            }
          ],
          "name": "Claim",
          "type": "event"
        },
        {
          "anonymous": false,
          "inputs": [
            {
              "indexed": true,
              "internalType": "address",
              "name": "user",
              "type": "address"
            },
            {
              "indexed": false,
              "internalType": "uint256",
              "name": "amount",
              "type": "uint256"
            }
          ],
          "name": "DisclaimReward",
          "type": "event"
        },
        {
          "anonymous": false,
          "inputs": [
            {
              "indexed": false,
              "internalType": "address",
              "name": "token",
              "type": "address"
            },
            {
              "indexed": false,
              "internalType": "uint256",
              "name": "amount",
              "type": "uint256"
            }
          ],
          "name": "Distribute",
          "type": "event"
        },
        {
          "anonymous": false,
          "inputs": [
            {
              "indexed": true,
              "internalType": "address",
              "name": "previousOwner",
              "type": "address"
            },
            {
              "indexed": true,
              "internalType": "address",
              "name": "newOwner",
              "type": "address"
            }
          ],
          "name": "OwnershipTransferred",
          "type": "event"
        },
        {
          "anonymous": false,
          "inputs": [
            {
              "indexed": false,
              "internalType": "uint256",
              "name": "newInterval",
              "type": "uint256"
            }
          ],
          "name": "UpdateClaimInterval",
          "type": "event"
        },
        {
          "anonymous": false,
          "inputs": [
            {
              "indexed": false,
              "internalType": "address",
              "name": "newDevFund",
              "type": "address"
            }
          ],
          "name": "UpdateDevFund",
          "type": "event"
        },
        {
          "anonymous": false,
          "inputs": [
            {
              "indexed": true,
              "internalType": "address",
              "name": "user",
              "type": "address"
            },
            {
              "indexed": false,
              "internalType": "uint256",
              "name": "amount",
              "type": "uint256"
            }
          ],
          "name": "UpdateUnclaimed",
          "type": "event"
        },
        {
          "stateMutability": "payable",
          "type": "fallback"
        },
        {
          "inputs": [],
          "name": "KLAY",
          "outputs": [
            {
              "internalType": "address",
              "name": "",
              "type": "address"
            }
          ],
          "stateMutability": "view",
          "type": "function"
        },
        {
          "inputs": [
            {
              "internalType": "uint256[]",
              "name": "rewardIds",
              "type": "uint256[]"
            },
            {
              "internalType": "uint256[]",
              "name": "amounts",
              "type": "uint256[]"
            },
            {
              "internalType": "bytes32[][]",
              "name": "proof",
              "type": "bytes32[][]"
            }
          ],
          "name": "claimRewards",
          "outputs": [],
          "stateMutability": "nonpayable",
          "type": "function"
        },
        {
          "inputs": [
            {
              "internalType": "address[]",
              "name": "users",
              "type": "address[]"
            },
            {
              "internalType": "uint256[]",
              "name": "rewardIds",
              "type": "uint256[]"
            },
            {
              "internalType": "uint256[]",
              "name": "amounts",
              "type": "uint256[]"
            },
            {
              "internalType": "bytes32[][]",
              "name": "proof",
              "type": "bytes32[][]"
            }
          ],
          "name": "claimRewardsByOwner",
          "outputs": [],
          "stateMutability": "nonpayable",
          "type": "function"
        },
        {
          "inputs": [
            {
              "internalType": "address",
              "name": "token",
              "type": "address"
            },
            {
              "internalType": "uint256",
              "name": "amount",
              "type": "uint256"
            },
            {
              "internalType": "bytes32",
              "name": "merkleRoot",
              "type": "bytes32"
            }
          ],
          "name": "depositReward",
          "outputs": [
            {
              "internalType": "uint256",
              "name": "rewardId",
              "type": "uint256"
            }
          ],
          "stateMutability": "payable",
          "type": "function"
        },
        {
          "inputs": [
            {
              "internalType": "address",
              "name": "token",
              "type": "address"
            }
          ],
          "name": "emergencyWithdraw",
          "outputs": [],
          "stateMutability": "nonpayable",
          "type": "function"
        },
        {
          "inputs": [
            {
              "internalType": "address",
              "name": "",
              "type": "address"
            }
          ],
          "name": "isDepositor",
          "outputs": [
            {
              "internalType": "bool",
              "name": "",
              "type": "bool"
            }
          ],
          "stateMutability": "view",
          "type": "function"
        },
        {
          "inputs": [
            {
              "internalType": "address",
              "name": "user",
              "type": "address"
            },
            {
              "internalType": "uint256",
              "name": "rewardId",
              "type": "uint256"
            }
          ],
          "name": "isRewardCollected",
          "outputs": [
            {
              "internalType": "bool",
              "name": "",
              "type": "bool"
            }
          ],
          "stateMutability": "view",
          "type": "function"
        },
        {
          "inputs": [],
          "name": "owner",
          "outputs": [
            {
              "internalType": "address",
              "name": "",
              "type": "address"
            }
          ],
          "stateMutability": "view",
          "type": "function"
        },
        {
          "inputs": [],
          "name": "renounceOwnership",
          "outputs": [],
          "stateMutability": "nonpayable",
          "type": "function"
        },
        {
          "inputs": [
            {
              "internalType": "uint256",
              "name": "",
              "type": "uint256"
            }
          ],
          "name": "rewards",
          "outputs": [
            {
              "internalType": "address",
              "name": "token",
              "type": "address"
            },
            {
              "internalType": "uint256",
              "name": "amount",
              "type": "uint256"
            },
            {
              "internalType": "bytes32",
              "name": "merkleRoot",
              "type": "bytes32"
            }
          ],
          "stateMutability": "view",
          "type": "function"
        },
        {
          "inputs": [
            {
              "internalType": "address",
              "name": "newOwner",
              "type": "address"
            }
          ],
          "name": "transferOwnership",
          "outputs": [],
          "stateMutability": "nonpayable",
          "type": "function"
        },
        {
          "inputs": [
            {
              "internalType": "address",
              "name": "depositor",
              "type": "address"
            },
            {
              "internalType": "bool",
              "name": "status",
              "type": "bool"
            }
          ],
          "name": "updateDepositor",
          "outputs": [],
          "stateMutability": "nonpayable",
          "type": "function"
        },
        {
          "stateMutability": "payable",
          "type": "receive"
        }
      ],
      "evm": {
        "bytecode": {
          "linkReferences": {},
          "object": "608060405234801561001057600080fd5b5061001a3361003e565b6001808055336000908152600460205260409020805460ff1916909117905561008e565b600080546001600160a01b038381166001600160a01b0319831681178455604051919092169283917f8be0079c531659141344cd1fd0a4f28419497f9722a3daafe3b4186f6b6457e09190a35050565b61142e8061009d6000396000f3fe6080604052600436106100a55760003560e01c80638da5cb5b116100615780638da5cb5b14610195578063ad2fec9e146101b3578063cbe81c8c146101d3578063dbd82687146101f3578063f2fde38b14610214578063f301af421461023457005b8063227a72e9146100ae5780632f70d1ba146100ce578063663db6ff146101135780636ff1c9bc146101405780637041828e14610160578063715018a61461018057005b366100ac57005b005b3480156100ba57600080fd5b506100ac6100c9366004611037565b610279565b3480156100da57600080fd5b506100fe6100e9366004611117565b60046020526000908152604090205460ff1681565b60405190151581526020015b60405180910390f35b34801561011f57600080fd5b50610128600081565b6040516001600160a01b03909116815260200161010a565b34801561014c57600080fd5b506100ac61015b366004611117565b61040a565b34801561016c57600080fd5b506100ac61017b366004611140565b6104d2565b34801561018c57600080fd5b506100ac61058c565b3480156101a157600080fd5b506000546001600160a01b0316610128565b3480156101bf57600080fd5b506100fe6101ce366004611177565b6105c2565b3480156101df57600080fd5b506100ac6101ee3660046111a1565b6105d5565b61020661020136600461123b565b6106bb565b60405190815260200161010a565b34801561022057600080fd5b506100ac61022f366004611117565b6108d9565b34801561024057600080fd5b5061025461024f36600461126e565b610974565b604080516001600160a01b03909416845260208401929092529082015260600161010a565b6002600154036102d05760405162461bcd60e51b815260206004820152601f60248201527f5265656e7472616e637947756172643a207265656e7472616e742063616c6c0060448201526064015b60405180910390fd5b60026001556000546001600160a01b031633146102ff5760405162461bcd60e51b81526004016102c790611287565b86858114801561030e57508381145b801561031957508181145b6103585760405162461bcd60e51b815260206004820152601060248201526f13115391d51217d393d517d15455505360821b60448201526064016102c7565b60005b818110156103fa576103e88a8a83818110610378576103786112bc565b905060200201602081019061038d9190611117565b89898481811061039f5761039f6112bc565b905060200201358888858181106103b8576103b86112bc565b905060200201358787868181106103d1576103d16112bc565b90506020028101906103e391906112d2565b6109b1565b806103f28161131c565b91505061035b565b5050600180555050505050505050565b6000546001600160a01b031633146104345760405162461bcd60e51b81526004016102c790611287565b60006001600160a01b0382166104545750476104503382610b2b565b5050565b6040516370a0823160e01b81523060048201526001600160a01b038316906370a0823190602401602060405180830381865afa158015610498573d6000803e3d6000fd5b505050506040513d601f19601f820116820180604052508101906104bc9190611343565b90506104506001600160a01b0383163383610c49565b6000546001600160a01b031633146104fc5760405162461bcd60e51b81526004016102c790611287565b6001600160a01b03821660009081526004602052604090205460ff16811515811515036105605760405162461bcd60e51b815260206004820152601260248201527114d510551554d7d393d517d0d2105391d15160721b60448201526064016102c7565b506001600160a01b03919091166000908152600460205260409020805460ff1916911515919091179055565b6000546001600160a01b031633146105b65760405162461bcd60e51b81526004016102c790611287565b6105c06000610c9b565b565b60006105ce8383610ceb565b9392505050565b6002600154036106275760405162461bcd60e51b815260206004820152601f60248201527f5265656e7472616e637947756172643a207265656e7472616e742063616c6c0060448201526064016102c7565b600260015584838114801561063b57508181145b61067a5760405162461bcd60e51b815260206004820152601060248201526f13115391d51217d393d517d15455505360821b60448201526064016102c7565b60005b818110156106ad5761069b3389898481811061039f5761039f6112bc565b806106a58161131c565b91505061067d565b505060018055505050505050565b3360009081526004602052604081205460ff166107095760405162461bcd60e51b815260206004820152600c60248201526b15539055551213d49256915160a21b60448201526064016102c7565b826000036107445760405162461bcd60e51b81526020600482015260086024820152670414d4f554e545f360c41b60448201526064016102c7565b6001600160a01b038416610798578234146107935760405162461bcd60e51b815260206004820152600f60248201526e57524f4e475f4d53472e56414c554560881b60448201526064016102c7565b610811565b6040516323b872dd60e01b8152336004820152306024820152604481018490526001600160a01b038516906323b872dd906064016020604051808303816000875af11580156107eb573d6000803e3d6000fd5b505050506040513d601f19601f8201168201806040525081019061080f919061135c565b505b5060028054604080516060810182526001600160a01b0396871681526020810195865290810193845260018201835560009290925290517f405787fa12a823e0f2b7631cc41b3ba8828b3321ca811111fa75cd3aa3bb5ace6003830290810180546001600160a01b031916929096169190911790945591517f405787fa12a823e0f2b7631cc41b3ba8828b3321ca811111fa75cd3aa3bb5acf840155517f405787fa12a823e0f2b7631cc41b3ba8828b3321ca811111fa75cd3aa3bb5ad09092019190915590565b6000546001600160a01b031633146109035760405162461bcd60e51b81526004016102c790611287565b6001600160a01b0381166109685760405162461bcd60e51b815260206004820152602660248201527f4f776e61626c653a206e6577206f776e657220697320746865207a65726f206160448201526564647265737360d01b60648201526084016102c7565b61097181610c9b565b50565b6002818154811061098457600080fd5b60009182526020909120600390910201805460018201546002909201546001600160a01b03909116925083565b6040516bffffffffffffffffffffffff19606087901b16602082015260348101849052600090605401604051602081830303815290604052805190602001209050600060028681548110610a0757610a076112bc565b90600052602060002090600302019050610a218787610ceb565b15610a605760405162461bcd60e51b815260206004820152600f60248201526e1053149150511657d0d31052535151608a1b60448201526064016102c7565b610a708484836002015485610d22565b610ab25760405162461bcd60e51b815260206004820152601360248201527215915492519250d0551253d397d19052531151606a1b60448201526064016102c7565b6001600160a01b038716600090815260036020908152604080832060088a901c845290915290208054600160ff89161b17905580546001600160a01b031680610b0d57610b086001600160a01b03891687610b2b565b610b21565b610b216001600160a01b0382168988610c49565b5050505050505050565b80471015610b7b5760405162461bcd60e51b815260206004820152601d60248201527f416464726573733a20696e73756666696369656e742062616c616e636500000060448201526064016102c7565b6000826001600160a01b03168260405160006040518083038185875af1925050503d8060008114610bc8576040519150601f19603f3d011682016040523d82523d6000602084013e610bcd565b606091505b5050905080610c445760405162461bcd60e51b815260206004820152603a60248201527f416464726573733a20756e61626c6520746f2073656e642076616c75652c207260448201527f6563697069656e74206d6179206861766520726576657274656400000000000060648201526084016102c7565b505050565b604080516001600160a01b038416602482015260448082018490528251808303909101815260649091019091526020810180516001600160e01b031663a9059cbb60e01b179052610c44908490610d98565b600080546001600160a01b038381166001600160a01b0319831681178455604051919092169283917f8be0079c531659141344cd1fd0a4f28419497f9722a3daafe3b4186f6b6457e09190a35050565b6001600160a01b0382166000908152600360209081526040808320600885901c8452909152812054600160ff84161b1615156105ce565b600081815b85811015610d8c576000878783818110610d4357610d436112bc565b905060200201359050808311610d685760008381526020829052604090209250610d79565b600081815260208490526040902092505b5080610d848161131c565b915050610d27565b50909214949350505050565b6000610ded826040518060400160405280602081526020017f5361666545524332303a206c6f772d6c6576656c2063616c6c206661696c6564815250856001600160a01b0316610e6a9092919063ffffffff16565b805190915015610c445780806020019051810190610e0b919061135c565b610c445760405162461bcd60e51b815260206004820152602a60248201527f5361666545524332303a204552433230206f7065726174696f6e20646964206e6044820152691bdd081cdd58d8d9595960b21b60648201526084016102c7565b6060610e798484600085610e81565b949350505050565b606082471015610ee25760405162461bcd60e51b815260206004820152602660248201527f416464726573733a20696e73756666696369656e742062616c616e636520666f6044820152651c8818d85b1b60d21b60648201526084016102c7565b6001600160a01b0385163b610f395760405162461bcd60e51b815260206004820152601d60248201527f416464726573733a2063616c6c20746f206e6f6e2d636f6e747261637400000060448201526064016102c7565b600080866001600160a01b03168587604051610f5591906113a9565b60006040518083038185875af1925050503d8060008114610f92576040519150601f19603f3d011682016040523d82523d6000602084013e610f97565b606091505b5091509150610fa7828286610fb2565b979650505050505050565b60608315610fc15750816105ce565b825115610fd15782518084602001fd5b8160405162461bcd60e51b81526004016102c791906113c5565b60008083601f840112610ffd57600080fd5b50813567ffffffffffffffff81111561101557600080fd5b6020830191508360208260051b850101111561103057600080fd5b9250929050565b6000806000806000806000806080898b03121561105357600080fd5b883567ffffffffffffffff8082111561106b57600080fd5b6110778c838d01610feb565b909a50985060208b013591508082111561109057600080fd5b61109c8c838d01610feb565b909850965060408b01359150808211156110b557600080fd5b6110c18c838d01610feb565b909650945060608b01359150808211156110da57600080fd5b506110e78b828c01610feb565b999c989b5096995094979396929594505050565b80356001600160a01b038116811461111257600080fd5b919050565b60006020828403121561112957600080fd5b6105ce826110fb565b801515811461097157600080fd5b6000806040838503121561115357600080fd5b61115c836110fb565b9150602083013561116c81611132565b809150509250929050565b6000806040838503121561118a57600080fd5b611193836110fb565b946020939093013593505050565b600080600080600080606087890312156111ba57600080fd5b863567ffffffffffffffff808211156111d257600080fd5b6111de8a838b01610feb565b909850965060208901359150808211156111f757600080fd5b6112038a838b01610feb565b9096509450604089013591508082111561121c57600080fd5b5061122989828a01610feb565b979a9699509497509295939492505050565b60008060006060848603121561125057600080fd5b611259846110fb565b95602085013595506040909401359392505050565b60006020828403121561128057600080fd5b5035919050565b6020808252818101527f4f776e61626c653a2063616c6c6572206973206e6f7420746865206f776e6572604082015260600190565b634e487b7160e01b600052603260045260246000fd5b6000808335601e198436030181126112e957600080fd5b83018035915067ffffffffffffffff82111561130457600080fd5b6020019150600581901b360382131561103057600080fd5b60006001820161133c57634e487b7160e01b600052601160045260246000fd5b5060010190565b60006020828403121561135557600080fd5b5051919050565b60006020828403121561136e57600080fd5b81516105ce81611132565b60005b8381101561139457818101518382015260200161137c565b838111156113a3576000848401525b50505050565b600082516113bb818460208701611379565b9190910192915050565b60208152600082518060208401526113e4816040850160208701611379565b601f01601f1916919091016040019291505056fea264697066735822122064aa7b7ee627d9c9facf37c329f85535921638e1b520a18f3d1054f2bc57237164736f6c634300080d0033",
          "opcodes": "PUSH1 0x80 PUSH1 0x40 MSTORE CALLVALUE DUP1 ISZERO PUSH2 0x10 JUMPI PUSH1 0x0 DUP1 REVERT JUMPDEST POP PUSH2 0x1A CALLER PUSH2 0x3E JUMP JUMPDEST PUSH1 0x1 DUP1 DUP1 SSTORE CALLER PUSH1 0x0 SWAP1 DUP2 MSTORE PUSH1 0x4 PUSH1 0x20 MSTORE PUSH1 0x40 SWAP1 KECCAK256 DUP1 SLOAD PUSH1 0xFF NOT AND SWAP1 SWAP2 OR SWAP1 SSTORE PUSH2 0x8E JUMP JUMPDEST PUSH1 0x0 DUP1 SLOAD PUSH1 0x1 PUSH1 0x1 PUSH1 0xA0 SHL SUB DUP4 DUP2 AND PUSH1 0x1 PUSH1 0x1 PUSH1 0xA0 SHL SUB NOT DUP4 AND DUP2 OR DUP5 SSTORE PUSH1 0x40 MLOAD SWAP2 SWAP1 SWAP3 AND SWAP3 DUP4 SWAP2 PUSH32 0x8BE0079C531659141344CD1FD0A4F28419497F9722A3DAAFE3B4186F6B6457E0 SWAP2 SWAP1 LOG3 POP POP JUMP JUMPDEST PUSH2 0x142E DUP1 PUSH2 0x9D PUSH1 0x0 CODECOPY PUSH1 0x0 RETURN INVALID PUSH1 0x80 PUSH1 0x40 MSTORE PUSH1 0x4 CALLDATASIZE LT PUSH2 0xA5 JUMPI PUSH1 0x0 CALLDATALOAD PUSH1 0xE0 SHR DUP1 PUSH4 0x8DA5CB5B GT PUSH2 0x61 JUMPI DUP1 PUSH4 0x8DA5CB5B EQ PUSH2 0x195 JUMPI DUP1 PUSH4 0xAD2FEC9E EQ PUSH2 0x1B3 JUMPI DUP1 PUSH4 0xCBE81C8C EQ PUSH2 0x1D3 JUMPI DUP1 PUSH4 0xDBD82687 EQ PUSH2 0x1F3 JUMPI DUP1 PUSH4 0xF2FDE38B EQ PUSH2 0x214 JUMPI DUP1 PUSH4 0xF301AF42 EQ PUSH2 0x234 JUMPI STOP JUMPDEST DUP1 PUSH4 0x227A72E9 EQ PUSH2 0xAE JUMPI DUP1 PUSH4 0x2F70D1BA EQ PUSH2 0xCE JUMPI DUP1 PUSH4 0x663DB6FF EQ PUSH2 0x113 JUMPI DUP1 PUSH4 0x6FF1C9BC EQ PUSH2 0x140 JUMPI DUP1 PUSH4 0x7041828E EQ PUSH2 0x160 JUMPI DUP1 PUSH4 0x715018A6 EQ PUSH2 0x180 JUMPI STOP JUMPDEST CALLDATASIZE PUSH2 0xAC JUMPI STOP JUMPDEST STOP JUMPDEST CALLVALUE DUP1 ISZERO PUSH2 0xBA JUMPI PUSH1 0x0 DUP1 REVERT JUMPDEST POP PUSH2 0xAC PUSH2 0xC9 CALLDATASIZE PUSH1 0x4 PUSH2 0x1037 JUMP JUMPDEST PUSH2 0x279 JUMP JUMPDEST CALLVALUE DUP1 ISZERO PUSH2 0xDA JUMPI PUSH1 0x0 DUP1 REVERT JUMPDEST POP PUSH2 0xFE PUSH2 0xE9 CALLDATASIZE PUSH1 0x4 PUSH2 0x1117 JUMP JUMPDEST PUSH1 0x4 PUSH1 0x20 MSTORE PUSH1 0x0 SWAP1 DUP2 MSTORE PUSH1 0x40 SWAP1 KECCAK256 SLOAD PUSH1 0xFF AND DUP2 JUMP JUMPDEST PUSH1 0x40 MLOAD SWAP1 ISZERO ISZERO DUP2 MSTORE PUSH1 0x20 ADD JUMPDEST PUSH1 0x40 MLOAD DUP1 SWAP2 SUB SWAP1 RETURN JUMPDEST CALLVALUE DUP1 ISZERO PUSH2 0x11F JUMPI PUSH1 0x0 DUP1 REVERT JUMPDEST POP PUSH2 0x128 PUSH1 0x0 DUP2 JUMP JUMPDEST PUSH1 0x40 MLOAD PUSH1 0x1 PUSH1 0x1 PUSH1 0xA0 SHL SUB SWAP1 SWAP2 AND DUP2 MSTORE PUSH1 0x20 ADD PUSH2 0x10A JUMP JUMPDEST CALLVALUE DUP1 ISZERO PUSH2 0x14C JUMPI PUSH1 0x0 DUP1 REVERT JUMPDEST POP PUSH2 0xAC PUSH2 0x15B CALLDATASIZE PUSH1 0x4 PUSH2 0x1117 JUMP JUMPDEST PUSH2 0x40A JUMP JUMPDEST CALLVALUE DUP1 ISZERO PUSH2 0x16C JUMPI PUSH1 0x0 DUP1 REVERT JUMPDEST POP PUSH2 0xAC PUSH2 0x17B CALLDATASIZE PUSH1 0x4 PUSH2 0x1140 JUMP JUMPDEST PUSH2 0x4D2 JUMP JUMPDEST CALLVALUE DUP1 ISZERO PUSH2 0x18C JUMPI PUSH1 0x0 DUP1 REVERT JUMPDEST POP PUSH2 0xAC PUSH2 0x58C JUMP JUMPDEST CALLVALUE DUP1 ISZERO PUSH2 0x1A1 JUMPI PUSH1 0x0 DUP1 REVERT JUMPDEST POP PUSH1 0x0 SLOAD PUSH1 0x1 PUSH1 0x1 PUSH1 0xA0 SHL SUB AND PUSH2 0x128 JUMP JUMPDEST CALLVALUE DUP1 ISZERO PUSH2 0x1BF JUMPI PUSH1 0x0 DUP1 REVERT JUMPDEST POP PUSH2 0xFE PUSH2 0x1CE CALLDATASIZE PUSH1 0x4 PUSH2 0x1177 JUMP JUMPDEST PUSH2 0x5C2 JUMP JUMPDEST CALLVALUE DUP1 ISZERO PUSH2 0x1DF JUMPI PUSH1 0x0 DUP1 REVERT JUMPDEST POP PUSH2 0xAC PUSH2 0x1EE CALLDATASIZE PUSH1 0x4 PUSH2 0x11A1 JUMP JUMPDEST PUSH2 0x5D5 JUMP JUMPDEST PUSH2 0x206 PUSH2 0x201 CALLDATASIZE PUSH1 0x4 PUSH2 0x123B JUMP JUMPDEST PUSH2 0x6BB JUMP JUMPDEST PUSH1 0x40 MLOAD SWAP1 DUP2 MSTORE PUSH1 0x20 ADD PUSH2 0x10A JUMP JUMPDEST CALLVALUE DUP1 ISZERO PUSH2 0x220 JUMPI PUSH1 0x0 DUP1 REVERT JUMPDEST POP PUSH2 0xAC PUSH2 0x22F CALLDATASIZE PUSH1 0x4 PUSH2 0x1117 JUMP JUMPDEST PUSH2 0x8D9 JUMP JUMPDEST CALLVALUE DUP1 ISZERO PUSH2 0x240 JUMPI PUSH1 0x0 DUP1 REVERT JUMPDEST POP PUSH2 0x254 PUSH2 0x24F CALLDATASIZE PUSH1 0x4 PUSH2 0x126E JUMP JUMPDEST PUSH2 0x974 JUMP JUMPDEST PUSH1 0x40 DUP1 MLOAD PUSH1 0x1 PUSH1 0x1 PUSH1 0xA0 SHL SUB SWAP1 SWAP5 AND DUP5 MSTORE PUSH1 0x20 DUP5 ADD SWAP3 SWAP1 SWAP3 MSTORE SWAP1 DUP3 ADD MSTORE PUSH1 0x60 ADD PUSH2 0x10A JUMP JUMPDEST PUSH1 0x2 PUSH1 0x1 SLOAD SUB PUSH2 0x2D0 JUMPI PUSH1 0x40 MLOAD PUSH3 0x461BCD PUSH1 0xE5 SHL DUP2 MSTORE PUSH1 0x20 PUSH1 0x4 DUP3 ADD MSTORE PUSH1 0x1F PUSH1 0x24 DUP3 ADD MSTORE PUSH32 0x5265656E7472616E637947756172643A207265656E7472616E742063616C6C00 PUSH1 0x44 DUP3 ADD MSTORE PUSH1 0x64 ADD JUMPDEST PUSH1 0x40 MLOAD DUP1 SWAP2 SUB SWAP1 REVERT JUMPDEST PUSH1 0x2 PUSH1 0x1 SSTORE PUSH1 0x0 SLOAD PUSH1 0x1 PUSH1 0x1 PUSH1 0xA0 SHL SUB AND CALLER EQ PUSH2 0x2FF JUMPI PUSH1 0x40 MLOAD PUSH3 0x461BCD PUSH1 0xE5 SHL DUP2 MSTORE PUSH1 0x4 ADD PUSH2 0x2C7 SWAP1 PUSH2 0x1287 JUMP JUMPDEST DUP7 DUP6 DUP2 EQ DUP1 ISZERO PUSH2 0x30E JUMPI POP DUP4 DUP2 EQ JUMPDEST DUP1 ISZERO PUSH2 0x319 JUMPI POP DUP2 DUP2 EQ JUMPDEST PUSH2 0x358 JUMPI PUSH1 0x40 MLOAD PUSH3 0x461BCD PUSH1 0xE5 SHL DUP2 MSTORE PUSH1 0x20 PUSH1 0x4 DUP3 ADD MSTORE PUSH1 0x10 PUSH1 0x24 DUP3 ADD MSTORE PUSH16 0x13115391D51217D393D517D154555053 PUSH1 0x82 SHL PUSH1 0x44 DUP3 ADD MSTORE PUSH1 0x64 ADD PUSH2 0x2C7 JUMP JUMPDEST PUSH1 0x0 JUMPDEST DUP2 DUP2 LT ISZERO PUSH2 0x3FA JUMPI PUSH2 0x3E8 DUP11 DUP11 DUP4 DUP2 DUP2 LT PUSH2 0x378 JUMPI PUSH2 0x378 PUSH2 0x12BC JUMP JUMPDEST SWAP1 POP PUSH1 0x20 MUL ADD PUSH1 0x20 DUP2 ADD SWAP1 PUSH2 0x38D SWAP2 SWAP1 PUSH2 0x1117 JUMP JUMPDEST DUP10 DUP10 DUP5 DUP2 DUP2 LT PUSH2 0x39F JUMPI PUSH2 0x39F PUSH2 0x12BC JUMP JUMPDEST SWAP1 POP PUSH1 0x20 MUL ADD CALLDATALOAD DUP9 DUP9 DUP6 DUP2 DUP2 LT PUSH2 0x3B8 JUMPI PUSH2 0x3B8 PUSH2 0x12BC JUMP JUMPDEST SWAP1 POP PUSH1 0x20 MUL ADD CALLDATALOAD DUP8 DUP8 DUP7 DUP2 DUP2 LT PUSH2 0x3D1 JUMPI PUSH2 0x3D1 PUSH2 0x12BC JUMP JUMPDEST SWAP1 POP PUSH1 0x20 MUL DUP2 ADD SWAP1 PUSH2 0x3E3 SWAP2 SWAP1 PUSH2 0x12D2 JUMP JUMPDEST PUSH2 0x9B1 JUMP JUMPDEST DUP1 PUSH2 0x3F2 DUP2 PUSH2 0x131C JUMP JUMPDEST SWAP2 POP POP PUSH2 0x35B JUMP JUMPDEST POP POP PUSH1 0x1 DUP1 SSTORE POP POP POP POP POP POP POP POP JUMP JUMPDEST PUSH1 0x0 SLOAD PUSH1 0x1 PUSH1 0x1 PUSH1 0xA0 SHL SUB AND CALLER EQ PUSH2 0x434 JUMPI PUSH1 0x40 MLOAD PUSH3 0x461BCD PUSH1 0xE5 SHL DUP2 MSTORE PUSH1 0x4 ADD PUSH2 0x2C7 SWAP1 PUSH2 0x1287 JUMP JUMPDEST PUSH1 0x0 PUSH1 0x1 PUSH1 0x1 PUSH1 0xA0 SHL SUB DUP3 AND PUSH2 0x454 JUMPI POP SELFBALANCE PUSH2 0x450 CALLER DUP3 PUSH2 0xB2B JUMP JUMPDEST POP POP JUMP JUMPDEST PUSH1 0x40 MLOAD PUSH4 0x70A08231 PUSH1 0xE0 SHL DUP2 MSTORE ADDRESS PUSH1 0x4 DUP3 ADD MSTORE PUSH1 0x1 PUSH1 0x1 PUSH1 0xA0 SHL SUB DUP4 AND SWAP1 PUSH4 0x70A08231 SWAP1 PUSH1 0x24 ADD PUSH1 0x20 PUSH1 0x40 MLOAD DUP1 DUP4 SUB DUP2 DUP7 GAS STATICCALL ISZERO DUP1 ISZERO PUSH2 0x498 JUMPI RETURNDATASIZE PUSH1 0x0 DUP1 RETURNDATACOPY RETURNDATASIZE PUSH1 0x0 REVERT JUMPDEST POP POP POP POP PUSH1 0x40 MLOAD RETURNDATASIZE PUSH1 0x1F NOT PUSH1 0x1F DUP3 ADD AND DUP3 ADD DUP1 PUSH1 0x40 MSTORE POP DUP2 ADD SWAP1 PUSH2 0x4BC SWAP2 SWAP1 PUSH2 0x1343 JUMP JUMPDEST SWAP1 POP PUSH2 0x450 PUSH1 0x1 PUSH1 0x1 PUSH1 0xA0 SHL SUB DUP4 AND CALLER DUP4 PUSH2 0xC49 JUMP JUMPDEST PUSH1 0x0 SLOAD PUSH1 0x1 PUSH1 0x1 PUSH1 0xA0 SHL SUB AND CALLER EQ PUSH2 0x4FC JUMPI PUSH1 0x40 MLOAD PUSH3 0x461BCD PUSH1 0xE5 SHL DUP2 MSTORE PUSH1 0x4 ADD PUSH2 0x2C7 SWAP1 PUSH2 0x1287 JUMP JUMPDEST PUSH1 0x1 PUSH1 0x1 PUSH1 0xA0 SHL SUB DUP3 AND PUSH1 0x0 SWAP1 DUP2 MSTORE PUSH1 0x4 PUSH1 0x20 MSTORE PUSH1 0x40 SWAP1 KECCAK256 SLOAD PUSH1 0xFF AND DUP2 ISZERO ISZERO DUP2 ISZERO ISZERO SUB PUSH2 0x560 JUMPI PUSH1 0x40 MLOAD PUSH3 0x461BCD PUSH1 0xE5 SHL DUP2 MSTORE PUSH1 0x20 PUSH1 0x4 DUP3 ADD MSTORE PUSH1 0x12 PUSH1 0x24 DUP3 ADD MSTORE PUSH18 0x14D510551554D7D393D517D0D2105391D151 PUSH1 0x72 SHL PUSH1 0x44 DUP3 ADD MSTORE PUSH1 0x64 ADD PUSH2 0x2C7 JUMP JUMPDEST POP PUSH1 0x1 PUSH1 0x1 PUSH1 0xA0 SHL SUB SWAP2 SWAP1 SWAP2 AND PUSH1 0x0 SWAP1 DUP2 MSTORE PUSH1 0x4 PUSH1 0x20 MSTORE PUSH1 0x40 SWAP1 KECCAK256 DUP1 SLOAD PUSH1 0xFF NOT AND SWAP2 ISZERO ISZERO SWAP2 SWAP1 SWAP2 OR SWAP1 SSTORE JUMP JUMPDEST PUSH1 0x0 SLOAD PUSH1 0x1 PUSH1 0x1 PUSH1 0xA0 SHL SUB AND CALLER EQ PUSH2 0x5B6 JUMPI PUSH1 0x40 MLOAD PUSH3 0x461BCD PUSH1 0xE5 SHL DUP2 MSTORE PUSH1 0x4 ADD PUSH2 0x2C7 SWAP1 PUSH2 0x1287 JUMP JUMPDEST PUSH2 0x5C0 PUSH1 0x0 PUSH2 0xC9B JUMP JUMPDEST JUMP JUMPDEST PUSH1 0x0 PUSH2 0x5CE DUP4 DUP4 PUSH2 0xCEB JUMP JUMPDEST SWAP4 SWAP3 POP POP POP JUMP JUMPDEST PUSH1 0x2 PUSH1 0x1 SLOAD SUB PUSH2 0x627 JUMPI PUSH1 0x40 MLOAD PUSH3 0x461BCD PUSH1 0xE5 SHL DUP2 MSTORE PUSH1 0x20 PUSH1 0x4 DUP3 ADD MSTORE PUSH1 0x1F PUSH1 0x24 DUP3 ADD MSTORE PUSH32 0x5265656E7472616E637947756172643A207265656E7472616E742063616C6C00 PUSH1 0x44 DUP3 ADD MSTORE PUSH1 0x64 ADD PUSH2 0x2C7 JUMP JUMPDEST PUSH1 0x2 PUSH1 0x1 SSTORE DUP5 DUP4 DUP2 EQ DUP1 ISZERO PUSH2 0x63B JUMPI POP DUP2 DUP2 EQ JUMPDEST PUSH2 0x67A JUMPI PUSH1 0x40 MLOAD PUSH3 0x461BCD PUSH1 0xE5 SHL DUP2 MSTORE PUSH1 0x20 PUSH1 0x4 DUP3 ADD MSTORE PUSH1 0x10 PUSH1 0x24 DUP3 ADD MSTORE PUSH16 0x13115391D51217D393D517D154555053 PUSH1 0x82 SHL PUSH1 0x44 DUP3 ADD MSTORE PUSH1 0x64 ADD PUSH2 0x2C7 JUMP JUMPDEST PUSH1 0x0 JUMPDEST DUP2 DUP2 LT ISZERO PUSH2 0x6AD JUMPI PUSH2 0x69B CALLER DUP10 DUP10 DUP5 DUP2 DUP2 LT PUSH2 0x39F JUMPI PUSH2 0x39F PUSH2 0x12BC JUMP JUMPDEST DUP1 PUSH2 0x6A5 DUP2 PUSH2 0x131C JUMP JUMPDEST SWAP2 POP POP PUSH2 0x67D JUMP JUMPDEST POP POP PUSH1 0x1 DUP1 SSTORE POP POP POP POP POP POP JUMP JUMPDEST CALLER PUSH1 0x0 SWAP1 DUP2 MSTORE PUSH1 0x4 PUSH1 0x20 MSTORE PUSH1 0x40 DUP2 KECCAK256 SLOAD PUSH1 0xFF AND PUSH2 0x709 JUMPI PUSH1 0x40 MLOAD PUSH3 0x461BCD PUSH1 0xE5 SHL DUP2 MSTORE PUSH1 0x20 PUSH1 0x4 DUP3 ADD MSTORE PUSH1 0xC PUSH1 0x24 DUP3 ADD MSTORE PUSH12 0x15539055551213D492569151 PUSH1 0xA2 SHL PUSH1 0x44 DUP3 ADD MSTORE PUSH1 0x64 ADD PUSH2 0x2C7 JUMP JUMPDEST DUP3 PUSH1 0x0 SUB PUSH2 0x744 JUMPI PUSH1 0x40 MLOAD PUSH3 0x461BCD PUSH1 0xE5 SHL DUP2 MSTORE PUSH1 0x20 PUSH1 0x4 DUP3 ADD MSTORE PUSH1 0x8 PUSH1 0x24 DUP3 ADD MSTORE PUSH8 0x414D4F554E545F3 PUSH1 0xC4 SHL PUSH1 0x44 DUP3 ADD MSTORE PUSH1 0x64 ADD PUSH2 0x2C7 JUMP JUMPDEST PUSH1 0x1 PUSH1 0x1 PUSH1 0xA0 SHL SUB DUP5 AND PUSH2 0x798 JUMPI DUP3 CALLVALUE EQ PUSH2 0x793 JUMPI PUSH1 0x40 MLOAD PUSH3 0x461BCD PUSH1 0xE5 SHL DUP2 MSTORE PUSH1 0x20 PUSH1 0x4 DUP3 ADD MSTORE PUSH1 0xF PUSH1 0x24 DUP3 ADD MSTORE PUSH15 0x57524F4E475F4D53472E56414C5545 PUSH1 0x88 SHL PUSH1 0x44 DUP3 ADD MSTORE PUSH1 0x64 ADD PUSH2 0x2C7 JUMP JUMPDEST PUSH2 0x811 JUMP JUMPDEST PUSH1 0x40 MLOAD PUSH4 0x23B872DD PUSH1 0xE0 SHL DUP2 MSTORE CALLER PUSH1 0x4 DUP3 ADD MSTORE ADDRESS PUSH1 0x24 DUP3 ADD MSTORE PUSH1 0x44 DUP2 ADD DUP5 SWAP1 MSTORE PUSH1 0x1 PUSH1 0x1 PUSH1 0xA0 SHL SUB DUP6 AND SWAP1 PUSH4 0x23B872DD SWAP1 PUSH1 0x64 ADD PUSH1 0x20 PUSH1 0x40 MLOAD DUP1 DUP4 SUB DUP2 PUSH1 0x0 DUP8 GAS CALL ISZERO DUP1 ISZERO PUSH2 0x7EB JUMPI RETURNDATASIZE PUSH1 0x0 DUP1 RETURNDATACOPY RETURNDATASIZE PUSH1 0x0 REVERT JUMPDEST POP POP POP POP PUSH1 0x40 MLOAD RETURNDATASIZE PUSH1 0x1F NOT PUSH1 0x1F DUP3 ADD AND DUP3 ADD DUP1 PUSH1 0x40 MSTORE POP DUP2 ADD SWAP1 PUSH2 0x80F SWAP2 SWAP1 PUSH2 0x135C JUMP JUMPDEST POP JUMPDEST POP PUSH1 0x2 DUP1 SLOAD PUSH1 0x40 DUP1 MLOAD PUSH1 0x60 DUP2 ADD DUP3 MSTORE PUSH1 0x1 PUSH1 0x1 PUSH1 0xA0 SHL SUB SWAP7 DUP8 AND DUP2 MSTORE PUSH1 0x20 DUP2 ADD SWAP6 DUP7 MSTORE SWAP1 DUP2 ADD SWAP4 DUP5 MSTORE PUSH1 0x1 DUP3 ADD DUP4 SSTORE PUSH1 0x0 SWAP3 SWAP1 SWAP3 MSTORE SWAP1 MLOAD PUSH32 0x405787FA12A823E0F2B7631CC41B3BA8828B3321CA811111FA75CD3AA3BB5ACE PUSH1 0x3 DUP4 MUL SWAP1 DUP2 ADD DUP1 SLOAD PUSH1 0x1 PUSH1 0x1 PUSH1 0xA0 SHL SUB NOT AND SWAP3 SWAP1 SWAP7 AND SWAP2 SWAP1 SWAP2 OR SWAP1 SWAP5 SSTORE SWAP2 MLOAD PUSH32 0x405787FA12A823E0F2B7631CC41B3BA8828B3321CA811111FA75CD3AA3BB5ACF DUP5 ADD SSTORE MLOAD PUSH32 0x405787FA12A823E0F2B7631CC41B3BA8828B3321CA811111FA75CD3AA3BB5AD0 SWAP1 SWAP3 ADD SWAP2 SWAP1 SWAP2 SSTORE SWAP1 JUMP JUMPDEST PUSH1 0x0 SLOAD PUSH1 0x1 PUSH1 0x1 PUSH1 0xA0 SHL SUB AND CALLER EQ PUSH2 0x903 JUMPI PUSH1 0x40 MLOAD PUSH3 0x461BCD PUSH1 0xE5 SHL DUP2 MSTORE PUSH1 0x4 ADD PUSH2 0x2C7 SWAP1 PUSH2 0x1287 JUMP JUMPDEST PUSH1 0x1 PUSH1 0x1 PUSH1 0xA0 SHL SUB DUP2 AND PUSH2 0x968 JUMPI PUSH1 0x40 MLOAD PUSH3 0x461BCD PUSH1 0xE5 SHL DUP2 MSTORE PUSH1 0x20 PUSH1 0x4 DUP3 ADD MSTORE PUSH1 0x26 PUSH1 0x24 DUP3 ADD MSTORE PUSH32 0x4F776E61626C653A206E6577206F776E657220697320746865207A65726F2061 PUSH1 0x44 DUP3 ADD MSTORE PUSH6 0x646472657373 PUSH1 0xD0 SHL PUSH1 0x64 DUP3 ADD MSTORE PUSH1 0x84 ADD PUSH2 0x2C7 JUMP JUMPDEST PUSH2 0x971 DUP2 PUSH2 0xC9B JUMP JUMPDEST POP JUMP JUMPDEST PUSH1 0x2 DUP2 DUP2 SLOAD DUP2 LT PUSH2 0x984 JUMPI PUSH1 0x0 DUP1 REVERT JUMPDEST PUSH1 0x0 SWAP2 DUP3 MSTORE PUSH1 0x20 SWAP1 SWAP2 KECCAK256 PUSH1 0x3 SWAP1 SWAP2 MUL ADD DUP1 SLOAD PUSH1 0x1 DUP3 ADD SLOAD PUSH1 0x2 SWAP1 SWAP3 ADD SLOAD PUSH1 0x1 PUSH1 0x1 PUSH1 0xA0 SHL SUB SWAP1 SWAP2 AND SWAP3 POP DUP4 JUMP JUMPDEST PUSH1 0x40 MLOAD PUSH12 0xFFFFFFFFFFFFFFFFFFFFFFFF NOT PUSH1 0x60 DUP8 SWAP1 SHL AND PUSH1 0x20 DUP3 ADD MSTORE PUSH1 0x34 DUP2 ADD DUP5 SWAP1 MSTORE PUSH1 0x0 SWAP1 PUSH1 0x54 ADD PUSH1 0x40 MLOAD PUSH1 0x20 DUP2 DUP4 SUB SUB DUP2 MSTORE SWAP1 PUSH1 0x40 MSTORE DUP1 MLOAD SWAP1 PUSH1 0x20 ADD KECCAK256 SWAP1 POP PUSH1 0x0 PUSH1 0x2 DUP7 DUP2 SLOAD DUP2 LT PUSH2 0xA07 JUMPI PUSH2 0xA07 PUSH2 0x12BC JUMP JUMPDEST SWAP1 PUSH1 0x0 MSTORE PUSH1 0x20 PUSH1 0x0 KECCAK256 SWAP1 PUSH1 0x3 MUL ADD SWAP1 POP PUSH2 0xA21 DUP8 DUP8 PUSH2 0xCEB JUMP JUMPDEST ISZERO PUSH2 0xA60 JUMPI PUSH1 0x40 MLOAD PUSH3 0x461BCD PUSH1 0xE5 SHL DUP2 MSTORE PUSH1 0x20 PUSH1 0x4 DUP3 ADD MSTORE PUSH1 0xF PUSH1 0x24 DUP3 ADD MSTORE PUSH15 0x1053149150511657D0D31052535151 PUSH1 0x8A SHL PUSH1 0x44 DUP3 ADD MSTORE PUSH1 0x64 ADD PUSH2 0x2C7 JUMP JUMPDEST PUSH2 0xA70 DUP5 DUP5 DUP4 PUSH1 0x2 ADD SLOAD DUP6 PUSH2 0xD22 JUMP JUMPDEST PUSH2 0xAB2 JUMPI PUSH1 0x40 MLOAD PUSH3 0x461BCD PUSH1 0xE5 SHL DUP2 MSTORE PUSH1 0x20 PUSH1 0x4 DUP3 ADD MSTORE PUSH1 0x13 PUSH1 0x24 DUP3 ADD MSTORE PUSH19 0x15915492519250D0551253D397D19052531151 PUSH1 0x6A SHL PUSH1 0x44 DUP3 ADD MSTORE PUSH1 0x64 ADD PUSH2 0x2C7 JUMP JUMPDEST PUSH1 0x1 PUSH1 0x1 PUSH1 0xA0 SHL SUB DUP8 AND PUSH1 0x0 SWAP1 DUP2 MSTORE PUSH1 0x3 PUSH1 0x20 SWAP1 DUP2 MSTORE PUSH1 0x40 DUP1 DUP4 KECCAK256 PUSH1 0x8 DUP11 SWAP1 SHR DUP5 MSTORE SWAP1 SWAP2 MSTORE SWAP1 KECCAK256 DUP1 SLOAD PUSH1 0x1 PUSH1 0xFF DUP10 AND SHL OR SWAP1 SSTORE DUP1 SLOAD PUSH1 0x1 PUSH1 0x1 PUSH1 0xA0 SHL SUB AND DUP1 PUSH2 0xB0D JUMPI PUSH2 0xB08 PUSH1 0x1 PUSH1 0x1 PUSH1 0xA0 SHL SUB DUP10 AND DUP8 PUSH2 0xB2B JUMP JUMPDEST PUSH2 0xB21 JUMP JUMPDEST PUSH2 0xB21 PUSH1 0x1 PUSH1 0x1 PUSH1 0xA0 SHL SUB DUP3 AND DUP10 DUP9 PUSH2 0xC49 JUMP JUMPDEST POP POP POP POP POP POP POP POP JUMP JUMPDEST DUP1 SELFBALANCE LT ISZERO PUSH2 0xB7B JUMPI PUSH1 0x40 MLOAD PUSH3 0x461BCD PUSH1 0xE5 SHL DUP2 MSTORE PUSH1 0x20 PUSH1 0x4 DUP3 ADD MSTORE PUSH1 0x1D PUSH1 0x24 DUP3 ADD MSTORE PUSH32 0x416464726573733A20696E73756666696369656E742062616C616E6365000000 PUSH1 0x44 DUP3 ADD MSTORE PUSH1 0x64 ADD PUSH2 0x2C7 JUMP JUMPDEST PUSH1 0x0 DUP3 PUSH1 0x1 PUSH1 0x1 PUSH1 0xA0 SHL SUB AND DUP3 PUSH1 0x40 MLOAD PUSH1 0x0 PUSH1 0x40 MLOAD DUP1 DUP4 SUB DUP2 DUP6 DUP8 GAS CALL SWAP3 POP POP POP RETURNDATASIZE DUP1 PUSH1 0x0 DUP2 EQ PUSH2 0xBC8 JUMPI PUSH1 0x40 MLOAD SWAP2 POP PUSH1 0x1F NOT PUSH1 0x3F RETURNDATASIZE ADD AND DUP3 ADD PUSH1 0x40 MSTORE RETURNDATASIZE DUP3 MSTORE RETURNDATASIZE PUSH1 0x0 PUSH1 0x20 DUP5 ADD RETURNDATACOPY PUSH2 0xBCD JUMP JUMPDEST PUSH1 0x60 SWAP2 POP JUMPDEST POP POP SWAP1 POP DUP1 PUSH2 0xC44 JUMPI PUSH1 0x40 MLOAD PUSH3 0x461BCD PUSH1 0xE5 SHL DUP2 MSTORE PUSH1 0x20 PUSH1 0x4 DUP3 ADD MSTORE PUSH1 0x3A PUSH1 0x24 DUP3 ADD MSTORE PUSH32 0x416464726573733A20756E61626C6520746F2073656E642076616C75652C2072 PUSH1 0x44 DUP3 ADD MSTORE PUSH32 0x6563697069656E74206D61792068617665207265766572746564000000000000 PUSH1 0x64 DUP3 ADD MSTORE PUSH1 0x84 ADD PUSH2 0x2C7 JUMP JUMPDEST POP POP POP JUMP JUMPDEST PUSH1 0x40 DUP1 MLOAD PUSH1 0x1 PUSH1 0x1 PUSH1 0xA0 SHL SUB DUP5 AND PUSH1 0x24 DUP3 ADD MSTORE PUSH1 0x44 DUP1 DUP3 ADD DUP5 SWAP1 MSTORE DUP3 MLOAD DUP1 DUP4 SUB SWAP1 SWAP2 ADD DUP2 MSTORE PUSH1 0x64 SWAP1 SWAP2 ADD SWAP1 SWAP2 MSTORE PUSH1 0x20 DUP2 ADD DUP1 MLOAD PUSH1 0x1 PUSH1 0x1 PUSH1 0xE0 SHL SUB AND PUSH4 0xA9059CBB PUSH1 0xE0 SHL OR SWAP1 MSTORE PUSH2 0xC44 SWAP1 DUP5 SWAP1 PUSH2 0xD98 JUMP JUMPDEST PUSH1 0x0 DUP1 SLOAD PUSH1 0x1 PUSH1 0x1 PUSH1 0xA0 SHL SUB DUP4 DUP2 AND PUSH1 0x1 PUSH1 0x1 PUSH1 0xA0 SHL SUB NOT DUP4 AND DUP2 OR DUP5 SSTORE PUSH1 0x40 MLOAD SWAP2 SWAP1 SWAP3 AND SWAP3 DUP4 SWAP2 PUSH32 0x8BE0079C531659141344CD1FD0A4F28419497F9722A3DAAFE3B4186F6B6457E0 SWAP2 SWAP1 LOG3 POP POP JUMP JUMPDEST PUSH1 0x1 PUSH1 0x1 PUSH1 0xA0 SHL SUB DUP3 AND PUSH1 0x0 SWAP1 DUP2 MSTORE PUSH1 0x3 PUSH1 0x20 SWAP1 DUP2 MSTORE PUSH1 0x40 DUP1 DUP4 KECCAK256 PUSH1 0x8 DUP6 SWAP1 SHR DUP5 MSTORE SWAP1 SWAP2 MSTORE DUP2 KECCAK256 SLOAD PUSH1 0x1 PUSH1 0xFF DUP5 AND SHL AND ISZERO ISZERO PUSH2 0x5CE JUMP JUMPDEST PUSH1 0x0 DUP2 DUP2 JUMPDEST DUP6 DUP2 LT ISZERO PUSH2 0xD8C JUMPI PUSH1 0x0 DUP8 DUP8 DUP4 DUP2 DUP2 LT PUSH2 0xD43 JUMPI PUSH2 0xD43 PUSH2 0x12BC JUMP JUMPDEST SWAP1 POP PUSH1 0x20 MUL ADD CALLDATALOAD SWAP1 POP DUP1 DUP4 GT PUSH2 0xD68 JUMPI PUSH1 0x0 DUP4 DUP2 MSTORE PUSH1 0x20 DUP3 SWAP1 MSTORE PUSH1 0x40 SWAP1 KECCAK256 SWAP3 POP PUSH2 0xD79 JUMP JUMPDEST PUSH1 0x0 DUP2 DUP2 MSTORE PUSH1 0x20 DUP5 SWAP1 MSTORE PUSH1 0x40 SWAP1 KECCAK256 SWAP3 POP JUMPDEST POP DUP1 PUSH2 0xD84 DUP2 PUSH2 0x131C JUMP JUMPDEST SWAP2 POP POP PUSH2 0xD27 JUMP JUMPDEST POP SWAP1 SWAP3 EQ SWAP5 SWAP4 POP POP POP POP JUMP JUMPDEST PUSH1 0x0 PUSH2 0xDED DUP3 PUSH1 0x40 MLOAD DUP1 PUSH1 0x40 ADD PUSH1 0x40 MSTORE DUP1 PUSH1 0x20 DUP2 MSTORE PUSH1 0x20 ADD PUSH32 0x5361666545524332303A206C6F772D6C6576656C2063616C6C206661696C6564 DUP2 MSTORE POP DUP6 PUSH1 0x1 PUSH1 0x1 PUSH1 0xA0 SHL SUB AND PUSH2 0xE6A SWAP1 SWAP3 SWAP2 SWAP1 PUSH4 0xFFFFFFFF AND JUMP JUMPDEST DUP1 MLOAD SWAP1 SWAP2 POP ISZERO PUSH2 0xC44 JUMPI DUP1 DUP1 PUSH1 0x20 ADD SWAP1 MLOAD DUP2 ADD SWAP1 PUSH2 0xE0B SWAP2 SWAP1 PUSH2 0x135C JUMP JUMPDEST PUSH2 0xC44 JUMPI PUSH1 0x40 MLOAD PUSH3 0x461BCD PUSH1 0xE5 SHL DUP2 MSTORE PUSH1 0x20 PUSH1 0x4 DUP3 ADD MSTORE PUSH1 0x2A PUSH1 0x24 DUP3 ADD MSTORE PUSH32 0x5361666545524332303A204552433230206F7065726174696F6E20646964206E PUSH1 0x44 DUP3 ADD MSTORE PUSH10 0x1BDD081CDD58D8D95959 PUSH1 0xB2 SHL PUSH1 0x64 DUP3 ADD MSTORE PUSH1 0x84 ADD PUSH2 0x2C7 JUMP JUMPDEST PUSH1 0x60 PUSH2 0xE79 DUP5 DUP5 PUSH1 0x0 DUP6 PUSH2 0xE81 JUMP JUMPDEST SWAP5 SWAP4 POP POP POP POP JUMP JUMPDEST PUSH1 0x60 DUP3 SELFBALANCE LT ISZERO PUSH2 0xEE2 JUMPI PUSH1 0x40 MLOAD PUSH3 0x461BCD PUSH1 0xE5 SHL DUP2 MSTORE PUSH1 0x20 PUSH1 0x4 DUP3 ADD MSTORE PUSH1 0x26 PUSH1 0x24 DUP3 ADD MSTORE PUSH32 0x416464726573733A20696E73756666696369656E742062616C616E636520666F PUSH1 0x44 DUP3 ADD MSTORE PUSH6 0x1C8818D85B1B PUSH1 0xD2 SHL PUSH1 0x64 DUP3 ADD MSTORE PUSH1 0x84 ADD PUSH2 0x2C7 JUMP JUMPDEST PUSH1 0x1 PUSH1 0x1 PUSH1 0xA0 SHL SUB DUP6 AND EXTCODESIZE PUSH2 0xF39 JUMPI PUSH1 0x40 MLOAD PUSH3 0x461BCD PUSH1 0xE5 SHL DUP2 MSTORE PUSH1 0x20 PUSH1 0x4 DUP3 ADD MSTORE PUSH1 0x1D PUSH1 0x24 DUP3 ADD MSTORE PUSH32 0x416464726573733A2063616C6C20746F206E6F6E2D636F6E7472616374000000 PUSH1 0x44 DUP3 ADD MSTORE PUSH1 0x64 ADD PUSH2 0x2C7 JUMP JUMPDEST PUSH1 0x0 DUP1 DUP7 PUSH1 0x1 PUSH1 0x1 PUSH1 0xA0 SHL SUB AND DUP6 DUP8 PUSH1 0x40 MLOAD PUSH2 0xF55 SWAP2 SWAP1 PUSH2 0x13A9 JUMP JUMPDEST PUSH1 0x0 PUSH1 0x40 MLOAD DUP1 DUP4 SUB DUP2 DUP6 DUP8 GAS CALL SWAP3 POP POP POP RETURNDATASIZE DUP1 PUSH1 0x0 DUP2 EQ PUSH2 0xF92 JUMPI PUSH1 0x40 MLOAD SWAP2 POP PUSH1 0x1F NOT PUSH1 0x3F RETURNDATASIZE ADD AND DUP3 ADD PUSH1 0x40 MSTORE RETURNDATASIZE DUP3 MSTORE RETURNDATASIZE PUSH1 0x0 PUSH1 0x20 DUP5 ADD RETURNDATACOPY PUSH2 0xF97 JUMP JUMPDEST PUSH1 0x60 SWAP2 POP JUMPDEST POP SWAP2 POP SWAP2 POP PUSH2 0xFA7 DUP3 DUP3 DUP7 PUSH2 0xFB2 JUMP JUMPDEST SWAP8 SWAP7 POP POP POP POP POP POP POP JUMP JUMPDEST PUSH1 0x60 DUP4 ISZERO PUSH2 0xFC1 JUMPI POP DUP2 PUSH2 0x5CE JUMP JUMPDEST DUP3 MLOAD ISZERO PUSH2 0xFD1 JUMPI DUP3 MLOAD DUP1 DUP5 PUSH1 0x20 ADD REVERT JUMPDEST DUP2 PUSH1 0x40 MLOAD PUSH3 0x461BCD PUSH1 0xE5 SHL DUP2 MSTORE PUSH1 0x4 ADD PUSH2 0x2C7 SWAP2 SWAP1 PUSH2 0x13C5 JUMP JUMPDEST PUSH1 0x0 DUP1 DUP4 PUSH1 0x1F DUP5 ADD SLT PUSH2 0xFFD JUMPI PUSH1 0x0 DUP1 REVERT JUMPDEST POP DUP2 CALLDATALOAD PUSH8 0xFFFFFFFFFFFFFFFF DUP2 GT ISZERO PUSH2 0x1015 JUMPI PUSH1 0x0 DUP1 REVERT JUMPDEST PUSH1 0x20 DUP4 ADD SWAP2 POP DUP4 PUSH1 0x20 DUP3 PUSH1 0x5 SHL DUP6 ADD ADD GT ISZERO PUSH2 0x1030 JUMPI PUSH1 0x0 DUP1 REVERT JUMPDEST SWAP3 POP SWAP3 SWAP1 POP JUMP JUMPDEST PUSH1 0x0 DUP1 PUSH1 0x0 DUP1 PUSH1 0x0 DUP1 PUSH1 0x0 DUP1 PUSH1 0x80 DUP10 DUP12 SUB SLT ISZERO PUSH2 0x1053 JUMPI PUSH1 0x0 DUP1 REVERT JUMPDEST DUP9 CALLDATALOAD PUSH8 0xFFFFFFFFFFFFFFFF DUP1 DUP3 GT ISZERO PUSH2 0x106B JUMPI PUSH1 0x0 DUP1 REVERT JUMPDEST PUSH2 0x1077 DUP13 DUP4 DUP14 ADD PUSH2 0xFEB JUMP JUMPDEST SWAP1 SWAP11 POP SWAP9 POP PUSH1 0x20 DUP12 ADD CALLDATALOAD SWAP2 POP DUP1 DUP3 GT ISZERO PUSH2 0x1090 JUMPI PUSH1 0x0 DUP1 REVERT JUMPDEST PUSH2 0x109C DUP13 DUP4 DUP14 ADD PUSH2 0xFEB JUMP JUMPDEST SWAP1 SWAP9 POP SWAP7 POP PUSH1 0x40 DUP12 ADD CALLDATALOAD SWAP2 POP DUP1 DUP3 GT ISZERO PUSH2 0x10B5 JUMPI PUSH1 0x0 DUP1 REVERT JUMPDEST PUSH2 0x10C1 DUP13 DUP4 DUP14 ADD PUSH2 0xFEB JUMP JUMPDEST SWAP1 SWAP7 POP SWAP5 POP PUSH1 0x60 DUP12 ADD CALLDATALOAD SWAP2 POP DUP1 DUP3 GT ISZERO PUSH2 0x10DA JUMPI PUSH1 0x0 DUP1 REVERT JUMPDEST POP PUSH2 0x10E7 DUP12 DUP3 DUP13 ADD PUSH2 0xFEB JUMP JUMPDEST SWAP10 SWAP13 SWAP9 SWAP12 POP SWAP7 SWAP10 POP SWAP5 SWAP8 SWAP4 SWAP7 SWAP3 SWAP6 SWAP5 POP POP POP JUMP JUMPDEST DUP1 CALLDATALOAD PUSH1 0x1 PUSH1 0x1 PUSH1 0xA0 SHL SUB DUP2 AND DUP2 EQ PUSH2 0x1112 JUMPI PUSH1 0x0 DUP1 REVERT JUMPDEST SWAP2 SWAP1 POP JUMP JUMPDEST PUSH1 0x0 PUSH1 0x20 DUP3 DUP5 SUB SLT ISZERO PUSH2 0x1129 JUMPI PUSH1 0x0 DUP1 REVERT JUMPDEST PUSH2 0x5CE DUP3 PUSH2 0x10FB JUMP JUMPDEST DUP1 ISZERO ISZERO DUP2 EQ PUSH2 0x971 JUMPI PUSH1 0x0 DUP1 REVERT JUMPDEST PUSH1 0x0 DUP1 PUSH1 0x40 DUP4 DUP6 SUB SLT ISZERO PUSH2 0x1153 JUMPI PUSH1 0x0 DUP1 REVERT JUMPDEST PUSH2 0x115C DUP4 PUSH2 0x10FB JUMP JUMPDEST SWAP2 POP PUSH1 0x20 DUP4 ADD CALLDATALOAD PUSH2 0x116C DUP2 PUSH2 0x1132 JUMP JUMPDEST DUP1 SWAP2 POP POP SWAP3 POP SWAP3 SWAP1 POP JUMP JUMPDEST PUSH1 0x0 DUP1 PUSH1 0x40 DUP4 DUP6 SUB SLT ISZERO PUSH2 0x118A JUMPI PUSH1 0x0 DUP1 REVERT JUMPDEST PUSH2 0x1193 DUP4 PUSH2 0x10FB JUMP JUMPDEST SWAP5 PUSH1 0x20 SWAP4 SWAP1 SWAP4 ADD CALLDATALOAD SWAP4 POP POP POP JUMP JUMPDEST PUSH1 0x0 DUP1 PUSH1 0x0 DUP1 PUSH1 0x0 DUP1 PUSH1 0x60 DUP8 DUP10 SUB SLT ISZERO PUSH2 0x11BA JUMPI PUSH1 0x0 DUP1 REVERT JUMPDEST DUP7 CALLDATALOAD PUSH8 0xFFFFFFFFFFFFFFFF DUP1 DUP3 GT ISZERO PUSH2 0x11D2 JUMPI PUSH1 0x0 DUP1 REVERT JUMPDEST PUSH2 0x11DE DUP11 DUP4 DUP12 ADD PUSH2 0xFEB JUMP JUMPDEST SWAP1 SWAP9 POP SWAP7 POP PUSH1 0x20 DUP10 ADD CALLDATALOAD SWAP2 POP DUP1 DUP3 GT ISZERO PUSH2 0x11F7 JUMPI PUSH1 0x0 DUP1 REVERT JUMPDEST PUSH2 0x1203 DUP11 DUP4 DUP12 ADD PUSH2 0xFEB JUMP JUMPDEST SWAP1 SWAP7 POP SWAP5 POP PUSH1 0x40 DUP10 ADD CALLDATALOAD SWAP2 POP DUP1 DUP3 GT ISZERO PUSH2 0x121C JUMPI PUSH1 0x0 DUP1 REVERT JUMPDEST POP PUSH2 0x1229 DUP10 DUP3 DUP11 ADD PUSH2 0xFEB JUMP JUMPDEST SWAP8 SWAP11 SWAP7 SWAP10 POP SWAP5 SWAP8 POP SWAP3 SWAP6 SWAP4 SWAP5 SWAP3 POP POP POP JUMP JUMPDEST PUSH1 0x0 DUP1 PUSH1 0x0 PUSH1 0x60 DUP5 DUP7 SUB SLT ISZERO PUSH2 0x1250 JUMPI PUSH1 0x0 DUP1 REVERT JUMPDEST PUSH2 0x1259 DUP5 PUSH2 0x10FB JUMP JUMPDEST SWAP6 PUSH1 0x20 DUP6 ADD CALLDATALOAD SWAP6 POP PUSH1 0x40 SWAP1 SWAP5 ADD CALLDATALOAD SWAP4 SWAP3 POP POP POP JUMP JUMPDEST PUSH1 0x0 PUSH1 0x20 DUP3 DUP5 SUB SLT ISZERO PUSH2 0x1280 JUMPI PUSH1 0x0 DUP1 REVERT JUMPDEST POP CALLDATALOAD SWAP2 SWAP1 POP JUMP JUMPDEST PUSH1 0x20 DUP1 DUP3 MSTORE DUP2 DUP2 ADD MSTORE PUSH32 0x4F776E61626C653A2063616C6C6572206973206E6F7420746865206F776E6572 PUSH1 0x40 DUP3 ADD MSTORE PUSH1 0x60 ADD SWAP1 JUMP JUMPDEST PUSH4 0x4E487B71 PUSH1 0xE0 SHL PUSH1 0x0 MSTORE PUSH1 0x32 PUSH1 0x4 MSTORE PUSH1 0x24 PUSH1 0x0 REVERT JUMPDEST PUSH1 0x0 DUP1 DUP4 CALLDATALOAD PUSH1 0x1E NOT DUP5 CALLDATASIZE SUB ADD DUP2 SLT PUSH2 0x12E9 JUMPI PUSH1 0x0 DUP1 REVERT JUMPDEST DUP4 ADD DUP1 CALLDATALOAD SWAP2 POP PUSH8 0xFFFFFFFFFFFFFFFF DUP3 GT ISZERO PUSH2 0x1304 JUMPI PUSH1 0x0 DUP1 REVERT JUMPDEST PUSH1 0x20 ADD SWAP2 POP PUSH1 0x5 DUP2 SWAP1 SHL CALLDATASIZE SUB DUP3 SGT ISZERO PUSH2 0x1030 JUMPI PUSH1 0x0 DUP1 REVERT JUMPDEST PUSH1 0x0 PUSH1 0x1 DUP3 ADD PUSH2 0x133C JUMPI PUSH4 0x4E487B71 PUSH1 0xE0 SHL PUSH1 0x0 MSTORE PUSH1 0x11 PUSH1 0x4 MSTORE PUSH1 0x24 PUSH1 0x0 REVERT JUMPDEST POP PUSH1 0x1 ADD SWAP1 JUMP JUMPDEST PUSH1 0x0 PUSH1 0x20 DUP3 DUP5 SUB SLT ISZERO PUSH2 0x1355 JUMPI PUSH1 0x0 DUP1 REVERT JUMPDEST POP MLOAD SWAP2 SWAP1 POP JUMP JUMPDEST PUSH1 0x0 PUSH1 0x20 DUP3 DUP5 SUB SLT ISZERO PUSH2 0x136E JUMPI PUSH1 0x0 DUP1 REVERT JUMPDEST DUP2 MLOAD PUSH2 0x5CE DUP2 PUSH2 0x1132 JUMP JUMPDEST PUSH1 0x0 JUMPDEST DUP4 DUP2 LT ISZERO PUSH2 0x1394 JUMPI DUP2 DUP2 ADD MLOAD DUP4 DUP3 ADD MSTORE PUSH1 0x20 ADD PUSH2 0x137C JUMP JUMPDEST DUP4 DUP2 GT ISZERO PUSH2 0x13A3 JUMPI PUSH1 0x0 DUP5 DUP5 ADD MSTORE JUMPDEST POP POP POP POP JUMP JUMPDEST PUSH1 0x0 DUP3 MLOAD PUSH2 0x13BB DUP2 DUP5 PUSH1 0x20 DUP8 ADD PUSH2 0x1379 JUMP JUMPDEST SWAP2 SWAP1 SWAP2 ADD SWAP3 SWAP2 POP POP JUMP JUMPDEST PUSH1 0x20 DUP2 MSTORE PUSH1 0x0 DUP3 MLOAD DUP1 PUSH1 0x20 DUP5 ADD MSTORE PUSH2 0x13E4 DUP2 PUSH1 0x40 DUP6 ADD PUSH1 0x20 DUP8 ADD PUSH2 0x1379 JUMP JUMPDEST PUSH1 0x1F ADD PUSH1 0x1F NOT AND SWAP2 SWAP1 SWAP2 ADD PUSH1 0x40 ADD SWAP3 SWAP2 POP POP JUMP INVALID LOG2 PUSH5 0x6970667358 0x22 SLT KECCAK256 PUSH5 0xAA7B7EE627 0xD9 0xC9 STATICCALL 0xCF CALLDATACOPY 0xC3 0x29 0xF8 SSTORE CALLDATALOAD SWAP3 AND CODESIZE 0xE1 0xB5 KECCAK256 LOG1 DUP16 RETURNDATASIZE LT SLOAD CALLCODE 0xBC JUMPI 0x23 PUSH18 0x64736F6C634300080D003300000000000000 "
        },
        "methodIdentifiers": {
          "KLAY()": "663db6ff",
          "claimRewards(uint256[],uint256[],bytes32[][])": "cbe81c8c",
          "claimRewardsByOwner(address[],uint256[],uint256[],bytes32[][])": "227a72e9",
          "depositReward(address,uint256,bytes32)": "dbd82687",
          "emergencyWithdraw(address)": "6ff1c9bc",
          "isDepositor(address)": "2f70d1ba",
          "isRewardCollected(address,uint256)": "ad2fec9e",
          "owner()": "8da5cb5b",
          "renounceOwnership()": "715018a6",
          "rewards(uint256)": "f301af42",
          "transferOwnership(address)": "f2fde38b",
          "updateDepositor(address,bool)": "7041828e"
        }
      }
    }
  }
}