{
  "_format": "hh-sol-artifact-1",
  "contractName": "KSinteractContract",
  "sourceName": "contracts/test/KSinteractContract.sol",
  "abi": [
    {
      "inputs": [],
      "stateMutability": "nonpayable",
      "type": "constructor"
    },
    {
      "anonymous": false,
      "inputs": [
        {
          "indexed": false,
          "internalType": "uint256",
          "name": "cash",
          "type": "uint256"
        },
        {
          "indexed": false,
          "internalType": "uint256",
          "name": "tb",
          "type": "uint256"
        },
        {
          "indexed": false,
          "internalType": "uint256",
          "name": "ts",
          "type": "uint256"
        },
        {
          "indexed": false,
          "internalType": "uint256",
          "name": "ers",
          "type": "uint256"
        }
      ],
      "name": "After",
      "type": "event"
    },
    {
      "anonymous": false,
      "inputs": [
        {
          "indexed": false,
          "internalType": "uint256",
          "name": "cash",
          "type": "uint256"
        },
        {
          "indexed": false,
          "internalType": "uint256",
          "name": "tb",
          "type": "uint256"
        },
        {
          "indexed": false,
          "internalType": "uint256",
          "name": "ts",
          "type": "uint256"
        },
        {
          "indexed": false,
          "internalType": "uint256",
          "name": "ers",
          "type": "uint256"
        }
      ],
      "name": "Before",
      "type": "event"
    },
    {
      "inputs": [
        {
          "internalType": "uint256",
          "name": "amount",
          "type": "uint256"
        }
      ],
      "name": "deposit",
      "outputs": [],
      "stateMutability": "nonpayable",
      "type": "function"
    },
    {
      "inputs": [
        {
          "internalType": "uint256",
          "name": "kusdtAmount",
          "type": "uint256"
        }
      ],
      "name": "withdraw1",
      "outputs": [],
      "stateMutability": "nonpayable",
      "type": "function"
    },
    {
      "inputs": [
        {
          "internalType": "uint256",
          "name": "ikusdtAmount",
          "type": "uint256"
        }
      ],
      "name": "withdraw2",
      "outputs": [],
      "stateMutability": "nonpayable",
      "type": "function"
    },
    {
      "inputs": [
        {
          "internalType": "uint256",
          "name": "amount",
          "type": "uint256"
        }
      ],
      "name": "withdrawUSDT",
      "outputs": [],
      "stateMutability": "nonpayable",
      "type": "function"
    }
  ],
  "bytecode": "0x60a060405234801561001057600080fd5b503360805260405163095ea7b360e01b8152734b419986e15018e6dc1c9dab1fa4824d8e2e06b560048201526305f5e100602482015273cee8faf64bb97a73bb51e115aa89c17ffa8dd1679063095ea7b3906044016020604051808303816000875af1158015610084573d6000803e3d6000fd5b505050506040513d601f19601f820116820180604052508101906100a891906100ae565b506100d7565b6000602082840312156100c057600080fd5b815180151581146100d057600080fd5b9392505050565b6080516108486101066000396000818160a10152818161013f015281816101ac015261026101526108486000f3fe608060405234801561001057600080fd5b506004361061004c5760003560e01c80630f87a0441461005157806334273351146100665780633ea521ef14610079578063b6b55f251461008c575b600080fd5b61006461005f3660046107b7565b61009f565b005b6100646100743660046107b7565b61013d565b6100646100873660046107b7565b6101aa565b61006461009a3660046107b7565b61025f565b7f00000000000000000000000000000000000000000000000000000000000000006001600160a01b031633146100d457600080fd5b604051632e1a7d4d60e01b815260048101829052734b419986e15018e6dc1c9dab1fa4824d8e2e06b590632e1a7d4d906024015b600060405180830381600087803b15801561012257600080fd5b505af1158015610136573d6000803e3d6000fd5b5050505050565b7f00000000000000000000000000000000000000000000000000000000000000006001600160a01b0316331461017257600080fd5b604051635521e9bf60e01b815260048101829052734b419986e15018e6dc1c9dab1fa4824d8e2e06b590635521e9bf90602401610108565b7f00000000000000000000000000000000000000000000000000000000000000006001600160a01b031633146101df57600080fd5b60405163a9059cbb60e01b81523360048201526024810182905273cee8faf64bb97a73bb51e115aa89c17ffa8dd1679063a9059cbb906044016020604051808303816000875af1158015610237573d6000803e3d6000fd5b505050506040513d601f19601f8201168201806040525081019061025b91906107d0565b5050565b7f00000000000000000000000000000000000000000000000000000000000000006001600160a01b0316331461029457600080fd5b6040516323b872dd60e01b81523360048201523060248201526044810182905273cee8faf64bb97a73bb51e115aa89c17ffa8dd167906323b872dd906064016020604051808303816000875af11580156102f2573d6000803e3d6000fd5b505050506040513d601f19601f8201168201806040525081019061031691906107d0565b507f92826a043b686131c31cb34cb18d1590c281d443dc387df8c1050d5b8569cec7734b419986e15018e6dc1c9dab1fa4824d8e2e06b56001600160a01b0316633b1d21a26040518163ffffffff1660e01b8152600401602060405180830381865afa15801561038a573d6000803e3d6000fd5b505050506040513d601f19601f820116820180604052508101906103ae91906107f9565b734b419986e15018e6dc1c9dab1fa4824d8e2e06b56001600160a01b03166347bd37186040518163ffffffff1660e01b8152600401602060405180830381865afa158015610400573d6000803e3d6000fd5b505050506040513d601f19601f8201168201806040525081019061042491906107f9565b734b419986e15018e6dc1c9dab1fa4824d8e2e06b56001600160a01b03166318160ddd6040518163ffffffff1660e01b8152600401602060405180830381865afa158015610476573d6000803e3d6000fd5b505050506040513d601f19601f8201168201806040525081019061049a91906107f9565b734b419986e15018e6dc1c9dab1fa4824d8e2e06b56001600160a01b031663182df0f56040518163ffffffff1660e01b8152600401602060405180830381865afa1580156104ec573d6000803e3d6000fd5b505050506040513d601f19601f8201168201806040525081019061051091906107f9565b60408051948552602085019390935291830152606082015260800160405180910390a1604051639e3a92ff60e01b815260048101829052734b419986e15018e6dc1c9dab1fa4824d8e2e06b590639e3a92ff90602401600060405180830381600087803b15801561058057600080fd5b505af1158015610594573d6000803e3d6000fd5b505050507f4957fcdf534fb9990ac06f283ae76282ceaffc45473bc74aaaa6cd159e5bce0a734b419986e15018e6dc1c9dab1fa4824d8e2e06b56001600160a01b0316633b1d21a26040518163ffffffff1660e01b8152600401602060405180830381865afa15801561060b573d6000803e3d6000fd5b505050506040513d601f19601f8201168201806040525081019061062f91906107f9565b734b419986e15018e6dc1c9dab1fa4824d8e2e06b56001600160a01b03166347bd37186040518163ffffffff1660e01b8152600401602060405180830381865afa158015610681573d6000803e3d6000fd5b505050506040513d601f19601f820116820180604052508101906106a591906107f9565b734b419986e15018e6dc1c9dab1fa4824d8e2e06b56001600160a01b03166318160ddd6040518163ffffffff1660e01b8152600401602060405180830381865afa1580156106f7573d6000803e3d6000fd5b505050506040513d601f19601f8201168201806040525081019061071b91906107f9565b734b419986e15018e6dc1c9dab1fa4824d8e2e06b56001600160a01b031663182df0f56040518163ffffffff1660e01b8152600401602060405180830381865afa15801561076d573d6000803e3d6000fd5b505050506040513d601f19601f8201168201806040525081019061079191906107f9565b60408051948552602085019390935291830152606082015260800160405180910390a150565b6000602082840312156107c957600080fd5b5035919050565b6000602082840312156107e257600080fd5b815180151581146107f257600080fd5b9392505050565b60006020828403121561080b57600080fd5b505191905056fea26469706673582212203f186d2be14f9f4481fb996b1c28e35a81e89c022b504fbb416f96247405e79e64736f6c634300080d0033",
  "linkReferences": {},
  "deployedLinkReferences": {}
}