{
  "_format": "hh-sol-artifact-1",
  "contractName": "MockUSDTPool",
  "sourceName": "contracts/test/MockUSDTPool.sol",
  "abi": [
    {
      "inputs": [
        {
          "internalType": "address",
          "name": "_kusdt",
          "type": "address"
        },
        {
          "internalType": "address",
          "name": "_ksp",
          "type": "address"
        }
      ],
      "payable": false,
      "stateMutability": "nonpayable",
      "type": "constructor"
    },
    {
      "anonymous": false,
      "inputs": [
        {
          "indexed": true,
          "internalType": "address",
          "name": "owner",
          "type": "address"
        },
        {
          "indexed": true,
          "internalType": "address",
          "name": "spender",
          "type": "address"
        },
        {
          "indexed": false,
          "internalType": "uint256",
          "name": "value",
          "type": "uint256"
        }
      ],
      "name": "Approval",
      "type": "event"
    },
    {
      "anonymous": false,
      "inputs": [
        {
          "indexed": true,
          "internalType": "address",
          "name": "from",
          "type": "address"
        },
        {
          "indexed": true,
          "internalType": "address",
          "name": "to",
          "type": "address"
        },
        {
          "indexed": false,
          "internalType": "uint256",
          "name": "value",
          "type": "uint256"
        }
      ],
      "name": "Transfer",
      "type": "event"
    },
    {
      "constant": true,
      "inputs": [
        {
          "internalType": "address",
          "name": "owner",
          "type": "address"
        },
        {
          "internalType": "address",
          "name": "spender",
          "type": "address"
        }
      ],
      "name": "allowance",
      "outputs": [
        {
          "internalType": "uint256",
          "name": "",
          "type": "uint256"
        }
      ],
      "payable": false,
      "stateMutability": "view",
      "type": "function"
    },
    {
      "constant": false,
      "inputs": [
        {
          "internalType": "address",
          "name": "spender",
          "type": "address"
        },
        {
          "internalType": "uint256",
          "name": "value",
          "type": "uint256"
        }
      ],
      "name": "approve",
      "outputs": [
        {
          "internalType": "bool",
          "name": "",
          "type": "bool"
        }
      ],
      "payable": false,
      "stateMutability": "nonpayable",
      "type": "function"
    },
    {
      "constant": false,
      "inputs": [
        {
          "internalType": "address",
          "name": "owner",
          "type": "address"
        },
        {
          "internalType": "address",
          "name": "spender",
          "type": "address"
        },
        {
          "internalType": "uint256",
          "name": "value",
          "type": "uint256"
        }
      ],
      "name": "approveInternal",
      "outputs": [],
      "payable": false,
      "stateMutability": "nonpayable",
      "type": "function"
    },
    {
      "constant": true,
      "inputs": [
        {
          "internalType": "address",
          "name": "account",
          "type": "address"
        }
      ],
      "name": "balanceOf",
      "outputs": [
        {
          "internalType": "uint256",
          "name": "",
          "type": "uint256"
        }
      ],
      "payable": false,
      "stateMutability": "view",
      "type": "function"
    },
    {
      "constant": false,
      "inputs": [
        {
          "internalType": "address",
          "name": "account",
          "type": "address"
        },
        {
          "internalType": "uint256",
          "name": "amount",
          "type": "uint256"
        }
      ],
      "name": "burn",
      "outputs": [],
      "payable": false,
      "stateMutability": "nonpayable",
      "type": "function"
    },
    {
      "constant": false,
      "inputs": [
        {
          "internalType": "address",
          "name": "account",
          "type": "address"
        },
        {
          "internalType": "uint256",
          "name": "amount",
          "type": "uint256"
        }
      ],
      "name": "burnFrom",
      "outputs": [],
      "payable": false,
      "stateMutability": "nonpayable",
      "type": "function"
    },
    {
      "constant": false,
      "inputs": [],
      "name": "claimReward",
      "outputs": [],
      "payable": false,
      "stateMutability": "nonpayable",
      "type": "function"
    },
    {
      "constant": false,
      "inputs": [
        {
          "internalType": "uint256",
          "name": "depositAmount",
          "type": "uint256"
        }
      ],
      "name": "depositKct",
      "outputs": [],
      "payable": false,
      "stateMutability": "nonpayable",
      "type": "function"
    },
    {
      "constant": true,
      "inputs": [],
      "name": "exchangeRateStored",
      "outputs": [
        {
          "internalType": "uint256",
          "name": "",
          "type": "uint256"
        }
      ],
      "payable": false,
      "stateMutability": "view",
      "type": "function"
    },
    {
      "constant": true,
      "inputs": [],
      "name": "getCash",
      "outputs": [
        {
          "internalType": "uint256",
          "name": "",
          "type": "uint256"
        }
      ],
      "payable": false,
      "stateMutability": "view",
      "type": "function"
    },
    {
      "constant": false,
      "inputs": [
        {
          "internalType": "address",
          "name": "account",
          "type": "address"
        },
        {
          "internalType": "uint256",
          "name": "amount",
          "type": "uint256"
        }
      ],
      "name": "mint",
      "outputs": [],
      "payable": false,
      "stateMutability": "nonpayable",
      "type": "function"
    },
    {
      "constant": false,
      "inputs": [
        {
          "internalType": "address",
          "name": "recipient",
          "type": "address"
        },
        {
          "internalType": "uint256",
          "name": "amount",
          "type": "uint256"
        }
      ],
      "name": "safeTransfer",
      "outputs": [],
      "payable": false,
      "stateMutability": "nonpayable",
      "type": "function"
    },
    {
      "constant": false,
      "inputs": [
        {
          "internalType": "address",
          "name": "recipient",
          "type": "address"
        },
        {
          "internalType": "uint256",
          "name": "amount",
          "type": "uint256"
        },
        {
          "internalType": "bytes",
          "name": "data",
          "type": "bytes"
        }
      ],
      "name": "safeTransfer",
      "outputs": [],
      "payable": false,
      "stateMutability": "nonpayable",
      "type": "function"
    },
    {
      "constant": false,
      "inputs": [
        {
          "internalType": "address",
          "name": "sender",
          "type": "address"
        },
        {
          "internalType": "address",
          "name": "recipient",
          "type": "address"
        },
        {
          "internalType": "uint256",
          "name": "amount",
          "type": "uint256"
        }
      ],
      "name": "safeTransferFrom",
      "outputs": [],
      "payable": false,
      "stateMutability": "nonpayable",
      "type": "function"
    },
    {
      "constant": false,
      "inputs": [
        {
          "internalType": "address",
          "name": "sender",
          "type": "address"
        },
        {
          "internalType": "address",
          "name": "recipient",
          "type": "address"
        },
        {
          "internalType": "uint256",
          "name": "amount",
          "type": "uint256"
        },
        {
          "internalType": "bytes",
          "name": "data",
          "type": "bytes"
        }
      ],
      "name": "safeTransferFrom",
      "outputs": [],
      "payable": false,
      "stateMutability": "nonpayable",
      "type": "function"
    },
    {
      "constant": true,
      "inputs": [
        {
          "internalType": "bytes4",
          "name": "interfaceId",
          "type": "bytes4"
        }
      ],
      "name": "supportsInterface",
      "outputs": [
        {
          "internalType": "bool",
          "name": "",
          "type": "bool"
        }
      ],
      "payable": false,
      "stateMutability": "view",
      "type": "function"
    },
    {
      "constant": true,
      "inputs": [],
      "name": "totalBorrows",
      "outputs": [
        {
          "internalType": "uint256",
          "name": "",
          "type": "uint256"
        }
      ],
      "payable": false,
      "stateMutability": "view",
      "type": "function"
    },
    {
      "constant": true,
      "inputs": [],
      "name": "totalReserves",
      "outputs": [
        {
          "internalType": "uint256",
          "name": "",
          "type": "uint256"
        }
      ],
      "payable": false,
      "stateMutability": "view",
      "type": "function"
    },
    {
      "constant": true,
      "inputs": [],
      "name": "totalSupply",
      "outputs": [
        {
          "internalType": "uint256",
          "name": "",
          "type": "uint256"
        }
      ],
      "payable": false,
      "stateMutability": "view",
      "type": "function"
    },
    {
      "constant": false,
      "inputs": [
        {
          "internalType": "address",
          "name": "recipient",
          "type": "address"
        },
        {
          "internalType": "uint256",
          "name": "amount",
          "type": "uint256"
        }
      ],
      "name": "transfer",
      "outputs": [
        {
          "internalType": "bool",
          "name": "",
          "type": "bool"
        }
      ],
      "payable": false,
      "stateMutability": "nonpayable",
      "type": "function"
    },
    {
      "constant": false,
      "inputs": [
        {
          "internalType": "address",
          "name": "sender",
          "type": "address"
        },
        {
          "internalType": "address",
          "name": "recipient",
          "type": "address"
        },
        {
          "internalType": "uint256",
          "name": "amount",
          "type": "uint256"
        }
      ],
      "name": "transferFrom",
      "outputs": [
        {
          "internalType": "bool",
          "name": "",
          "type": "bool"
        }
      ],
      "payable": false,
      "stateMutability": "nonpayable",
      "type": "function"
    },
    {
      "constant": false,
      "inputs": [
        {
          "internalType": "address",
          "name": "from",
          "type": "address"
        },
        {
          "internalType": "address",
          "name": "to",
          "type": "address"
        },
        {
          "internalType": "uint256",
          "name": "value",
          "type": "uint256"
        }
      ],
      "name": "transferInternal",
      "outputs": [],
      "payable": false,
      "stateMutability": "nonpayable",
      "type": "function"
    },
    {
      "constant": false,
      "inputs": [
        {
          "internalType": "uint256",
          "name": "withdrawAmount",
          "type": "uint256"
        }
      ],
      "name": "withdraw",
      "outputs": [],
      "payable": false,
      "stateMutability": "nonpayable",
      "type": "function"
    },
    {
      "constant": false,
      "inputs": [
        {
          "internalType": "uint256",
          "name": "withdrawTokens",
          "type": "uint256"
        }
      ],
      "name": "withdrawByAmount",
      "outputs": [],
      "payable": false,
      "stateMutability": "nonpayable",
      "type": "function"
    }
  ],
  "bytecode": "0x60806040523480156200001157600080fd5b50604051620016d7380380620016d7833981810160405260408110156200003757600080fd5b508051602090910151336402540be400620000626301ffc9a760e01b6001600160e01b03620000c616565b6200007d636578737160e01b6001600160e01b03620000c616565b6200009282826001600160e01b036200014b16565b5050600480546001600160a01b039384166001600160a01b03199182161790915560058054929093169116179055620002b2565b6001600160e01b0319808216141562000126576040805162461bcd60e51b815260206004820152601b60248201527f4b495031333a20696e76616c696420696e746572666163652069640000000000604482015290519081900360640190fd5b6001600160e01b0319166000908152602081905260409020805460ff19166001179055565b6001600160a01b038216620001a7576040805162461bcd60e51b815260206004820152601e60248201527f4b4950373a206d696e7420746f20746865207a65726f20616464726573730000604482015290519081900360640190fd5b620001c3816003546200025060201b620012311790919060201c565b6003556001600160a01b038216600090815260016020908152604090912054620001f89183906200123162000250821b17901c565b6001600160a01b03831660008181526001602090815260408083209490945583518581529351929391927fddf252ad1be2c89b69c2b068fc378daa952ba7f163c4a11628f55a4df523b3ef9281900390910190a35050565b600082820183811015620002ab576040805162461bcd60e51b815260206004820152601b60248201527f536166654d6174683a206164646974696f6e206f766572666c6f770000000000604482015290519081900360640190fd5b9392505050565b61141580620002c26000396000f3fe608060405234801561001057600080fd5b50600436106101585760003560e01c80635521e9bf116100c35780639e3a92ff1161007c5780639e3a92ff146103d8578063a9059cbb146103f5578063b88a802f14610421578063b88d4fde14610429578063dd62ed3e146104ef578063eb7955491461051d57610158565b80635521e9bf1461030757806356189cb41461032457806370a082311461035a57806379cc6790146103805780638f840ddd146102715780639dc29fac146103ac57610158565b80632e1a7d4d116101155780632e1a7d4d146102545780633b1d21a21461027157806340c10f1914610279578063423f6cef146102a557806342842e0e146102d157806347bd37181461027157610158565b806301ffc9a71461015d578063095ea7b31461019857806318160ddd146101c4578063182df0f5146101de578063222f5be0146101e657806323b872dd1461021e575b600080fd5b6101846004803603602081101561017357600080fd5b50356001600160e01b0319166105d8565b604080519115158252519081900360200190f35b610184600480360360408110156101ae57600080fd5b506001600160a01b0381351690602001356105f7565b6101cc61060d565b60408051918252519081900360200190f35b6101cc610613565b61021c600480360360608110156101fc57600080fd5b506001600160a01b038135811691602081013590911690604001356106ac565b005b6101846004803603606081101561023457600080fd5b506001600160a01b038135811691602081013590911690604001356106bc565b61021c6004803603602081101561026a57600080fd5b5035610713565b6101cc610836565b61021c6004803603604081101561028f57600080fd5b506001600160a01b03813516906020013561083b565b61021c600480360360408110156102bb57600080fd5b506001600160a01b038135169060200135610845565b61021c600480360360608110156102e757600080fd5b506001600160a01b0381358116916020810135909116906040013561085f565b61021c6004803603602081101561031d57600080fd5b503561087a565b61021c6004803603606081101561033a57600080fd5b506001600160a01b0381358116916020810135909116906040013561099b565b6101cc6004803603602081101561037057600080fd5b50356001600160a01b03166109a6565b61021c6004803603604081101561039657600080fd5b506001600160a01b0381351690602001356109c1565b61021c600480360360408110156103c257600080fd5b506001600160a01b0381351690602001356109cb565b61021c600480360360208110156103ee57600080fd5b50356109d5565b6101846004803603604081101561040b57600080fd5b506001600160a01b038135169060200135610afa565b61021c610b07565b61021c6004803603608081101561043f57600080fd5b6001600160a01b0382358116926020810135909116916040820135919081019060808101606082013564010000000081111561047a57600080fd5b82018360208201111561048c57600080fd5b803590602001918460018302840111640100000000831117156104ae57600080fd5b91908080601f016020809104026020016040519081016040528093929190818152602001838380828437600092019190915250929550610b86945050505050565b6101cc6004803603604081101561050557600080fd5b506001600160a01b0381358116916020013516610bdf565b61021c6004803603606081101561053357600080fd5b6001600160a01b038235169160208101359181019060608101604082013564010000000081111561056357600080fd5b82018360208201111561057557600080fd5b8035906020019184600183028401116401000000008311171561059757600080fd5b91908080601f016020809104026020016040519081016040528093929190818152602001838380828437600092019190915250929550610c0a945050505050565b6001600160e01b03191660009081526020819052604090205460ff1690565b6000610604338484610c5c565b50600192915050565b60035490565b600061061d61060d565b60048054604080516370a0823160e01b81523093810193909352516001600160a01b03909116916370a08231916024808301926020929190829003018186803b15801561066957600080fd5b505afa15801561067d573d6000803e3d6000fd5b505050506040513d602081101561069357600080fd5b5051670de0b6b3a764000002816106a657fe5b04905090565b6106b7838383610d48565b505050565b60006106c9848484610d48565b6001600160a01b038416600090815260026020908152604080832033808552925290912054610709918691610704908663ffffffff610e8c16565b610c5c565b5060019392505050565b60048054604080516370a0823160e01b81523093810193909352516000926001600160a01b03909216916370a08231916024808301926020929190829003018186803b15801561076257600080fd5b505afa158015610776573d6000803e3d6000fd5b505050506040513d602081101561078c57600080fd5b505161079661060d565b83028161079f57fe5b600480546040805163a9059cbb60e01b8152339381019390935260248301879052519390920493506001600160a01b039091169163a9059cbb916044808201926020929091908290030181600087803b1580156107fb57600080fd5b505af115801561080f573d6000803e3d6000fd5b505050506040513d602081101561082557600080fd5b5061083290503382610ed5565b5050565b600090565b6108328282610fc6565b610832828260405180602001604052806000815250610c0a565b6106b783838360405180602001604052806000815250610b86565b600061088461060d565b60048054604080516370a0823160e01b815230938101939093525185926001600160a01b03909216916370a08231916024808301926020929190829003018186803b1580156108d257600080fd5b505afa1580156108e6573d6000803e3d6000fd5b505050506040513d60208110156108fc57600080fd5b5051028161090657fe5b600480546040805163a9059cbb60e01b81523393810193909352939092046024820181905292519293506001600160a01b039091169163a9059cbb916044808201926020929091908290030181600087803b15801561096457600080fd5b505af1158015610978573d6000803e3d6000fd5b505050506040513d602081101561098e57600080fd5b5061083290503383610ed5565b6106b7838383610c5c565b6001600160a01b031660009081526001602052604090205490565b61083282826110b8565b6108328282610ed5565b60048054604080516370a0823160e01b81523093810193909352516000926001600160a01b03909216916370a08231916024808301926020929190829003018186803b158015610a2457600080fd5b505afa158015610a38573d6000803e3d6000fd5b505050506040513d6020811015610a4e57600080fd5b5051610a5861060d565b830281610a6157fe5b60048054604080516323b872dd60e01b8152339381019390935230602484015260448301879052519390920493506001600160a01b03909116916323b872dd916064808201926020929091908290030181600087803b158015610ac357600080fd5b505af1158015610ad7573d6000803e3d6000fd5b505050506040513d6020811015610aed57600080fd5b5061083290503382610fc6565b6000610604338484610d48565b6005546040805163a9059cbb60e01b8152336004820152612710602482015290516001600160a01b039092169163a9059cbb916044808201926020929091908290030181600087803b158015610b5c57600080fd5b505af1158015610b70573d6000803e3d6000fd5b505050506040513d602081101561083257600080fd5b610b918484846106bc565b50610b9e848484846110fd565b610bd95760405162461bcd60e51b815260040180806020018281038252602e81526020018061134a602e913960400191505060405180910390fd5b50505050565b6001600160a01b03918216600090815260026020908152604080832093909416825291909152205490565b610c148383610afa565b50610c21338484846110fd565b6106b75760405162461bcd60e51b815260040180806020018281038252602e81526020018061134a602e913960400191505060405180910390fd5b6001600160a01b038316610ca15760405162461bcd60e51b81526004018080602001828103825260238152602001806113be6023913960400191505060405180910390fd5b6001600160a01b038216610ce65760405162461bcd60e51b81526004018080602001828103825260218152602001806113296021913960400191505060405180910390fd5b6001600160a01b03808416600081815260026020908152604080832094871680845294825291829020859055815185815291517f8c5be1e5ebec7d5bd14f71427d1e84f3dd0314c0f7b2291e5b200ac8c7c3b9259281900390910190a3505050565b6001600160a01b038316610d8d5760405162461bcd60e51b815260040180806020018281038252602481526020018061139a6024913960400191505060405180910390fd5b6001600160a01b038216610dd25760405162461bcd60e51b81526004018080602001828103825260228152602001806113786022913960400191505060405180910390fd5b6001600160a01b038316600090815260016020526040902054610dfb908263ffffffff610e8c16565b6001600160a01b038085166000908152600160205260408082209390935590841681522054610e30908263ffffffff61123116565b6001600160a01b0380841660008181526001602090815260409182902094909455805185815290519193928716927fddf252ad1be2c89b69c2b068fc378daa952ba7f163c4a11628f55a4df523b3ef92918290030190a3505050565b6000610ece83836040518060400160405280601e81526020017f536166654d6174683a207375627472616374696f6e206f766572666c6f77000081525061128b565b9392505050565b6001600160a01b038216610f30576040805162461bcd60e51b815260206004820181905260248201527f4b4950373a206275726e2066726f6d20746865207a65726f2061646472657373604482015290519081900360640190fd5b600354610f43908263ffffffff610e8c16565b6003556001600160a01b038216600090815260016020526040902054610f6f908263ffffffff610e8c16565b6001600160a01b0383166000818152600160209081526040808320949094558351858152935191937fddf252ad1be2c89b69c2b068fc378daa952ba7f163c4a11628f55a4df523b3ef929081900390910190a35050565b6001600160a01b038216611021576040805162461bcd60e51b815260206004820152601e60248201527f4b4950373a206d696e7420746f20746865207a65726f20616464726573730000604482015290519081900360640190fd5b600354611034908263ffffffff61123116565b6003556001600160a01b038216600090815260016020526040902054611060908263ffffffff61123116565b6001600160a01b03831660008181526001602090815260408083209490945583518581529351929391927fddf252ad1be2c89b69c2b068fc378daa952ba7f163c4a11628f55a4df523b3ef9281900390910190a35050565b6110c28282610ed5565b6001600160a01b038216600090815260026020908152604080832033808552925290912054610832918491610704908563ffffffff610e8c16565b6000611111846001600160a01b0316611322565b61111d57506001611229565b604051634e8c461160e11b815233600482018181526001600160a01b03888116602485015260448401879052608060648501908152865160848601528651600095928a1694639d188c229490938c938b938b939260a4019060208501908083838e5b8381101561119757818101518382015260200161117f565b50505050905090810190601f1680156111c45780820380516001836020036101000a031916815260200191505b5095505050505050602060405180830381600087803b1580156111e657600080fd5b505af11580156111fa573d6000803e3d6000fd5b505050506040513d602081101561121057600080fd5b50516001600160e01b031916634e8c461160e11b149150505b949350505050565b600082820183811015610ece576040805162461bcd60e51b815260206004820152601b60248201527f536166654d6174683a206164646974696f6e206f766572666c6f770000000000604482015290519081900360640190fd5b6000818484111561131a5760405162461bcd60e51b81526004018080602001828103825283818151815260200191508051906020019080838360005b838110156112df5781810151838201526020016112c7565b50505050905090810190601f16801561130c5780820380516001836020036101000a031916815260200191505b509250505060405180910390fd5b505050900390565b3b15159056fe4b4950373a20617070726f766520746f20746865207a65726f20616464726573734b4950373a207472616e7366657220746f206e6f6e204b495037526563656976657220696d706c656d656e7465724b4950373a207472616e7366657220746f20746865207a65726f20616464726573734b4950373a207472616e736665722066726f6d20746865207a65726f20616464726573734b4950373a20617070726f76652066726f6d20746865207a65726f2061646472657373a265627a7a7231582022ddb5693b3774e9b2cec71286106b81bba51b545b95e3808e4caa9028152e4d64736f6c63430005110032",
  "linkReferences": {},
  "deployedLinkReferences": {}
}